:020000040800F2
:1000000040100020710200089F200008972000087F
:100010009B2000083D0B0008292600080000000076
:10002000000000000000000000000000A320000805
:10003000410B000800000000A1200008A5200008D6
:100040008B0200088B0200088B0200088B0200085C
:100050008B0200088B0200088B0200088B0200084C
:100060008B0200088B0200088B0200088B0200083C
:100070008B0200088B0200088B0200088B0200082C
:100080008B0200088B0200088B0200088B0200081C
:100090008B0200088B0200088B0200088B0200080C
:1000A0008B0200088B0200088B0200088B020008FC
:1000B0008B0200088B0200088B0200088B020008EC
:1000C0008B0200088B0200088B0200088B020008DC
:1000D0008B020008192600088B0200088B0200081A
:1000E0008B0200088B0200088B0200088B020008BC
:1000F0008B0200088B0200088B0200088B020008AC
:100100008B0200088B0200088B0200088B0200089B
:100110008B0200088B0200088B020008C120000837
:100120008B0200088B0200088B0200088B0200087B
:100130008B0200088B0200088B0200088B0200086B
:100140008B0200088B0200088B0200088B0200085B
:100150008B0200088B0200088B0200088B0200084B
:100160008B0200088B0200088B0200088B0200083B
:100170008B0200088B0200088B02000800000000C0
:100180008B0200088B02000800F002F800F061F812
:100190000AA090E8000C82448344AAF10107DA45E2
:1001A00001D100F056F8AFF2090EBAE80F0013F0D3
:1001B000010F18BFFB1A43F001031847F05C010060
:1001C000105D0100103A24BF78C878C1FAD85207F0
:1001D00024BF30C830C144BF04680C6070470000C1
:1001E0000023002400250026103A28BF78C1FBD840
:1001F000520728BF30C148BF0B607047692900F023
:100200005181642900F04E81752900F04B816F29DE
:1002100000F0E281782900F007820368DB0928BF3B
:1002200041F08001632900F09A83E32900F0C08344
:10023000002070471FB503F003F800F0EDFB040049
:100240000020002102F0E6FF401C60601FBD10B5D9
:1002500010BD00F0EDFB1146FFF7ECFF02F0F6FADF
:1002600000F00BFC03B4FFF7F2FF03BC02F001FA4D
:100270000948804709480047FEE7FEE7FEE7FEE73A
:10028000FEE7FEE7FEE7FEE7FEE7FEE70448054976
:10029000054A064B70470000AD20000889010008A0
:1002A000400A002040100020400C0020400C00209C
:1002B000704753EA020C00F069802DE9F04B4FF0D3
:1002C0000006002B1FBFB3FA83F503FA05F424FAE6
:1002D00005F65E4012BF1643B2FA82F502FA05F443
:1002E000C5F120051EBF22FA05FC44EA0C042035A6
:1002F00056EA044C4FEA144418BF641C4FF000083F
:100300004FF00009904271EB030C39D3002919BF5B
:10031000B1FA81F701FA07F6B0FA80F700FA07F6AA
:10032000C7F120071EBF20FA07FC46EA0C0620375B
:10033000B6FBF4FCA7EB0507103F07F01F0BCBF152
:1003400020060CFA0BFB2CFA06F644BFB346002637
:10035000202FA4BF5E464FF0000B5BEA060C08BFDF
:100360004FF0010B19EB0B09ABFB027C48EB0608C5
:10037000C01B06FB02CC0BFB03CC71EB0C01C1E7ED
:100380000B46024641464846BDE8F08B13B54FF098
:1003900000004FF00001AFF30080BDE81C40704743
:1003A0000FB4044910B503AA029800F0E5FA10BC96
:1003B0005DF814FB040000200FB41CB5074B06AA1F
:1003C0007B4469460090059800F0A7FA0020694632
:1003D00000F0B6FA1CBC5DF814FB00007D050000BF
:1003E00070B5044685690068C10601D5302600E075
:1003F0002026C00707D070BDD4E9012130469047C0
:10040000206A401C20626D1EF6D570BD70B5044692
:1004100085690078C00707D170BDD4E9012120208B
:100420009047206A401C20626D1EF6D570BD096899
:100430004A0501D540B27047C905FCD500B27047E6
:1004400009684A0501D5C0B27047C905FCD580B21C
:10045000704770B50C460546012A05D028788006FD
:1004600000D5EA69002302E0012305E05B1C93420A
:1004700002D2E05C0028F9D1A869E618C01AA86188
:10048000286A184428622846FFF7AAFF04E0D5E945
:10049000012114F8010B9047B442F8D32846FFF726
:1004A000B5FF70BD2DE9F04106460024106875299E
:1004B000314616A510D0FFF7BAFF002802DA4042F5
:1004C00013A507E031688A0701D512A502E04907A4
:1004D00004D511A5012401E0FFF7B2FF00210A2293
:1004E00006F1240709E0B0FBF2FCB0FBF2F302FBDB
:1004F0001C00303078541846491C0028F3D123469C
:100500002A463046BDE8F04100F0A9B900000000DD
:100510002D0000002B000000200000002DE9FF5FEF
:1005200015468A460446DFF8AC80F8440027D8E92F
:1005300000103E46CDE9001010E03AF816106A4669
:1005400002A800F041FA411C07D02178890603D5A2
:10055000E269391891420DD80744761C207880064C
:1005600002D5E069B84205DDAE42E6DB3AF8160096
:100570000028E2D1A069C01BA0612046FFF730FF30
:10058000D8E90010CDE90010002017E03AF8181063
:100590006A4602A800F018FAB0F1FF3F81460BD07E
:1005A00000250DF1080B05E0D4E901211BF8050039
:1005B00090476D1C4D45F7D308F10100B0428046CD
:1005C000E4DB206A384420622046FFF71FFFBDE8C5
:1005D000FF9F00003A59010070B50446214610689B
:1005E000FFF72EFF002104F1240505E000F00702CB
:1005F0003032C0086A54491C0028F7D12068002313
:1006000007A2050707D5800600D421B1E0690123C0
:1006100004A2401EE0612046BDE8704000F01FB912
:10062000000000003000000070B504460D46214671
:100630001068FFF705FF2188090502D50F4A7A44A3
:1006400002E00E4A7A440E32002104F1240305E050
:1006500000F00F060009965D5E54491C0028F7D192
:1006600020780023000704D5702D02D009B10223A1
:1006700011322046BDE8704000F0F1B82E5801005C
:100680002DE9F05F894604464FF0000ADFF874B1A7
:10069000FB44C0F820A02046E1688847002874D0B9
:1006A000252806D0D4E901219047206A401C206209
:1006B000F1E700265F462046E16888472028054686
:1006C00007DB312D05D2781910F8200C08B106434C
:1006D000F1E7B00701D526F00406C4F81CA00027F6
:1006E000C4F818A02A2D09D0284601F0BBFF38B362
:1006F00004EB8708303DC8F8185019E059F8041B7E
:10070000204604EB87029161E1688847012F054686
:1007100018D1E069002820DA26F020061DE0D8F87C
:10072000180000EB800005EB40003038C8F81800D6
:100730002046E1688847054601F094FF0028EED185
:10074000012F0AD02E2D08D12046E16888477F1C52
:100750000546022F46F02006C4DBA069002803DA14
:10076000404246F00106A061F00701D026F01006D5
:100770006C2D0BD0682D09D04C2D39D06A2D35D079
:10078000742D35D07A2D33D016E038E0E1682F464D
:1007900020468847B842054609D16C2F26D04FF431
:1007A0008060E168064320468847054604E06C2FD8
:1007B0001AD04FF4807006430DB3A5F141001928FB
:1007C00002D8203546F400664A462946204626606F
:1007D0004E46FFF713FD80B101280BD0F61D26F021
:1007E000070000F1080956E74020E4E78020D8E739
:1007F0000020D6E706F104094DE7284652E7206AB3
:10080000BDE8F09F045801004FF0000200B5134608
:1008100094469646203922BFA0E80C50A0E80C5020
:10082000B1F12001BFF4F7AF090728BFA0E80C50D1
:1008300048BF0CC05DF804EB890028BF40F8042BCA
:1008400008BF704748BF20F8022B11F0804F18BF37
:1008500000F8012B704770477047704770472DE9CB
:10086000F0470D4699469246044600F12408016877
:10087000880604D5E06921F01001216000E0012024
:10088000A84201DD471B00E00027A1697A1902EBAD
:100890000900081AA0612078C00602D42046FFF79C
:1008A0009FFD002608E0D4E901211AF806009047D0
:1008B000206A401C761C20624E45F4DB2078C0067E
:1008C0000AD52046FFF78CFD06E0D4E9012130204F
:1008D0009047206A401C2062381EA7F10107F4DC13
:1008E00007E0D4E9012118F805009047206A401C70
:1008F0002062281EA5F10105F3DC2046FFF786FDE6
:100900002078000602D50220BDE8F0870120FBE731
:1009100001694A1C02610878704700B58FB0CDE9C3
:1009200001310021059105497944CDE903101146B3
:100930006846FFF7A5FE0FB000BD0000E5FFFFFF12
:100940000A6802F8010B0A60704710B5436913B1D9
:10095000AFF3008001E0FFF77CFD012010BD1278AD
:1009600000F124010A7000224A700122EDE71168AB
:100970004FF0FF32E9E70000074B70B50D467B44AE
:10098000FFF7CBFF0446284600F04AF810B14FF0BD
:10099000FF3070BD204670BD5F1D000010B543697B
:1009A00013B1AFF3008001E0FFF7B8FD012010BDE7
:1009B000128800F1240182840022C2840122EDE722
:1009C00011684FF0FF32E9E770B516460C46054650
:1009D00000F01AF8036893F80101012806D0FF2CF3
:1009E0000FD8185D68B101202C7070BDD3F80701D5
:1009F0003246214603F2071303442846BDE87040FF
:100A000018474FF0FF3070BD10B500F005F8001D1D
:100A100010BD00BF0128000000487047FC090020FD
:100A2000007B00F08000704700487047DC09002020
:100A30007546FFF7F9FFAE4605006946534620F0BC
:100A40000700854618B020B5FFF720FCBDE8204020
:100A50004FF000064FF000074FF000084FF0000B7A
:100A600021F00701AC46ACE8C009ACE8C009ACE82D
:100A7000C009ACE8C0098D46704710B50446AFF315
:100A800000802046BDE81040FFF7ECBB4FF0013C72
:100A900050F8042B51F8043B9A4221D1A2EB0C03ED
:100AA000934313EACC1317D150F8042B51F8043BAD
:100AB0009A4215D1A2EB0C03934313EACC130BD14A
:100AC00050F8042B51F8043B9A4209D1A2EB0C03D5
:100AD000934313EACC13DBD04FF00000704700BF04
:100AE000D01A01BAB1FA81F101F0180122FA01F02D
:100AF000CB40C1F12001DBB2C0B2C01A2CFA01F325
:100B0000D11A914311EAC311E6D1704770B504467A
:100B10000D4600210748816080218161C4604560E5
:100B2000054804490860084600F0FAFD014800F055
:100B30004FFE70BD940900200014004000BFFEE786
:100B4000704770B50446A56D00F072F9064694F83A
:100B50003500022808D08020606500BF002084F89E
:100B6000340000BF012070BD2068006820F016002E
:100B7000216808602068406920F080002168486191
:100B8000206C08B9A06C28B12068006820F008002B
:100B9000216808602068006820F001002168086072
:100BA00010E000F045F9801B05280BD92020606576
:100BB000032084F8350000BF002084F8340000BF13
:100BC0000320D0E72068006800F001000028E8D189
:100BD00094F85C103F208840A860012084F835001C
:100BE00000BF002084F8340000BF00BFBBE701460F
:100BF00091F83500022803D0802048650120704715
:100C0000052081F835000868006820F001000A68B6
:100C100010600020F3E710B50446A0B201F032FDE9
:100C200010BD0000F8B502460B4600250024002048
:100C30000021D6E0012606FA01F51E6806EA050441
:100C4000AC4274D11E7906F00306012E04D01E7941
:100C500006F00306022E13D190684F000326BE4013
:100C6000B0434F00DE68BE403043906050680126BC
:100C70008E40B0431E79C6F300168E40304350605C
:100C80001E7906F00306032E09D0D0684F00032614
:100C9000BE40B0434F009E68BE403043D0601E79D6
:100CA00006F00306022E13D1CF0802F1200656F8F3
:100CB00027004E07F70E0F26BE40B0434F07FF0E2A
:100CC0001E69BE403043CF0802F1200646F82700D7
:100CD00010684F000326BE40B0431E7906F003069D
:100CE0004F00BE40304310605E6806F44036002E70
:100CF00076D000BF002600963C4E366846F480460B
:100D00003A4F3E603E46366806F48046009600BF85
:100D100000BF374E8F0856F827008E07370F0F2673
:100D2000BE40B043334EB24202D1002624E057E029
:100D3000314EB24201D101261EE0304EB24201D105
:100D4000022619E02E4EB24201D1032614E02D4EA8
:100D5000B24201D104260FE02B4EB24201D105264A
:100D60000AE02A4EB24201D1062605E0284EB242E0
:100D700001D1072600E008268F073F0FBE40304311
:100D80001B4E8F0846F82700224E3068A0435E684D
:100D900006F4801606B120431E4E3060361D3068C2
:100DA000A0435E6806F4001606B12043194E361DB6
:100DB0003060184E361F3068A0435E6806F4003677
:100DC00006B12043134E361F3060361F3068A043F3
:100DD0005E6806F4803606B120430E4E083E306051
:100DE000491C1029FFF426AFF8BD0000443802402A
:100DF00008380140000002400004024000080240A0
:100E0000000C024000100240001402400018024092
:100E1000001C0240083C01400AB1816101E00B0462
:100E20008361704701480068000C7047002004E0AF
:100E30000148006870470000100000200348006867
:100E400003490978084401490860704710000020F0
:100E50001800002010B50A48006840F400700849E6
:100E600008600846006840F480600860032000F0D5
:100E700099F80F2000F006F800F02AF8002010BDC5
:100E8000003C024070B504460E4800784FF47A7179
:100E9000B1FBF0F00C490968B1FBF0F5284600F011
:100EA00023FC08B1012070BD102C07D2002221467E
:100EB000501E00F039F80548046001E00120F2E717
:100EC0000020F0E71800002000000020140000209F
:100ED0007047000010B50146084600280BDB00F003
:100EE0001F0301229A40054B440943F82420BFF315
:100EF0004F8FBFF36F8F00BF10BD000080E100E097
:100F00000146084600280DDB00BF00BF00F01F03AC
:100F100001229A4043099B0003F1E023C3F800211A
:100F200000BF00BF00BF70472DE9F05F80460D464F
:100F30001646002701F07AFB074639462A46334613
:100F400001F00700C0F1070ABAF1040F02D94FF00F
:100F5000040A01E0C0F1070AD14600F1040ABAF11F
:100F6000070F02D24FF0000A01E0A0F1030AD446B5
:100F70004FF0010A0AFA09FAAAF1010A0AEA020A7A
:100F80000AFA0CFA4FF0010B0BFA0CFBABF1010B58
:100F90000BEA030B4AEA0B042146404601F04EFBE4
:100FA000BDE8F09F00BF00F00702064B19684FF63E
:100FB000FF031940044B0B4343EA0221014B196024
:100FC00000BF70470CED00E00000FA0570B5044664
:100FD0000D460CB9012070BD5848006800F00700AC
:100FE000A84209D255490D700846006800F0070074
:100FF000A84201D00120EEE7207800F0020002288C
:101000001DD1207800F00400042805D14C48006868
:1010100040F4E0504A490860207800F008000828B1
:1010200005D14748006840F460404549086044489D
:10103000006820F0F000A16808434149086020786A
:1010400000F00100A8B36068012807D13C480838C7
:101050000068C0F34040B8B90120BCE760680228CE
:1010600002D06068032807D1354808380068C0F30B
:10107000406048B90120AEE7314808380068C0F345
:10108000400008B90120A6E72D48006820F00300C1
:10109000616808432A490860FFF7CAFE064609E06E
:1010A000FFF7C6FE801B41F28831884202D9032037
:1010B00091E707E02248006800F00C006168B0EB9F
:1010C000810FEDD11D48006800F00700A84209D942
:1010D0001A490D700846006800F00700A84201D0C8
:1010E000012078E7207800F00400042807D1144894
:1010F000006820F4E050E168084311490860207856
:1011000000F00800082808D10D48006820F460406D
:10111000216940EAC1000A49086000F03FF8084927
:101120000968C1F30311074A515CC84006490860C9
:1011300006480068FFF7A6FE00204CE7003C02408E
:10114000083802404A320008000000201400002045
:1011500001480068704700000000002000B5FFF75C
:10116000F7FF04490968C1F38221034A515CC84072
:1011700000BD0000083802405A32000800B5FFF7F1
:10118000E7FF04490968C1F34231034A515CC84092
:1011900000BD0000083802405A3200082DE9F0472F
:1011A000002400250026A1462548006800F00C0018
:1011B00020B1042805D008283AD105E0DFF8849052
:1011C00039E0DFF8849036E01D48001F006800F029
:1011D0003F041B48001F006800F4800078B11A48E3
:1011E0001749091F0968C1F38811A0FB0170014666
:1011F000224600233846FFF75CF805460EE011480A
:101200000F49091F0968C1F38811A0FB017001464D
:10121000224600233846FFF74CF805460848001FD1
:101220000068C0F30140401C4600B5FBF6F902E03F
:10123000DFF8109000BF00BF4846BDE8F08700000F
:10124000083802400024F40000127A00F8B5044681
:101250000CB90120F8BD207800F00100002874D0FE
:10126000F948006800F00C0004280DD0F64800682A
:1012700000F00C00082813D1F348001F006800F4A8
:101280008000B0F5800F0BD1EF4808380068C0F33C
:101290004040002859D06068002856D10120D9E785
:1012A00000BF6068B0F5803F08D1E74808380068A3
:1012B00040F48030E449083908601EE06068B0F509
:1012C000A02F0DD1E0480838006840F48020DE49A6
:1012D000083908600846006840F4803008600CE077
:1012E000D9480838006820F48030D74908390860A8
:1012F0000846006820F48020086000BF606890B154
:10130000FFF796FD054606E0FFF792FD401B6428B7
:1013100001D903209EE7CC4808380068C0F340405C
:101320000028F1D011E0FFF783FD054606E0FFF746
:101330007FFD401B642801D903208BE7C248083891
:101340000068C0F340400028F1D1207800F002008E
:1013500002285FD1BC48006800F00C0058B1BA48C0
:10136000006800F00C0008281CD1B748001F006876
:1013700000F48000B0B9B44808380068C0F34000F9
:1013800020B1E068012801D0012063E7AE480838A9
:10139000006820F0F800216940EAC100AA49083934
:1013A000086037E0E06800B30120A8490860FFF753
:1013B0003FFD054606E0FFF73BFD401B022801D933
:1013C000032047E7A04808380068C0F34000002821
:1013D000F1D09D480838006820F0F800216940EA03
:1013E000C10099490839086014E000209749086055
:1013F000FFF71EFD054606E0FFF71AFD401B022819
:1014000001D9032026E7904808380068C0F340005F
:101410000028F1D1207800F0080008282CD160695C
:10142000A8B101208A490860FFF702FD054606E0E1
:10143000FFF7FEFC401B022801D903200AE782487F
:101440006C300068C0F340000028F1D014E00020A8
:101450007F490860FFF7ECFC054606E0FFF7E8FC73
:10146000401B022801D90320F4E677486C3000685D
:10147000C0F340000028F1D1207800F004000428D7
:1014800070D1002770483830006800F0805090B963
:1014900000BF002000906C483830006840F0805059
:1014A0006949383108600846006800F080500090B3
:1014B00000BF00BF01276748006800F48070B0B922
:1014C0006448006840F4807062490860FFF7B0FC2F
:1014D000054606E0FFF7ACFC401B022801D90320BB
:1014E000B8E65C48006800F480700028F2D000BFC5
:1014F000A068012808D154486830006840F0010015
:101500005149683108601DE0A06805280DD14E489A
:101510006830006840F004004B49683108600846B4
:10152000006840F0010008600CE04748683000683F
:1015300020F001004449683108600846006820F046
:101540000400086000BFA068A8B1FFF771FC054661
:1015500009E0FFF76DFC401B41F28831884202D957
:10156000032077E626E0384868300068C0F3400082
:101570000028EED013E0FFF75BFC054608E0FFF71C
:1015800057FC401B41F28831884201D9032061E6B3
:101590002D4868300068C0F340000028EFD1012FCB
:1015A00007D129483830006820F08050264938316A
:1015B000086000BFA069002845D02348006800F0FB
:1015C0000C0008285DD0A069022845D100201F49E1
:1015D0000866FFF72DFC054606E0FFF729FC401BD7
:1015E000022801D9032035E6174808380068C0F3FF
:1015F00040600028F1D1D4E907010843616A40EA5C
:1016000081110122A06AC2EB500041EA00412C2066
:10161000005D41EA00600C49091F086001200B4988
:101620000866FFF705FC054606E0FFF701FC401BD6
:10163000022801D903200DE6034808380068C0F3EA
:1016400040600028F1D049E00838024000004742DD
:10165000800E474200700040002021490866FFF7D5
:10166000E7FB054606E0FFF7E3FB401B022801D934
:101670000320EFE51B480068C0F340600028F2D16A
:101680002CE0A069012800D1E4E51648001D066899
:10169000A069012820D006F48001E06981421BD1B5
:1016A00006F03F01206A814216D147F6C0703040F3
:1016B000616AB0EB811F0FD106F440310122A06AAC
:1016C000C2EB5000B1EB004F06D106F070612C2048
:1016D000005DB1EB006F01D00120BBE50020B9E552
:1016E000000047420038024070B504462546681E97
:1016F000B0F1807F01D301200FE0681E4FF0E021A0
:1017000048610F214FF0FF3000F098FF00204FF0AC
:10171000E021886107200861002070BD7047704794
:1017200010B504460CB9012010BD94F83D0028B94D
:10173000002084F83C00204600F026F8022084F8BF
:101740003D00211D206800F0C3FC012084F8460004
:1017500000BF84F83E0001213F2001554020015583
:101760004120015500BF00BF012084F84200432002
:101770000155442001554520015500BF012084F842
:101780003D000020D0E7000038B504460E4920682F
:10179000884217D100BF002000900C48006840F03C
:1017A00020000A4908600846006800F02000009008
:1017B00000BF00BF022211463720FFF7B5FB3720DC
:1017C000FFF79EFB38BD0000001400404038024087
:1017D000014691F83D00012801D001207047022008
:1017E00081F83D000868C06840F001000B68D860CF
:1017F0001A4B086898421BD00868B0F1804F17D088
:10180000174B0868984213D0164B086898420FD0BF
:10181000154B086898420BD0144B0868984207D0C3
:10182000134B0868984203D0124B086898420CD1B9
:101830000868806800F00702062A0CD00868006873
:1018400040F001000B68186005E00868006840F08F
:1018500001000B6818600020C0E700000000014094
:101860000004004000080040000C0040000401405B
:101870000040014000180040704770B504462068E1
:10188000C5682068066906F00200022819D105F033
:101890000200022815D1401F21680861012020772D
:1018A0002068806900F0030018B12046FFF7E4FFCC
:1018B00005E0204600F097F8204600F095F800205B
:1018C000207706F00400042819D105F0040004284C
:1018D00015D1C04321680861022020772068806903
:1018E00000F4407018B12046FFF7C6FF05E020461F
:1018F00000F079F8204600F077F80020207706F015
:101900000800082819D105F00800082815D1C0439F
:1019100021680861042020772068C06900F0030076
:1019200018B12046FFF7A8FF05E0204600F05BF85D
:10193000204600F059F80020207706F0100010280B
:1019400019D105F01000102815D1C0432168086195
:10195000082020772068C06900F4407018B1204644
:10196000FFF78AFF05E0204600F03DF8204600F032
:101970003BF80020207706F0010048B105F0010097
:1019800030B16FF0010021680861204600F02EF8A8
:1019900006F08000802809D105F08000802805D15C
:1019A000C043216808612046FFF7B8FE06F04000FA
:1019B000402809D105F04000402805D1C0432168E6
:1019C0000861204600F0D8F806F02000202809D150
:1019D00005F02000202805D1C04321680861204679
:1019E000FFF79DFE70BD7047704700007FB505464C
:1019F0004C480078002828D1022000214FF6E073DF
:101A000049A2CDE900100A21322001F00BF9022091
:101A100000214FF6FF7348A2CDE9001023210A20D0
:101A200001F000F9022000214FF6FF7345A2CDE935
:101A300000103C210A2001F0F5F81F201423DC22BD
:101A40008C2100900A2001F0BBF800201F21354AAC
:101A50001278404B1B78CDE90032CDE902101423F7
:101A6000DC228C210A2001F0C1FA022000214FF66D
:101A7000FF720323CDE9002102902A4802787821E1
:101A8000B42001F08BFA022000214FF6FF732522CB
:101A9000CDE900107821DC2000F09CFF214800787F
:101AA000642808DC1F4800782A4908701D4800781F
:101AB000401C1C4908701B480078652830D1022062
:101AC00000214FF6B20324A2CDE9001078210A20AC
:101AD00001F0A8F824489F23F022A02100900020C4
:101AE00000F050FF3720FFF7F5F9022000214FF6F4
:101AF000E0731EA2CDE9001055210A2001F092F8F2
:101B0000FFF796F90446022000214FF6FF720623E4
:101B1000CDE90021029022465521782001F03EFABD
:101B20007FBD000021000020204844204C4F564536
:101B3000204A4A59000000005769666520697320F1
:101B40004A4A590048757362616E6420697320487F
:101B500044000000200000204865726520636F6D1E
:101B60006573204A4A5900003D34000848414C54EE
:101B700049434B3A0000000070477047704700002F
:101B80002DE9F84F0446206805682068C66820687B
:101B900047694FF00009CA4605F00F09B9F1000F77
:101BA0000AD105F0200038B106F0200020B120460F
:101BB00000F04DFBBDE8F88FB9F1000F7CD007F0C5
:101BC000010018B906F49070002875D005F00100E6
:101BD00030B106F4807018B1606C40F001006064B0
:101BE00005F0040030B107F0010018B1606C40F05E
:101BF0000200606405F0020030B107F0010018B186
:101C0000606C40F00400606405F0080048B106F024
:101C1000200010B907F0010018B1606C40F0080016
:101C20006064606C002846D005F0200028B106F002
:101C3000200010B1204600F00AFB20684069C0F384
:101C4000801A606C00F0080010B9BAF1000F2DD0B6
:101C5000204600F0B6FA2068406900F040004028B5
:101C600020D100BF00BF2168143151E8001F21F0CE
:101C700040002168143141E80002002AF3D100BF7E
:101C8000E06B50B17F48E16B0865E06BFEF7AFFF9A
:101C900088B1E06B016D88470DE02046FFF76EFFCD
:101CA00009E009E02046FFF769FF04E02046FFF75E
:101CB00065FF002060647DE7206B012878D105F086
:101CC0001000002874D006F010000028FAD000BFE1
:101CD0000020009020680068009020684068009014
:101CE00000BF00BF2068406900F04000402870D16C
:101CF000E06B006840681FFA80F8B8F1000F58D018
:101D0000A08D404555DDA4F82E80E06BC069B0F58C
:101D1000807F43D000BF00BF21680C3151E8001F15
:101D200021F4807021680C3141E80002002AF3D1CF
:101D300000BF00BF00BF2168143151E8001F21F02F
:101D400001002168143141E80002002AF3D100BFEC
:101D500000BF00BF2168143151E8001F21F040008E
:101D60002168143141E80002002AF3D100BF20208D
:101D700084F842000020206300BF00BF21680C31BE
:101D800051E8001F21F0100021680C3141E80002E9
:101D9000002AF3D100BFE06BFEF7D3FE02206063A0
:101DA000A08DE28D801A81B22046FFF7E6FE0EE09C
:101DB00052E0A08D40450AD1E06BC069B0F5807F4C
:101DC00005D102206063A18D2046FFF7D6FEF1E623
:101DD000FFE7A08DE18D401A1FFA80F8E08DD0B3A7
:101DE000B8F1000F37D000BF00BF21680C3151E8B7
:101DF000001F21F4907021680C3141E80002002A94
:101E0000F3D100BF00BF00BF2168143151E8001FAB
:101E100021F001002168143141E80002002AF3D1C9
:101E200000BF202084F842000020206300BF00BFD4
:101E300021680C3151E8001F21F0100021680C319D
:101E400041E80002002AF3D100BF0220606341464E
:101E50002046FFF792FEADE605F0800030B106F0B7
:101E6000800018B1204600F0A7FBA3E605F0400073
:101E700030B106F0400018B1204600F0D8F999E6DC
:101E800000BF97E6B121000810B504460CB9012047
:101E900010BDA06900B100E000BF94F8410028B96E
:101EA000002084F84000204600F02AF8242084F81E
:101EB00041002068C06820F400502168C8602046B6
:101EC00000F044FA2068006920F49040216808611D
:101ED0002068406920F02A00216848612068C068B5
:101EE00040F400502168C86000206064202084F81D
:101EF000410084F842000020606300BFC8E7000092
:101F000010B586B004462E492068884255D100BFDE
:101F100000BF002000902B48006840F010002949C5
:101F200008600846006800F01000009000BF00BF85
:101F300000BF00BF00BF0020009022481438006896
:101F400040F001001F49143908600846006800F09D
:101F50000100009000BF00BF00BF00BF00BF002015
:101F600000900846006840F00100086008460068DC
:101F700000F00100009000BF00BF00BF48150190B5
:101F80000220029001200390022004900720059077
:101F900001A90D48FEF746FE4FF48060019007202E
:101FA000059001A90848FEF73DFE2520FEF7A8FF91
:101FB000032211462520FEF7B7FF06B010BD000032
:101FC00000100140443802400000024070B5044651
:101FD0000D46164694F8420020280BD105B10EB9E3
:101FE000012070BD0020206332462946204600F0C3
:101FF000C3FAF6E70220F4E710B50446204920684A
:1020000088423BD11F48008800F4004088BB1D482F
:10201000008800F4804070B11B4800780A2803D083
:1020200000201849088024E01648008840F4004049
:10203000144908801DE0144800780D2806D1114885
:10204000008840F480400F49088012E00E48007874
:102050000C490988C1F30D010C4A50540948008805
:10206000401C0849088008460088C72801DD002078
:102070000880012204490648FFF7A8FF10BD0000B0
:1020800000100140080000200A0000202400002069
:10209000EC000020704700BFFEE700BFFEE770477E
:1020A0007047704710B5FEF7C9FE10BD03480068C1
:1020B00040F47000014908607047000088ED00E0BE
:1020C00010B50248FFF7D9FB10BD000094090020AD
:1020D00010B502682B4B98420ED0B0F1804F0BD058
:1020E000294B984208D0294B984205D0284B98425A
:1020F00002D0284B984203D122F070024B681A4359
:10210000204B984220D0B0F1804F1DD01E4B9842FA
:102110001AD01E4B984217D01D4B984214D01D4B1D
:10212000984211D01C4B98420ED01C4B98420BD0B9
:102130001B4B984208D01B4B984205D01A4B984233
:1021400002D01A4B984203D122F44072CB681A4352
:1021500022F080034C6943EA04028B68C3620B6877
:102160008362084B984202D00A4B984201D10B6916
:102170000363036843F004030360012343610260C7
:1021800010BD0000000001400004004000080040B5
:10219000000C0040000401400040014000440140A8
:1021A0000048014000180040001C00400020004092
:1021B00070B50446A56B0020E8852846FFF7DEFCD5
:1021C00070BD00BF00BF02680C3252E8002F22F43D
:1021D000907102680C3242E80013002BF3D100BF6B
:1021E00000BF00BF0268143252E8002F22F0010144
:1021F0000268143242E80013002BF3D100BF016BD8
:1022000001290ED100BF00BF02680C3252E8002F36
:1022100022F0100102680C3242E80013002BF3D1C7
:1022200000BF202180F8421000210163704710B5E3
:1022300004462068C06820F040002168C860202063
:1022400084F841002046FFF725FF002010BDF8B5B7
:1022500004460025002694F84200222873D1A06885
:10226000B0F5805F0BD1206948B9A66A2068406844
:10227000C0F308003080A06A801CA06214E0A56A48
:10228000A068B0F5805F03D0A06828B9206918B9AC
:1022900020684068287004E02068406800F07F00F3
:1022A0002870A06A401CA062E08D401E80B2E085CC
:1022B000002846D12068C06820F020002168C8604E
:1022C0002068C06820F480702168C8602068406978
:1022D00020F0010021684861202084F8420000209D
:1022E0006063206B012826D10020206300BF00BF5F
:1022F00021680C3151E8001F21F0100021680C31D9
:1023000041E80002002AF3D100BF2068006800F015
:10231000100010280AD100BF00200090206800683B
:10232000009020684068009000BF00BFA18D20464B
:10233000FFF723FC02E02046FFF75EFE0020F8BD19
:1023400001E00020FBE70220F9E700002DE9F84F4B
:1023500004462068006920F44050E1680843216881
:1023600008612169A068084361690843E16908437D
:1023700000902068C06849F20C61884300990843C6
:102380002168C8602068406920F44070A169084352
:102390002168486176492068884203D075492068E1
:1023A000884203D1FEF7EAFE814602E0FEF7D6FE40
:1023B0008146E069B0F5004F6CD102206168A0FB56
:1023C000015003461920A9FB007001462A463846F1
:1023D000FDF76FFF6421B0FBF1F04FEA001A022015
:1023E0006168A0FB01510B461920A9FB00712A4628
:1023F0003846FDF75EFF834602206168A0FB01506E
:1024000003461920A9FB00712A463846FDF751FF03
:102410006421B0FBF1F000EBC00101EB0010ABEB6D
:102420008000322101EBC0006421B0FBF1F000F02C
:10243000F8000AEB400A02206168A0FB0150034645
:102440001920A9FB007001462A463846FDF731FFE6
:10245000834602206168A0FB015003461920A9FBB6
:1024600000712A463846FDF724FF6421B0FBF1F0E5
:1024700000EBC00101EB0010ABEB8000322101EB5F
:10248000C0006421B0FBF1F000F007005044216867
:1024900088606AE004206168A0FB015003461920AF
:1024A000A9FB007001462A463846FDF702FF824626
:1024B00004206168A0FB015003461920A9FB0070AD
:1024C00001462A463846FDF7F4FE6421B0FBF1F0E0
:1024D00000EBC00101EB0010AAEB8000322101EB00
:1024E00000106421B0FBF1F000F0F00A04206168F4
:1024F000A0FB017003461920A9FB00513A4628466B
:10250000FDF7D7FE6421B0FBF1F00AEB001A0420BE
:102510006168A0FB01510B461920A9FB00712A46F6
:102520003846FDF7C6FE834604206168A0FB0150D3
:1025300003461920A9FB007001462A463846FDF7DC
:10254000B8FE6421B0FBF1F000EBC00101EB00101C
:10255000ABEB8000322101EB00106421B0FBF1F005
:1025600000F00F00504421688860BDE8F88F00003B
:10257000001001400014014010B5034699629A858D
:10258000DA8500205864222083F84200186928B1B7
:102590001868C06840F480701C68E0601868406982
:1025A00040F001001C6860611868C06840F02000BD
:1025B0001C68E060002010BD014691F84100212810
:1025C00028D18868B0F5805F0BD1086948B90A6ADC
:1025D0001088C0F308000B685860086A801C086205
:1025E00005E00B6A581C086218780B685860C88CA4
:1025F000401E80B2C88458B90868C06820F08000C6
:102600000B68D8600868C06840F040000B68D8606C
:10261000002070470220FCE710B50248FFF7B0FA2F
:1026200010BD0000EC00002000BFFEE7024800687B
:10263000C0F30220704700000CED00E010B5002848
:1026400004DB0A07130E054A135406E00A07140EAA
:10265000034A00F00F031B1FD45410BD00E400E038
:1026600018ED00E030380A2801D201207047002020
:10267000704700BF704700000149086070470000C4
:102680000C00002010B504464FF47A7104FB01F0F1
:1026900000F002F810BD000070B5034600224FF0B4
:1026A000E02675690D4E366803FB06F44FF0E02610
:1026B000B16910E04FF0E026B06988420BD0884243
:1026C00002D20E1A324402E02E1A0E44324401465F
:1026D000A24200D300E0EDE700BF70BD0C00002077
:1026E00000BF054A126802F04002002AF9D0C2B2C7
:1026F000014B5A60704700000010014000B587B0E0
:10270000142102A8FEF780F800BF00200190414884
:10271000006840F001003F4908600846006800F08A
:102720000100019000BF00BF00BF002001900846DB
:10273000006840F0020008600846006800F00200EF
:10274000019000BF00BF00BF002001900846006854
:1027500040F0080008600846006800F0080001909A
:1027600000BF00BF00BF002001900846006840F095
:10277000100008600846006800F01000019000BFDB
:1027800000BF012003900020049002200590400328
:10279000029002A92048FEF745FA4FF480400290CB
:1027A00002A91E48FEF73EFA0220029002A91B4829
:1027B000FEF738FA4FF48070029002A91848FEF72D
:1027C00031FA01200390002004900220059020207F
:1027D000029002A91348FEF725FA2020029002A9D0
:1027E0000F48FEF71FFA012220210E48FEF714FBC6
:1027F000012291030948FEF70FFB012291030648CD
:10280000FEF70AFB00224FF480710548FEF704FB37
:1028100007B000BD30380240000C024000100240FA
:10282000000402400000024070B505460E46002438
:1028300003E0285D00F030F8641CB442F9D370BDA9
:1028400010B50446204600F027F810BDFEF702FB45
:102850000723022208214FF4A87000F051FCA820A1
:10286000FFF70AFF4FF4E13000F0B8FC06A0FDF7D7
:1028700097FD00F075FA44F29F1140F2F310FEF755
:1028800045F900BFFEE7000048656C6C6FEFBC8C3B
:10289000576F726C6400000070B5044600251BE0A1
:1028A000002220210E48FEF7B7FA04F0800028B17C
:1028B000012220210B48FEF7AFFA04E0002220217C
:1028C0000848FEF7A9FA6006040E012220210448F8
:1028D000FEF7A2FA681CC5B2082DE1DB70BD00004E
:1028E000000002400004024010B50122110202481B
:1028F000FEF792FA10BD00000004024010B500225D
:102900004FF480710148FEF787FA10BD00040240C1
:1029100038B50446064800944088401E83B20448F7
:102920000088401E82B20021084600F0BFF938BD81
:102930001A00002010B5012291030248FEF76CFA3C
:1029400010BD00000010024010B500224FF480417D
:102950000148FEF761FA10BD0010024010B50122D7
:1029600091030248FEF758FA10BD0000000C024027
:1029700010B500224FF480410148FEF74DFA10BD1A
:10298000000C02402DE9F04106460F4614461D4654
:10299000DDF8188030190E490988884204DC78195E
:1029A0000B494988884201DDBDE8F0817819401E55
:1029B00083B23019401E82B23946304600F0B4FA74
:1029C00004FB05F04100404600F061FB00BFEBE76F
:1029D0001A0000202DE9F04F89B006460F46154633
:1029E0009846139C3D480088B04203DD3B48408830
:1029F000B84202DC09B0BDE8F08F202D01DB7E2D4E
:102A000000DD3F254FF005094FF0070A09FB04F0F0
:102A100008900AFB04F00790042C00DDEAE7A5F11A
:102A2000200000EB80002E49084406904FF0000B78
:102A30004FEA282040EA082080B20590129801123F
:102A400041EA002080B2049000202BE0002225E023
:102A500000211FE0069B5B5C034103F0010303932D
:102A6000039B0BB1059B00E0049B029300230193A1
:102A70000BE0DC460BF1010BDFF868E0029B2EF85F
:102A80001C30019B5B1CDBB20193019BA342F0DB7A
:102A90004B1C99B24945DDDB511CCAB2A242D7DBBF
:102AA000411C88B25045D1DB07983844401E83B2A0
:102AB00008983044401E82B23946304600F034FA5D
:102AC000FFF742FFFFF74AFF4FEA4B010548FFF7C8
:102AD000ABFEFFF72FFF00BF8CE700001A000020BD
:102AE00062320008340500202DE9FC5F04460D46E3
:102AF00016461F4631B222B2881A002801DB014671
:102B000000E041420FFA81F8B44201DA012001E00D
:102B10004FF0FF30019039B22AB2881A002801DB49
:102B2000014600E0414249420FFA81F9BD4201DA13
:102B3000012001E04FF0FF30009008EB09000FFA90
:102B400080FA00BF294620460C9A00F01FF8B442D4
:102B500002D1BD4200D116E04FEA4A000FFA80FBD5
:102B6000CB4506DB0AEB09000FFA80FA01982044F6
:102B700084B2C345E6DC0AEB08000FFA80FA00983D
:102B8000284485B2DEE700BFBDE8FC9F70B504466F
:102B90000D46164609480088A04203DD07484088D4
:102BA000A84200DC70BD2B4622462946204600F094
:102BB000BBF9304600F088FA00BFF3E71A000020A6
:102BC0002DE9F84304460D4616461F46DDF82080E1
:102BD000A01982B22B4629462046CDF80080FFF787
:102BE00083FFE81983B2A01982B2E81981B22046A6
:102BF000CDF80080FFF778FFE81983B22246294616
:102C00002046CDF80080FFF76FFFE9198BB2A119BC
:102C10008AB2A11988B22946CDF80080FFF764FF77
:102C2000BDE8F8832DE9FC4705460E461746994650
:102C3000DDE90A8432E0062000FB04501A490988C5
:102C4000884209DB0025082000FB046086B2164894
:102C50004088B04200DC24E0CDE9008417F8012B65
:102C60004B4631462846FFF7B5FEC84512D007212E
:102C700001FB0461491E8BB2062101FB0451491E70
:102C80008AB2052101FB045188B23146CDF800809B
:102C900000F00CF8062000FB045085B238780028BC
:102CA000C9D100BFBDE8FC871A0000202DE9F84F0C
:102CB0000746884614461D46DDF828A0A74201DCD9
:102CC000A84501DDBDE8F88F23480088A04203DC59
:102CD00021480088401E84B21F484088A84203DC77
:102CE0001D484088401E85B22B4622464146384644
:102CF00000F01AF9E01B401CA5EB0801491C00FB81
:102D000001F64FF400794FEA2A2040EA0A2080B207
:102D10000090002004E0114A009922F81010401C95
:102D20004845F8D3FFF710FEFFF718FE0DE04E45BB
:102D300001D9484600E0304683464FEA4B01074838
:102D4000FFF772FDA6EB0B0600BF002EEFD1FFF7D9
:102D5000F1FD00BFB6E700001A000020340100209A
:102D600010B5FFF7CBFCFFF7BFFD00F08DF8112089
:102D700000F09EF9C820FDF74EFF002000F098F803
:102D800000F006F80020FFF7C3FDFFF7B7FD10BD08
:102D90001FB53A2000F08CF9052000F0A4F9B2200C
:102DA00000F086F92DA103C9CDE90201052102A891
:102DB00000F06DF9B72000F07BF9352000F093F9B1
:102DC000BB2000F075F9322000F08DF9C22000F030
:102DD0006FF9012000F087F9C32000F069F9152090
:102DE00000F081F9C42000F063F9202000F07BF9A5
:102DF000C62000F05DF90F2000F075F9D02000F03A
:102E000057F918A000680390022103A800F03FF9C9
:102E1000E02000F04DF914A090E80E00C0688DE8A5
:102E20000E0003900E21684600F031F9E12000F019
:102E30003FF911A3D3E90021D3E90203CDE902034D
:102E4000CDE900210E21684600F021F9212000F093
:102E50002FF9292000F02CF91FBD00000C0C0033C5
:102E600033000000A4A10000D0080E090905313389
:102E70004817141531340000D0080E0909153133F4
:102E8000481714153134000010B5002202210748FC
:102E9000FDF7C2FF3220FDF7BEFE012202210348EA
:102EA000FDF7BAFF7820FDF7B6FE10BD0010024016
:102EB00010B504461B480471362000F0F9F834B10F
:102EC000012C0ED0022C16D0032C28D11DE0F020AE
:102ED000144908804FF4A0704880002000F003F9E6
:102EE0001EE04FF4A0700F490880F0204880C020F9
:102EF00000F0F9F814E0F0200A4908804FF4A070BF
:102F00004880702000F0EFF80AE04FF4A070054907
:102F10000880F0204880A02000F0E5F800E000BF25
:102F200000BF10BD1A0000202DE9F05F04460D46D9
:102F300016461F461FFA84F81FFA86F91FFA85FA0B
:102F40001FFA87FB2A2000F0B3F84FEA282000F090
:102F5000CAF808F0FF0000F0C6F84FEA292000F098
:102F6000C2F809F0FF0000F0BEF82B2000F0A0F836
:102F70004FEA2A2000F0B7F80AF0FF0000F0B3F89B
:102F80004FEA2B2000F0AFF80BF0FF0000F0ABF899
:102F90002C2000F08DF8BDE8F09F00002DE9F047EF
:102FA00088B005460E4617461C46DDE9119ADDF845
:102FB00040800F2C00DD0F2422460AA102A8FDF755
:102FC000FBF93A4602A904A8FDF7F6F9434604AA1C
:102FD00031462846CDE9009AFFF724FE08B0BDE847
:102FE000F087000025253025646400002DE9FF4F9F
:102FF00081B0DDE90E78B8F1640F01DD4FF06408AF
:10300000642F00DD6427B84502D105B0BDE8F08F1C
:103010000198801C84B20298801C1FFA80F90398E2
:10302000001F1FFA80FA0498001F1FFA80FB0AFB9A
:1030300007F06421B0FBF1F085B20AFB08F0B0FBA9
:10304000F1F086B2B84510DDAE421EDD109809EBF6
:103050000B01491E8BB2A119491E8AB26119009059
:1030600088B24946FFF722FE0FE0B5420DDD119808
:1030700009EB0B01491E8BB26119491E8AB2A119D5
:10308000009088B24946FFF711FE00BFBDE770B55A
:1030900005460C4604B970BDFFF756FCFFF75EFC11
:1030A00021462846FFF7C0FBFFF744FC00BFF2E7CC
:1030B00010B50446FFF748FCFFF75AFC2046FFF71F
:1030C000BFFBFFF737FC10BD10B50446FFF73CFC13
:1030D000FFF744FC2012FFF7B3FBE0B2FFF7B0FBB1
:1030E000FFF728FC10BD10B50446FFF72DFCFFF7D5
:1030F00035FC2046FFF7A4FBFFF71CFC10BD0000C9
:103100002DE9F04192B080460C4615461E46002738
:10311000302106A8FDF778FB142101A8FDF774FB08
:1031200000BF002000902A48006840F080502849E5
:1031300008600846006800F08050009000BF00BFA3
:1031400000BF002000902348006840F480402149DF
:1031500008600846006800F48040009000BF00BF8F
:10316000012006900004079002200C9041050D916B
:10317000CDF83C800E941095119606A8FEF766F8DF
:1031800007461FB1012012B0BDE8F0810F20019069
:1031900002200290002003904FF4A05004904FF4BE
:1031A00080500590052101A8FDF710FF07460FB1DB
:1031B0000120E8E7FDF736FE41F20101884205D122
:1031C0000548006840F48070034908600020DAE791
:1031D0004038024000700040003C024010B50446F8
:1031E00009480A4908600846446000218160C160BE
:1031F000016181610C214161FEF746FE0122044913
:103200000248FEF7E3FE10BD00100140EC00002074
:103210000A00002010B500290AD00878002807D03D
:1032200005487844FDF732FC002801D0002010BD8D
:103230000248784410BD0000AA2C0100A22C010015
:103240004FF04070E1EE100A7047000000000000EF
:103250000000010203040607080900000000010243
:103260000304000000000000005F000000070007EA
:1032700000147F147F14242A7F2A12231308646207
:1032800036495522500005030000001C2241000071
:1032900041221C0014083E081408083E080800508B
:1032A00030000008080808080060600000201008CE
:1032B00004023E5149453E00427F4000426151496F
:1032C000462141454B311814127F10274545453999
:1032D0003C4A4949300171090503364949493606D6
:1032E0004949291E003636000000563600000814F1
:1032F0002241001414141414004122140802015134
:103300000906324979413E7E1111117E7F494949B2
:10331000363E414141227F4141221C7F494949417A
:103320007F090909013E4149497A7F0808087F0061
:10333000417F41002040413F017F081422417F40EE
:103340004040407F020C027F7F0408107F3E4141D5
:10335000413E7F090909063E4151215E7F09192935
:1033600046464949493101017F01013F4040403F04
:103370001F2040201F3F4038403F6314081463075C
:10338000087008076151494543007F41410002042C
:103390000810200041417F00040201020480808067
:1033A0008080000307000020545454787F48444430
:1033B000383844444420384444487F3854545418DE
:1033C000087E0901020C5252523E7F080404780024
:1033D000447D40002040443D007F102844000041CF
:1033E0007F40007C041804787C0804047838444446
:1033F00044387C14141408081414187C7C08040441
:10340000084854545420043F4440203C4040207C11
:103410001C2040201C3C4030403C44281028440CD8
:103420005050503C4464544C440008364100000065
:103430007F00000041360800020102040210100063
:10344000F0009F011BC4D5C494C4F6D516D537D55A
:1034500038CD37CD17C4F6ACD4B4D5AC94ACB4AC3D
:10346000B4ACB4AC53B474B494BCB5C4F6C516C50E
:1034700016C4F5BCD5BC94AC94ACF5ACB4A4B4AC57
:1034800094BCD5BCF6C516C516C517CD17C4F6BC79
:1034900094B473B4D5A412AC32BC74BCB5AC94BDB6
:1034A00016B4F5B4F5BCB5C4F6C516C516C4F6BC5D
:1034B000F5ACB4BCD5C516C537C516BD36A4B4A485
:1034C000D4B536B4D5C516C536C537C516BD36AD67
:1034D00036AD15BD16C4F6C537CD37CD37CD37CD92
:1034E00016BCD5BD16BCD5BCF5CD17CCF6C4D5CC15
:1034F000B5C4D5C495CCD6CCF6BD36BC94BC94BC72
:1035000094BC94BCB5A41293B0C516CD37CD37CDBD
:1035100017C537C537C537CD37CD37CD17C516C415
:10352000F6CCF6C516C536C536C557C577D578DD90
:1035300099DD98D578CDB8CD58D558D558CD57CD3B
:1035400017CD16CD36CD37CD37CD17CD77C4F6C4D0
:10355000F6C4F6C516C516CD17CD17CD16C516C5BA
:1035600016C516C516CD16C516CD16CCF6CCF6C4A6
:10357000F6CD37CD57CD16CD16CCF6CD78D578D53E
:1035800078DD99D579D558D558CD57C556C556CD7E
:1035900077CD17CD17CD37CD17C516C516C516C5AE
:1035A00057C4F6C4F6C4F6C4F6C516C516CD16C57E
:1035B00016C4F5C4D5C4B5C4D5C516C4F5C4B5C4C0
:1035C000B5C516AC73BCF5BD16D557D558D537CD96
:1035D00037C516C4F5C516C4B4C4B5C4B5C4B4C49F
:1035E000B5BD36BCF5C4D5C4F5C516C536C536C59A
:1035F00016BCF5BCF5B5169C7383F0A4B49C93A4DB
:1036000093BCF5C516C537C516C4F6BCF5A473AC96
:1036100032BC94BCD5C4D5C4F5C4D5BC94BC73BD70
:1036200035B494B4B4C4D5C494C4F6D516D537D53E
:1036300038CD37CD17C4F6ACB4ACB4B4D4AC93AC7D
:1036400094B4B4AC73B474B494BCB5C4F6C516C524
:1036500016C4F5BCD5BC94AC94ACD4ACB4ACB4AC8E
:1036600094BCD5C4F6C516C516C517CD17C4F6BC8F
:1036700094B473B4D5A412AC32B454BC95AC74B445
:10368000F5B4D5B4D5BCB5BCF6C516C516C4F6BCE4
:10369000F5ACB4BCD5C516C537C516BD36A494A4C3
:1036A000D4B536B4D5C516C536C537C516BD16B59D
:1036B00036AD36BD16C4F6C537CD37CD37CD17C4B8
:1036C000F6BCD5BD16BCD5BCB5CD17CCF6C4D5C49B
:1036D000D5C4B5C495CCD6CCF6BD16BC94BC94BCB0
:1036E00094BC94BCB59C328BD0C536CD37CD37CD8C
:1036F00017C537C537CD37CD37CD37CD16C4F6C44E
:10370000F6CCF6C516C536C536C557C577D578DDAE
:1037100099DD98D578CDB8CD58D558D558CD57CD59
:1037200017CD16CD36CD37CD17CD17C557C4F6C436
:10373000F6C4F6C516C516CD17CD17CD16C516C5D8
:1037400016C516C516CD16C516CCF6CCF6CCF6C4E5
:10375000F6CD37CD57CD16CD16CCF6CD78D578D55C
:1037600078DD99D579D558D558C557C577C556CD83
:1037700077CD17CD17CD37CD17C516C516BD16C5D4
:1037800057C4F6C4F6C4F6C4F6C516C516CD16C59C
:1037900016C4F5C4D5C4B5C4D5C516C4F5CCD5C4B6
:1037A000B5C4F6B4D5BD16C516D557DD78D537CD19
:1037B00037C516C4F5C516C4B4C4B5C4B5C4B5C4BC
:1037C000D5BD36BCF5C4D5C4F5C516C536C536C598
:1037D00016BCF5BCF5B5159C7383F0A4B49C93A4FA
:1037E00093BCF5C516C537C516C4F6BCF5A473ACB5
:1037F00032BC94BCD5C4D5C4F5C4D5BC94BC73BD8F
:1038000035B493B4B4C4D5C494C4F6D516D537D55D
:1038100037CD37CD17C4F6ACB4ACD4B4D5B4B4AC52
:10382000B4B4B4AC53B474B494BCB5C4F6C516C443
:10383000F6C4F6BCD5BC94AC94ACF5ACB4ACD5A491
:1038400073BCD5C4F6C516C516C517CD17C4D5BCEF
:1038500094AC73B4B4AC12A452B454BC95AC73B46D
:10386000F5B4F5B4D5BCB5C4F6C516C516C4F6BCDA
:10387000F5ACB4BCD5C516C537C516BD36A493A4E2
:10388000D4B536B4D5C516C536C537C516BD36B59B
:1038900036AD35BD16C4F6C537CD37CD37CD17C4D7
:1038A000F6BCD5BD16BCD5BCF5CD37CCF6C4D5C459
:1038B000B5C4B5C4B5CCD6CCF6BD16BC94BC94BCCE
:1038C00094BC94BCB5BCF5BD16C536C536CD57CD38
:1038D00036CD37C537CD37CD37CD37CD16C4F6C445
:1038E000F6CD16C536C537C536C536C577D578DDAC
:1038F00099D598D578CDB8D558D558CD37CD57CDA1
:1039000017CD16CD16CD17CD17CD37C577C4F6C454
:10391000F6C4F6C516C516CD17CD17CD16C516C5F6
:1039200016C516C516CD16C516CCF6CCF6CD16C4E2
:10393000F6CD37CD57CD16CD16CCF6CD57D578D59B
:1039400078DD99D579D558D558C537C536C536CD22
:1039500077CD17CD17CD37CD17C516C516BD16C5F2
:1039600057C4F6C4F6C4F6C4F6C516C516CD16C5BA
:1039700016C4F5C4D5C4B5C4D5C516BCD5C4B5C424
:1039800095C4F5BD16C536C516D557D558D557CDEE
:1039900037C516C4F5C516C4B5C4B4C4B5C4B4C4DB
:1039A000B5BD36BCF5C4D5C4F5C516C536C536C5D6
:1039B00016BCF5BCF5B5159C7383F1A4B49C93A417
:1039C00093BCF5C516C537C516C4F6BCF5A473ACD3
:1039D00032BC94BCD5C4D5C4F5C4D5BC94B473BDB5
:1039E00015B494B4B4C4D5C494C4F6D516D537D59B
:1039F00038CD37CD17C4F6B4D4ACD4ACD4ACB4AC59
:103A0000B4ACB4AC53B474B494BCB5C4F6C516C469
:103A1000F6C4F6BCD5BC94AC94ACD4ACB4ACD5A4D0
:103A200073BCD5C4F6C516C516C517C517C4D5BC15
:103A300094B473B4B5A412AC53B454BC95AC74B57F
:103A400016ACD5B4D5BCB5BCF6C516C516C4F6BC07
:103A5000F5ACB4BCD5C4F6C537C516BD36A493A421
:103A6000D4B536B4D5C516C536C536C516BD36B5BA
:103A700056AD15BD16C4F6C537CD37CD37C517C4FD
:103A8000F6BCD5BD16BCB5BCD5CD16CCF6C4D5C4D8
:103A9000B5C4D5C4B5CCD6CCF6BD16BC94BC94BCCC
:103AA00094BCB4BCB5BCD5C4F6C536C536CD57CD6F
:103AB00036CD37C537CD37CD37CD37CD16C4F6C463
:103AC000F6CCF6C537C536C537C537C577D578DDE9
:103AD00099D598CD78CDB8D558D558CD37CD57CDC7
:103AE00017CD16CD16CD17CD17CD17C577BCF6C49B
:103AF000F6C4F6C516C4F6CD17CD17CD16C516C437
:103B0000F6C516C516CD16C516CCF6CCF6CD16C420
:103B1000F6CD37CD57CD16CD16CCF6CD57D578D5B9
:103B200078DD99D579D558D558CD57C536C556CDF8
:103B300077CD17CD17CD17CD17C516C4F6BD16C551
:103B400057C4F6C4F6C4F6C4F6C516C516CD16C5D8
:103B500016C4F5C4D5C4B5C4D5C516BCD5C4B5C442
:103B6000B5C516BD16C536C516D557DD78D558CDA1
:103B700037C516C4F5C516C4B5C4B4C4B5C4B4C4F9
:103B8000B5BD36BCF5C4D5C4F5C516C536C536C5F4
:103B900016BCF5BCF5B5159C7383F1A4B49C93A435
:103BA00093BCF5C516C537C516C4F6BCF5A473ACF1
:103BB00032BC94BCD5C4D5C4F5C4D5BC94B453B5FB
:103BC00015B4B4B4D4C4B5C494C4F5CD17D537D5A1
:103BD00058CD37CD17BCD6B4D4B4D4ACB4ACB4AC97
:103BE000B4B4B4AC53B474B494BCB5C4F6C516C57F
:103BF00016C4D6BCB5BC95AC74B4D5ACF5ACD4ACDD
:103C000073BCD5BCF6C4F6C516C537CD16C4D5BC35
:103C100094AC53B4D5A412A452B454BCB5A473B597
:103C200016ACF5B4B5BCB5BCF6C516C516C4F6BC25
:103C3000F5ACB4BCD5C4F6C537C4F6BD369C93A468
:103C4000D4B536B4D5C516C536C537C516BD16B5F7
:103C500056A535BCF5C4F6C537CD37CD37CD17C41D
:103C6000F6BCD5BD16BCD4BCD5CD16CCF6C4D5C4D7
:103C7000B5C4B5C4B5CCD6CCF6BD16BC94BC74BC2A
:103C800094BCB4BCD5C4D5C4F6C516CD37CD37CD9C
:103C900017C537C537CD37CD37CD37CD16C4F6C4A8
:103CA000F6C516C557C537C557C557C577D578DD8D
:103CB00099D599D578CD98D557CD58D558CD57CDDC
:103CC00016CD16CD17CD37CD17CD17C577BCF6C499
:103CD000F6C4F6C516C516C537C537C516C516C40C
:103CE000F6C516C516C516CCF6CCF6CCF6CCF6C481
:103CF000F6CD37CD57CD16CD16CD16CD57D578D5B7
:103D000078DD99D579D558D558C557C577C556CDDD
:103D100077CD16CD17CD17CD17C537C516BD16C52E
:103D200037C4F6C4F6C4F6C4F6C516C516CD16C417
:103D3000F6C4D6C4B5C4B5BCB5BD36C4D5CCB5CCB7
:103D4000B5C516C516C536C516D557D558D557CDE0
:103D500037C516C4F5C516CCB5C4B4C4B5C4B5C40E
:103D6000B5BD36BCF5BCD5C4F5CD16C516C516C552
:103D700016C515B4F5B5159C7383F1A4B49C93A432
:103D800093BCF5C516C557C516C516BCF5A473ACCE
:103D900032BC94BCD5C4D5C4F5C4D5BC94B453BD11
:103DA00036B494B4D4C4B5C494C4F5CD17D537D5BE
:103DB00058CD37CD17BCD6ACB4ACB4ACB4AC94AC25
:103DC000B4AC94AC53B474B494BCB5C4F6C516C5C5
:103DD00016C4D6BCB5BC94AC94B4D5ACD5ACD4ACFC
:103DE00073BCD5BCF6C4F6C516C537C516C4D5BC5C
:103DF00094B473B4D5A412AC53B454BCB5A473B585
:103E000015ACF5B4B5B4B5BCF6C516C516C4F6BC4C
:103E1000F5ACB4BCD5C4F6C537C4F6BD369C93AC7E
:103E2000F5B556B4D4C516C536C537C516BD36B5B5
:103E300056A535BD16C4F6C537CD37CD37CD17C419
:103E4000F6BCD5BD15BCD4BCD5BCB5CCF6C4D5C468
:103E5000B5C4B5C4B5CCD6CCF6BD15BC94BC94BC29
:103E600094BCB4BCD5C4D6C4F6C516CD37CD37CDB9
:103E700017C537C537CD37CD37CD37CD16C4F6C4C6
:103E8000F6C4F6C557C537C536C557C577D598DDCD
:103E900099D579CD78CD98D557CD37CD58CD57CD4B
:103EA00016CD16CD17CD37CD17CD17C577BCD5C4D8
:103EB000F6C4F6C516C516C516C537C516C516C44B
:103EC000F6C516C516C4F6CCF6CCF6CCF6CCF6C4C0
:103ED000F6CD37CD57CD17CD16CD16CD57D578D5D4
:103EE00078DD99D579D558D558C557C577C536C524
:103EF00057CD17CD17CD17CD17C537C516BD16C56C
:103F000037C4F5C4F6C4F6C4F6C516C516CD16C436
:103F1000F6C4D6C4B5C4B5BCB5BD36C4D5C4B5CCDD
:103F2000B5C516C516C516C516D557D558D558CD1D
:103F300037C516C4F5C516CCB5C4B4C4B5C4B5C42C
:103F4000B5BD36BCF5BCD5C4F5CD16C516C516C570
:103F500016BCF5B4F5B5159C7383F1A4B49C93A479
:103F600093BCF5C516C557C537C516BCF5A473ACCB
:103F700032BC94BCD5C4D5C4F5C4D5BC94B453BD2F
:103F800036B494B4D4C4B5C494C4F5CD17D537D5DC
:103F900058CD37CD17BCF5ACB4B4D5ACB4ACB4ACDB
:103FA000B4B4B4AC53B473B494BCB5C4D6C516C5DC
:103FB00016C4D6BCB5BC94AC94ACB4ACD4ACB4AC64
:103FC00073BCD5BCF6C4F6C516C537CD16C4D5BC72
:103FD00094B473B4D4A412AC53B454B4B5A473B5AC
:103FE00016ACF5B4B5BCB5BCB5B494C516C4F6BC36
:103FF000F6AC94BCD5C4F6C537C4F6BD569C94AC9B
:10400000F4B556B4D5C516C536C537C4F6BD36B5F4
:1040100056AD35B4F5C4F6C537CD37CD37CD17CD50
:1040200016BCD5BD15B4B4BCD5CD16CCF6C4D5C41C
:10403000B5C4D5C4B5CCD6CCF6BD15BC94BC94BC27
:1040400094BCB4BCD5C4D5C4F6C537CD37CD37CDB7
:1040500017C537C537CD37CD37CD37CD16C4F6C4E4
:10406000F6C516C557C537C536C557C577D598DDCA
:1040700099D579CD58CDB8D537D558CD37CD57CD81
:1040800016CD16CD17CD37CD17CD17C577BCF6C4D5
:10409000F6C4F6C516C516C516C537C516C516C469
:1040A000F6C516C516C4F6CCF6CCF6CCF6CCF6C4DE
:1040B000F6CD37CD57CD16D516CD16CD57D578D5EB
:1040C00078DD99D579D558D538C537BD36C536C5CB
:1040D00057CD17CD17CD17CD17C517C516C516C5A2
:1040E00057C4D5C4F6C4F6C4F6C516C516CD16C455
:1040F000F6C4D6C4B5C4B5C4D5BD36C4D5C4B5CCD4
:10410000B5C516C4F5C516C516D557DD78D558CD35
:1041100037C516C4F5C516CCB5C4B4C4B5C4B5C44A
:10412000B5BD36BCF5BCD5C4F5CD16C516C537C56D
:1041300016BCF5B4F5B5159C7383F1A4B49CB3A477
:1041400093BCF5C516C557C537C516BCF5A473ACE9
:1041500032BC94BCD5C4D5C4F5C4D5BC94B473BD2D
:1041600015B494B4B4C4B5C494C4F5CD17D537D53B
:1041700058CD37CD17BCF5ACD4ACB4AC94ACB4AC22
:10418000B4B494B453B473B494BCB5BCD5C516C51B
:1041900016C4D6BCB5BC95AC94ACD5A4B4ACB4A490
:1041A00073BCD5BCF6C516C516CD37CD16C4F6BC46
:1041B00094B473B4B4AC12A452B453B4B5A473B5EC
:1041C00016ACF5B4B4BCB5B4B4B4D5C516C4F6BC1D
:1041D000F5AC94BCD5C4F6C537C4F6BD579C93ACBA
:1041E000F5B556B4B4C516C536C537C4F6BD16AD5B
:1041F00036AD15BCF5BCF6C537CD37CD37C517C4C0
:10420000F6BCD5BD16BCD5BCB5CD16CCF6C4D5C450
:10421000B5C4B5C4B5CCD6CCF6BD15BC94BC94BC65
:1042200094BCB4BCD5C4D5C4F6C537CD37CD37CDD5
:1042300017C537C537CD37CD37CD37CD16C4F6C402
:10424000F6C4F6C557C537C557C536C577D598DD09
:1042500099D579CD58D5B8D537CD58CD37CD57CD9F
:1042600016CD16CD17CD37CD17CD17C577BCD5C414
:10427000F6C4F6C516C516C537C537C516C516C466
:10428000F6C516C516C516CCF6CCF6CCF6CCF6C4DB
:10429000F6CD37CD57CD16CD16CD16CD57D578D511
:1042A00078DD99D579D558D558C557C557C556C560
:1042B00057CD17CD17CD17CD17C537C516C536C580
:1042C00057C4F5C4F6C4F6C4F6C516C516CD16C453
:1042D000F6C4D6C4B5C4B5C4D5BD36C4D5C4D5CCD2
:1042E000B5C516C4F5C516C516D557DD78D557CD55
:1042F00037C516C4F5C516CCB5C4B4C4B5C4B5C469
:10430000B5BD36BCF5BCD5C4F5CD16C516C516C5AC
:1043100016BCF5B4F5B5159C7383F1A4B4A4B3A48D
:1043200093BCD5C516C557C516C516BCF5A473AC48
:1043300032BC94BCD5C4D5C4F5C4D5BC94B453BD6B
:1043400015B4B4B4B4C4B5BCB4C4F5CD17D537D521
:1043500038D537CD17B4D5B4D4ACD4AC94ACB4AC58
:10436000B4B494AC53B474B494BCB5AC94AC94C42D
:10437000F6C4D5BCB5B494AC73ACD5A4B4ACB4A4F9
:1043800073BCD5BCF6C516C516CD37CD17C4D5B48C
:1043900094B473B4B4AC12A432B433B4B5A473BD42
:1043A00016ACF5B4B4B4B5BCF6C516C516BCF6BCAF
:1043B000F6AC94BCD5C4F6C537C516BD569C73ACD7
:1043C000F5BD56B4D5C4F6C536C537C4F6B516B571
:1043D00036AD15B4F5C4F6C537CD37C537CD37C4BE
:1043E000F6BCD5BD15BCB4BCD5C4F6CCF6C4D5C49A
:1043F000B5C4B5C4B5CCD6CCF6B4F5BC94BC94BCAD
:1044000094BCB4BCD5C4D5C4F6C516CD37CD37CD14
:1044100037C537C537CD37CD36CD37CD16C4F6C401
:10442000F6C516C537BD36C536C557C577D598DD2F
:1044300099D579D537D5B8D537D558CD37CD57CDCE
:1044400016CCF6CD16CD37CD17CD17C577BCF6C433
:10445000D6C4F6C516C516C516C537C516C516C5C4
:1044600016C516CD16CCF6CCF6CCF6CCF6CCF6CCE2
:10447000F6C557C537CD16CCF6CD16CD57D558DD78
:1044800078DD79DD79D558D558C537C557C536C5D6
:1044900077CD17CD37CD17CD17C516C516C536C57F
:1044A00036C4F5C4F6C4F6C4F6C516C516C516C49A
:1044B000F6C4F5C4D5BCB4C4D5BD36C4D5C4B5C4E2
:1044C000B5C4F6C516BCF5C516D578D578DD58CD7A
:1044D00037C536C4F6C516CCB5C4B4C4B5C4B5C466
:1044E000D5BD56BCD5BCD5C4F5CD16C537C536C56A
:1044F00016BCF5B4F5B5359C538411A4B4A4B4A48A
:1045000093BCF5C516C537C516C516BCF5A473AC66
:1045100033BC94BCB5C4D5C4F5C4D5BC94B453B5B0
:1045200015B4B4B4D4C4B5BCB4C4D5CD17D537D53F
:1045300038D537CD16B4D5B4B4ACD4B4D4AC94AC6F
:1045400094AC93AC53B494B494BCB5BCF6C516C546
:1045500016C4D5BCB5B474AC73ACD5A4B4A4B4AC17
:1045600073BCD5BCF6C516C516CD37CD16C4F6BC82
:1045700094B473B4B4AC12A452B454B4B5A453B547
:1045800016ACF5B4B4B4B5BCF6C516C516BCF6BCCD
:10459000F6AC94BCD5C4F6C537C516BD569C73ADF4
:1045A00015BD56B4D5C4F6C536C537BCF6BD36B54F
:1045B00036AD15B4F5BCF6C537CD37CD37CD17C4FC
:1045C000F6BCD5BD16BCB4BCD5C4F6CCF6C4D5C4B7
:1045D000B5C4B5C4B5CCD6CCF6BD15BC94BC94BCA2
:1045E00094BC94BCD5C4D5C4F6C516CD57CD57CD13
:1045F00037C537C537CD37CD36CD37CD16C4F6C420
:10460000F6C516C537C536BD36C557C577D598D555
:1046100099D578D537D5B8D537D558CD37CD57CDED
:1046200016CCF6CD16CD16CD17C517C557BCF6C49A
:10463000D6C4F6C516C516C516C516C516C516C503
:1046400016C516CD17CD16CCF6CCF6CCF6CCF6CCDE
:10465000F6C557C537CD16CCF6CD16CD57D558DD96
:1046600078DD79DD79D558D558C537BD36C536C51D
:1046700077CD17CD37CD16CD16C516C516C536C59F
:1046800036C4F5C4F6C4F6C4F6C516C516C516C5B7
:1046900016C4F5C4D5BCB4C4D5BD36C4D5C4B5C4E0
:1046A000B5C516C516C516C516D578D578DD58CD4D
:1046B00037C536C4F6C516CCB5C4B4C4B4C4B5C485
:1046C000D5BD56BCD5BCD5C4F5CD16C537C536C588
:1046D00016BCF5B4F5B5159C738C11A4B4A4B4A4A0
:1046E00093BCF5C516C557C516C4F6BD15A473AC65
:1046F00032B494BCB5C4D5C4F5C4D5BC94B453B5D8
:1047000015B493B4D4C4B5BC94C4D5CD17D537D59E
:1047100037CD37CD16B4D5B4D4ACB4ACB4B4B4AC96
:1047200093B494AC53B474B494BCB5C4D6C4F6C4B6
:10473000F6C4D5BCB5B494AC73ACD4A4B4ACB4A436
:1047400073BCD5BCF6C516C516CD37CD16C4F5BCA1
:1047500094B473B4D4A432AC32BC54ACD5A453B525
:1047600016ACF5B4B4B4B5C4F6C516C516C4F6BDDA
:1047700015A494BCD5C4F6C537C516BD569C73ADFB
:1047800015BD76B4D4C4F6C536C537C4F6BD16AD6E
:1047900035AD35B4F5BCF6C537CD37C537CD17C403
:1047A000F6BCD5BD16BCB5BCD5C4F6C4D6C4D5C4FC
:1047B000B5C4B5C4B5CCD6CCF6BD16BC94BC94BCBF
:1047C00094BC94BCD5C4D5C4F6C516CD57CD57CD31
:1047D00037C537C537CD37CD36CD37CD16C4F6C43E
:1047E000F6C516C537C536C536C557C577D598D56C
:1047F00099D578D537D5B8D537D558CD37CD57CD0C
:1048000016CCF6CD16CD37CD17C517C557BCF6C497
:10481000D6C4F6C516C516C516C516C516C516C521
:1048200016C516CD16CCF6CCF6CCF6CCF6CCF6CC1E
:10483000F6C557C537CD16CD16CCF6CD57D558DDB4
:1048400078DD79DD79D578D558C577C577C536C592
:1048500057CD17CD17CD17CD16C516C516BD36C504
:1048600016C4F5C4F6C4F6C4F6C516C516C516C5F5
:1048700016C4F5C4D5BCB4C4D5BD36C4D5C4B5CCF6
:10488000B5C516C516C516C516DD57D578DD58CD84
:1048900037C536C4F6C516CCB5C4B4C4B5C4B5C4A2
:1048A000D5BD56BCD5BCD5C4F5CD16C537C536C5A6
:1048B00016BCF5B4F5B5159C738C11A4B3A4B4A4BF
:1048C00093BCF5C516C557C516C4F6BD15A473AC83
:1048D00032BC94C4D5C4D5C4F5C4D5BC94B453B4C7
:1048E000F4B4B4B4D4C4B5BC94C4F5CD17D537D59D
:1048F00037CD37CD17B4D5B4B4B4D4ACB4B4B4ACAC
:10490000B4AC93AC53B474B494BCB5C4D5C4F6C4BD
:10491000F6C4D5BCB5B494AC73ACD5A4B4ACB4AC4B
:1049200073BCD5BCF6C516C516CD37CD16C4D5BCDF
:1049300094B473B4D4AC32AC53BC54B4D5A453B512
:1049400016ACF5B4B4B4B5C4F6C516C516C4F6BDF8
:1049500015ACB4BCD5C4F6C537C516BD569C73ADF1
:1049600036BD76B4D4C4F6C536C537C4F6BD16AD6B
:1049700036AD35B4F5BCF6C537CD37C537CD17C420
:10498000F6BCD5BD16BCB4BCD5C4F6C4D6C4D5C41B
:10499000B5C4B5C4B5CCD6CCF6B4F6BC94BC94BC06
:1049A00094BCB4BCD5C4D5C4F6C516CD57CD37CD4F
:1049B00017C537C537CD37CD36CD37CD16C4F6C47C
:1049C000F6C516C537C536C536C557C577D578D5AA
:1049D00099D578D537D598D537D558CD37CD57CD4A
:1049E00016CCF6CD16CD16CD17C517C557BCF6C4D7
:1049F000D6C4F6C516C516C516C516C516C516C540
:104A000016C516CCF6CCF6CCF6CCF6CCF6CCF6CC5D
:104A1000F6C557C537D517CD16CD16CD57D558DDA8
:104A200078DD79DD79D558D558C536C557C536C531
:104A300057CD17CD17CD17CD17C516C516BD36C521
:104A400036C4F5C4F6C4F6C4F6C516C516C516C4F4
:104A5000F6C4F5C4D5BCB4C4D5BD36C4D5C4B5CC34
:104A6000B5C516C516C536C516DD58D578DD58CD81
:104A700037C536C4F6C4F6CCB5C4B4C4B5C4B5C4E1
:104A8000D5BD56BCD5BCD5C4F5CD16C537C536C5C4
:104A900016BCF5B4F5B5159C538C32A4B4A4B3A4DC
:104AA00093BCF5C516C557C516C4F6BCF5A473ACC2
:104AB00033BC94C4D5C4D5C4F5C4D5BC94B453B4E4
:104AC000F4B4B4B4B4C4B5C494C4F5D517D537D5CB
:104AD00037CD37CD16B4F5B4B4ACB4ACB4ACB4ACDB
:104AE000B4B493B453B474B494BCB5C4D6C516C4AA
:104AF000F6C4D5BCB5B474AC94ACD4A4B4ACD4AC4A
:104B000093BCD5BCF6C4F6C516C537CD16C4F5BCE6
:104B100094B473BCF5AC32AC53BC34ACD4A453B530
:104B200016B4F5B4B5BCB5BCF6C516C516BCF5BD16
:104B300015A494BCD5C4D6C536C516BD569452AD81
:104B400015BD77B4B4BCF5C536C536BCF5BD35B5B5
:104B500035ACF4B515BCF5C537C536C536CD17C46B
:104B6000F6C4D5C516B4D4BCB5C4F6C4D6C4D5C431
:104B7000B5C4B5C4B5CCD6C4F6BD15BC94BC94BC04
:104B800094BC94BCD5C4D5C4F6C537CD37CD37CD8C
:104B900017C516C537CD37CD17CD37CD16C4F6C4DA
:104BA000F5CCF6C556C536C537C536C577D598DDBB
:104BB00099D578D537D5B8D537D557CD37CD57CD49
:104BC00016CCF6CD16CD16CD17C516C557BCF6C4F6
:104BD000D6C4F6C516C4F6C516C516C4F6C4F6C4C2
:104BE000F6C4F6C4F6C516CCF6CCF6CCF6CCF6C4B4
:104BF000F6C536C556CD16D516CD16CD77D558DDAA
:104C000078DD79DD79D558D558C536BD36C536C578
:104C100036CD16CD17CD17CD16C516C516BD36C562
:104C200016C4F5C4F5C4F6C516C516C516C4F6C433
:104C3000F6C4D6C4B5C4B5C4D5C556C4D5C4B5CC60
:104C4000B5C516C516C516C516DD78D578DD58CD9F
:104C500017C536C516C4F6C4B4C4B4C4B4C4B5C408
:104C6000B5BD56BCD4BCB5C4F5C516CD16C536C544
:104C700016C4F5B4F5B51594738C32A4B49CB3ACDA
:104C800093BCD5C537CD57C537C516BCF5A473AC95
:104C900053BC94C4D5C4D5C4F5C4D5BC94B453ACEA
:104CA000B4B4B4B4B4C4B5C4B5C4D5CCF7CD17D579
:104CB00037CD37CD16B4F5B4B4B4D4AC94ACB4ACF1
:104CC000B4B473B453B474B494BCB5C4D6C516C4E8
:104CD000F6C4D5BCB5B474AC94A494A4B4ACD4ACB0
:104CE00093BCB5BCF6C516C537C537CD16C4D5B40B
:104CF00074B453B4D5AC32AC53BC34ACD4A453B5B7
:104D000036B4F5B4B4BCB5BCF6C516C516BCF5BD15
:104D100015A494BCD5C4D6C536C516BD569453AD9E
:104D200015BD77B4B4BCF5C536C536BCF5BD35ADDB
:104D300015AD15B4F5BCF5C536C536C536CD17C4A9
:104D4000F6C4D5C516B4D4BCB5C4D6C4D6C4D5C46F
:104D5000B5C4B5C4B5CCD6C4F6BD15BC94BC94BC22
:104D600094BCB4BCD5C4D5C4F6C537CD37CD37C592
:104D700016C516C537CD37CD17CD37CD16C4F6C4F9
:104D8000F5CCF6C556BD57BD57BD36C557D598DDD0
:104D900099D578D537D5B8D537CD57CD37CD37CC90
:104DA000F6CCF6CD16CD16CD17C516C556BCD5C456
:104DB000D6C4F6C516C4F6C537C516C516C516C57C
:104DC00016C4F6C4F6C4F6CCF6CCF6CCF6C4F6CCD3
:104DD000F6C556C556CD16CCF6CCF6CD77D558DDF2
:104DE00078DD79DD79DD58D558C557C577C536C525
:104DF00036CD16CD17CD17CD16C516C516BD57BD68
:104E000016C4F5C4F5C4F6C4F6C516C4F6C4F6C493
:104E1000F6C4D6C4B5C4B5BCD5C536C4D5C4B5C4AE
:104E2000B5C516C516BCF5C516D578D578DD58CDEF
:104E300037C536C516C4F6C4B4C4B5C4B4C4B5C405
:104E4000B5BD56BCD4BCB5C4F5CD16CD17C536C559
:104E500016C4F5B4F5B5159C739432A4B3A4B3ACE1
:104E600073BCD5C537CD57C537C516BCF5A473ACD3
:104E700053BC94C4D5C4D5C4F5C4D5BC94B453AC08
:104E8000B4B4D4B4B4C4B5C4B5C4D5CD17CD17D556
:104E900037CD17CD16B4D4AC94ACD4AC94ACB4AC80
:104EA000B4AC73B453B494B494BCB5C4D6C516C4EE
:104EB000F6C4D5BCB5B474ACB4ACB4A494ACD4ACA6
:104EC00073BCD5BCF6C516C537CD37CD16C4D5B421
:104ED00074B453B4D5AC32AC53BC34ACD4AC73B5AD
:104EE00036B4F5B4B4BCB5BCF6C516C516BCF5BD34
:104EF00015A494BCF5C4F6C536BD16BD569452AD86
:104F000035BD56B4B4C515C536C536BCF5BD36ADD0
:104F100035AD15B4F5BCF5C537C537C537CD17C5A3
:104F200016C4D5BD16B4D4BCD5C4D6C4D6C4D5C455
:104F3000B5C4B5C495CCD6C4F6BD15BC94BC94BC60
:104F400094BC94BCD5C4D6C4F6C537CD37CD37CDC7
:104F500017C516C537CD17CD17CD17CD16C4F6C456
:104F6000F5C4F6C556BD36C557C536C577D598DDE7
:104F700099D578D537D5B8D537CD37CD37CD37CCCE
:104F8000F6CCF6CD16CD17CD17C516BD36BCD5C49B
:104F9000D5C4F6C4F6C4F6C537C516C4F6C4F6C4FF
:104FA000F6C516C4F6C4F6CD16C4F6CD16C4F6CDB5
:104FB00016C556C556CD16D516CD16CD77D558DDA6
:104FC00078DD79DD79D558D558C536C537C536C5AC
:104FD00036CD16CD17CD17CD16C516C516C557BD7E
:104FE00016C4F5C4F6C4F6C4F6C516C4F6C4F6C4B1
:104FF000F6C4D6C4B5C4B5C4D5BD56C4D5C4B5C4AD
:10500000B5C516C516C4F6C516D578DD78DD58CDFC
:1050100037C516C516C4F6CCB4C4B4BC94C4B5C464
:10502000B5BD56BCB4BCB5C4F5C516CD17C536C59F
:1050300016C4F5B4F5B51594529432A4B4A4B3AC27
:1050400093BCD5C516CD57C537C516BCF5A473ACF2
:1050500033BC94C4D5C4D5C4F5C4D5BC94B453AC46
:10506000B3B4B4B4B4C4B5C4B5C4D5CCF7D537CD96
:1050700017CD17C4F6B4D5B494ACB4B4B4ACB4ACD6
:10508000B4AC73B453B494B494BCB5C4D6C4F6C42D
:10509000F6C4D5BCB5B474ACB4ACB4A4B4ACD4ACA4
:1050A00073BCD5BCF6C4F6C536C537CD16C4D5B469
:1050B00094B453B4D5AC32AC53BC34ACD4A453BDCB
:1050C00036B4F5ACB4BCB5BCF6C516C516BCF5BD5A
:1050D00015A494BCF6C4F6C536BD16BD569452B59B
:1050E00036B556B4B4BCF5C536C536BCF5BD36B517
:1050F00056ACF4B4F5BCF5C537C537C537CD17C5C3
:1051000016C4D5BD16B4D4BCD5C4D5C4D6C4D5C474
:10511000D5C4B5C4B5CCD6C4F6BCF5BC94BC94BC5F
:1051200094BC94BCD5C4D6C4F6C537CD37CD37CDE5
:1051300017C516C537CD17CD17CD17CD16C4F6C474
:10514000F5C4F6C556BD36BD36C516C557D598DD6E
:1051500099D578D537D5B8D537CD37CD37CD37CCEC
:10516000F6CCF6CD16CD17CD17C516C536C4F6C488
:10517000D6C4D6C4F6C4F6C516C516C4F6C516C53B
:1051800016CD16C516C4F6CCF6C4F6C4F6CCF6C4D5
:10519000F6C556C557CD16D516CD16CD77D558DDE3
:1051A00078DD79DD79DD58D557C557BD57C536C58A
:1051B00036CD16CD17CD17CD16C516C516BD57BDA4
:1051C00016C4F5C4F6C4F6C516C516C4F6C4F6C4AE
:1051D000F6C4D6C4B5C4B5C4D5BD56C4D5C4B5CCC3
:1051E000B5C516C516C516BD16D578DD78DD58CD02
:1051F00017C516C516C4F6CCB4C494B452C4B5C40D
:10520000B5BD56BCB4BCB5C4F5C516CD17C536C5BD
:1052100016C4F5B4F5B51594529452A4B49CB3AC2D
:1052200093BCD5C516CD57C537C516BCF5A473AC10
:1052300033BC94C4D5C4D5C4F5C4D5BC94B453AC64
:10524000B3ACB4B4B4C4B5C494C4D5CCF6CD37CDE6
:1052500037CD17B495ACD4B4D5B4D5AC94AC94AC2C
:10526000B4AC73B453B474B494BCB5C4F6C4F6C44B
:10527000F6C4D5BCB5B474ACB4A4B4ACB4ACD4A4CA
:1052800073BCD5BCD5BD16C516CD17CD16C4D5B4C7
:1052900074B473B4F5AC32A452BC54ACB4AC53B5D2
:1052A00036B4F5B4B4BCB5C4F6C516C516BCF6BC68
:1052B000F6A473BCF5BCD5C536C516BD569452AD23
:1052C00015B535AC94BCF5C536C536BCF5B536B5A7
:1052D00035AD15B515BCF5C537C537C537CD16C5C0
:1052E00016BCD5BD15B4D4BCB4C4F5C4F5BCB5C4A6
:1052F000B5C4B5C4B5CCD5C4F6BCF5BC94BC94BC9F
:1053000094BC95BCD5C4D5C4F6C537CD57CD37CDE3
:1053100016C516C537CD17CD17CD17CD16C4F5C494
:10532000F5C4F6C536C556BD36BD36C577D578D574
:1053300098D578CD37CDB8D537CD37CD37CD37CC1B
:10534000F6CCF6CD16CD17CD17CD16BD56BCF5C48F
:10535000F5C4F5C516C516C536C516C516C516C598
:1053600016C516C516CD16CCF6CCF6CCF6CCF6C4C2
:10537000F6CD57C556CD16CD16CCF6CD77D558DD22
:1053800098DD79D578D558D557BD36C557C556C59A
:1053900036CD17CD17CD17CCF6C516C516C557BDDA
:1053A00015C4D5C4F5C4F6C516C516C4F6C4F6C4EE
:1053B000F6C4D5C4D5C494C4D5C556C4D5C4B5C4E3
:1053C000B5C536C4F6C516C4F6D578DD58DD57CD5B
:1053D00016C516C516C4F5CCB5C4B5C4B5C4B5C498
:1053E000B5C556BCB4BCB5BCF5CD16CD37C537C5B3
:1053F00016BCF5B4D5B51594529452A4B4A4B3AC6C
:1054000093BCF5C516CD37C536C516BCF5A493AC0F
:1054100053BC94C4D5C4D5C4F5C4D5BC94B473AC42
:10542000B3AC93B4B4C4B5C494C4D5CCF6CD17CD45
:1054300017CD169C32A493AC93ACB4AC93AC94ACA3
:1054400094AC73B453B473B494BCB5C4F6C4F6C48A
:10545000F6C4D5BCB5B474B4D5ACD4A4B4ACD4A49F
:1054600073BCD5BCF5BD16C516CD37CD16C4D5B4A5
:1054700074B473B4D4AC32AC73BC54ACB4A453B5F0
:1054800035B4F5B4B4BCB5C4F6C516C516C4F6BD7E
:1054900016AC94BCF6BCD5C537C516BD569452ADF6
:1054A00035B515B4B4BCF5C536C536BCF5B556B57D
:1054B00035AD15B515BCF5C537C537C537CD16C5DE
:1054C00016BCD5BD15B4D4BCB4C4D5C4F5BCB5C4E4
:1054D000B5C4B5C495CCD5C4F6BD15B493BC94BCC5
:1054E00094BC95BCD5C4D5C4F6C537CD37CD37CD22
:1054F00016C516C537CD17CD17CD17C516C4F6C4BA
:10550000D5C4F6C556BD36C556BD36C557D578D5B2
:1055100098D578CD37CDB8D537CD37CD37CD37CC39
:10552000F6CCF6CD16CD16CD17CCF6BD56BCF5C4CF
:10553000D5C4D5C516C516C536C516C516C516C5F6
:1055400016C4F6C516CD16CCF6CCF6CCF6CCF6C401
:10555000F6C556C556CD16CD16CCF6CD57D557DD6A
:1055600078DD79D578D558D557C556BD36C536C5F9
:1055700036CD17CD17CD17CD16C516C516C557BCD8
:10558000F5C4D5C4F5C4F6C516C516C4F6C516C40B
:10559000F6C4F5C4D5C4B5C4D5C556C4D5C4B5C4C0
:1055A000B5C536C4F6C516C4F6D578D558DD58CD80
:1055B00016C516C516C4F5CCB5C4B5C4B5C4B5C4B6
:1055C000B5C556BCB4BCB5BCF5CD16CD37C537C5D1
:1055D00016BCF5B4D5B51594539432A4B4A4B3ACA9
:1055E00093BCF5C516CD37C536C516BCF5A473AC4E
:1055F00053BC94C4D5C4D5C4F5C4D5BC94B473AC61
:10560000B3ACB3B4B4C4B5C4B4C4D5CCF6CD17CD23
:1056100017CD17C4D6AC93ACB4AC93ACB4AC94ACCB
:10562000B4AC73B453B474B494BCB5C4F6C4F6C487
:10563000F6C4D5BCB5B474B4D5ACD4A494ACD4A4DD
:1056400073BCD5BCD5C516C537CD37CD17C4D5B4B9
:1056500094B494B4B4AC53AC53BC54ACD4AC53B5C4
:1056600035B4F5B494BCB5C4F6C516C516C4F6BDBC
:1056700016A494BD16BCD5C536BCF6B5369453AD4C
:1056800015AD15B4B4BCF5C516C516BCF5BD36AD23
:1056900035A4F4B515BCF5C537C537C537CD16C526
:1056A00016BCD5BD15B4D4BCB4C4D5C4D5BCB5C422
:1056B000B5C4B5C4B5CCD5CCF6BD15B493BC94BCBB
:1056C00094BCB4BCD5C4D6C4F6C516CD37CD37CD41
:1056D00016C537C537CD17CD16CD16C516C4F5C4BA
:1056E000D5C4F6C536C556C556BD36C577D598D589
:1056F00098D558CD37CDB8D537CD37CD37CD37CC78
:10570000F6CCF6CD16CD16CD16CCF6BD56BCF5C4EE
:10571000D5C4D5C4F5C516C536C516C516C516C437
:10572000F6C4F6C4F6C516CCF6CCF6CCF6C4F6C470
:10573000F6CD57C556CD16CD16CCF6CD77D557DD5F
:1057400078DD78DD78D558CD57C556C557C556C5CF
:1057500036CD17CD17CD17CD16C516C516C557BDF5
:1057600015C4D5C4F5C4F6C516C516C4F6C4F6C42A
:10577000F6C4D5C4D5C4B5C4D5C556C4D5C4B5C4FE
:10578000B5C516C516C516C516D578D558DD57CD7D
:1057900016C516C516C4F5C4B4C4B5C4B5C4B5C4DD
:1057A000B5C556B4B4BCB5BCF5CD16CD37C537C5F7
:1057B00016BCF5B4D5B51594539452A4B4A4B3ACA7
:1057C00093BCF5C516CD37C536C516BCF5A473AC6C
:1057D00032BC94BCD5C4D5C4F5C4D5BC94BC73ACA0
:1057E00093B4B4B4B4C4B5C4B4C4D5CCF6CD17CD59
:1057F00017CD17CCF6B4D4B4D4B4D4ACB4ACB4ACE8
:1058000094AC73B453B474B494BCB5C4D6C4F6C4E5
:10581000F6C4D5BCB5B474B4D5A4B4A4B4ACB4A423
:1058200073BCD5BCD5C516C537CD37CD16C4D5B4D8
:1058300074B4B4AC94AC53AC73BC54ACD5AC53B5E9
:1058400015B4F5B4B4BCB5C4F6C516C516C4F6BDDA
:1058500016A494BD16BCF6C536BCF6B5369453AD49
:1058600015B515B4B4BCF5C516C536BCF5BD36AD19
:1058700035A4D4B536BCF5C537C537C537CD16C543
:1058800016BCD5BD15B4D4BCB4C4D5C4D5BCB5CC38
:10589000D5C4B5C4B5CCF6CCF6BD15B493BC94BC98
:1058A00094BCB4BCD5C4D5C4F6C537CD37CD37CD3F
:1058B00016C537C537C516CD16CD16C516C4F5C4E1
:1058C000F5C4F6C536C536C556BD36C577D598D5A7
:1058D00098D558CD37CDB8D517CD37CD37CD37CCB6
:1058E000F6CCF6CD16CD16CD16C4F6BD56BCF5C415
:1058F000D5C4D5C516C516C516C516C516C516C553
:1059000016C4F6C4F6C516CCF6CCF6CCF6CCF6C466
:10591000F6CD57C536CD16CD16CCF6CD77D537DDBD
:1059200078DD78D578D558CD57BD36C556C536C53E
:1059300036CD17CD17CD17CCF6C516BD16C557BC3D
:10594000F5C4D5C4F5C4F6C516C516C4F6C516C447
:10595000F6C4F5C4D5C4B5C4D5C556C4D5C495C41C
:10596000B5C516C516C4F5C516D557D558DD58CDDD
:1059700016C516C516C4F5C4B4C4B4C494C4B5C41D
:10598000B5C556B4B4BCB5BCF5CD16CD37C537C515
:1059900016BCF5B4D5B51594739432A4B4A4B3ACC5
:1059A00093BCF5C516CD37C536C516BCF5A473AC8A
:1059B00032BC94BCD5C4D5C4F5C4D5BC94BC73ACBE
:1059C00093B4B4B4B4C4B4C494C4D6CCF6CD37CD77
:1059D00037CD17CCF6B4D5ACB4B4D4AC93ACB4AC2E
:1059E00094AC73B453B474B494BCB5C4F6C4F6C4E4
:1059F000F6C4D5BCB5B454B4F5A4B4ACB4ACB4A43A
:105A000073BCD5BCD5BD16CD37CD37CD37C4D5BCCD
:105A100094B4B4AC74A432AC53B454ACD5A473B540
:105A200035B515AC93BCB5C4F6C516C4F6C4F6BD01
:105A300036A493BD16BCF6C516BD16B5369452B540
:105A400036AD35B4B49411BCF5C516BCF5BD36B54C
:105A500055AD35B556BCF5C516CD37C537CD16C5D0
:105A600016BCB5BCF5BCF5BCD4BCD5C4D5C4B5C456
:105A7000D5C4B5C4B5CCF6C4F6B4F5B493B474B417
:105A800074BC94BCB5C4D5C4F6C516CD57CD37C5C6
:105A900016C516C537CD17CD16CD16C516C4F5C417
:105AA000F5C4F5C556BD36BD36BD16BD56D598D51F
:105AB00098D557CD37CDB8CD17CD37CD37C556CCC6
:105AC000F6CCF6CCF6CD16CD16C516BD36BCD5C473
:105AD000D5C4D5C4F5C516C516C516C516C4F6C4B5
