:020000040800F2
:100000009810002071020008CF240008C7240008BF
:10001000CB2400080D0B0008B12D000800000000E3
:10002000000000000000000000000000352600086D
:10003000110B000800000000D12400085126000820
:100040008B0200088B0200088B0200088B0200085C
:100050008B0200088B0200088B0200088B0200084C
:100060008B0200088B0200088B0200088B0200083C
:100070008B0200088B0200088B0200088B0200082C
:100080008B0200088B0200088B0200088B0200081C
:100090008B0200088B0200088B0200088B0200080C
:1000A0008B0200088B0200088B0200088B020008FC
:1000B0008B0200088B0200086D2600088B020008E6
:1000C0008B0200088B0200088B0200088B020008DC
:1000D0008B020008A12D00088B0200088B0200088B
:1000E0008B0200088B0200088B0200088B020008BC
:1000F0008B0200088B0200088B0200088B020008AC
:100100008B0200088B0200088B0200088B0200089B
:100110008B0200088B0200088B0200088B0200088B
:100120008B0200088B0200088B0200088B0200087B
:100130008B0200088B0200088B0200088B0200086B
:100140008B0200088B0200088B0200088B0200085B
:100150008B0200088B0200088B0200088B0200084B
:100160008B0200088B0200088B0200088B0200083B
:100170008B0200088B0200088B02000800000000C0
:100180008B0200088B02000800F002F800F061F812
:100190000AA090E8000C82448344AAF10107DA45E2
:1001A00001D100F056F8AFF2090EBAE80F0013F0D3
:1001B000010F18BFFB1A43F001031847BC380000B9
:1001C000DC380000103A24BF78C878C1FAD852074A
:1001D00024BF30C830C144BF04680C6070470000C1
:1001E0000023002400250026103A28BF78C1FBD840
:1001F000520728BF30C148BF0B607047692900F023
:100200005181642900F04E81752900F04B816F29DE
:1002100000F0E281782900F007820368DB0928BF3B
:1002200041F08001632900F09A83E32900F0C08344
:10023000002070471FB503F0FDFA00F0EDFB04004D
:100240000020002103F0E0FA401C60601FBD10B5E3
:1002500010BD00F0EDFB1146FFF7ECFF02F0FEFED3
:1002600000F00BFC03B4FFF7F2FF03BC02F0C5FD86
:100270000948804709480047FEE7FEE7FEE7FEE73A
:10028000FEE7FEE7FEE7FEE7FEE7FEE70448054976
:10029000054A064B704700005926000889010008EE
:1002A000980A002098100020980C0020980C00203C
:1002B000704753EA020C00F069802DE9F04B4FF0D3
:1002C0000006002B1FBFB3FA83F503FA05F424FAE6
:1002D00005F65E4012BF1643B2FA82F502FA05F443
:1002E000C5F120051EBF22FA05FC44EA0C042035A6
:1002F00056EA044C4FEA144418BF641C4FF000083F
:100300004FF00009904271EB030C39D3002919BF5B
:10031000B1FA81F701FA07F6B0FA80F700FA07F6AA
:10032000C7F120071EBF20FA07FC46EA0C0620375B
:10033000B6FBF4FCA7EB0507103F07F01F0BCBF152
:1003400020060CFA0BFB2CFA06F644BFB346002637
:10035000202FA4BF5E464FF0000B5BEA060C08BFDF
:100360004FF0010B19EB0B09ABFB027C48EB0608C5
:10037000C01B06FB02CC0BFB03CC71EB0C01C1E7ED
:100380000B46024641464846BDE8F08B13B54FF098
:1003900000004FF00001AFF30080BDE81C40704743
:1003A0000FB4044910B503AA029800F0E5FA10BC96
:1003B0005DF814FB040000200FB41CB5074B06AA1F
:1003C0007B4469460090059800F0A7FA0020694632
:1003D00000F0B6FA1CBC5DF814FB00007D050000BF
:1003E00070B5044685690068C10601D5302600E075
:1003F0002026C00707D070BDD4E9012130469047C0
:10040000206A401C20626D1EF6D570BD70B5044692
:1004100085690078C00707D170BDD4E9012120208B
:100420009047206A401C20626D1EF6D570BD096899
:100430004A0501D540B27047C905FCD500B27047E6
:1004400009684A0501D5C0B27047C905FCD580B21C
:10045000704770B50C460546012A05D028788006FD
:1004600000D5EA69002302E0012305E05B1C93420A
:1004700002D2E05C0028F9D1A869E618C01AA86188
:10048000286A184428622846FFF7AAFF04E0D5E945
:10049000012114F8010B9047B442F8D32846FFF726
:1004A000B5FF70BD2DE9F04106460024106875299E
:1004B000314616A510D0FFF7BAFF002802DA4042F5
:1004C00013A507E031688A0701D512A502E04907A4
:1004D00004D511A5012401E0FFF7B2FF00210A2293
:1004E00006F1240709E0B0FBF2FCB0FBF2F302FBDB
:1004F0001C00303078541846491C0028F3D123469C
:100500002A463046BDE8F04100F0A9B900000000DD
:100510002D0000002B000000200000002DE9FF5FEF
:1005200015468A460446DFF8AC80F8440027D8E92F
:1005300000103E46CDE9001010E03AF816106A4669
:1005400002A800F041FA411C07D02178890603D5A2
:10055000E269391891420DD80744761C207880064C
:1005600002D5E069B84205DDAE42E6DB3AF8160096
:100570000028E2D1A069C01BA0612046FFF730FF30
:10058000D8E90010CDE90010002017E03AF8181063
:100590006A4602A800F018FAB0F1FF3F81460BD07E
:1005A00000250DF1080B05E0D4E901211BF8050039
:1005B00090476D1C4D45F7D308F10100B0428046CD
:1005C000E4DB206A384420622046FFF71FFFBDE8C5
:1005D000FF9F00000635000070B5044621461068F4
:1005E000FFF72EFF002104F1240505E000F00702CB
:1005F0003032C0086A54491C0028F7D12068002313
:1006000007A2050707D5800600D421B1E0690123C0
:1006100004A2401EE0612046BDE8704000F01FB912
:10062000000000003000000070B504460D46214671
:100630001068FFF705FF2188090502D50F4A7A44A3
:1006400002E00E4A7A440E32002104F1240305E050
:1006500000F00F060009965D5E54491C0028F7D192
:1006600020780023000704D5702D02D009B10223A1
:1006700011322046BDE8704000F0F1B8FA330000B6
:100680002DE9F05F894604464FF0000ADFF874B1A7
:10069000FB44C0F820A02046E1688847002874D0B9
:1006A000252806D0D4E901219047206A401C206209
:1006B000F1E700265F462046E16888472028054686
:1006C00007DB312D05D2781910F8200C08B106434C
:1006D000F1E7B00701D526F00406C4F81CA00027F6
:1006E000C4F818A02A2D09D0284602F07FFB38B3A1
:1006F00004EB8708303DC8F8185019E059F8041B7E
:10070000204604EB87029161E1688847012F054686
:1007100018D1E069002820DA26F020061DE0D8F87C
:10072000180000EB800005EB40003038C8F81800D6
:100730002046E1688847054602F058FB0028EED1C4
:10074000012F0AD02E2D08D12046E16888477F1C52
:100750000546022F46F02006C4DBA069002803DA14
:10076000404246F00106A061F00701D026F01006D5
:100770006C2D0BD0682D09D04C2D39D06A2D35D079
:10078000742D35D07A2D33D016E038E0E1682F464D
:1007900020468847B842054609D16C2F26D04FF431
:1007A0008060E168064320468847054604E06C2FD8
:1007B0001AD04FF4807006430DB3A5F141001928FB
:1007C00002D8203546F400664A462946204626606F
:1007D0004E46FFF713FD80B101280BD0F61D26F021
:1007E000070000F1080956E74020E4E78020D8E739
:1007F0000020D6E706F104094DE7284652E7206AB3
:10080000BDE8F09FD03300004FF0000200B5134662
:1008100094469646203922BFA0E80C50A0E80C5020
:10082000B1F12001BFF4F7AF090728BFA0E80C50D1
:1008300048BF0CC05DF804EB890028BF40F8042BCA
:1008400008BF704748BF20F8022B11F0804F18BF37
:1008500000F8012B704770477047704770472DE9CB
:10086000F0470D4699469246044600F12408016877
:10087000880604D5E06921F01001216000E0012024
:10088000A84201DD471B00E00027A1697A1902EBAD
:100890000900081AA0612078C00602D42046FFF79C
:1008A0009FFD002608E0D4E901211AF806009047D0
:1008B000206A401C761C20624E45F4DB2078C0067E
:1008C0000AD52046FFF78CFD06E0D4E9012130204F
:1008D0009047206A401C2062381EA7F10107F4DC13
:1008E00007E0D4E9012118F805009047206A401C70
:1008F0002062281EA5F10105F3DC2046FFF786FDE6
:100900002078000602D50220BDE8F0870120FBE731
:1009100001694A1C02610878704700B58FB0CDE9C3
:1009200001310021059105497944CDE903101146B3
:100930006846FFF7A5FE0FB000BD0000E5FFFFFF12
:100940000A6802F8010B0A60704710B5436913B1D9
:10095000AFF3008001E0FFF77CFD012010BD1278AD
:1009600000F124010A7000224A700122EDE71168AB
:100970004FF0FF32E9E70000074B70B50D467B44AE
:10098000FFF7CBFF0446284600F04AF810B14FF0BD
:10099000FF3070BD204670BDE724000010B54369EC
:1009A00013B1AFF3008001E0FFF7B8FD012010BDE7
:1009B000128800F1240182840022C2840122EDE722
:1009C00011684FF0FF32E9E770B516460C46054650
:1009D00000F01AF8036893F80101012806D0FF2CF3
:1009E0000FD8185D68B101202C7070BDD3F80701D5
:1009F0003246214603F2071303442846BDE87040FF
:100A000018474FF0FF3070BD10B500F005F8001D1D
:100A100010BD00BFF52D000000487047540A0020AB
:100A2000007B00F08000704700487047340A0020C7
:100A30007546FFF7F9FFAE4605006946534620F0BC
:100A40000700854618B020B5FFF720FCBDE8204020
:100A50004FF000064FF000074FF000084FF0000B7A
:100A600021F00701AC46ACE8C009ACE8C009ACE82D
:100A7000C009ACE8C0098D46704710B50446AFF315
:100A800000802046BDE81040FFF7ECBB4FF0013C72
:100A900050F8042B51F8043B9A4221D1A2EB0C03ED
:100AA000934313EACC1317D150F8042B51F8043BAD
:100AB0009A4215D1A2EB0C03934313EACC130BD14A
:100AC00050F8042B51F8043B9A4209D1A2EB0C03D5
:100AD000934313EACC13DBD04FF00000704700BF04
:100AE000D01A01BAB1FA81F101F0180122FA01F02D
:100AF000CB40C1F12001DBB2C0B2C01A2CFA01F325
:100B0000D11A914311EAC311E6D1704700BFFEE745
:100B10007047000010B588B004461C481C490860A6
:100B20005320486000211A48816040F2F311C160EF
:100B3000002101614161816101F0F8F81C2101A8E7
:100B4000FFF762FE6020019040F2F31060436421E1
:100B500090FBF1F002900220039000200590082203
:100B600001A90B4801F060F809480068C06940F02D
:100B7000080007490968C8610821054801F04AF9D9
:100B8000034800F04BFF08B010BD00000008004013
:100B9000EC09002070B50446A56D00F071F9064619
:100BA00094F83500022808D08020606500BF00203E
:100BB00084F8340000BF012070BD2068006820F078
:100BC0001600216808602068406920F080002168D4
:100BD0004861206C08B9A06C28B12068006820F03A
:100BE0000800216808602068006820F00100216882
:100BF000086010E000F044F9801B05280BD9202084
:100C00006065032084F8350000BF002084F83400BC
:100C100000BF0320D0E72068006800F00100002832
:100C2000E8D194F85C103F208840A860012084F847
:100C3000350000BF002084F8340000BF00BFBBE7D0
:100C4000014691F83500022803D080204865012034
:100C50007047052081F835000868006820F0010021
:100C60000A6810600020F3E710B50446A0B202F055
:100C7000CDF810BDF8B502460B4600250024002033
:100C80000021D6E0012606FA01F51E6806EA0504F1
:100C9000AC4274D11E7906F00306012E04D01E79F1
:100CA00006F00306022E13D190684F000326BE40C3
:100CB000B0434F00DE68BE4030439060506801266C
:100CC0008E40B0431E79C6F300168E40304350600C
:100CD0001E7906F00306032E09D0D0684F000326C4
:100CE000BE40B0434F009E68BE403043D0601E7986
:100CF00006F00306022E13D1CF0802F1200656F8A3
:100D000027004E07F70E0F26BE40B0434F07FF0ED9
:100D10001E69BE403043CF0802F1200646F8270086
:100D200010684F000326BE40B0431E7906F003064C
:100D30004F00BE40304310605E6806F44036002E1F
:100D400076D000BF002600963C4E366846F48046BA
:100D50003A4F3E603E46366806F48046009600BF35
:100D600000BF374E8F0856F827008E07370F0F2623
:100D7000BE40B043334EB24202D1002624E057E0D9
:100D8000314EB24201D101261EE0304EB24201D1B5
:100D9000022619E02E4EB24201D1032614E02D4E58
:100DA000B24201D104260FE02B4EB24201D10526FA
:100DB0000AE02A4EB24201D1062605E0284EB24290
:100DC00001D1072600E008268F073F0FBE403043C1
:100DD0001B4E8F0846F82700224E3068A0435E68FD
:100DE00006F4801606B120431E4E3060361D306872
:100DF000A0435E6806F4001606B12043194E361D66
:100E00003060184E361F3068A0435E6806F4003626
:100E100006B12043134E361F3060361F3068A043A2
:100E20005E6806F4803606B120430E4E083E306000
:100E3000491C1029FFF426AFF8BD000044380240D9
:100E4000083801400000024000040240000802404F
:100E5000000C024000100240001402400018024042
:100E6000001C0240083C01400AB1816101E00B0412
:100E70008361704701480068000C7047002004E05F
:100E80000148006870470000100000200348006817
:100E900003490978084401490860704710000020A0
:100EA0001800002010B50A48006840F40070084996
:100EB00008600846006840F480600860032000F085
:100EC00083F80F2000F006F800F02AF8002010BD8B
:100ED000003C024070B504460E4800784FF47A7129
:100EE000B1FBF0F00C490968B1FBF0F5284600F0C1
:100EF00078FD08B1012070BD102C07D200222146D8
:100F0000501E00F022F80548046001E00120F2E7DD
:100F10000020F0E71800002000000020140000204E
:100F200070470146084600280DDB00BF00BF00F0F7
:100F30001F0301229A4043099B0003F1E023C3F8F9
:100F4000002100BF00BF00BF70472DE9F05F804661
:100F50000D461646002701F02DFF074639462A4662
:100F6000334601F00700C0F1070ABAF1040F02D9B5
:100F70004FF0040A01E0C0F1070AD14600F1040A6B
:100F8000BAF1070F02D24FF0000A01E0A0F1030A04
:100F9000D4464FF0010A0AFA09FAAAF1010A0AEA4C
:100FA000020A0AFA0CFA4FF0010B0BFA0CFBABF138
:100FB000010B0BEA030B4AEA0B042146404601F001
:100FC00001FFBDE8F09F000000BF00F00702064BE4
:100FD00019684FF6FF031940044B0B4343EA022103
:100FE000014B196000BF70470CED00E00000FA05EE
:100FF00070B504460D460CB9012070BD5848006814
:1010000000F00700A84209D255490D700846006853
:1010100000F00700A84201D00120EEE7207800F0A0
:10102000020002281DD1207800F00400042805D118
:101030004C48006840F4E0504A490860207800F0CD
:101040000800082805D14748006840F46040454939
:1010500008604448006820F0F000A1680843414956
:101060000860207800F00100A8B36068012807D16B
:101070003C4808380068C0F34040B8B90120BCE7DC
:101080006068022802D06068032807D13548083814
:101090000068C0F3406048B90120AEE73148083825
:1010A0000068C0F3400008B90120A6E72D48006899
:1010B00020F00300616808432A490860FFF7E0FE5A
:1010C000064609E0FFF7DCFE801B41F288318842CA
:1010D00002D9032091E707E02248006800F00C00E5
:1010E0006168B0EB810FEDD11D48006800F007008A
:1010F000A84209D91A490D700846006800F0070097
:10110000A84201D0012078E7207800F004000428EC
:1011100007D11448006820F4E050E1680843114901
:101120000860207800F00800082808D10D48006801
:1011300020F46040216940EAC1000A49086000F0DB
:101140003FF808490968C1F30311074A515CC840D8
:101150000649086006480068FFF7BCFE00204CE71F
:10116000003C0240083802403E38000800000020E1
:1011700014000020014800687047000000000020B3
:1011800000B5FFF7F7FF04490968C1F38221034A5C
:10119000515CC84000BD0000083802404E380008CD
:1011A00000B5FFF7E7FF04490968C1F34231034A7C
:1011B000515CC84000BD0000083802404E380008AD
:1011C0002DE9F047002400250026A14625480068A7
:1011D00000F00C0020B1042805D008283AD105E021
:1011E000DFF8849039E0DFF8849036E01D48001F76
:1011F000006800F03F041B48001F006800F48000F6
:1012000078B11A481749091F0968C1F38811A0FB72
:1012100001700146224600233846FFF74AF805468A
:101220000EE011480F49091F0968C1F38811A0FB9E
:1012300001700146224600233846FFF73AF805467A
:101240000848001F0068C0F30140401C4600B5FB81
:10125000F6F902E0DFF8109000BF00BF4846BDE895
:10126000F0870000083802400024F40000127A00E1
:10127000F8B504460CB90120F8BD207800F0010053
:10128000002874D0F948006800F00C0004280DD044
:10129000F648006800F00C00082813D1F348001F3E
:1012A000006800F48000B0F5800F0BD1EF480838DB
:1012B0000068C0F34040002859D06068002856D12B
:1012C0000120D9E700BF6068B0F5803F08D1E7484A
:1012D0000838006840F48030E449083908601EE0AE
:1012E0006068B0F5A02F0DD1E0480838006840F4E0
:1012F0008020DE49083908600846006840F48030E4
:1013000008600CE0D9480838006820F48030D749DC
:10131000083908600846006820F48020086000BF93
:10132000606890B1FFF7ACFD054606E0FFF7A8FD49
:10133000401B642801D903209EE7CC480838006888
:10134000C0F340400028F1D011E0FFF799FD0546B9
:1013500006E0FFF795FD401B642801D903208BE7C9
:10136000C24808380068C0F340400028F1D1207816
:1013700000F0020002285FD1BC48006800F00C00B9
:1013800058B1BA48006800F00C0008281CD1B748D2
:10139000001F006800F48000B0B9B4480838006845
:1013A000C0F3400020B1E068012801D0012063E7CC
:1013B000AE480838006820F0F800216940EAC10012
:1013C000AA490839086037E0E06800B30120A8495D
:1013D0000860FFF755FD054606E0FFF751FD401B8D
:1013E000022801D9032047E7A04808380068C0F365
:1013F00040000028F1D09D480838006820F0F8002F
:10140000216940EAC10099490839086014E00020C8
:1014100097490860FFF734FD054606E0FFF730FD09
:10142000401B022801D9032026E7904808380068AD
:10143000C0F340000028F1D1207800F0080008280F
:101440002CD16069A8B101208A490860FFF718FD16
:10145000054606E0FFF714FD401B022801D90320D2
:101460000AE782486C300068C0F340000028F1D0E1
:1014700014E000207F490860FFF702FD054606E002
:10148000FFF7FEFC401B022801D90320F4E6774851
:101490006C300068C0F340000028F1D1207800F0E3
:1014A0000400042870D1002770483830006800F02C
:1014B000805090B900BF002000906C483830006820
:1014C00040F080506949383108600846006800F0F3
:1014D0008050009000BF00BF01276748006800F4FB
:1014E0008070B0B96448006840F480706249086058
:1014F000FFF7C6FC054606E0FFF7C2FC401B0228CA
:1015000001D90320B8E65C48006800F48070002828
:10151000F2D000BFA068012808D1544868300068A4
:1015200040F001005149683108601DE0A0680528BD
:101530000DD14E486830006840F004004B496831D6
:1015400008600846006840F0010008600CE0474869
:101550006830006820F0010044496831086008469E
:10156000006820F00400086000BFA068A8B1FFF781
:1015700087FC054609E0FFF783FC401B41F28831F8
:10158000884202D9032077E626E0384868300068B0
:10159000C0F340000028EED013E0FFF771FC0546D1
:1015A00008E0FFF76DFC401B41F28831884201D909
:1015B000032061E62D4868300068C0F34000002831
:1015C000EFD1012F07D129483830006820F0805032
:1015D00026493831086000BFA069002845D023485B
:1015E000006800F00C0008285DD0A069022845D1F1
:1015F00000201F490866FFF743FC054606E0FFF799
:101600003FFC401B022801D9032035E61748083863
:101610000068C0F340600028F1D1D4E90701084315
:10162000616A40EA81110122A06AC2EB500041EADE
:1016300000412C20005D41EA00600C49091F086050
:1016400001200B490866FFF71BFC054606E0FFF783
:1016500017FC401B022801D903200DE60348083877
:101660000068C0F340600028F1D049E0083802402B
:1016700000004742800E4742007000400020214990
:101680000866FFF7FDFB054606E0FFF7F9FB401B88
:10169000022801D90320EFE51B480068C0F3406031
:1016A0000028F2D12CE0A069012800D1E4E5164819
:1016B000001D0668A069012820D006F48001E069B9
:1016C00081421BD106F03F01206A814216D147F6C4
:1016D000C0703040616AB0EB811F0FD106F4403119
:1016E0000122A06AC2EB5000B1EB004F06D106F018
:1016F00070612C20005DB1EB006F01D00120BBE5D3
:101700000020B9E5000047420038024010B5044609
:101710000CB9012010BD606A38B96068B0F5827FED
:1017200000D105E00021E16102E000212161616159
:10173000A06AB0F5005F00D100BF94F8510028B94D
:10174000002084F85000204600F04FF8022084F872
:1017500051002068006820F0400021680860A088DF
:1017600000F48270218901F404410843A18901F445
:1017700000610843217C01F002010843217D01F052
:1017800001010843218B01F400710843217F01F01E
:10179000380108432021095D01F080010843218DB3
:1017A00001F400510843216808600421A06901EA9E
:1017B000104094F8241001F010010843216848609B
:1017C000A06AB0F5005F03D1A08D80B221680861E6
:1017D0002068C06920F400602168C861002060654D
:1017E000012084F85100002094E770472DE9F84368
:1017F00004460F4616461D46FFF742FB8046B1469B
:1018000094F85100012802D00220BDE8F88307B106
:101810000EB90120F9E700BF94F85000012801D16A
:101820000220F2E7012084F8500000BF032084F872
:101830005100002060652763A686E686A063A08726
:10184000E08760642064A068B0F5004F0BD1206889
:10185000006820F04000216808602068006840F4BB
:10186000804021680860A06AB0F5005F0DD100BF1C
:101870002068006820F40050216808602068006833
:1018800040F400502168086000BF2068006800F044
:101890004000402805D02068006840F040002168E2
:1018A0000860E068B0F5006F37D1606810B1B9F139
:1018B000010F09D1206B00882168C860206B801C53
:1018C0002063E08E401EE08623E02068806800F000
:1018D000020002280AD1206B00882168C860206BB2
:1018E000801C2063E08E401EE08612E0FFF7C8FAFD
:1018F000A0EB0800A84201D3681C00B94DB9012033
:1019000084F8510000BF002084F8500000BF03207D
:101910007BE7E08E0028D8D136E0606810B1B9F1DD
:10192000010F09D1206B007821680873206B401CDF
:101930002063E08E401EE08623E02068806800F08F
:10194000020002280AD1206B007821680873206BFE
:10195000401C2063E08E401EE08612E0FFF790FA04
:10196000A0EB0800A84201D3681C00B94DB90120C2
:1019700084F8510000BF002084F8500000BF03200D
:1019800043E7E08E0028D8D1A06AB0F5005F05D10A
:101990002068006840F4805021680860424629466B
:1019A000204600F097FD08B120206065A06850B97E
:1019B00000BF002000902068C06800902068806808
:1019C000009000BF00BF012084F8510000BF00203C
:1019D00084F8500000BF606D08B1012015E70020B9
:1019E00013E770B504462546681EB0F1807F01D329
:1019F00001200FE0681E4FF0E02148610F214FF0F9
:101A0000FF3001F0DFF900204FF0E021886107206E
:101A10000861002070BD704770470000014691F8D2
:101A20003D00012801D001207047022081F83D00CF
:101A30001A4B086898421BD00868B0F1804F17D045
:101A4000174B0868984213D0164B086898420FD07D
:101A5000154B086898420BD0144B0868984207D081
:101A6000134B0868984203D0124B086898420CD177
:101A70000868806800F00702062A0CD00868006831
:101A800040F001000B68186005E00868006840F04D
:101A900001000B6818600020C6E70000000001404C
:101AA0000004004000080040000C00400004014019
:101AB0000040014000180040704770B5044620689F
:101AC000C5682068066906F00200022819D105F0F1
:101AD0000200022815D1401F2168086101202077EB
:101AE0002068806900F0030018B12046FFF7E4FF8A
:101AF00005E0204600F097F8204600F089F9002024
:101B0000207706F00400042819D105F00400042809
:101B100015D1C043216808610220207720688069C0
:101B200000F4407018B12046FFF7C6FF05E02046DC
:101B300000F079F8204600F06BF90020207706F0DD
:101B40000800082819D105F00800082815D1C0435D
:101B500021680861042020772068C06900F0030034
:101B600018B12046FFF7A8FF05E0204600F05BF81B
:101B7000204600F04DF90020207706F010001028D4
:101B800019D105F01000102815D1C0432168086153
:101B9000082020772068C06900F4407018B1204602
:101BA000FFF78AFF05E0204600F03DF8204600F0F0
:101BB0002FF90020207706F0010048B105F0010060
:101BC00030B16FF0010021680861204600F0A8F9EB
:101BD00006F08000802809D105F08000802805D11A
:101BE000C043216808612046FFF715FF06F040005A
:101BF000402809D105F04000402805D1C0432168A4
:101C00000861204600F0D0F906F02000202809D114
:101C100005F02000202805D1C04321680861204636
:101C2000FFF7FAFE70BD70472DE9F04104460D46FE
:101C30001646002700BF94F83C00012802D102207C
:101C4000BDE8F081012084F83C0000BF36B1042ECD
:101C50001BD0082E31D00C2E5ED145E029462068DD
:101C600000F08EFD2068806940F0080021688861DE
:101C70002068806920F004002168886120688069FC
:101C8000296908432168886148E02946206800F0F6
:101C9000AFFD2068806940F4006021688861206899
:101CA000806920F4806021688861206880692969E2
:101CB00040EA01202168886130E02946206800F070
:101CC000D5FD2068C06940F008002168C86120681F
:101CD000C06920F004002168C8612068C0692969D2
:101CE00008432168C86119E02946206800F0FAFD20
:101CF0002068C06940F400602168C8612068C0693C
:101D000020F480602168C8612068C069296940EAC0
:101D100001202168C86101E0012700BF00BF00BFAA
:101D2000002084F83C0000BF384689E710B504461F
:101D30000CB9012010BD94F83D0028B9002084F8AA
:101D40003C00204600F026F8022084F83D00211DCA
:101D5000206800F093FC012084F8460000BF84F85E
:101D60003E0001213F2001554020015541200155F1
:101D700000BF00BF012084F84200432001554420E9
:101D800001554520015500BF012084F83D00002089
:101D9000D0E7000010B586B0044600BF00200090D8
:101DA0001948006840F004001749086008460068B8
:101DB00000F00400009000BF00BF00BF00200090B2
:101DC00011481038006840F002000F4910390860CF
:101DD0000846006800F00200009000BF00BF142118
:101DE00001A8FEF711FD4FF48070019002200290CF
:101DF0000020039002200490059001A90348FEF7FB
:101E000039FF06B010BD0000403802400004024017
:101E10007047000070B504460D4615B994F83E00B1
:101E20000BE0042D02D13F20005D06E0082D02D119
:101E30004020005D01E04120005D012801D001202B
:101E400070BD1DB9022084F83E000EE0042D03D1C0
:101E500002213F20015508E0082D03D10221402036
:101E6000015502E002214120015501222946206846
:101E700000F074FC23492068884203D0224920687E
:101E8000884201D1012000E0002028B12068406C88
:101E900040F40040216848641A49206888421BD0F9
:101EA0002068B0F1804F17D018492068884213D0BD
:101EB0001749206888420FD01649206888420BD005
:101EC00011492068884207D013492068884203D00E
:101ED0001249206888420CD12068806800F007060B
:101EE000062E0CD02068006840F0010021680860D0
:101EF00005E02068006840F00100216808600020CB
:101F00009EE7000000000140000401400004004082
:101F100000080040000C0040004001400018004054
:101F200000B503461C491868884233D11B48008815
:101F3000401C80B219490880322800DA00BD002018
:101F400016490880164890F90000002810DD154851
:101F50000078642806DBFF201149087063201149CE
:101F6000087013E00F480078401C0E4908700DE01F
:101F70000C48007828B901200949087009490870FF
:101F800004E008480078401E0649087005480078BB
:101F900000F052FB00BFD1E7000800402200002003
:101FA000200000202100002070477047704700008B
:101FB0002DE9F84F0446206805682068C668206847
:101FC00047694FF00009CA4605F00F09B9F1000F43
:101FD0000AD105F0200038B106F0200020B12046DB
:101FE00000F0F9FCBDE8F88FB9F1000F7CD007F0E4
:101FF000010018B906F49070002875D005F00100B2
:1020000030B106F4807018B1606C40F0010060647B
:1020100005F0040030B107F0010018B1606C40F029
:102020000200606405F0020030B107F0010018B151
:10203000606C40F00400606405F0080048B106F0F0
:10204000200010B907F0010018B1606C40F00800E2
:102050006064606C002846D005F0200028B106F0CE
:10206000200010B1204600F0B6FC20684069C0F3A3
:10207000801A606C00F0080010B9BAF1000F2DD082
:10208000204600F062FC2068406900F040004028D3
:1020900020D100BF00BF2168143151E8001F21F09A
:1020A00040002168143141E80002002AF3D100BF4A
:1020B000E06B50B17F48E16B0865E06BFEF7C0FD57
:1020C00088B1E06B016D88470DE02046FFF76EFF99
:1020D00009E009E02046FFF769FF04E02046FFF72A
:1020E00065FF002060647DE7206B012878D105F052
:1020F0001000002874D006F010000028FAD000BFAD
:1021000000200090206800680090206840680090DF
:1021100000BF00BF2068406900F04000402870D137
:10212000E06B006840681FFA80F8B8F1000F58D0E3
:10213000A08D404555DDA4F82E80E06BC069B0F558
:10214000807F43D000BF00BF21680C3151E8001FE1
:1021500021F4807021680C3141E80002002AF3D19B
:1021600000BF00BF00BF2168143151E8001F21F0FB
:1021700001002168143141E80002002AF3D100BFB8
:1021800000BF00BF2168143151E8001F21F040005A
:102190002168143141E80002002AF3D100BF202059
:1021A00084F842000020206300BF00BF21680C318A
:1021B00051E8001F21F0100021680C3141E80002B5
:1021C000002AF3D100BFE06BFEF7E4FC022060635D
:1021D000A08DE28D801A81B22046FFF7E6FE0EE068
:1021E00052E0A08D40450AD1E06BC069B0F5807F18
:1021F00005D102206063A18D2046FFF7D6FEF1E6EF
:10220000FFE7A08DE18D401A1FFA80F8E08DD0B372
:10221000B8F1000F37D000BF00BF21680C3151E882
:10222000001F21F4907021680C3141E80002002A5F
:10223000F3D100BF00BF00BF2168143151E8001F77
:1022400021F001002168143141E80002002AF3D195
:1022500000BF202084F842000020206300BF00BFA0
:1022600021680C3151E8001F21F0100021680C3169
:1022700041E80002002AF3D100BF0220606341461A
:102280002046FFF792FEADE605F0800030B106F083
:10229000800018B1204600F053FDA3E605F0400091
:1022A00030B106F0400018B1204600F084FB99E6FA
:1022B00000BF97E63929000810B504460CB9012083
:1022C00010BDA06900B100E000BF94F8410028B93A
:1022D000002084F84000204600F02AF8242084F8EA
:1022E00041002068C06820F400502168C860204682
:1022F00000F0F0FB2068006920F49040216808613C
:102300002068406920F02A00216848612068C06880
:1023100040F400502168C86000206064202084F8E8
:10232000410084F842000020606300BFC8E700005D
:1023300010B586B004462E492068884255D100BFAA
:1023400000BF002000902B48006840F01000294991
:1023500008600846006800F01000009000BF00BF51
:1023600000BF00BF00BF0020009022481438006862
:1023700040F001001F49143908600846006800F069
:102380000100009000BF00BF00BF00BF00BF0020E1
:1023900000900846006840F00100086008460068A8
:1023A00000F00100009000BF00BF00BF4815019081
:1023B0000220029001200390022004900720059043
:1023C00001A90D48FEF756FC4FF4806001900720EC
:1023D000059001A90848FEF74DFC2520FEF7A1FD58
:1023E000032211462520FEF7B0FD06B010BD000007
:1023F00000100140443802400000024070B504461D
:102400000D46164694F8420020280BD105B10EB9AE
:10241000012070BD0020206332462946204600F08E
:102420006FFCF6E70220F4E710B504462049206867
:1024300088423BD11F48008800F4004088BB1D48FB
:10244000008800F4804070B11B4800780A2803D04F
:1024500000201849088024E01648008840F4004015
:10246000144908801DE0144800780D2806D1114851
:10247000008840F480400F49088012E00E48007840
:102480000C490988C1F30D010C4A505409480088D1
:10249000401C0849088008460088C72801DD002044
:1024A0000880012204490648FFF7A8FF10BD00007C
:1024B00000100140080000200A0000202400002035
:1024C000EC000020704700BFFEE700BFFEE770474A
:1024D000704700007CB504460E461546334601227F
:1024E00002212046009500F039F828B1606D40F0D7
:1024F0002000606503207CBD164800681821B0FBF1
:10250000F1F01549B0FBF1F04FF47A7148430190B6
:102510006068B0F5827F0DD13346002280212046CD
:10252000009500F01BF898B1606D40F020006065E8
:102530000320E0E700BF019800B908E00198401EC1
:10254000019020688068C0F3C0100028F3D100BF5C
:102550000020D0E70000002040420F002DE9F84F96
:1025600004460D4690461E46DDF82890FEF788FC8E
:10257000A0EB0900371AFEF783FC82462C4800685E
:10258000C0F3CB307843009046E0701C002843D065
:10259000FEF776FCA0EB0A00B84200D2A7BB206889
:1025A000406820F0E000216848606068B0F5827FF4
:1025B0000DD1A068B0F5004F03D0A068B0F5806FD2
:1025C00005D12068006820F0400021680860A06AFA
:1025D000B0F5005F0DD100BF2068006820F4005006
:1025E000216808602068006840F400502168086095
:1025F00000BF012084F8510000BF002084F8500083
:1026000000BF0320BDE8F88FFFE7009808B9002756
:1026100002E00098401E0090206880682840A84290
:1026200001D1012000E000204045AED10020E9E7C3
:10263000000000207047000040F2F3114143642283
:1026400091FBF2F1014A1268D1637047EC09002056
:1026500010B5FEF71BFC10BD0348006840F4700085
:10266000014908607047000088ED00E010B502489D
:10267000FFF723FA10BD0000EC09002010B5026836
:102680002B4B98420ED0B0F1804F0BD0294B984283
:1026900008D0294B984205D0284B984202D0284BAD
:1026A000984203D122F070024B681A43204B9842A3
:1026B00020D0B0F1804F1DD01E4B98421AD01E4B37
:1026C000984217D01D4B984214D01D4B984211D000
:1026D0001C4B98420ED01C4B98420BD01B4B98427F
:1026E00008D01B4B984205D01A4B984202D01A4B87
:1026F000984203D122F44072CB681A4322F080033F
:102700004C6943EA04028B68C3620B688362084B1E
:10271000984202D00A4B984201D10B6903630368C7
:1027200043F00403036001234361026010BD000015
:10273000000001400004004000080040000C004080
:1027400000040140004001400044014000480140B5
:1027500000180040001C00400020004030B501F08F
:102760001F05012404FA05F3046A9C430462046A09
:1027700001F01F0502FA05F52C43046230BD00008C
:1027800030B5026A056A25F001050562436884696F
:1027900024F0700424F003040D682C4322F002029C
:1027A0008D682A43104DA84200D103E00F4DA84286
:1027B00006D100BF22F00802CD682A4322F00402AD
:1027C000094DA84202D0094DA84207D123F48073D5
:1027D00023F400734D692B438D692B43436084615F
:1027E0004D684563026230BD0000014000040140B5
:1027F00030B5026A056A25F01005056243688469F0
:1028000024F4E04424F440740D6844EA052422F0E2
:1028100020028D6842EA0512124DA84200D103E061
:10282000114DA84207D100BF22F08002CD6842EAD4
:10283000051222F040020B4DA84202D00A4DA842D8
:1028400009D123F4806323F400634D6943EA8503CF
:102850008D6943EA8503436084614D688563026244
:1028600030BD0000000001400004014030B5026AA4
:10287000056A25F4807505624368C46924F0700414
:1028800024F003040D682C4322F400728D6842EAA0
:102890000522124DA84200D103E0114DA84207D1F4
:1028A00000BF22F40062CD6842EA052222F4806271
:1028B0000A4DA84202D00A4DA84209D123F4805300
:1028C00023F400534D6943EA05138D6943EA051368
:1028D0004360C4614D68C563026230BD00000140C1
:1028E0000004014030B5036A056A25F4805505628D
:1028F0004468C26922F4E04222F440720D6842EA60
:10290000052223F400538D6843EA0533084DA8429D
:1029100002D0084DA84204D124F480444D6944EA11
:1029200085144460C2614D680564036230BD0000D7
:10293000000001400004014070B50446A56B002072
:10294000E8852846FFF732FB70BD00BF00BF026874
:102950000C3252E8002F22F4907102680C3242E8E7
:102960000013002BF3D100BF00BF00BF0268143278
:1029700052E8002F22F001010268143242E80013ED
:10298000002BF3D100BF016B01290ED100BF00BFA6
:1029900002680C3252E8002F22F0100102680C325B
:1029A00042E80013002BF3D100BF202180F8421031
:1029B00000210163704710B504462068C06820F00C
:1029C00040002168C860202084F841002046FFF7BD
:1029D00079FD002010BDF8B504460025002694F8C6
:1029E0004200222873D1A068B0F5805F0BD1206926
:1029F00048B9A66A20684068C0F308003080A06A21
:102A0000801CA06214E0A56AA068B0F5805F03D0C6
:102A1000A06828B9206918B920684068287004E0C7
:102A20002068406800F07F002870A06A401CA06207
:102A3000E08D401E80B2E085002846D12068C06845
:102A400020F020002168C8602068C06820F48070F1
:102A50002168C8602068406920F001002168486151
:102A6000202084F8420000206063206B012826D1DA
:102A70000020206300BF00BF21680C3151E8001F17
:102A800021F0100021680C3141E80002002AF3D146
:102A900000BF2068006800F0100010280AD100BFB5
:102AA0000020009020680068009020684068009036
:102AB00000BF00BFA18D2046FFF777FA02E0204655
:102AC000FFF7B2FC0020F8BD01E00020FBE7022088
:102AD000F9E700002DE9F84F04462068006920F46A
:102AE0004050E1680843216808612169A0680843F3
:102AF00061690843E169084300902068C06849F2B1
:102B00000C618843009908432168C86020684069C7
:102B100020F44070A1690843216848617649206823
:102B2000884203D075492068884203D1FEF738FBFC
:102B3000814602E0FEF724FB8146E069B0F5004FD4
:102B40006CD102206168A0FB015003461920A9FB4B
:102B5000007001462A463846FDF7ABFB6421B0FB06
:102B6000F1F04FEA001A02206168A0FB01510B4608
:102B70001920A9FB00712A463846FDF79AFB8346C7
:102B800002206168A0FB015003461920A9FB0071D7
:102B90002A463846FDF78DFB6421B0FBF1F000EBCF
:102BA000C00101EB0010ABEB8000322101EBC00053
:102BB0006421B0FBF1F000F0F8000AEB400A0220BB
:102BC0006168A0FB015003461920A9FB0070014673
:102BD0002A463846FDF76DFB834602206168A0FB5C
:102BE000015003461920A9FB00712A463846FDF71B
:102BF00060FB6421B0FBF1F000EBC00101EB0010C1
:102C0000ABEB8000322101EBC0006421B0FBF1F09E
:102C100000F007005044216888606AE00420616881
:102C2000A0FB015003461920A9FB007001462A466B
:102C30003846FDF73EFB824604206168A0FB015048
:102C400003461920A9FB007001462A463846FDF7C5
:102C500030FB6421B0FBF1F000EBC00101EB001090
:102C6000AAEB8000322101EB00106421B0FBF1F0EF
:102C700000F0F00A04206168A0FB017003461920EF
:102C8000A9FB00513A462846FDF713FB6421B0FB2F
:102C9000F1F00AEB001A04206168A0FB01510B4619
:102CA0001920A9FB00712A463846FDF702FB83462E
:102CB00004206168A0FB015003461920A9FB0070A5
:102CC00001462A463846FDF7F4FA6421B0FBF1F0DC
:102CD00000EBC00101EB0010ABEB8000322101EBF7
:102CE00000106421B0FBF1F000F00F0050442168A7
:102CF0008860BDE8F88F000000100140001401401A
:102D000010B5034699629A85DA850020586422201E
:102D100083F84200186928B11868C06840F48070D0
:102D20001C68E0601868406940F001001C68606140
:102D30001868C06840F020001C68E060002010BDEA
:102D4000014691F84100212828D18868B0F5805FBC
:102D50000BD1086948B90A6A1088C0F308000B68EB
:102D60005860086A801C086205E00B6A581C0862FB
:102D700018780B685860C88C401E80B2C88458B957
:102D80000868C06820F080000B68D8600868C068D8
:102D900040F040000B68D860002070470220FCE73C
:102DA00010B50248FFF704F910BD0000EC00002048
:102DB00000BFFEE702480068C0F302207047000031
:102DC0000CED00E010B5002804DB0A07130E054ADD
:102DD000135406E00A07140E034A00F00F031B1FEA
:102DE000D45410BD00E400E018ED00E030380A28AB
:102DF00001D2012070470020704700BF70470000DB
:102E000001490860704700000C00002010B504461E
:102E10004FF47A7104FB01F000F002F810BD0000DD
:102E200070B5034600224FF0E02675690D4E3668F6
:102E300003FB06F44FF0E026B16910E04FF0E02606
:102E4000B06988420BD0884202D20E1A324402E0A6
:102E50002E1A0E4432440146A24200D300E0EDE7B0
:102E600000BF70BD0C00002000BF054A126802F0D0
:102E70004002002AF9D0C2B2014B5A6070470000EC
:102E80000010014000B587B0142102A8FDF7BCFC7A
:102E900000BF002001905848006840F001005649EA
:102EA00008600846006800F00100019000BF00BF04
:102EB00000BF002001900846006840F00200086052
:102EC0000846006800F00200019000BF00BF00BF8C
:102ED000002001900846006840F00800086008469D
:102EE000006800F00800019000BF00BF00BF002094
:102EF00001900846006840F010000860084600682D
:102F000000F01000019000BF00BF012003900020DE
:102F10000490022005904003029002A93748FDF773
:102F2000A9FE4FF48040029002A93548FDF7A2FEA9
:102F30000220029002A93248FDF79CFE4FF48070F7
:102F4000029002A92F48FDF795FE00BF00200190D6
:102F500029481430006840F4805027491431086033
:102F60000846006800F48050019000BF00BF0220B6
:102F70000390002004900320059005200690202057
:102F8000029002A92048FDF775FE2020029002A9B8
:102F90001C48FDF76FFE1D481D4908604FF4827004
:102FA000486000211A488160C1600221016101214D
:102FB0004161490281610021C16101624162816216
:102FC000FEF7A4FB12480068006840F0400010497A
:102FD00009680860012291030948FDF745FF0122B5
:102FE00091030648FDF740FF00224FF48071054829
:102FF000FDF73AFF07B000BD30380240000C024038
:103000000010024000040240000002400030014075
:103010003401002070B506460C460FE04FF6FC70F8
:10302000844201D9054600E0A5B24FF47A732A46DE
:1030300031460448FEF7DAFB2E44641B002CEDD128
:1030400070BD00003401002001B50A230122694649
:103050000148FEF7CBFB08BD340100200EB5FDF79B
:1030600021FF0723022208214FF4A87000F042FB41
:10307000A820FFF7C5FE4FF4E13000F0A9FB23A024
:10308000FDF78EF900F0C6F93220FDF743FD02206E
:1030900000214FF6B20321A2CDE900100A21084613
:1030A00000F01AF931E0002414E02046FFF7C4FADA
:1030B000022000214FF6E0720323CDE900210290A7
:1030C00022460A21962000F0C3FAC820FFF79EFE90
:1030D000601DC4B2642CE8DD642414E02046FFF7D0
:1030E000ABFA022000214FF6E0720323CDE9002164
:1030F000029022460A21962000F0AAFAC820FFF783
:1031000085FE601FC4B2002CE8DCCCE748656C6C1F
:103110006FEFBC8C576F726C6400000054696D6572
:103120007220447574793A0010B5012211020248E8
:10313000FDF79AFE10BD00000004024010B5002209
:103140004FF480710148FDF78FFE10BD000402406E
:1031500038B50446064800944088401E83B20448AF
:103160000088401E82B20021084600F0F9F838BD00
:103170001A00002010B5012291030248FDF774FEE9
:1031800010BD00000010024010B500224FF4804135
:103190000148FDF769FE10BD0010024010B5012284
:1031A00091030248FDF760FE10BD0000000C0240D4
:1031B00010B500224FF480410148FDF755FE10BDC7
:1031C000000C02402DE9F04F89B006460F46154627
:1031D0009846139C3D480088B04203DD3B48408838
:1031E000B84202DC09B0BDE8F08F202D01DB7E2D56
:1031F00000DD3F254FF005094FF0070A09FB04F0F9
:1032000008900AFB04F00790042C00DDEAE7A5F122
:10321000200000EB80002E49084406904FF0000B80
:103220004FEA282040EA082080B205901298011247
:1032300041EA002080B2049000202BE0002225E02B
:1032400000211FE0069B5B5C034103F00103039335
:10325000039B0BB1059B00E0049B029300230193A9
:103260000BE0DC460BF1010BDFF868E0029B2EF867
:103270001C30019B5B1CDBB20193019BA342F0DB82
:103280004B1C99B24945DDDB511CCAB2A242D7DBC7
:10329000411C88B25045D1DB07983844401E83B2A8
:1032A00008983044401E82B23946304600F096F904
:1032B000FFF76AFFFFF772FF4FEA4B010548FFF780
:1032C000A9FEFFF757FF00BF8CE700001A0000209F
:1032D000563800088C0500202DE9FC4705460E46AF
:1032E00017469946DDE90A8432E0062000FB0450C7
:1032F0001A490988884209DB0025082000FB046080
:1033000086B216484088B04200DC24E0CDE9008453
:1033100017F8012B4B4631462846FFF753FFC845A7
:1033200012D0072101FB0461491E8BB2062101FB6B
:103330000451491E8AB2052101FB045188B231466D
:10334000CDF8008000F00CF8062000FB045085B298
:1033500038780028C9D100BFBDE8FC871A000020DA
:103360002DE9F84F0746884614461D46DDF828A08B
:10337000A74201DCA84501DDBDE8F88F234800889D
:10338000A04203DC21480088401E84B21F484088C8
:10339000A84203DC1D484088401E85B22B462246C9
:1033A0004146384600F01AF9E01B401CA5EB080125
:1033B000491C00FB01F64FF400794FEA2A2040EA4D
:1033C0000A2080B20090002004E0114A009922F8FF
:1033D0001010401C4845F8D3FFF7D6FEFFF7DEFE7D
:1033E0000DE04E4501D9484600E0304683464FEA9D
:1033F0004B010748FFF70EFEA6EB0B0600BF002EA1
:10340000EFD1FFF7B7FE00BFB6E700001A000020BB
:103410008C01002010B5FFF735FDFFF785FE00F0A9
:103420008DF8112000F04DF9C820FDF71DFC00209B
:1034300000F098F800F006F80020FFF789FEFFF78B
:103440007DFE10BD1FB53A2000F03BF9052000F0CD
:1034500044F9B22000F035F92DA103C9CDE90201EC
:10346000052102A800F01CF9B72000F02AF9352048
:1034700000F033F9BB2000F024F9322000F02DF9E0
:10348000C22000F01EF9012000F027F9C32000F04F
:1034900018F9152000F021F9C42000F012F92020BD
:1034A00000F01BF9C62000F00CF90F2000F015F910
:1034B000D02000F006F918A000680390022103A8AC
:1034C00000F0EEF8E02000F0FCF814A090E80E0008
:1034D000C0688DE80E0003900E21684600F0E0F809
:1034E000E12000F0EEF811A3D3E90021D3E90203B3
:1034F000CDE90203CDE900210E21684600F0D0F8A5
:10350000212000F0DEF8292000F0DBF81FBD0000CC
:103510000C0C003333000000A4A10000D0080E09F9
:10352000090531334817141531340000D0080E094D
:1035300009153133481714153134000010B5002235
:1035400002210748FDF790FC3220FDF78DFB012298
:1035500002210348FDF788FC7820FDF785FB10BDAC
:103560000010024010B504461B480471362000F0DC
:10357000A8F834B1012C0ED0022C16D0032C28D17F
:103580001DE0F020144908804FF4A070488000200E
:1035900000F0A3F81EE04FF4A0700F490880F0205F
:1035A0004880C02000F099F814E0F0200A49088013
:1035B0004FF4A0704880702000F08FF80AE04FF4BC
:1035C000A07005490880F0204880A02000F085F810
:1035D00000E000BF00BF10BD1A0000202DE9F05F21
:1035E00004460D4616461F461FFA84F81FFA86F950
:1035F0001FFA85FA1FFA87FB2A2000F062F84FEACB
:10360000282000F06AF808F0FF0000F066F84FEAA2
:10361000292000F062F809F0FF0000F05EF82B208E
:1036200000F04FF84FEA2A2000F057F80AF0FF00A8
:1036300000F053F84FEA2B2000F04FF80BF0FF009A
:1036400000F04BF82C2000F03CF8BDE8F09F0000A3
:103650002DE9F04788B005460E4617461C46DDE9C1
:10366000119ADDF840800F2C00DD0F2422460AA1BC
:1036700002A8FCF7A1FE3A4602A904A8FCF79CFEAA
:10368000434604AA31462846CDE9009AFFF724FEB6
:1036900008B0BDE8F08700002525302564640000EF
:1036A00070B505460C4604B970BDFFF76DFDFFF718
:1036B00075FD21462846FFF7ADFCFFF75BFD00BF17
:1036C000F2E710B50446FFF75FFDFFF771FD2046F6
:1036D000FFF7BAFCFFF74EFD10BD10B50446FFF72B
:1036E00053FDFFF75BFD2046FFF7AEFCFFF742FD01
:1036F00010BD00002DE9F04192B080460C46154601
:103700001E460027302106A8FDF77EF8142101A8E7
:10371000FDF77AF800BF002000902A48006840F0CA
:103720008050284908600846006800F080500090EA
:1037300000BF00BF00BF002000902348006840F495
:103740008040214908600846006800F480400090ED
:1037500000BF00BF012006900004079002200C90DB
:1037600041050D91CDF83C800E941095119606A858
:10377000FDF77EFD07461FB1012012B0BDE8F081C4
:103780000F20019002200290002003904FF4A050DF
:1037900004904FF480500590052101A8FDF728FC06
:1037A00007460FB10120E8E7FDF764FB41F2010194
:1037B000884205D10548006840F4807003490860DC
:1037C0000020DAE74038024000700040003C024030
:1037D00010B5044609480A490860084644600021BB
:1037E0008160C160016181610C214161FEF764FD6E
:1037F000012204490248FEF701FE10BD00100140FD
:10380000EC0000200A00002010B500290AD008783A
:10381000002807D005487844FDF738F9002801D082
:10382000002010BD0248784410BD00008202000054
:103830007A0200004FF04070E1EE100A704700007D
:103840000000000000000102030406070809000050
:10385000000001020304000000000000005F0000FF
:103860000007000700147F147F14242A7F2A1223E4
:103870001308646236495522500005030000001CFD
:103880002241000041221C0014083E081408083E92
:1038900008080050300000080808080800606000B0
:1038A0000020100804023E5149453E00427F40007E
:1038B00042615149462141454B311814127F10276E
:1038C000454545393C4A49493001710905033649A6
:1038D000494936064949291E003636000000563649
:1038E000000008142241001414141414004122147E
:1038F000080201510906324979413E7E1111117EBB
:103900007F494949363E414141227F4141221C7F46
:10391000494949417F090909013E4149497A7F08DE
:1039200008087F00417F41002040413F017F08148B
:1039300022417F404040407F020C027F7F040810FC
:103940007F3E4141413E7F090909063E4151215ECA
:103950007F09192946464949493101017F01013F43
:103960004040403F1F2040201F3F4038403F6314ED
:1039700008146307087008076151494543007F41F7
:10398000410002040810200041417F0004020102AE
:103990000480808080800003070000205454547805
:1039A0007F484444383844444420384444487F38AD
:1039B00054545418087E0901020C5252523E7F089A
:1039C00004047800447D40002040443D007F1028DE
:1039D000440000417F40007C041804787C08040403
:1039E0007838444444387C14141408081414187C9F
:1039F0007C080404084854545420043F4440203CAC
:103A00004040207C1C2040201C3C4030403C44284E
:103A10001028440C5050503C4464544C4400083628
:103A2000410000007F00000041360800020102044E
:103A300002000000000000000000000030313233BE
:103A400034353637383941424344454640305800D2
:103A50003031323334353637383961626364656604
:103A60004030780004000008000000000000000260
:103A70000001000010000000A83B0008000000202A
:103A800024000000C4010008CC3B000824000020F2
:103A900074100000E0010008100100004300000065
:103AA000F8FFFFFF0040404040404040404041415F
:103AB0004141414040404040404040404040404003
:103AC000404040404005020202020202020202029D
:103AD000020202020220202020202020202020029A
:103AE000020202020202909090909090101010102A
:103AF00010101010101010101010101010101010C6
:103B00000202020202028888888888880808080859
:103B10000808080808080808080808080808080825
:103B2000020202024000000000000000000000004D
:103B30000000000000000000000000000000000085
:103B40000000000000000000000000000000000075
:103B50000000000000000000000000000000000065
:103B60000000000000000000000000000000000055
:103B70000000000000000000000000000000000045
:103B80000000000000000000000000000000000035
:103B90000000000000000000000000000000000025
:103BA00000000000000000000024F40000000000FD
:103BB00000000000000000000000000010000000F5
:0C3BC0000100F0004001000001000000C6
:040000050800018965
:00000001FF
