:020000040800F2
:100000004810002095020008233000081B3000082B
:100010001F300008751C0008213600080000000091
:10002000000000000000000000000000893100080E
:10003000791C000800000000253000088B31000802
:10004000AF020008AF020008AF020008AF020008CC
:10005000AF020008AF020008AF020008AF020008BC
:10006000AF020008AF020008AF020008AF020008AC
:10007000AF020008AF020008AF020008AF0200089C
:10008000AF020008AF020008AF020008AF0200088C
:10009000AF020008AF020008AF020008AF0200087C
:1000A000AF020008AF020008AF020008AF0200086C
:1000B000AF020008AF020008AF020008AF0200085C
:1000C000AF020008AF020008AF020008AF0200084C
:1000D000AF02000811360008AF020008AF020008A6
:1000E000AF020008AF020008AF020008AF0200082C
:1000F000AF020008AF020008AF020008AF0200081C
:10010000AF020008AF020008AF020008AF0200080B
:10011000AF020008AF020008AF020008AF020008FB
:10012000AF020008AF020008AF020008AF020008EB
:10013000AF020008AF020008AF020008AF020008DB
:10014000AF020008AF020008AF020008AF020008CB
:10015000AF020008AF020008AF020008AF020008BB
:10016000AF020008AF020008AF020008AF020008AB
:10017000AF020008AF020008AF0200080000000054
:10018000AF020008AF02000800F002F800F072F8B9
:100190000AA090E8000C82448344AAF10107DA45E2
:1001A00001D100F067F8AFF2090EBAE80F0013F0C2
:1001B000010F18BFFB1A43F00103184780460000E7
:1001C000A0460000103A24BF78C878C1FAD8520778
:1001D00024BF30C830C144BF04680C6070470000C1
:1001E0000023002400250026103A28BF78C1FBD840
:1001F000520728BF30C148BF0B607047662904F022
:100200009781652904F09481672904F0918161291F
:1002100004F09081692900F07181642900F06E81F9
:10022000752900F06B816F2900F00282782900F0B7
:1002300027820368DB0928BF41F08001632900F0B1
:100240008287E32900F0A887002070471FB504F0DB
:100250006AF900F0D5FF04000020002104F0D6F870
:10026000401C60600020002104F0BAF8E0601FBD6F
:1002700010B510BD01F0C8F81146FFF7E7FF03F015
:1002800031FB01F0E6F803B4FFF7F2FF03BC03F023
:1002900004FA00000948804709480047FEE7FEE7E6
:1002A000FEE7FEE7FEE7FEE7FEE7FEE7FEE7FEE726
:1002B00004480549054A064B70470000953100087F
:1002C00089010008480A002048100020480C00203E
:1002D000480C0020704753EA020C00F069802DE9B9
:1002E000F04B4FF00006002B1FBFB3FA83F503FA63
:1002F00005F424FA05F65E4012BF1643B2FA82F501
:1003000002FA05F4C5F120051EBF22FA05FC44EAF5
:100310000C04203556EA044C4FEA144418BF641C00
:100320004FF000084FF00009904271EB030C39D3F5
:10033000002919BFB1FA81F701FA07F6B0FA80F780
:1003400000FA07F6C7F120071EBF20FA07FC46EAAD
:100350000C062037B6FBF4FCA7EB0507103F07F0AF
:100360001F0BCBF120060CFA0BFB2CFA06F644BF50
:10037000B3460026202FA4BF5E464FF0000B5BEA79
:10038000060C08BF4FF0010B19EB0B09ABFB027C0D
:1003900048EB0608C01B06FB02CC0BFB03CC71EB41
:1003A0000C01C1E70B46024641464846BDE8F08BCA
:1003B00013B54FF000004FF00001AFF30080BDE82F
:1003C0001C4070470FB4044910B503AA029800F00E
:1003D000C7FE10BC5DF814FB040000200FB41CB570
:1003E000074B06AA7B4469460090059800F081FE01
:1003F0000020694600F090FE1CBC5DF814FB000074
:10040000310D00000FB41CB50C0007AA009001D0FC
:100410002044401E074B7B4469460190069800F03B
:1004200068FE002C03D06946002000F075FE1CBC5D
:100430005DF814FB090D000070B50446856900687D
:10044000C10601D5302600E02026C00707D070BDC8
:10045000D4E9012130469047206A401C20626D1E7D
:10046000F6D570BD70B5044685690078C00707D120
:1004700070BDD4E9012120209047206A401C2062F1
:100480006D1EF6D570BD09684A0501D540B27047AA
:10049000C905FCD500B2704709684A0501D5C0B24C
:1004A0007047C905FCD580B2704770B50C4605464B
:1004B000012A05D02878800600D5EA69002302E0E9
:1004C000012305E05B1C934202D2E05C0028F9D1D5
:1004D000A869E618C01AA861286A18442862284644
:1004E000FFF7AAFF04E0D5E9012114F8010B9047BA
:1004F000B442F8D32846FFF7B5FF70BD2DE9F041AF
:100500000646002410687529314616A510D0FFF75D
:10051000BAFF002802DA404213A507E031688A07D3
:1005200001D512A502E0490704D511A5012401E077
:10053000FFF7B2FF00210A2206F1240709E0B0FB11
:10054000F2FCB0FBF2F302FB1C003030785418468A
:10055000491C0028F3D123462A463046BDE8F04125
:1005600000F0DBB9000000002D0000002B000000AF
:10057000200000002DE9FF5F15468A460446DFF89B
:10058000AC80F8440027D8E900103E46CDE90010C1
:1005900010E03AF816106A4602A800F009FE411C65
:1005A00007D02178890603D5E269391891420DD820
:1005B0000744761C2078800602D5E069B84205DD44
:1005C000AE42E6DB3AF816000028E2D1A069C01B73
:1005D000A0612046FFF730FFD8E90010CDE90010F8
:1005E000002017E03AF818106A4602A800F0E0FD73
:1005F000B0F1FF3F81460BD000250DF1080B05E05F
:10060000D4E901211BF8050090476D1C4D45F7D337
:1006100008F10100B0428046E4DB206A38442062E1
:100620002046FFF71FFFBDE8FF9F0000BA41000012
:1006300070B5044621461068FFF72EFF002104F133
:10064000240505E000F007023032C0086A54491C56
:100650000028F7D12068002307A2050707D58006E8
:1006600000D421B1E069012304A2401EE0612046CC
:10067000BDE8704000F051B90000000030000000FB
:1006800070B504460D4621461068FFF705FF218826
:10069000090502D50F4A7A4402E00E4A7A440E3226
:1006A000002104F1240305E000F00F060009965D27
:1006B0005E54491C0028F7D120780023000704D598
:1006C000702D02D009B1022311322046BDE87040DE
:1006D00000F023B9AE4000002DE9F05F89460446E2
:1006E0004FF0000ADFF874B1FB44C0F820A02046A8
:1006F000E1688847002874D0252806D0D4E9012174
:100700009047206A401C2062F1E700265F462046A1
:10071000E16888472028054607DB312D05D2781986
:1007200010F8200C08B10643F1E7B00701D526F018
:100730000406C4F81CA00027C4F818A02A2D09D06C
:10074000284602F0A3FF38B304EB8708303DC8F811
:10075000185019E059F8041B204604EB87029161F8
:10076000E1688847012F054618D1E069002820DAA2
:1007700026F020061DE0D8F8180000EB800005EBFD
:1007800040003038C8F818002046E1688847054620
:1007900002F07CFF0028EED1012F0AD02E2D08D1C7
:1007A0002046E16888477F1C0546022F46F0200658
:1007B000C4DBA069002803DA404246F00106A061CC
:1007C000F00701D026F010066C2D0BD0682D09D053
:1007D0004C2D39D06A2D35D0742D35D07A2D33D0AB
:1007E00016E038E0E1682F4620468847B8420546C3
:1007F00009D16C2F26D04FF48060E1680643204673
:100800008847054604E06C2F1AD04FF480700643E9
:100810000DB3A5F14100192802D8203546F4006631
:100820004A462946204626604E46FFF7E7FC80B13F
:1008300001280BD0F61D26F0070000F1080956E745
:100840004020E4E78020D8E70020D6E706F104093D
:100850004DE7284652E7206ABDE8F09F844000003B
:1008600010B5203AC0F00B80B1E81850203AA0E84B
:100870001850B1E81850A0E81850BFF4F5AF5FEA7F
:10088000027C24BFB1E81850A0E8185044BF18C932
:1008900018C0BDE810405FEA827C24BF51F8043BD9
:1008A00040F8043B08BF7047D20728BF31F8023B2D
:1008B00048BF11F8012B28BF20F8023B48BF00F8C1
:1008C000012B70474FF0000200B513469446964640
:1008D000203922BFA0E80C50A0E80C50B1F1200153
:1008E000BFF4F7AF090728BFA0E80C5048BF0CC001
:1008F0005DF804EB890028BF40F8042B08BF70475F
:1009000048BF20F8022B11F0804F18BF00F8012BD0
:10091000704770477047704770472DE9F0470D46A4
:1009200099469246044600F124080168880604D5D9
:10093000E06921F01001216000E00120A84201DD02
:10094000471B00E00027A1697A1902EB0900081A89
:10095000A0612078C00602D42046FFF76DFD002676
:1009600008E0D4E901211AF806009047206A401CEB
:10097000761C20624E45F4DB2078C0060AD520465E
:10098000FFF75AFD06E0D4E9012130209047206AA4
:10099000401C2062381EA7F10107F4DC07E0D4E90F
:1009A000012118F805009047206A401C2062281E8B
:1009B000A5F10105F3DC2046FFF754FD2078000681
:1009C00002D50220BDE8F0870120FBE770472DE942
:1009D000FF4F0C461E464FF0FF378BB0D2E90001A7
:1009E000DDF860800A908A46C1F30A5505B93D4694
:1009F000002108464FF00000BAF1000F00F440005B
:100A000005DA00EB80004FF4400101EA50004FEAA4
:100A10009059B9F1010F00DDB9460A9850EA4A0031
:100A20000ED044F61050A5F2FF3545432F14B8F10F
:100A3000000F1ED07542291E1EDDC9F100021CE008
:100A4000B8F1010F4FF0000001D0302103E0F24374
:100A500005E02154401CB042FBDB3046002200215F
:100A600021540B99C1F80880C1E900200FB0BDE8FE
:100A7000F08FBD1B6D1CDEE74A4600DA694206A80E
:100A800000F048FC06AB93E8070003AB83E80700DF
:100A900050460A9900F026FD8DE80700A0F50050A9
:100AA0001F3800900398002D0ADD42F21F014A46CC
:100AB0000844002303A90390684600F08FFF09E073
:100AC000A0F500504A461F38002303A9039068464A
:100AD00000F099FF8DE807000004000C03D04FF0F0
:100AE000FF30410800E01046B8F1000F03D00022AB
:100AF000009215461EE0751E05D400F085FB3032CD
:100B000062556D1EF9D5B3460122084302D000227A
:100B10007F1C04E02078302801D100227F1E002AAB
:100B2000099784D01DE0112D07DA00F06DFB3032FB
:100B300062556D1C50EA0102F5D1084302D00098BD
:100B4000C8B10EE00021681E05E0235C625C6354BE
:100B50002254401E491C8142F7DBAB46A81B401EB5
:100B60000990002004F80B000B98099AC0F808803F
:100B7000C0E9002B7AE711264FF0000857E72DE96E
:100B8000F04F88460446D21D22F0070191B0D1E90A
:100B90000001CDE90A0102F045FD02460B98C00FA5
:100BA00001D02D2007E02068810701D52B2002E02D
:100BB000202101EAC000032A099001D0072A05DBA1
:100BC00003464146204600F065FB0BE12078800695
:100BD00001D5E06900E00620B8F1650F814606D036
:100BE000B8F1660F18D0B8F1670F70D131E000206E
:100BF000B9F1110F009001DB112301E009F10103AC
:100C00000AAA01A90CA8FFF7E2FEDDE90C70002694
:100C100009F10105834647E001204B4600904FF063
:100C200000470AAA01A90CA8FFF7D1FEDDE90DB023
:100C30000C995D46002610B909F101000D18B9EBB9
:100C4000050003D4C0F1FF3609F10105A5EB090049
:100C50002BE0B9F1010F01DA4FF001090020B9F1E1
:100C6000110F0090484601DD112300E003460AAA57
:100C700001A90CA8FFF7ABFEDDE90C704D4600267C
:100C80008346207800070AD4AB4500DA5D4601A808
:100C9000012D04DD411911F8011C302907D04F4501
:100CA00002DA17F1040F04DA012082460FE06D1E0C
:100CB000EEE7002F02DCED1B3E4403E0781CA84267
:100CC00000DD7D1CB81B00F1010A4FF000472078C1
:100CD000000703D4AA4501DB4FF0FF3A0021B7F12A
:100CE000004F0DF143088DF8431024D002202B2330
:100CF000002F01DA7F422D230A21021EA0F10100FC
:100D000000DC5FB197FBF1FC97FBF1F201FB1C7C6F
:100D100017460CF1300C08F801CDEEE7A8F1010000
:100D200003702188090501D5452100E06521A0F166
:100D3000010800F8011C09980FA9A1EB0807FF1D85
:100D400000B10120411901EBEA70A1693844081A89
:100D5000401EA0612078C00602D42046FFF76CFB3D
:100D6000099828B1D4E901219047206A401C2062EB
:100D70002078C00622D52046FFF75EFB1EE0002E3D
:100D800004DBB34502DD01A8805D00E03020D4E93A
:100D900001219047206A401C2062761CAAF10100C4
:100DA0005FEA000A0AD100F02BFAC0680168405CD3
:100DB000D4E901219047206A401C2062281EA5F139
:100DC0000105DCDC07E0D4E9012118F8010B9047AC
:100DD000206A401C2062381EA7F10107F3DC204680
:100DE000FFF740FB032011B041E600002DE9F04F72
:100DF00004460D46D21D22F0070089B0D0E90097C5
:100E00004846394602F00EFC0246F80F01D02D2369
:100E100007E02068810701D52B2302E0202101EAA9
:100E2000C0038DF820300BB1012000E00020032A20
:100E3000824601D0072A04DB2946204600F02AFA20
:100E40003FE12078800601D40D2500E0E569C7F375
:100E50000A560D2D49DA00214FEA175B08464FF07C
:100E60000000002F00F4400007DA00EB80004FF490
:100E7000400100EBD07001EA60008115012901DD1D
:100E80004FF0FF3100224FEA850CBCF1180F06D35A
:100E90001346ACF118004FF08052C24003E04FF40B
:100EA000801323FA0CF30CF10C0CBCF1200F04D3CB
:100EB000ACF1200C09FA0CF001E007FA0CF0002963
:100EC0004FF0004801DD18B90FE00ED140450CD3BA
:100ED00019EB02095F4121B9404502D19F4329EA3C
:100EE0000209BBEB175F00D0761C2088000502D5F5
:100EF0007B48784402E07A487844193808AA3023BD
:100F000002F80A30037C0AF10101002E0AF1020AFC
:100F100053546A4602DC4FF0300101E04FF03101DA
:100F20004FF001088DF8001002D0A6F2FF3603E062
:100F300059EA470100D06B4E002D02DC21780907E9
:100F400004D54FF002082E218DF80110C44600216F
:100F50000BE0C7F303433F01C35C491C6D1E02F85D
:100F60000830052908F1010801DA002DF1DC002123
:100F70000CE000EB1973491C1B786D1E082902F860
:100F800008304FEA091908F1010801DA002DF0DCF8
:100F900021688B0602D516E0A8F10108E04505DDC1
:100FA00002EB080313F8013C302BF5D0B8F1000F29
:100FB00009DD02EB080313F8013C2E2B03D10907CE
:100FC00001D4A8F10108002D05DD3E2102F808102A
:100FD0006D1E08F10108407C002E02F8080008F19F
:100FE000010804DA2D20764202F8080002E02B20E6
:100FF00002F808000A214FF47A70864208F10108CD
:101000000BDB96FBF0F3303302F8083096FBF0F37D
:1010100008F1010800FB136601E0642E0CDB64207C
:1010200096FBF0F3303302F8083096FBF0F308F14A
:10103000010800FB136601E00A2E06DB96FBF1F0C7
:10104000303002F8080008F1010896FBF1F001FBCE
:101050001060303002F80800A16908F1010808EBBF
:10106000050202EB0A00081AA0612078C00602D42B
:101070002046FFF7E1F9216A08AE01EB0A00206281
:1010800004E0D4E9012116F8010B9047BAF1010AF6
:10109000F7D22078C00602D52046FFF7CDF96E467C
:1010A00009E016F8010B3E280FD0D4E90121904742
:1010B000206A401C2062B8F10108F2D22046FFF7F6
:1010C000D1F909B00320BDE8F08F206A28442062DE
:1010D00003E0D4E90121302090476D1EEBD3F8E7FF
:1010E0009E38000002FCFFFF01694A1C026108787B
:1010F000704700B58FB0CDE9013100210591054958
:101100007944CDE9031011466846FFF7E5FA0FB0C0
:1011100000BD0000E5FFFFFF0A6802F8010B0A604E
:101120007047D1E900239A4202D2531C0B60107021
:10113000704710B5436913B1AFF3008001E0FFF7CA
:10114000B4F9012010BD127800F124010A700022C8
:101150004A700122EDE711684FF0FF32E9E7000025
:10116000074B70B50D467B44FFF7C3FF0446284686
:1011700000F042F910B14FF0FF3070BD204670BD55
:101180009F25000010B5436913B1AFF3008001E063
:10119000FFF7F0F9012010BD128800F124018284CC
:1011A0000022C2840122EDE711684FF0FF32E9E727
:1011B00070B516460C46054600F01AF8036893F819
:1011C0000101012806D0FF2C0FD8185D68B101205D
:1011D0002C7070BDD3F807013246214603F2071385
:1011E00003442846BDE8704018474FF0FF3070BDFB
:1011F00010B500F005F8001D10BD00BF1132000051
:1012000000487047080A002030B5B0F10A024FEAE2
:10121000900E71F100034EEA817EB0EB0E0061EB9F
:1012200091014FEA101E4EEA017E10EB0E0041EBD9
:1012300011114FEA102E4EEA016E10EB0E0041EB39
:1012400011214FEA104E4EEA014E10EB0E0041EB19
:101250001141401841F100014FEAD00040EA4170CD
:101260004FEAD10110EB80054FEA810444EA907403
:1012700044EB01046D1944EB0404521BA3414FF0ED
:10128000000348BF0A3200D530BD401C41F10001C7
:1012900030BD00002DE9F0411F46044603260168D9
:1012A000072A01F4006004DB08B116A505E016A5C5
:1012B00003E008B115A500E015A521F0100020609D
:1012C000A069C01EA0610FB1401EA0612046FFF7BB
:1012D000B3F84FB1D4E9012138469047206A401C49
:1012E0002062C01C206206E0206AFAE7D4E90121EE
:1012F00015F8010B9047761EF8D22046FFF7B2F89A
:10130000BDE8F0814E414E006E616E00494E4600D0
:10131000696E66002DE9F047814616468AB0354869
:1013200078440DC88DE80D0032487844801C03AC29
:101330000DC884E80D0041F69B300844372190FB2E
:10134000F1F290FBF1F5A5F1800501FB12041B3CC5
:1013500002D56442012000E00020DFF898A080461A
:101360000027FA44AAF1BE0A0EE0E0070AD032468E
:10137000684607EB470101230AEB810100F043FBBC
:101380008DE8070064107F1C002CEED1194F7F44BC
:10139000AE3F19E0E80715D007EB04100DF1180A6D
:1013A00090E80E008AE80E00C068F04201D198195A
:1013B00008903246012306A903A800F024FB03ABE2
:1013C00083E807006D10641C002DE3D14FF001038A
:1013D00032466946B8F1000F03A802D000F0FEFAC9
:1013E00001E000F010FBC9E90001C9F808200AB0CB
:1013F000BDE8F08700350000007B00F080007047FA
:1014000000487047E80900207546FFF7F9FFAE462F
:1014100005006946534620F00700854618B020B500
:10142000FEF746FFBDE820404FF000064FF00007F2
:101430004FF000084FF0000B21F00701AC46ACE87C
:10144000C009ACE8C009ACE8C009ACE8C0098D46E9
:10145000704710B50446AFF300802046BDE8104049
:10146000FEF711BF4FF0013C50F8042B51F8043B3C
:101470009A4221D1A2EB0C03934313EACC1317D168
:1014800050F8042B51F8043B9A4215D1A2EB0C03FF
:10149000934313EACC130BD150F8042B51F8043BBF
:1014A0009A4209D1A2EB0C03934313EACC13DBD08D
:1014B0004FF00000704700BFD01A01BAB1FA81F1B5
:1014C00001F0180122FA01F0CB40C1F12001DBB29A
:1014D000C0B2C01A2CFA01F3D11A914311EAC31118
:1014E000E6D170475FEA400C08BF91F0000F4FEA69
:1014F0008C234FEAC12243EA51514FEA1C5018BFD6
:1015000000F5F0404FEA300018BF41F000415FEABB
:101510006C5C00F02980BCF1FF3F08BF40F08040C8
:101520007047130C06BF12044FF0100C4FF0000C64
:10153000130E04BF12020CF1080C130F04BF1201AA
:101540000CF1040C930F04BF92000CF1020CD30FAA
:1015500004BF52000CF1010C11464FF00002A0F143
:101560001F00A0EB0C00704711F0004F08BF704740
:1015700031F000413FF4D5AF0B0C06BF09044FF02A
:10158000100C4FF0000C0B0E04BF09020CF1080CFC
:101590000B0F04BF09010CF1040C8B0F04BF890071
:1015A0000CF1020CCB0F04BF49000CF1010CCCF183
:1015B0002003A0EB0C0022FA03F302FA0CF241EA3A
:1015C000030100F10100704720F07F4C80EA030026
:1015D00023F07F47ACEB070303F57C5300F000409A
:1015E00003F1FF032DE980494FEA154B09B44FEA97
:1015F000144325EA0B4E24EA03480FF2042606EBB7
:10160000132749083E785FEA320203FB0667C7F5F5
:10161000000707FB06F64FEA54374FEAD64606F1B5
:10162000020607FB066CCCF1005C4FEA1C472CEA73
:10163000074C07FB06F40CFB06F504EB15464FEAD6
:10164000961634BF00204FF000404FEAD13706FB1A
:1016500007FC4FEA1C4C0CFB0BF7D21B03FB0CF7EF
:1016600061EB07010CFB0EF7B0EB074072EB174282
:101670000CFB08F734BFA2EB0742B2EB074261EB69
:1016800017414FEA0C444FEA910706FB07FC4FEA6B
:101690001C4C0CFB0BF7B0EBC74072EB573203FB53
:1016A0000CF734BFA2EBC742B2EBC74261EB573134
:1016B0000CFB0EF7B0EBC70072EB57720CFB08F790
:1016C00034BFA2EBC702B2EBC70261EB5771039FB5
:1016D0004FEA816141EA921104EBCC044FEAD13721
:1016E0004FEA826206FB07FC42EA90124FEA8060F2
:1016F0004FEA1C4C0CFB0BF7D21B03FB0CF761EB06
:1017000007010CFB0EF7B0EB074072EB17420CFB26
:1017100008F734BFA2EB0742B2EB074261EB174177
:101720004FEA8C554FEA910704EB9C2406FB07FC1B
:101730004FEA1C4C0CFB0BF7B0EBC74072EB573277
:1017400003FB0CF734BFA2EBC742B2EBC74261EB1D
:1017500057310CFB0EF7B0EBC70072EB57720CFB66
:1017600008F734BFA2EBC702B2EBC70261EB5771B7
:1017700015EB4C254FEA816141EA92114FEA8262F2
:101780004FEAD13742EA901206FB07FC44F100040D
:101790004FEA80604FEA1C4C0CFB0BF7D21B03FB9B
:1017A0000CF761EB07010CFB0EF7B0EB074072EB97
:1017B00017420CFB08F734BFA2EB0742B2EB07421B
:1017C00061EB174115EB1C154FEA813141EA92415B
:1017D0004FEA823242EA90424FEA80304FEA0C767A
:1017E00044F1000448EA03434EEA0B484FF0000E70
:1017F000B2EB080C71EB030724BF624639464EEB8F
:101800000E0E4FF0000B0018524149414BEB0B0BF1
:10181000B2EB080C71EB03077BF1000B24BF6246AF
:1018200039464EEB0E0E4FF0000B00185241494165
:101830004BEB0B0BB2EB080C71EB03077BF1000BCE
:1018400024BF624639464EEB0E0E51EA020718BF1E
:1018500046F0010616EB0E7655F1000254F1000138
:1018600003D5BDE88901BDE80088BDE88901BDE870
:101870000048B619524141EB0101A3F10103704741
:1018800080807F7E7D7C7B7A7978777676757473BD
:10189000727171706F6E6E6D6C6C6B6A6A6968687C
:1018A000676666656464636362616160605F5F5E12
:1018B0005E5D5D5C5C5B5B5A5A5959585857575688
:1018C00056555555545453535252525151505050ED
:1018D0004F4F4F4E4E4D4D4D4C4C4C4B4B4B4A4A3F
:1018E0004A49494948484847474747464646454583
:1018F00045444444444343434342424242414141BC
:10190000002B9C4630D477002BD01CB54FEA37070C
:1019100003B44FF010004FF01001BAF1000F06D0E1
:10192000BCF1000FDCBF40F0080040F008014FF0B0
:1019300000000FBCBDE810400BF1010BBBF1010F23
:1019400008BF5FEA170722BF12F1010211F101017E
:101950004FF0004143F1000300F0004043EA000073
:101960007047F9D35708D0E746EA064613F1400F0F
:101970004FEA16461FDD13F1200FDFBF16430A465C
:10198000002120335B42BED0C3F1200746EA064661
:1019900002FA07F74FEA164646EA0706C3F12007A0
:1019A00022FA03F201FA07F721FA03F14FF00003DC
:1019B00042EA0702A7E746EA020646EA06464FEA77
:1019C000164646EA0106BCBF46EA0646360C4FF00C
:1019D00000034FF000024FF0000194E72DE9804C26
:1019E0009A46934670B491E8380007C831EA400C33
:1019F00048BF34EA430C03D5FFF7E6FDFFF780FF4D
:101A0000F0BCBDE8008C2DE9804C9A46934670B43A
:101A100091E8380007C810F0804F08BF13F0804FDE
:101A200003D100F005F8FFF76BFFF0BCBDE8008CB8
:101A300020F07F4780EA030023F07F4C07EB0C0384
:101A4000A3F57C5300F00040A3F1FE0392F0000FD9
:101A500000F0B38095F0000F00F077802DE9014988
:101A60004FEA11404FEA144621EA004800FB06FC09
:101A700024EA064708FB06F607FB08F800FB07F711
:101A800018EB06484CEB164C4FEA124B18EB074884
:101A90004FEA15464CEB174022EA0B4E0BFB06FCB7
:101AA00025EA06470EFB06F607FB0EFE0BFB07F7C3
:101AB0001EEB064E4CEB164C4FF000061EEB074E8D
:101AC0004CEB174B18EB0B0840F1000018EB0E0B1A
:101AD00058EB000840F100008F1A4FF000013CBFA6
:101AE000C943661B14BFB5EB040C00213CBFC943BE
:101AF000F61B4FEA17444EEA8E0E27EA04454FEADA
:101B00001C4704FB07622CEA074C05FB07F70CFB9C
:101B100005F604FB0CFC16EB074642EB174216EBEE
:101B20000C4642EB1C421BEB060658EB02024141FD
:101B300046EA9E0601D5BDE80189B619524141EB3E
:101B40000101A3F10103BDE801894FEA14454FEA01
:101B5000114724EA054621EA074C05FB07F406FB7A
:101B600007F70CFB06F105FB0CFC11EB074144EBFE
:101B700017444FEA124711EB0C4144EB1C4422EA94
:101B8000074C05FB07F206FB07F70CFB06F605FB07
:101B90000CFC16EB074642EB174216EB0C4642EBE9
:101BA0001C456A1854F1000148BF7047B6195241EC
:101BB00041EB0101A3F10103704795F0000F37D00D
:101BC0004FEA11424FEA144721EA024624EA074C41
:101BD00002FB07F106FB07F70CFB06F402FB0CFC0B
:101BE00014EB074441EB17414FEA154714EB0C4443
:101BF00041EB1C4125EA074C02FB07F506FB07F702
:101C00000CFB06F602FB0CFC16EB074645EB1745F2
:101C100016EB0C4645EB1C42121951F1000148BF6E
:101C20007047B619524141EB0101A3F1010370471E
:101C30004FEA14454FEA114724EA054621EA074CCA
:101C400005FB07F106FB07F70CFB06F24FF0000659
:101C500005FB0CFC12EB074241EB174112EB0C4267
:101C600051EB1C4148BF7047921841EB0101A3F1B1
:101C70000103704700BFFEE7704770B50446A56DCD
:101C800000F072F9064694F83500022808D080204A
:101C9000606500BF002084F8340000BF012070BDE3
:101CA0002068006820F016002168086020684069FC
:101CB00020F0800021684861206C08B9A06C28B130
:101CC0002068006820F0080021680860206800682B
:101CD00020F001002168086010E000F045F9801B49
:101CE00005280BD920206065032084F8350000BF4B
:101CF000002084F8340000BF0320D0E7206800688B
:101D000000F001000028E8D194F85C103F208840E2
:101D1000A860012084F8350000BF002084F834005A
:101D200000BF00BFBBE7014691F83500022803D091
:101D30008020486501207047052081F8350008683B
:101D4000006820F001000A6810600020F3E710B579
:101D50000446A0B201F0AAFC10BD0000F8B502468E
:101D60000B460025002400200021D6E0012606FABB
:101D700001F51E6806EA0504AC4274D11E7906F02E
:101D80000306012E04D01E7906F00306022E13D19D
:101D900090684F000326BE40B0434F00DE68BE404F
:101DA00030439060506801268E40B0431E79C6F3E0
:101DB00000168E40304350601E7906F00306032E55
:101DC00009D0D0684F000326BE40B0434F009E6844
:101DD000BE403043D0601E7906F00306022E13D1B8
:101DE000CF0802F1200656F827004E07F70E0F26FF
:101DF000BE40B0434F07FF0E1E69BE403043CF08C0
:101E000002F1200646F8270010684F000326BE4066
:101E1000B0431E7906F003064F00BE403043106009
:101E20005E6806F44036002E76D000BF002600968D
:101E30003C4E366846F480463A4F3E603E46366831
:101E400006F48046009600BF00BF374E8F0856F854
:101E500027008E07370F0F26BE40B043334EB242E5
:101E600002D1002624E057E0314EB24201D10126D2
:101E70001EE0304EB24201D1022619E02E4EB2428F
:101E800001D1032614E02D4EB24201D104260FE009
:101E90002B4EB24201D105260AE02A4EB24201D1B0
:101EA000062605E0284EB24201D1072600E00826AA
:101EB0008F073F0FBE4030431B4E8F0846F8270068
:101EC000224E3068A0435E6806F4801606B12043B7
:101ED0001E4E3060361D3068A0435E6806F4001662
:101EE00006B12043194E361D3060184E361F30683B
:101EF000A0435E6806F4003606B12043134E361F39
:101F00003060361F3068A0435E6806F4803606B144
:101F100020430E4E083E3060491C1029FFF426AFC6
:101F2000F8BD00004438024008380140000002407B
:101F30000004024000080240000C02400010024071
:101F40000014024000180240001C0240083C0140FE
:101F50000AB1816101E00B048361704701480068A8
:101F6000000C7047002004E0014800687047000042
:101F7000100000200348006803490978084401491B
:101F800008607047100000201800002010B50A48B3
:101F9000006840F40070084908600846006840F492
:101FA00080600860032000F083F80F2000F006F83E
:101FB00000F02AF8002010BD003C024070B5044635
:101FC0000E4800784FF47A71B1FBF0F00C490968C3
:101FD000B1FBF0F5284600F078FD08B1012070BD96
:101FE000102C07D200222146501E00F022F805488E
:101FF000046001E00120F2E70020F0E71800002073
:102000000000002014000020704701460846002808
:102010000DDB00BF00BF00F01F0301229A404309FF
:102020009B0003F1E023C3F8002100BF00BF00BF05
:1020300070472DE9F05F80460D461646002701F0F7
:1020400009FB074639462A46334601F00700C0F12E
:10205000070ABAF1040F02D94FF0040A01E0C0F1F7
:10206000070AD14600F1040ABAF1070F02D24FF075
:10207000000A01E0A0F1030AD4464FF0010A0AFA6F
:1020800009FAAAF1010A0AEA020A0AFA0CFA4FF05E
:10209000010B0BFA0CFBABF1010B0BEA030B4AEA49
:1020A0000B042146404601F0DDFABDE8F09F000038
:1020B00000BF00F00702064B19684FF6FF031940F6
:1020C000044B0B4343EA0221014B196000BF7047E8
:1020D0000CED00E00000FA0570B504460D460CB9A1
:1020E000012070BD5848006800F00700A84209D2DE
:1020F00055490D700846006800F00700A84201D05D
:102100000120EEE7207800F0020002281DD120789F
:1021100000F00400042805D14C48006840F4E05069
:102120004A490860207800F00800082805D147488F
:10213000006840F46040454908604448006820F069
:10214000F000A168084341490860207800F00100D0
:10215000A8B36068012807D13C4808380068C0F37C
:102160004040B8B90120BCE76068022802D060682E
:10217000032807D1354808380068C0F3406048B9E3
:102180000120AEE7314808380068C0F3400008B9C4
:102190000120A6E72D48006820F00300616808438D
:1021A0002A490860FFF7E0FE064609E0FFF7DCFE7B
:1021B000801B41F28831884202D9032091E707E071
:1021C0002248006800F00C006168B0EB810FEDD18F
:1021D0001D48006800F00700A84209D91A490D708F
:1021E0000846006800F00700A84201D0012078E707
:1021F000207800F00400042807D11448006820F477
:10220000E050E168084311490860207800F00800B8
:10221000082808D10D48006820F46040216940EA90
:10222000C1000A49086000F03FF808490968C1F395
:102230000311074A515CC840064908600648006817
:10224000FFF7BCFE00204CE7003C0240083802408B
:1022500038450008000000201400002001480068F4
:10226000704700000000002000B5FFF7F7FF0449A9
:102270000968C1F38221034A515CC84000BD0000D7
:10228000083802404845000800B5FFF7E7FF044959
:102290000968C1F34231034A515CC84000BD0000E7
:1022A00008380240484500082DE9F0470024002581
:1022B0000026A1462548006800F00C0020B1042843
:1022C00005D008283AD105E0DFF8849039E0DFF83E
:1022D000849036E01D48001F006800F03F041B4852
:1022E000001F006800F4800078B11A481749091FE0
:1022F0000968C1F38811A0FB017001462246002342
:102300003846FDF7E8FF05460EE011480F49091F62
:102310000968C1F38811A0FB017001462246002321
:102320003846FDF7D8FF05460848001F0068C0F38F
:102330000140401C4600B5FBF6F902E0DFF81090C2
:1023400000BF00BF4846BDE8F087000008380240E3
:102350000024F40000127A00F8B504460CB90120FC
:10236000F8BD207800F00100002874D0F94800681A
:1023700000F00C0004280DD0F648006800F00C00B6
:10238000082813D1F348001F006800F48000B0F55E
:10239000800F0BD1EF4808380068C0F34040002898
:1023A00059D06068002856D10120D9E700BF606885
:1023B000B0F5803F08D1E7480838006840F4803025
:1023C000E449083908601EE06068B0F5A02F0DD11F
:1023D000E0480838006840F48020DE490839086089
:1023E0000846006840F4803008600CE0D94808389E
:1023F000006820F48030D749083908600846006832
:1024000020F48020086000BF606890B1FFF7ACFD49
:10241000054606E0FFF7A8FD401B642801D903200C
:102420009EE7CC4808380068C0F340400028F1D04F
:1024300011E0FFF799FD054606E0FFF795FD401B0B
:10244000642801D903208BE7C24808380068C0F32C
:1024500040400028F1D1207800F0020002285FD12E
:10246000BC48006800F00C0058B1BA48006800F0A1
:102470000C0008281CD1B748001F006800F4800039
:10248000B0B9B44808380068C0F3400020B1E06833
:10249000012801D0012063E7AE480838006820F029
:1024A000F800216940EAC100AA490839086037E00C
:1024B000E06800B30120A8490860FFF755FD054614
:1024C00006E0FFF751FD401B022801D9032047E732
:1024D000A04808380068C0F340000028F1D09D48AB
:1024E0000838006820F0F800216940EAC1009949E5
:1024F0000839086014E0002097490860FFF734FDB0
:10250000054606E0FFF730FD401B022801D90320F5
:1025100026E7904808380068C0F340000028F1D151
:10252000207800F0080008282CD16069A8B10120AB
:102530008A490860FFF718FD054606E0FFF714FD1D
:10254000401B022801D903200AE782486C3000684A
:10255000C0F340000028F1D014E000207F4908605B
:10256000FFF702FD054606E0FFF7FEFC401B0228D0
:1025700001D90320F4E677486C300068C0F34000CE
:102580000028F1D1207800F00400042870D1002741
:1025900070483830006800F0805090B900BF0020CB
:1025A00000906C483830006840F0805069493831FC
:1025B00008600846006800F08050009000BF00BF2F
:1025C00001276748006800F48070B0B9644800686B
:1025D00040F4807062490860FFF7C6FC054606E0DB
:1025E000FFF7C2FC401B022801D90320B8E65C4873
:1025F000006800F480700028F2D000BFA0680128B5
:1026000008D154486830006840F0010051496831F1
:1026100008601DE0A06805280DD14E4868300068AC
:1026200040F004004B49683108600846006840F0FB
:10263000010008600CE047486830006820F00100A5
:102640004449683108600846006820F004000860CA
:1026500000BFA068A8B1FFF787FC054609E0FFF7B7
:1026600083FC401B41F28831884202D9032077E67F
:1026700026E0384868300068C0F340000028EED0FB
:1026800013E0FFF771FC054608E0FFF76DFC401B07
:1026900041F28831884201D9032061E62D48683033
:1026A0000068C0F340000028EFD1012F07D129486E
:1026B0003830006820F0805026493831086000BF6B
:1026C000A069002845D02348006800F00C000828C5
:1026D0005DD0A069022845D100201F490866FFF798
:1026E00043FC054606E0FFF73FFC401B022801D9EA
:1026F000032035E6174808380068C0F3406000281A
:10270000F1D1D4E907010843616A40EA811101224D
:10271000A06AC2EB500041EA00412C20005D41EA72
:1027200000600C49091F086001200B490866FFF78B
:102730001BFC054606E0FFF717FC401B022801D9E9
:1027400003200DE6034808380068C0F34060002805
:10275000F1D049E00838024000004742800E47426D
:1027600000700040002021490866FFF7FDFB054688
:1027700006E0FFF7F9FB401B022801D90320EFE533
:102780001B480068C0F340600028F2D12CE0A0692B
:10279000012800D1E4E51648001D0668A06901285B
:1027A00020D006F48001E06981421BD106F03F0190
:1027B000206A814216D147F6C0703040616AB0EBA2
:1027C000811F0FD106F440310122A06AC2EB5000F4
:1027D000B1EB004F06D106F070612C20005DB1EB2B
:1027E000006F01D00120BBE50020B9E500004742A1
:1027F0000038024010B504460CB9012010BD606AD3
:1028000038B96068B0F5827F00D105E00021E16150
:1028100002E0002121616161A06AB0F5005F00D192
:1028200000BF94F8510028B9002084F850002046D9
:1028300000F04FF8022084F851002068006820F072
:10284000400021680860A08800F48270218901F4AA
:1028500004410843A18901F400610843217C01F08F
:1028600002010843217D01F001010843218B01F49D
:1028700000710843217F01F0380108432021095DE0
:1028800001F080010843218D01F4005108432168C3
:1028900008600421A06901EA104094F8241001F0B6
:1028A0001001084321684860A06AB0F5005F03D1B9
:1028B000A08D80B2216808612068C06920F40060A2
:1028C0002168C86100206065012084F85100002063
:1028D00094E770472DE9F84304460F4616461D4617
:1028E000FFF742FB8046B14694F85100012802D020
:1028F0000220BDE8F88307B10EB90120F9E700BF57
:1029000094F85000012801D10220F2E7012084F858
:10291000500000BF032084F8510000206065276349
:10292000A686E686A063A087E08760642064A0682E
:10293000B0F5004F0BD12068006820F040002168FE
:1029400008602068006840F4804021680860A06A40
:10295000B0F5005F0DD100BF2068006820F4005082
:10296000216808602068006840F400502168086011
:1029700000BF2068006800F04000402805D02068B3
:10298000006840F0400021680860E068B0F5006F22
:1029900037D1606810B1B9F1010F09D1206B0088FF
:1029A0002168C860206B801C2063E08E401EE0869A
:1029B00023E02068806800F0020002280AD1206B22
:1029C00000882168C860206B801C2063E08E401E58
:1029D000E08612E0FFF7C8FAA0EB0800A84201D396
:1029E000681C00B94DB9012084F8510000BF0020D7
:1029F00084F8500000BF03207BE7E08E0028D8D188
:102A000036E0606810B1B9F1010F09D1206B007890
:102A100021680873206B401C2063E08E401EE08616
:102A200023E02068806800F0020002280AD1206BB1
:102A3000007821680873206B401C2063E08E401EE4
:102A4000E08612E0FFF790FAA0EB0800A84201D35D
:102A5000681C00B94DB9012084F8510000BF002066
:102A600084F8500000BF032043E7E08E0028D8D14F
:102A7000A06AB0F5005F05D12068006840F480507E
:102A80002168086042462946204600F0CDFA08B188
:102A900020206065A06850B900BF00200090206829
:102AA000C068009020688068009000BF00BF0120CF
:102AB00084F8510000BF002084F8500000BF606D12
:102AC00008B1012015E7002013E770B5044625463C
:102AD000681EB0F1807F01D301200FE0681E4FF027
:102AE000E02148610F214FF0FF3000F0BBFD0020D6
:102AF0004FF0E021886107200861002070BD704719
:102B0000704700002DE9F84F0446206805682068EA
:102B1000C668206847694FF00009CA4605F00F09EA
:102B2000B9F1000F0AD105F0200038B106F02000FD
:102B300020B1204600F087FBBDE8F88FB9F1000F07
:102B40007CD007F0010018B906F49070002875D009
:102B500005F0010030B106F4807018B1606C40F0EF
:102B60000100606405F0040030B107F0010018B105
:102B7000606C40F00200606405F0020030B107F0C4
:102B8000010018B1606C40F00400606405F00800BA
:102B900048B106F0200010B907F0010018B1606CD0
:102BA00040F008006064606C002846D005F020000A
:102BB00028B106F0200010B1204600F044FB206848
:102BC0004069C0F3801A606C00F0080010B9BAF1D7
:102BD000000F2DD0204600F0F0FA2068406900F088
:102BE0004000402820D100BF00BF2168143151E8C7
:102BF000001F21F040002168143141E80002002A42
:102C0000F3D100BFE06B50B17F48E16B0865E06B2A
:102C1000FFF789F888B1E06B016D88470DE0204629
:102C2000FFF76EFF09E009E02046FFF769FF04E0C7
:102C30002046FFF765FF002060647DE7206B0128D8
:102C400078D105F01000002874D006F0100000289C
:102C5000FAD000BF00200090206800680090206833
:102C60004068009000BF00BF2068406900F040004D
:102C7000402870D1E06B006840681FFA80F8B8F116
:102C8000000F58D0A08D404555DDA4F82E80E06B94
:102C9000C069B0F5807F43D000BF00BF21680C3110
:102CA00051E8001F21F4807021680C3141E80002D6
:102CB000002AF3D100BF00BF00BF2168143151E8E2
:102CC000001F21F001002168143141E80002002AB0
:102CD000F3D100BF00BF00BF2168143151E8001FCD
:102CE00021F040002168143141E80002002AF3D1AC
:102CF00000BF202084F842000020206300BF00BFF6
:102D000021680C3151E8001F21F0100021680C31BE
:102D100041E80002002AF3D100BFE06BFEF7ADFFEF
:102D200002206063A08DE28D801A81B22046FFF7F9
:102D3000E6FE0EE052E0A08D40450AD1E06BC0698E
:102D4000B0F5807F05D102206063A18D2046FFF79A
:102D5000D6FEF1E6FFE7A08DE18D401A1FFA80F85C
:102D6000E08DD0B3B8F1000F37D000BF00BF2168AD
:102D70000C3151E8001F21F4907021680C3141E8BA
:102D80000002002AF3D100BF00BF00BF2168143148
:102D900051E8001F21F001002168143141E80002D0
:102DA000002AF3D100BF202084F8420000202063D5
:102DB00000BF00BF21680C3151E8001F21F0100056
:102DC00021680C3141E80002002AF3D100BF022043
:102DD000606341462046FFF792FEADE605F08000B5
:102DE00030B106F0800018B1204600F0E1FBA3E608
:102DF00005F0400030B106F0400018B1204600F068
:102E000012FA99E600BF97E6A931000810B504460A
:102E10000CB9012010BDA06900B100E000BF94F81A
:102E2000410028B9002084F84000204600F02AF82C
:102E3000242084F841002068C06820F400502168F4
:102E4000C860204600F07EFA2068006920F49040B7
:102E5000216808612068406920F02A0021684861E3
:102E60002068C06840F400502168C8600020606499
:102E7000202084F8410084F842000020606300BFF5
:102E8000C8E7000010B586B004462E492068884285
:102E900055D100BF00BF002000902B48006840F0D3
:102EA0001000294908600846006800F010000090F2
:102EB00000BF00BF00BF00BF00BF0020009022483D
:102EC0001438006840F001001F49143908600846B2
:102ED000006800F00100009000BF00BF00BF00BF0D
:102EE00000BF002000900846006840F00100086024
:102EF0000846006800F00100009000BF00BF00BF5E
:102F000048150190022002900120039002200490B5
:102F10000720059001A90D48FEF720FF4FF48060BF
:102F200001900720059001A90848FEF717FF25200A
:102F3000FFF76BF8032211462520FFF77AF806B059
:102F400010BD000000100140443802400000024063
:102F500070B504460D46164694F8420020280BD161
:102F600005B10EB9012070BD00202063324629460C
:102F7000204600F0FDFAF6E70220F4E710B504461B
:102F80002049206888423BD11F48008800F4004057
:102F900088BB1D48008800F4804070B11B48007851
:102FA0000A2803D000201849088024E01648008829
:102FB00040F40040144908801DE0144800780D28B2
:102FC00006D11148008840F480400F49088012E083
:102FD0000E4800780C490988C1F30D010C4A505481
:102FE00009480088401C0849088008460088C7280E
:102FF00001DD00200880012204490648FFF7A8FFF0
:1030000010BD000000100140080000200A00002050
:1030100020000020E8000020704700BFFEE700BF4E
:10302000FEE77047704700007CB504460E46154623
:103030003346012202212046009500F039F828B1DC
:10304000606D40F02000606503207CBD164800687C
:103050001821B0FBF1F01549B0FBF1F04FF47A7193
:10306000484301906068B0F5827F0DD1334600225D
:1030700080212046009500F01BF898B1606D40F06B
:10308000200060650320E0E700BF019800B908E078
:103090000198401E019020688068C0F3C01000288D
:1030A000F3D100BF0020D0E70000002040420F0015
:1030B0002DE9F84F04460D4690461E46DDF828904F
:1030C000FEF752FFA0EB0900371AFEF74DFF8246CC
:1030D0002C480068C0F3CB307843009046E0701C69
:1030E000002843D0FEF740FFA0EB0A00B84200D210
:1030F000A7BB2068406820F0E00021684860606855
:10310000B0F5827F0DD1A068B0F5004F03D0A06864
:10311000B0F5806F05D12068006820F0400021687C
:103120000860A06AB0F5005F0DD100BF206800689C
:1031300020F40050216808602068006840F40050C6
:103140002168086000BF012084F8510000BF002002
:1031500084F8500000BF0320BDE8F88FFFE7009817
:1031600008B9002702E00098401E0090206880689F
:103170002840A84201D1012000E000204045AED106
:103180000020E9E700000020704710B5FEF7F2FECE
:1031900010BD00000348006840F470000149086059
:1031A0007047000088ED00E070B50446A56B002074
:1031B000E8852846FFF7A4FC70BD00BF00BF026889
:1031C0000C3252E8002F22F4907102680C3242E86F
:1031D0000013002BF3D100BF00BF00BF0268143200
:1031E00052E8002F22F001010268143242E8001375
:1031F000002BF3D100BF016B01290ED100BF00BF2E
:1032000002680C3252E8002F22F0100102680C32E2
:1032100042E80013002BF3D100BF202180F84210B8
:1032200000210163704710B504462068C06820F093
:1032300040002168C860202084F841002046FFF744
:10324000EBFE002010BDF8B504460025002694F8DA
:103250004200222873D1A068B0F5805F0BD12069AD
:1032600048B9A66A20684068C0F308003080A06AA8
:10327000801CA06214E0A56AA068B0F5805F03D04E
:10328000A06828B9206918B920684068287004E04F
:103290002068406800F07F002870A06A401CA0628F
:1032A000E08D401E80B2E085002846D12068C068CD
:1032B00020F020002168C8602068C06820F4807079
:1032C0002168C8602068406920F0010021684861D9
:1032D000202084F8420000206063206B012826D162
:1032E0000020206300BF00BF21680C3151E8001F9F
:1032F00021F0100021680C3141E80002002AF3D1CE
:1033000000BF2068006800F0100010280AD100BF3C
:1033100000200090206800680090206840680090BD
:1033200000BF00BFA18D2046FFF7E9FB02E0204669
:10333000FFF724FE0020F8BD01E00020FBE702209B
:10334000F9E700002DE9F84F04462068006920F4F1
:103350004050E1680843216808612169A06808437A
:1033600061690843E169084300902068C06849F238
:103370000C618843009908432168C860206840694F
:1033800020F44070A16908432168486176492068AB
:10339000884203D075492068884203D1FEF774FF44
:1033A000814602E0FEF760FF8146E069B0F5004F1C
:1033B0006CD102206168A0FB015003461920A9FBD3
:1033C000007001462A463846FCF785FF6421B0FBB1
:1033D000F1F04FEA001A02206168A0FB01510B4690
:1033E0001920A9FB00712A463846FCF774FF834672
:1033F00002206168A0FB015003461920A9FB00715F
:103400002A463846FCF767FF6421B0FBF1F000EB79
:10341000C00101EB0010ABEB8000322101EBC000DA
:103420006421B0FBF1F000F0F8000AEB400A022042
:103430006168A0FB015003461920A9FB00700146FA
:103440002A463846FCF747FF834602206168A0FB06
:10345000015003461920A9FB00712A463846FCF7A3
:103460003AFF6421B0FBF1F000EBC00101EB00106A
:10347000ABEB8000322101EBC0006421B0FBF1F026
:1034800000F007005044216888606AE00420616809
:10349000A0FB015003461920A9FB007001462A46F3
:1034A0003846FCF718FF824604206168A0FB0150F3
:1034B00003461920A9FB007001462A463846FCF74E
:1034C0000AFF6421B0FBF1F000EBC00101EB00103A
:1034D000AAEB8000322101EB00106421B0FBF1F077
:1034E00000F0F00A04206168A0FB01700346192077
:1034F000A9FB00513A462846FCF7EDFE6421B0FBDB
:10350000F1F00AEB001A04206168A0FB01510B46A0
:103510001920A9FB00712A463846FCF7DCFE8346D9
:1035200004206168A0FB015003461920A9FB00702C
:1035300001462A463846FCF7CEFE6421B0FBF1F086
:1035400000EBC00101EB0010ABEB8000322101EB7E
:1035500000106421B0FBF1F000F00F00504421682E
:103560008860BDE8F88F00000010014000140140A1
:1035700010B5034699629A85DA85002058642220A6
:1035800083F84200186928B11868C06840F4807058
:103590001C68E0601868406940F001001C686061C8
:1035A0001868C06840F020001C68E060002010BD72
:1035B000014691F84100212828D18868B0F5805F44
:1035C0000BD1086948B90A6A1088C0F308000B6873
:1035D0005860086A801C086205E00B6A581C086283
:1035E00018780B685860C88C401E80B2C88458B9DF
:1035F0000868C06820F080000B68D8600868C06860
:1036000040F040000B68D860002070470220FCE7C3
:1036100010B50248FFF776FA10BD0000E800002060
:1036200000BFFEE703B401984100009850EAC120B2
:1036300018BF04204A0D18BF40F0010040F2FF728D
:10364000B2EB515F08BF40F00200012808BF05201F
:1036500002B0704702480068C0F3022070470000C3
:103660000CED00E010B5002804DB0A07130E054A34
:10367000135406E00A07140E034A00F00F031B1F41
:10368000D45410BD00E400E018ED00E030380A2802
:1036900001D2012070470020704700BF7047000032
:1036A00001490860704700000C00002010B5044676
:1036B0004FF47A7104FB01F000F002F810BD000035
:1036C00070B5034600224FF0E02675690D4E36684E
:1036D00003FB06F44FF0E026B16910E04FF0E0265E
:1036E000B06988420BD0884202D20E1A324402E0FE
:1036F0002E1A0E4432440146A24200D300E0EDE708
:1037000000BF70BD0C00002000BF054A126802F027
:103710004002002AF9D0C2B2014B5A607047000043
:103720000010014000B587B0142102A8FDF7CAF8C7
:1037300000BF002001905848006840F00100564941
:1037400008600846006800F00100019000BF00BF5B
:1037500000BF002001900846006840F002000860A9
:103760000846006800F00200019000BF00BF00BFE3
:10377000002001900846006840F0080008600846F4
:10378000006800F00800019000BF00BF00BF0020EB
:1037900001900846006840F0100008600846006884
:1037A00000F01000019000BF00BF01200390002036
:1037B0000490022005904003029002A93748FEF7CA
:1037C000CDFA4FF48040029002A93548FEF7C6FAC0
:1037D0000220029002A93248FEF7C0FA4FF480702E
:1037E000029002A92F48FEF7B9FA00BF002001900D
:1037F00029481430006840F480502749143108608B
:103800000846006800F48050019000BF00BF02200D
:1038100003900020049003200590052006902020AE
:10382000029002A92048FEF799FA2020029002A9EE
:103830001C48FEF793FA1D481D4908604FF482703A
:10384000486000211A488160C160022101610121A4
:103850004161490281610021C1610162416281626D
:10386000FEF7C8FF12480068006840F040001049A9
:1038700009680860012291030948FEF769FB0122EB
:1038800091030648FEF764FB00224FF4807105485F
:10389000FEF75EFB07B000BD30380240000C02406E
:1038A00000100240000402400000024000300140CD
:1038B0003001002070B504460D46AAB24FF47A7369
:1038C00021460248FFF706F870BD000030010020D5
:1038D00001B50A23012269460148FEF7FBFF08BD36
:1038E00030010020FEF752FB0723022208214FF48B
:1038F000A87000F0EBFCA820FFF7D2FE4FF4E130F7
:1039000000F052FD04A0FCF75DFD00F0D3FA00F0DA
:1039100059F800BFFEE7000048656C6C6FEFBC8C87
:10392000576F726C6400000010B50122110202484A
:10393000FEF70EFB10BD00000004024010B500228F
:103940004FF480710148FEF703FB10BD00040240F4
:1039500038B50446064800944088401E83B20448A7
:103960000088401E82B20021084600F049FA38BDA6
:103970001A00002010B5012291030248FEF7E8FA70
:1039800010BD00000010024010B500224FF480412D
:103990000148FEF7DDFA10BD0010024010B501220B
:1039A00091030248FEF7D4FA10BD0000000C02405B
:1039B00010B500224FF480410148FEF7C9FA10BD4E
:1039C000000C024030B589B00020FFF7C1FF022093
:1039D00000214FF6E07349A2CDE900100A21084604
:1039E00000F0CAF9022000214FF6FF7348A2CDE98A
:1039F000001032210A2000F0BFF9022000214FF40C
:103A0000FC620423CDE900210290420232214620CB
:103A100000F0AAFB022000214FF6FF733EA2CDE981
:103A2000001050210A2000F0A7F9022000214FF4D5
:103A300078420423CDE90021029001229FED380A4B
:103A40005021462000F054FB1F201423DC228C213F
:103A500000900A2000F05EF90025002429E00021F2
:103A60001F22E0B21423CDE90050CDE90221DC226F
:103A70008C210A2000F0A0FB022000214FF6FF72EB
:103A80000323CDE90021029022467821B42000F0E2
:103A90006BFB022000214FF6FF732522CDE90010B9
:103AA0007821DC2000F040F8E5B21420FEF74FF951
:103AB000641C642CD3DD4FF47A70FEF748F91422AD
:103AC000184904A8FCF7CCFE00240EE004A830F846
:103AD00014004FF49673DC22B4210090142000F0FF
:103AE0008FF96420FEF733F9641C0A2CEEDB4FF4E7
:103AF000FA70FEF72CF909B030BD00004C434B467C
:103B00004220322E302048572053504900000000F8
:103B1000496E743A00000000466C743A00000000E0
:103B2000D00F4940504500082DE9F04F89B00646B6
:103B30000F4615469846139C3D480088B04203DD69
:103B40003B484088B84202DC09B0BDE8F08F202D28
:103B500001DB7E2D00DD3F254FF005094FF0070A00
:103B600009FB04F008900AFB04F00790042C00DD28
:103B7000EAE7A5F1200000EB80002E4908440690FA
:103B80004FF0000B4FEA282040EA082080B2059051
:103B90001298011241EA002080B2049000202BE02C
:103BA000002225E000211FE0069B5B5C034103F03F
:103BB00001030393039B0BB1059B00E0049B02935D
:103BC000002301930BE0DC460BF1010BDFF868E00A
:103BD000029B2EF81C30019B5B1CDBB20193019B06
:103BE000A342F0DB4B1C99B24945DDDB511CCAB244
:103BF000A242D7DB411C88B25045D1DB079838443C
:103C0000401E83B208983044401E82B23946304686
:103C100000F034FAFFF7B8FEFFF7C0FE4FEA4B01A1
:103C20000548FFF747FEFFF7A5FE00BF8CE7000041
:103C30001A00002064450008880500202DE9FC5F7B
:103C400004460D4616461F4631B222B2881A002895
:103C500001DB014600E041420FFA81F8B44201DA8B
:103C6000012001E04FF0FF30019039B22AB2881AEA
:103C7000002801DB014600E0414249420FFA81F988
:103C8000BD4201DA012001E04FF0FF30009008EB67
:103C900009000FFA80FA00BF294620460C9A00F06E
:103CA0001FF8B44202D1BD4200D116E04FEA4A00EB
:103CB0000FFA80FBCB4506DB0AEB09000FFA80FA0E
:103CC0000198204484B2C345E6DC0AEB08000FFAF1
:103CD00080FA0098284485B2DEE700BFBDE8FC9F6B
:103CE00070B504460D46164609480088A04203DD1B
:103CF00007484088A84200DC70BD2B462246294672
:103D0000204600F0BBF9304600F0C4FA00BFF3E7EC
:103D10001A0000202DE9F84304460D4616461F46BA
:103D2000DDF82080A01982B22B4629462046CDF826
:103D30000080FFF783FFE81983B2A01982B2E81967
:103D400081B22046CDF80080FFF778FFE81983B2F2
:103D5000224629462046CDF80080FFF76FFFE9197B
:103D60008BB2A1198AB2A11988B22946CDF8008078
:103D7000FFF764FFBDE8F8832DE9FC4705460E46D2
:103D800017469946DDE90A8432E0062000FB04501C
:103D90001A490988884209DB0025082000FB0460D5
:103DA00086B216484088B04200DC24E0CDE90084A9
:103DB00017F8012B4B4631462846FFF7B5FEC8459C
:103DC00012D0072101FB0461491E8BB2062101FBC1
:103DD0000451491E8AB2052101FB045188B23146C3
:103DE000CDF8008000F00CF8062000FB045085B2EE
:103DF00038780028C9D100BFBDE8FC871A00002030
:103E00002DE9F84F0746884614461D46DDF828A0E0
:103E1000A74201DCA84501DDBDE8F88F23480088F2
:103E2000A04203DC21480088401E84B21F4840881D
:103E3000A84203DC1D484088401E85B22B4622461E
:103E40004146384600F01AF9E01B401CA5EB08017A
:103E5000491C00FB01F64FF400794FEA2A2040EAA2
:103E60000A2080B20090002004E0114A009922F854
:103E70001010401C4845F8D3FFF786FDFFF78EFD74
:103E80000DE04E4501D9484600E0304683464FEAF2
:103E90004B010748FFF70EFDA6EB0B0600BF002EF7
:103EA000EFD1FFF767FD00BFB6E700001A00002062
:103EB0008801002010B5FFF735FCFFF735FD00F055
:103EC0008DF8112000F0DAF9C820FDF740FF00203E
:103ED00000F098F800F006F80020FFF739FDFFF732
:103EE0002DFD10BD1FB53A2000F0C8F9052000F0E7
:103EF000E0F9B22000F0C2F92DA103C9CDE9020119
:103F0000052102A800F0A9F9B72000F0B7F9352083
:103F100000F0CFF9BB2000F0B1F9322000F0C9F970
:103F2000C22000F0ABF9012000F0C3F9C32000F07B
:103F3000A5F9152000F0BDF9C42000F09FF920205C
:103F400000F0B7F9C62000F099F90F2000F0B1F9A0
:103F5000D02000F093F918A000680390022103A874
:103F600000F07BF9E02000F089F914A090E80E0041
:103F7000C0688DE80E0003900E21684600F06DF9D0
:103F8000E12000F07BF911A3D3E90021D3E902037A
:103F9000CDE90203CDE900210E21684600F05DF96C
:103FA000212000F06BF9292000F068F91FBD000006
:103FB0000C0C003333000000A4A10000D0080E094F
:103FC000090531334817141531340000D0080E09A3
:103FD00009153133481714153134000010B500228B
:103FE00002210748FDF7B4FF3220FDF7B0FE0122A1
:103FF00002210348FDF7ACFF7820FDF7A8FE10BDB5
:104000000010024010B504461B480471362000F031
:1040100035F934B1012C0ED0022C16D0032C28D146
:104020001DE0F020144908804FF4A0704880002063
:1040300000F03FF91EE04FF4A0700F490880F02017
:104040004880C02000F035F914E0F0200A490880CB
:104050004FF4A0704880702000F02BF90AE04FF474
:10406000A07005490880F0204880A02000F021F9C8
:1040700000E000BF00BF10BD1A0000202DE9F05F76
:1040800004460D4616461F461FFA84F81FFA86F9A5
:104090001FFA85FA1FFA87FB2A2000F0EFF84FEA93
:1040A000282000F006F908F0FF0000F002F94FEABE
:1040B000292000F0FEF809F0FF0000F0FAF82B20AC
:1040C00000F0DCF84FEA2A2000F0F3F80AF0FF00D5
:1040D00000F0EFF84FEA2B2000F0EBF80BF0FF00B8
:1040E00000F0E7F82C2000F0C9F8BDE8F09F0000D0
:1040F0002DE9F0472DED048B8AB006460F46B0EE51
:10410000408A14461D46DDE916A8DDF860900A2CA9
:1041100000DD0A24062D00DD06256019421C2B4611
:104120000EA102A8FCF75AF918EE100A00F08AF95D
:1041300041EC190B8DED009B02AA142105A8FCF798
:1041400061F9534605AA39463046CDE90089FFF7A3
:1041500013FE0AB0BDEC048BBDE8F08725253025A1
:10416000642E2564660000002DE9F04788B00546FE
:104170000E4617461C46DDE9119ADDF840800F2CEB
:1041800000DD0F2422460AA102A8FCF727F93A46CF
:1041900002A904A8FCF722F9434604AA314628469E
:1041A000CDE9009AFFF7E8FD08B0BDE8F087000010
:1041B00025253025646400002DE9FF4F81B0DDE93D
:1041C0000E78B8F1640F01DD4FF06408642F00DD54
:1041D0006427B84502D105B0BDE8F08F0198801C76
:1041E00084B20298801C1FFA80F90398001F1FFAFE
:1041F00080FA0498001F1FFA80FB0AFB07F0642175
:10420000B0FBF1F085B20AFB08F0B0FBF1F086B22A
:10421000B84510DDAE421EDD109809EB0B01491EBA
:104220008BB2A119491E8AB26119009088B2494621
:10423000FFF7E6FD0FE0B5420DDD119809EB0B012C
:10424000491E8BB26119491E8AB2A119009088B229
:104250004946FFF7D5FD00BFBDE770B505460C46E2
:1042600004B970BDFFF790FBFFF798FB2146284685
:10427000FFF720FBFFF77EFB00BFF2E710B5044617
:10428000FFF782FBFFF794FB2046FFF721FBFFF7C8
:1042900071FB10BD10B50446FFF776FBFFF77EFB00
:1042A0002012FFF715FBE0B2FFF712FBFFF762FBEE
:1042B00010BD10B50446FFF767FBFFF76FFB204604
:1042C000FFF706FBFFF756FB10BD00002DE9F0419C
:1042D00092B080460C4615461E460027302106A89F
:1042E000FCF7F0FA142101A8FCF7ECFA00BF00205B
:1042F00000902A48006840F080502849086008462D
:10430000006800F08050009000BF00BF00BF002098
:1043100000902348006840F4804021490860084626
:10432000006800F48040009000BF00BF01200690AC
:104330000004079002200C9041050D91CDF83C80BF
:104340000E941095119606A8FEF706F807461FB1C1
:10435000012012B0BDE8F0810F20019002200290F0
:10436000002003904FF4A05004904FF4805005902B
:10437000052101A8FDF7B0FE07460FB10120E8E7CF
:10438000FDF7ECFD41F20101884205D105480068C6
:1043900040F48070034908600020DAE740380240AA
:1043A00000700040003C024010B5044609480A492C
:1043B00008600846446000218160C160016181613C
:1043C0000C214161FEF722FD012204490248FEF75B
:1043D000BFFD10BD00100140E80000200A000020D1
:1043E00010B500290AD00878002807D0054878447D
:1043F000FDF738F8002801D0002010BD02487844AD
:1044000010BD00006E0400006604000010B5002915
:104410000AD00878002807D005487844FDF722F82C
:10442000002801D0002010BD0248784410BD0000D3
:104430005E040000560400000808A0F500114FEAD1
:104440003101704743004FEAD30C4FEA3C0C434024
:104450001FBF40070CF1605113F0FE4F70471CF076
:10446000006F03D100200CF0004170470CF00043B6
:1044700043EA507010B540EACC0000F00EF800BFDF
:10448000000000924FEA0001FFF7D6BF4FF0004155
:104490004FF00000A1F5002170470EF1020E2EF042
:1044A000030E5EF8044B244204D44FEA4102B2F1F9
:1044B0007F4F11D84FEA4003B3F17F4F0CD80ED194
:1044C0004FEAD07CB2F17F4F0CEB4C0C0CF1020C9C
:1044D00008BF4CEBD17C04E04FF0080C01E04FEA40
:1044E000D17C0CEB4C0324FA03F404F00704B4F180
:1044F000040C06D20EEB840CBDE810404CF0010C0D
:104500006047DFE80CF0070802024FF00040A0F51A
:10451000800010BD0846420018BFD2F1807288BFEB
:1045200000F0004010BD4FF04070E1EE100A7047FF
:10453000FCF725BBFCF75ABC00000000000000009F
:104540000102030406070809000000000102030439
:10455000FFFF00001F0000F8E007FF071FF8E0FF63
:10456000108420FD000000000000005F0000000734
:10457000000700147F147F14242A7F2A12231308B3
:10458000646236495522500005030000001C224198
:10459000000041221C0014083E081408083E0808C8
:1045A0000050300000080808080800606000002083
:1045B000100804023E5149453E00427F40004261DE
:1045C0005149462141454B311814127F102745456A
:1045D00045393C4A49493001710905033649494981
:1045E00036064949291E00363600000056360000BE
:1045F0000814224100141414141400412214080257
:1046000001510906324979413E7E1111117E7F49DF
:104610004949363E414141227F4141221C7F49495F
:1046200049417F090909013E4149497A7F08080843
:104630007F00417F41002040413F017F081422411B
:104640007F404040407F020C027F7F0408107F3E85
:104650004141413E7F090909063E4151215E7F09E2
:10466000192946464949493101017F01013F40402E
:10467000403F1F2040201F3F4038403F6314081434
:104680006307087008076151494543007F414100B5
:1046900002040810200041417F000402010204804E
:1046A00080808080000307000020545454787F48A5
:1046B0004444383844444420384444487F385454AF
:1046C0005418087E0901020C5252523E7F0804041D
:1046D0007800447D40002040443D007F1028440085
:1046E00000417F40007C041804787C08040478387A
:1046F000444444387C14141408081414187C7C08AE
:104700000404084854545420043F4440203C404092
:10471000207C1C2040201C3C4030403C4428102879
:10472000440C5050503C4464544C44000836410002
:1047300000007F0000004136080002010204020070
:1047400000000000000000003031323334353637CD
:1047500038394142434445464030580030313233C5
:1047600034353637383961626364656640307800C5
:10477000040000080000000000000002000100002A
:10478000103031323334353637383961626364651D
:10479000667870003031323334353637383941423B
:1047A000434445465850000002400000000000A06D
:1047B0000000000005400000000000C800000000EC
:1047C0000C4000000000409C000000001940000068
:1047D0000020BCBE0000000034400000BFC91B8E9A
:1047E00000000004B5400000504BCFD06607E2CF78
:1047F000010000006C4100003E8251AADFEEA734A8
:1048000001000000D9420000DCB5A0E23A301F9759
:10481000FFFFFFFFB4450000FD25A0C8E9A3C14F7D
:10482000FFFFFFFFFF3F00000000008000000000CE
:10483000FF3F0000000000800000000088490008E1
:104840000000002020000000C4010008A849000862
:104850002000002028100000E00100081C000000DB
:1048600043000000F8FFFFFF0C0000000E000000F6
:104870000F0000002E0000001001000043000000A7
:10488000F8FFFFFF00404040404040404040414171
:104890004141414040404040404040404040404015
:1048A00040404040400502020202020202020202AF
:1048B00002020202022020202020202020202002AC
:1048C000020202020202909090909090101010103C
:1048D00010101010101010101010101010101010D8
:1048E000020202020202888888888888080808086C
:1048F0000808080808080808080808080808080838
:10490000020202024000000000000000000000005F
:104910000000000000000000000000000000000097
:104920000000000000000000000000000000000087
:104930000000000000000000000000000000000077
:104940000000000000000000000000000000000067
:104950000000000000000000000000000000000057
:104960000000000000000000000000000000000047
:104970000000000000000000000000000000000037
:1049800000000000000000000024F400000000000F
:104990000000000000000000000000001000000007
:0849A0000100F00040010000DD
:040000050800018965
:00000001FF
