:020000040800F2
:10000000900700202D020008EB160008E3160008F8
:10001000E716000815060008851B00080000000010
:10002000000000000000000000000000EF160008C3
:100030001906000800000000ED160008F11600087F
:10004000470200084702000847020008470200086C
:10005000470200084702000847020008470200085C
:10006000470200084702000847020008470200084C
:10007000470200084702000847020008470200083C
:10008000470200084702000847020008470200082C
:10009000470200084702000847020008470200081C
:1000A000470200084702000847020008470200080C
:1000B00047020008470200084702000847020008FC
:1000C00047020008470200084702000847020008EC
:1000D00047020008751B0008470200084702000895
:1000E00047020008470200084702000847020008CC
:1000F00047020008470200084702000847020008BC
:1001000047020008470200084702000847020008AB
:10011000470200084702000847020008470200089B
:10012000470200084702000847020008470200088B
:10013000470200084702000847020008470200087B
:10014000470200084702000847020008470200086B
:10015000470200084702000847020008470200085B
:10016000470200084702000847020008470200084B
:10017000470200084702000847020008000000008C
:10018000470200084702000800F002F800F03EF8BD
:100190000AA090E8000C82448344AAF10107DA45E2
:1001A00001D100F033F8AFF2090EBAE80F0013F0F6
:1001B000010F18BFFB1A43F0010318476038020013
:1001C00080380200103A24BF78C878C1FAD85207A4
:1001D00024BF30C830C144BF04680C6070470000C1
:1001E0000023002400250026103A28BF78C1FBD840
:1001F000520728BF30C148BF0B60704700207047CE
:100200001FB502F0BFF81FBD10B510BD00F0D4F946
:100210001146FFF7F5FF01F0B1FD00F0F2F903B46C
:10022000FFF7F2FF03BC01F0D2FC00000948804751
:1002300009480047FEE7FEE7FEE7FEE7FEE7FEE7C8
:10024000FEE7FEE7FEE7FEE704480549054A064BE0
:1002500070470000F916000889010008900100208D
:10026000900700209003002090030020704753EA7D
:10027000020C00F069802DE9F04B4FF00006002BD6
:100280001FBFB3FA83F503FA05F424FA05F65E40BE
:1002900012BF1643B2FA82F502FA05F4C5F1200541
:1002A0001EBF22FA05FC44EA0C04203556EA044C31
:1002B0004FEA144418BF641C4FF000084FF00009C7
:1002C000904271EB030C39D3002919BFB1FA81F7C1
:1002D00001FA07F6B0FA80F700FA07F6C7F120072F
:1002E0001EBF20FA07FC46EA0C062037B6FBF4FCDA
:1002F000A7EB0507103F07F01F0BCBF120060CFA08
:100300000BFB2CFA06F644BFB3460026202FA4BFF1
:100310005E464FF0000B5BEA060C08BF4FF0010B86
:1003200019EB0B09ABFB027C48EB0608C01B06FB74
:1003300002CC0BFB03CC71EB0C01C1E70B46024670
:1003400041464846BDE8F08B13B54FF000004FF032
:100350000001AFF30080BDE81C4070470FB40449B2
:1003600010B503AA029800F00DF910BC5DF814FB5B
:10037000040000202DE9F05F894604464FF0000A92
:10038000DFF874B1FB44C0F820A02046E16888473C
:10039000002874D0252806D0D4E901219047206A8E
:1003A000401C2062F1E700265F462046E16888474E
:1003B0002028054607DB312D05D2781910F8200CCE
:1003C00008B10643F1E7B00701D526F00406C4F8EA
:1003D0001CA00027C4F818A02A2D09D0284601F037
:1003E000EFFB38B304EB8708303DC8F8185019E02C
:1003F00059F8041B204604EB87029161E1688847A5
:10040000012F054618D1E069002820DA26F02006E1
:100410001DE0D8F8180000EB800005EB40003038F4
:10042000C8F818002046E1688847054601F0C8FB77
:100430000028EED1012F0AD02E2D08D12046E168E8
:1004400088477F1C0546022F46F02006C4DBA069C2
:10045000002803DA404246F00106A061F00701D00F
:1004600026F010066C2D0BD0682D09D04C2D39D0FC
:100470006A2D35D0742D35D07A2D33D016E038E082
:10048000E1682F4620468847B842054609D16C2FBF
:1004900026D04FF48060E168064320468847054631
:1004A00004E06C2F1AD04FF4807006430DB3A5F111
:1004B0004100192802D8203546F400664A462946EC
:1004C000204626604E46FFF799FE80B101280BD0EA
:1004D000F61D26F0070000F1080956E74020E4E782
:1004E0008020D8E70020D6E706F104094DE728462A
:1004F00052E7206ABDE8F09F813602004FF000020B
:1005000000B5134694469646203922BFA0E80C5009
:10051000A0E80C50B1F12001BFF4F7AF090728BFE4
:10052000A0E80C5048BF0CC05DF804EB890028BF60
:1005300040F8042B08BF704748BF20F8022B11F089
:10054000804F18BF00F8012B704770477047704705
:100550007047000001694A1C02610878704700B5C5
:100560008FB0CDE901310021059105497944CDE9EC
:10057000031011466846FFF7FDFE0FB000BD0000F6
:10058000E5FFFFFF074B70B50D467B44FFF7E7FF24
:100590000446284600F008F810B14FF0FF3070BD57
:1005A000204670BDAF160000007B00F08000704751
:1005B00000487047300100207546FFF7F9FFAE464E
:1005C00005006946534620F00700854618B020B55F
:1005D000FFF73AFEBDE820404FF000064FF000075D
:1005E0004FF000084FF0000B21F00701AC46ACE8DB
:1005F000C009ACE8C009ACE8C009ACE8C0098D4648
:10060000704710B50446AFF300802046BDE81040A7
:10061000FFF705BE00BFFEE7704770B50446A56D45
:1006200000F072F9064694F83500022808D08020C0
:10063000606500BF002084F8340000BF012070BD59
:100640002068006820F01600216808602068406972
:1006500020F0800021684861206C08B9A06C28B1A6
:100660002068006820F008002168086020680068A1
:1006700020F001002168086010E000F045F9801BBF
:1006800005280BD920206065032084F8350000BFC1
:10069000002084F8340000BF0320D0E72068006801
:1006A00000F001000028E8D194F85C103F20884059
:1006B000A860012084F8350000BF002084F83400D1
:1006C00000BF00BFBBE7014691F83500022803D008
:1006D0008020486501207047052081F835000868B2
:1006E000006820F001000A6810600020F3E710B5F0
:1006F0000446A0B201F074FA10BD0000F8B502463D
:100700000B460025002400200021D6E0012606FA31
:1007100001F51E6806EA0504AC4274D11E7906F0A4
:100720000306012E04D01E7906F00306022E13D113
:1007300090684F000326BE40B0434F00DE68BE40C5
:1007400030439060506801268E40B0431E79C6F356
:1007500000168E40304350601E7906F00306032ECB
:1007600009D0D0684F000326BE40B0434F009E68BA
:10077000BE403043D0601E7906F00306022E13D12E
:10078000CF0802F1200656F827004E07F70E0F2675
:10079000BE40B0434F07FF0E1E69BE403043CF0836
:1007A00002F1200646F8270010684F000326BE40DD
:1007B000B0431E7906F003064F00BE403043106080
:1007C0005E6806F44036002E76D000BF0026009604
:1007D0003C4E366846F480463A4F3E603E463668A8
:1007E00006F48046009600BF00BF374E8F0856F8CB
:1007F00027008E07370F0F26BE40B043334EB2425C
:1008000002D1002624E057E0314EB24201D1012648
:100810001EE0304EB24201D1022619E02E4EB24205
:1008200001D1032614E02D4EB24201D104260FE07F
:100830002B4EB24201D105260AE02A4EB24201D126
:10084000062605E0284EB24201D1072600E0082620
:100850008F073F0FBE4030431B4E8F0846F82700DE
:10086000224E3068A0435E6806F4801606B120432D
:100870001E4E3060361D3068A0435E6806F40016D8
:1008800006B12043194E361D3060184E361F3068B1
:10089000A0435E6806F4003606B12043134E361FAF
:1008A0003060361F3068A0435E6806F4803606B1BB
:1008B00020430E4E083E3060491C1029FFF426AF3D
:1008C000F8BD0000443802400838014000000240F2
:1008D0000004024000080240000C024000100240E8
:1008E0000014024000180240001C0240083C014075
:1008F0000AB1816101E00B0483617047014800681F
:10090000000C7047002004E00148006870470000B8
:100910001000002003480068034909780844014991
:1009200008607047100000201800002010B50A4829
:10093000006840F40070084908600846006840F408
:1009400080600860032000F083F80F2000F006F8B4
:1009500000F02AF8002010BD003C024070B50446AB
:100960000E4800784FF47A71B1FBF0F00C49096839
:10097000B1FBF0F5284600F00DFC08B1012070BD78
:10098000102C07D200222146501E00F022F8054804
:10099000046001E00120F2E70020F0E718000020E9
:1009A000000000201400002070470146084600287F
:1009B0000DDB00BF00BF00F01F0301229A40430976
:1009C0009B0003F1E023C3F8002100BF00BF00BF7C
:1009D00070472DE9F05F80460D461646002701F06E
:1009E000D3F8074639462A46334601F00700C0F1DE
:1009F000070ABAF1040F02D94FF0040A01E0C0F16E
:100A0000070AD14600F1040ABAF1070F02D24FF0EB
:100A1000000A01E0A0F1030AD4464FF0010A0AFAE5
:100A200009FAAAF1010A0AEA020A0AFA0CFA4FF0D4
:100A3000010B0BFA0CFBABF1010B0BEA030B4AEABF
:100A40000B042146404601F0A7F8BDE8F09F0000E6
:100A500000BF00F00702064B19684FF6FF0319406C
:100A6000044B0B4343EA0221014B196000BF70475E
:100A70000CED00E00000FA0570B504460D460CB917
:100A8000012070BD5848006800F00700A84209D254
:100A900055490D700846006800F00700A84201D0D3
:100AA0000120EEE7207800F0020002281DD1207816
:100AB00000F00400042805D14C48006840F4E050E0
:100AC0004A490860207800F00800082805D1474806
:100AD000006840F46040454908604448006820F0E0
:100AE000F000A168084341490860207800F0010047
:100AF000A8B36068012807D13C4808380068C0F3F3
:100B00004040B8B90120BCE76068022802D06068A4
:100B1000032807D1354808380068C0F3406048B959
:100B20000120AEE7314808380068C0F3400008B93A
:100B30000120A6E72D48006820F003006168084303
:100B40002A490860FFF7E0FE064609E0FFF7DCFEF1
:100B5000801B41F28831884202D9032091E707E0E7
:100B60002248006800F00C006168B0EB810FEDD105
:100B70001D48006800F00700A84209D91A490D7005
:100B80000846006800F00700A84201D0012078E77D
:100B9000207800F00400042807D11448006820F4ED
:100BA000E050E168084311490860207800F008002F
:100BB000082808D10D48006820F46040216940EA07
:100BC000C1000A49086000F03FF808490968C1F30C
:100BD0000311074A515CC84006490860064800688E
:100BE000FFF7BCFE00204CE7003C02400838024002
:100BF0008E23000800000020140000200148006837
:100C0000704700000000002000B5FFF7F7FF04491F
:100C10000968C1F38221034A515CC84000BD00004D
:100C2000083802409E23000800B5FFF7E7FF04499B
:100C30000968C1F34231034A515CC84000BD00005D
:100C4000083802409E2300082DE9F04700240025C3
:100C50000026A1462548006800F00C0020B10428B9
:100C600005D008283AD105E0DFF8849039E0DFF8B4
:100C7000849036E01D48001F006800F03F041B48C8
:100C8000001F006800F4800078B11A481749091F56
:100C90000968C1F38811A0FB0170014622460023B8
:100CA0003846FFF7E4FA05460EE011480F49091FE0
:100CB0000968C1F38811A0FB017001462246002398
:100CC0003846FFF7D4FA05460848001F0068C0F30D
:100CD0000140401C4600B5FBF6F902E0DFF8109039
:100CE00000BF00BF4846BDE8F0870000083802405A
:100CF0000024F40000127A00F8B504460CB9012073
:100D0000F8BD207800F00100002874D0F948006890
:100D100000F00C0004280DD0F648006800F00C002C
:100D2000082813D1F348001F006800F48000B0F5D4
:100D3000800F0BD1EF4808380068C0F3404000280E
:100D400059D06068002856D10120D9E700BF6068FB
:100D5000B0F5803F08D1E7480838006840F480309B
:100D6000E449083908601EE06068B0F5A02F0DD195
:100D7000E0480838006840F48020DE4908390860FF
:100D80000846006840F4803008600CE0D948083814
:100D9000006820F48030D7490839086008460068A8
:100DA00020F48020086000BF606890B1FFF7ACFDC0
:100DB000054606E0FFF7A8FD401B642801D9032083
:100DC0009EE7CC4808380068C0F340400028F1D0C6
:100DD00011E0FFF799FD054606E0FFF795FD401B82
:100DE000642801D903208BE7C24808380068C0F3A3
:100DF00040400028F1D1207800F0020002285FD1A5
:100E0000BC48006800F00C0058B1BA48006800F017
:100E10000C0008281CD1B748001F006800F48000AF
:100E2000B0B9B44808380068C0F3400020B1E068A9
:100E3000012801D0012063E7AE480838006820F09F
:100E4000F800216940EAC100AA490839086037E082
:100E5000E06800B30120A8490860FFF755FD05468A
:100E600006E0FFF751FD401B022801D9032047E7A8
:100E7000A04808380068C0F340000028F1D09D4821
:100E80000838006820F0F800216940EAC10099495B
:100E90000839086014E0002097490860FFF734FD26
:100EA000054606E0FFF730FD401B022801D903206C
:100EB00026E7904808380068C0F340000028F1D1C8
:100EC000207800F0080008282CD16069A8B1012022
:100ED0008A490860FFF718FD054606E0FFF714FD94
:100EE000401B022801D903200AE782486C300068C1
:100EF000C0F340000028F1D014E000207F490860D2
:100F0000FFF702FD054606E0FFF7FEFC401B022846
:100F100001D90320F4E677486C300068C0F3400044
:100F20000028F1D1207800F00400042870D10027B7
:100F300070483830006800F0805090B900BF002041
:100F400000906C483830006840F080506949383172
:100F500008600846006800F08050009000BF00BFA5
:100F600001276748006800F48070B0B964480068E1
:100F700040F4807062490860FFF7C6FC054606E051
:100F8000FFF7C2FC401B022801D90320B8E65C48E9
:100F9000006800F480700028F2D000BFA06801282B
:100FA00008D154486830006840F001005149683168
:100FB00008601DE0A06805280DD14E486830006823
:100FC00040F004004B49683108600846006840F072
:100FD000010008600CE047486830006820F001001C
:100FE0004449683108600846006820F00400086041
:100FF00000BFA068A8B1FFF787FC054609E0FFF72E
:1010000083FC401B41F28831884202D9032077E6F5
:1010100026E0384868300068C0F340000028EED071
:1010200013E0FFF771FC054608E0FFF76DFC401B7D
:1010300041F28831884201D9032061E62D486830A9
:101040000068C0F340000028EFD1012F07D12948E4
:101050003830006820F0805026493831086000BFE1
:10106000A069002845D02348006800F00C0008283B
:101070005DD0A069022845D100201F490866FFF70E
:1010800043FC054606E0FFF73FFC401B022801D960
:10109000032035E6174808380068C0F34060002890
:1010A000F1D1D4E907010843616A40EA81110122C4
:1010B000A06AC2EB500041EA00412C20005D41EAE9
:1010C00000600C49091F086001200B490866FFF702
:1010D0001BFC054606E0FFF717FC401B022801D960
:1010E00003200DE6034808380068C0F3406000287C
:1010F000F1D049E00838024000004742800E4742E4
:1011000000700040002021490866FFF7FDFB0546FE
:1011100006E0FFF7F9FB401B022801D90320EFE5A9
:101120001B480068C0F340600028F2D12CE0A069A1
:10113000012800D1E4E51648001D0668A0690128D1
:1011400020D006F48001E06981421BD106F03F0106
:10115000206A814216D147F6C0703040616AB0EB18
:10116000811F0FD106F440310122A06AC2EB50006A
:10117000B1EB004F06D106F070612C20005DB1EBA1
:10118000006F01D00120BBE50020B9E50000474217
:101190000038024070B504462546681EB0F1807FD5
:1011A00001D301200FE0681E4FF0E02148610F21BC
:1011B0004FF0FF3000F0F0FC00204FF0E02188619C
:1011C00007200861002070BD704770472DE9F84F77
:1011D0000446206805682068C668206847694FF0A3
:1011E0000009CA4605F00F09B9F1000F0AD105F050
:1011F000200038B106F0200020B1204600F0D5FADA
:10120000BDE8F88FB9F1000F7CD007F0010018B9E4
:1012100006F49070002875D005F0010030B106F496
:10122000807018B1606C40F00100606405F004004B
:1012300030B107F0010018B1606C40F0020060644A
:1012400005F0020030B107F0010018B1606C40F009
:101250000400606405F0080048B106F0200010B9F1
:1012600007F0010018B1606C40F008006064606C29
:10127000002846D005F0200028B106F0200010B16B
:10128000204600F092FA20684069C0F3801A606C32
:1012900000F0080010B9BAF1000F2DD0204600F080
:1012A0003EFA2068406900F04000402820D100BF8D
:1012B00000BF2168143151E8001F21F0400021686F
:1012C000143141E80002002AF3D100BFE06B50B1B5
:1012D0007F48E16B0865E06BFFF7F5F988B1E06BDB
:1012E000016D88470DE02046FFF76FFF09E009E038
:1012F0002046FFF76AFF04E02046FFF766FF002064
:1013000060647DE7206B012878D105F0100000288B
:1013100074D006F010000028FAD000BF0020009022
:1013200020680068009020684068009000BF00BFFF
:101330002068406900F04000402870D1E06B0068F0
:1013400040681FFA80F8B8F1000F58D0A08D4045D2
:1013500055DDA4F82E80E06BC069B0F5807F43D0E6
:1013600000BF00BF21680C3151E8001F21F48070DC
:1013700021680C3141E80002002AF3D100BF00BF10
:1013800000BF2168143151E8001F21F001002168DD
:10139000143141E80002002AF3D100BF00BF00BFB2
:1013A0002168143151E8001F21F0400021681431F8
:1013B00041E80002002AF3D100BF202084F8420057
:1013C0000020206300BF00BF21680C3151E8001FDE
:1013D00021F0100021680C3141E80002002AF3D10D
:1013E00000BFE06BFFF719F902206063A08DE28D6A
:1013F000801A81B22046FFF7E7FE0EE052E0A08D92
:1014000040450AD1E06BC069B0F5807F05D102206C
:101410006063A18D2046FFF7D7FEF1E6FFE7A08DC0
:10142000E18D401A1FFA80F8E08DD0B3B8F1000FBB
:1014300037D000BF00BF21680C3151E8001F21F4F4
:10144000907021680C3141E80002002AF3D100BFFE
:1014500000BF00BF2168143151E8001F21F00100D6
:101460002168143141E80002002AF3D100BF202096
:1014700084F842000020206300BF00BF21680C31C7
:1014800051E8001F21F0100021680C3141E80002F2
:10149000002AF3D100BF0220606341462046FFF7D7
:1014A00093FEADE605F0800030B106F0800018B183
:1014B000204600F02FFBA3E605F0400030B106F017
:1014C000400018B1204600F060F999E600BF97E6A9
:1014D0000D17000810B504460CB9012010BDA06915
:1014E00000B100E000BF94F8410028B9002084F862
:1014F0004000204600F02AF8242084F841002068AB
:10150000C06820F400502168C860204600F0CCF983
:101510002068006920F490402168086120684069D3
:1015200020F02A00216848612068C06840F400501B
:101530002168C86000206064202084F8410084F89D
:1015400042000020606300BFC8E7000010B586B00D
:1015500004462E492068884255D100BF00BF0020B4
:1015600000902B48006840F01000294908600846A8
:10157000006800F01000009000BF00BF00BF00BF77
:1015800000BF0020009022481438006840F001009D
:101590001F49143908600846006800F001000090F7
:1015A00000BF00BF00BF00BF00BF00200090084682
:1015B000006840F0010008600846006800F0010083
:1015C000009000BF00BF00BF4815019002200290AC
:1015D00001200390022004900720059001A90D48E6
:1015E000FFF78CF84FF4806001900720059001A967
:1015F0000848FFF783F82520FFF7D7F903221146A3
:101600002520FFF7E6F906B010BD000000100140EC
:10161000443802400000024070B504460D461646AC
:1016200094F8420020280BD105B10EB9012070BDFD
:101630000020206332462946204600F04BFAF6E7A8
:101640000220F4E710B504462049206888423BD1C7
:101650001F48008800F4004088BB1D48008800F443
:10166000804070B11B4800780A2803D00020184938
:10167000088024E01648008840F40040144908809F
:101680001DE0144800780D2806D11148008840F468
:1016900080400F49088012E00E4800780C49098804
:1016A000C1F30D010C4A505409480088401C0849F8
:1016B000088008460088C72801DD00200880012234
:1016C00004490648FFF7A8FF10BD000000100140C4
:1016D000080000200A00002020000020E800002070
:1016E000704700BFFEE700BFFEE7704770477047D6
:1016F00010B5FFF70FF910BD0348006840F4700003
:10170000014908607047000088ED00E070B50446AC
:10171000A56B0020E8852846FFF757FD70BD00BF88
:1017200000BF02680C3252E8002F22F49071026868
:101730000C3242E80013002BF3D100BF00BF00BF02
:101740000268143252E8002F22F0010102681432BC
:1017500042E80013002BF3D100BF016B01290ED129
:1017600000BF00BF02680C3252E8002F22F01001C7
:1017700002680C3242E80013002BF3D100BF202195
:1017800080F8421000210163704710B504462068BC
:10179000C06820F040002168C860202084F8410023
:1017A0002046FFF79DFF002010BDF8B50446002538
:1017B000002694F84200222873D1A068B0F5805F1B
:1017C0000BD1206948B9A66A20684068C0F30800B8
:1017D0003080A06A801CA06214E0A56AA068B0F501
:1017E000805F03D0A06828B9206918B920684068D4
:1017F000287004E02068406800F07F002870A06A2C
:10180000401CA062E08D401E80B2E085002846D1D9
:101810002068C06820F020002168C8602068C06887
:1018200020F480702168C8602068406920F00100C1
:1018300021684861202084F8420000206063206B0A
:10184000012826D10020206300BF00BF21680C3191
:1018500051E8001F21F0100021680C3141E800021E
:10186000002AF3D100BF2068006800F010001028A3
:101870000AD100BF00200090206800680090206816
:101880004068009000BF00BFA18D2046FFF79CFC80
:1018900002E02046FFF7D6FE0020F8BD01E0002060
:1018A000FBE70220F9E700002DE9F84F0446206825
:1018B000006920F44050E16808432168086121690B
:1018C000A068084361690843E16908430090206803
:1018D000C06849F20C618843009908432168C860D8
:1018E0002068406920F44070A1690843216848617C
:1018F00076492068884203D075492068884203D120
:10190000FFF792F9814602E0FFF77EF98146E06930
:10191000B0F5004F6CD102206168A0FB0150034676
:101920001920A9FB007001462A463846FEF79FFCA5
:101930006421B0FBF1F04FEA001A02206168A0FBBD
:1019400001510B461920A9FB00712A463846FEF7C3
:101950008EFC834602206168A0FB015003461920DB
:10196000A9FB00712A463846FEF781FC6421B0FBD2
:10197000F1F000EBC00101EB0010ABEB8000322175
:1019800001EBC0006421B0FBF1F000F0F8000AEBBD
:10199000400A02206168A0FB015003461920A9FB00
:1019A000007001462A463846FEF761FC8346022055
:1019B0006168A0FB015003461920A9FB00712A466B
:1019C0003846FEF754FC6421B0FBF1F000EBC00197
:1019D00001EB0010ABEB8000322101EBC000642171
:1019E000B0FBF1F000F007005044216888606AE025
:1019F00004206168A0FB015003461920A9FB007078
:101A000001462A463846FEF732FC824604206168C9
:101A1000A0FB015003461920A9FB007001462A468D
:101A20003846FEF724FC6421B0FBF1F000EBC00166
:101A300001EB0010AAEB8000322101EB00106421C1
:101A4000B0FBF1F000F0F00A04206168A0FB017027
:101A500003461920A9FB00513A462846FEF707FC29
:101A60006421B0FBF1F00AEB001A04206168A0FBCE
:101A700001510B461920A9FB00712A463846FEF792
:101A8000F6FB834604206168A0FB01500346192041
:101A9000A9FB007001462A463846FEF7E8FB6421A0
:101AA000B0FBF1F000EBC00101EB0010ABEB8000EC
:101AB000322101EB00106421B0FBF1F000F00F00C7
:101AC000504421688860BDE8F88F00000010014094
:101AD0000014014010B5034699629A85DA8500200A
:101AE0005864222083F84200186928B11868C06839
:101AF00040F480701C68E0601868406940F00100A4
:101B00001C6860611868C06840F020001C68E060D4
:101B1000002010BD014691F84100212828D1886895
:101B2000B0F5805F0BD1086948B90A6A1088C0F324
:101B300008000B685860086A801C086205E00B6AA0
:101B4000581C086218780B685860C88C401E80B218
:101B5000C88458B90868C06820F080000B68D86055
:101B60000868C06840F040000B68D86000207047EB
:101B70000220FCE710B50248FFF728FB10BD00006B
:101B8000E800002000BFFEE702480068C0F3022022
:101B9000704700000CED00E010B5002804DB0A07D8
:101BA000130E054A135406E00A07140E034A00F008
:101BB0000F031B1FD45410BD00E400E018ED00E03B
:101BC00030380A2801D2012070470020704700BF3A
:101BD0007047000001490860704700000C000020B9
:101BE00010B504464FF47A7104FB01F000F002F8DE
:101BF00010BD000070B5034600224FF0E026756965
:101C00000D4E366803FB06F44FF0E026B16910E094
:101C10004FF0E026B06988420BD0884202D20E1AFB
:101C2000324402E02E1A0E4432440146A24200D34E
:101C300000E0EDE700BF70BD0C00002000BF054ACA
:101C4000126802F04002002AF9D0C2B2014B5A6079
:101C5000704700000010014000B587B000BF0020B1
:101C600001904148006840F001003F490860084683
:101C7000006800F00100019000BF00BF00BF00201D
:101C800001900846006840F00200086008460068BD
:101C900000F00200019000BF00BF00BF00200190D3
:101CA0000846006840F0080008600846006800F038
:101CB0000800019000BF00BF00BF0020019008464F
:101CC000006840F0100008600846006800F010004E
:101CD000019000BF00BF142102A8FEF70FFC0120F5
:101CE000039000200490022005902020029002A979
:101CF0001E48FEF703FD2020029002A91C48FEF7B3
:101D0000FDFC4FF48040029002A91A48FEF7F6FC51
:101D10004FF48040029002A91748FEF7EFFC022022
:101D2000029002A91448FEF7E9FC4FF4807002907B
:101D300002A90F48FEF7E2FC012291030E48FEF7CC
:101D4000D7FD012291030B48FEF7D2FD012220218D
:101D50000648FEF7CDFD00224FF480710448FEF7DF
:101D6000C7FD07B000BD000030380240000002404F
:101D700000040240000C02400010024008B5FEF7CB
:101D8000D5FD0723022208214FF4A87000F070FA55
:101D9000A820FFF71FFF4FF4E13000F0D7FA0AA0A8
:101DA000FEF7DCFA00F01AF94FF6FF7000F052F877
:101DB00009484FF4A073D52200210090084600F096
:101DC00083F800BFFEE7000048656C6C6FEFBC8CC9
:101DD000576F726C640000008125000870B50446DE
:101DE00000251BE0002220210E48FEF781FD04F0B3
:101DF000800028B1012220210B48FEF779FD04E084
:101E0000002220210848FEF773FD6006040E01221F
:101E100020210448FEF76CFD681CC5B2082DE1DBEB
:101E200070BD0000000002400004024010B5012215
:101E300011020248FEF75CFD10BD000000040240E4
:101E400010B500224FF480710148FEF751FD10BD1E
:101E50000004024038B50446064800944088401EFD
:101E600083B204480088401E82B20021084600F078
:101E700053F838BD1A00002010B501229103024822
:101E8000FEF736FD10BD00000010024010B5002224
:101E90004FF480410148FEF72BFD10BD00100240B9
:101EA00010B5012291030248FEF722FD10BD00008B
:101EB000000C024010B500224FF480410148FEF7AB
:101EC00017FD10BD000C02402DE9F04106460F46FB
:101ED00014461D46DDF8188030190E4909888842DD
:101EE00004DC78190B494988884201DDBDE8F0819E
:101EF0007819401E83B23019401E82B239463046EE
:101F000000F050F904FB05F04100404600F083F971
:101F100000BFEBE71A0000202DE9F04FADF2044DB1
:101F200007468B4614461D46A74201DCAB4503DD40
:101F30000DF2044DBDE8F08F27480088A04203DC75
:101F400025480088401E84B223484088A84203DC0C
:101F500021484088401E85B22B46224659463846C5
:101F600000F020F9E01B401CA5EB0B01491C00FB15
:101F700001F64FF40078DDF82804011241EA002050
:101F800080B20090002004E001AA009922F810100D
:101F9000401C4045F8D3FFF779FFFFF781FF15E0BC
:101FA000464501D9404600E0304681464FF0000AE0
:101FB00006E001A911F80A00FFF710FF0AF1010A73
:101FC000BAEB490FF5D3A6EB090600BF002EE7D107
:101FD000FFF752FF00BFABE71A00002010B5FFF774
:101FE0003BFEFFF723FF00F08DF8112000F028F9E9
:101FF000C820FEF77CFB002000F098F800F006F8FF
:102000000020FFF727FFFFF71BFF10BD1FB53A2089
:1020100000F016F9052000F01FF9B22000F010F9C9
:102020002DA103C9CDE90201052102A800F0F3F8B2
:10203000B72000F005F9352000F00EF9BB2000F0C4
:10204000FFF8322000F008F9C22000F0F9F8012072
:1020500000F002F9C32000F0F3F8152000F0FCF8BE
:10206000C42000F0EDF8202000F0F6F8C62000F0C3
:10207000E7F80F2000F0F0F8D02000F0E1F818A009
:1020800000680390022103A800F0C5F8E02000F0EA
:10209000D7F814A090E80E00C0688DE80E000390F9
:1020A0000E21684600F0B7F8E12000F0C9F811A34E
:1020B000D3E90021D3E90203CDE90203CDE90021F0
:1020C0000E21684600F0A7F8212000F0B9F8292079
:1020D00000F0B6F81FBD00000C0C00333300000008
:1020E000A4A10000D0080E090905313348171415C2
:1020F00031340000D0080E09091531334817141582
:102100003134000010B5002202210748FEF7F0FB31
:102110003220FEF7ECFA012202210348FEF7E8FB29
:102120007820FEF7E4FA10BD0010024010B5044616
:102130001B480471362000F083F834B1012C0ED016
:10214000022C16D0032C28D11DE0F0201449088061
:102150004FF4A0704880002000F07EF81EE04FF49D
:10216000A0700F490880F0204880C02000F074F86B
:1021700014E0F0200A4908804FF4A07048807020D5
:1021800000F06AF80AE04FF4A07005490880F020DA
:102190004880A02000F060F800E000BF00BF10BD44
:1021A0001A0000202DE9F05F04460D4616461F4632
:1021B0001FFA84F81FFA86F91FFA85FA1FFA87FBBF
:1021C0002A2000F03DF84FEA282000F045F808F0FA
:1021D000FF0000F041F84FEA292000F03DF809F037
:1021E000FF0000F039F82B2000F02AF84FEA2A20EF
:1021F00000F032F80AF0FF0000F02EF84FEA2B2032
:1022000000F02AF80BF0FF0000F026F82C2000F078
:1022100017F8BDE8F09F70B506460C4604B970BDCE
:10222000FFF734FEFFF73CFE002503E0705DFFF78B
:10223000D5FD6D1CA542F9D3FFF71EFE00BFEEE7EA
:1022400010B50446FFF722FEFFF734FE2046FFF7E5
:10225000C5FDFFF711FE10BD10B50446FFF716FED1
:10226000FFF71EFE2046FFF7B9FDFFF705FE10BD84
:102270002DE9F04192B080460C4615461E460027D7
:10228000302106A8FEF73AF9142101A8FEF736F925
:1022900000BF002000902A48006840F08050284984
:1022A00008600846006800F08050009000BF00BF42
:1022B00000BF002000902348006840F4804021497E
:1022C00008600846006800F48040009000BF00BF2E
:1022D000012006900004079002200C9041050D910A
:1022E000CDF83C800E941095119606A8FEF704FDDB
:1022F00007461FB1012012B0BDE8F0810F20019008
:1023000002200290002003904FF4A05004904FF45C
:1023100080500590052101A8FEF7AEFB07460FB1DE
:102320000120E8E7FEF7EAFA41F20101884205D10F
:102330000548006840F48070034908600020DAE72F
:102340004038024000700040003C024010B5044696
:1023500009480A4908600846446000218160C1605C
:10236000016181610C214161FFF7B4F80122044948
:102370000248FFF751F910BD00100140E8000020AD
:102380000A0000204FF04070E1EE100A7047000094
:102390000000000000000102030406070809000015
:1023A000000001020304000000000000005F0000C4
:1023B0000007000700147F147F14242A7F2A1223A9
:1023C0001308646236495522500005030000001CC2
:1023D0002241000041221C0014083E081408083E57
:1023E0000808005030000008080808080060600075
:1023F0000020100804023E5149453E00427F400043
:1024000042615149462141454B311814127F102732
:10241000454545393C4A494930017109050336496A
:10242000494936064949291E00363600000056360D
:102430000000081422410014141414140041221442
:10244000080201510906324979413E7E1111117E7F
:102450007F494949363E414141227F4141221C7F0B
:10246000494949417F090909013E4149497A7F08A3
:1024700008087F00417F41002040413F017F081450
:1024800022417F404040407F020C027F7F040810C1
:102490007F3E4141413E7F090909063E4151215E8F
:1024A0007F09192946464949493101017F01013F08
:1024B0004040403F1F2040201F3F4038403F6314B2
:1024C00008146307087008076151494543007F41BC
:1024D000410002040810200041417F000402010273
:1024E00004808080808000030700002054545478CA
:1024F0007F484444383844444420384444487F3872
:1025000054545418087E0901020C5252523E7F085E
:1025100004047800447D40002040443D007F1028A2
:10252000440000417F40007C041804787C080404C7
:102530007838444444387C14141408081414187C63
:102540007C080404084854545420043F4440203C70
:102550004040207C1C2040201C3C4030403C442813
:102560001028440C5050503C4464544C44000836ED
:10257000410000007F000000413608000201020413
:1025800002101000D50140011BC618C618BE18BEA7
:1025900018BE18BE18BE17BE17BDF7BDF7BDF7BDF4
:1025A000F7BDF7BDF7BDF7BDF7BDF7BDF7BDF7BD8B
:1025B000F7BDF7BDF7BDD7BDD7BDD7BDD7BDD7BD1B
:1025C000D7BDD7BDD7BDD7BDD7BDD7BDD7BDD7BD6B
:1025D000D7BDD7B5D7B5D7B5D7B5D7B5D7B5D7B593
:1025E000D7B5D7B5D7B5D7B5D7B5D7B5D7B5D7B58B
:1025F000D7B5D7B5D7B5D7B5D7B5D7BDD7BDD7BD63
:10260000D7BDD7BDD7BDD7BDD7BDD7BDD7BDD7BD2A
:10261000D7BDD7BDD7BDD7BDD7BDD7BDD7BDD7BD1A
:10262000D7BDD7BDD7BDD7BDD7BDD7BDD7BDD7BD0A
:10263000D7BDD7B5D7B5D7B5D7B5D7B5D7B5D7B532
:10264000D7B5D7B5D7B5D7B5D7B5D7B5D7B5D7B52A
:10265000D7B5D7B5D7B5D7B5D7B5D7B5D6B5D6B51C
:10266000D6B5D6B5D6B5D6B5D6B5D6B5D6B5D6B512
:10267000D6B5D6B5D6B5D6B5D6B5D6B5D6B5D6B502
:10268000D6B5D6B5D6B5D6B5D6B5D6B5D6B5D6B5F2
:10269000D6B5D6B5D6B5D6B5D6B5D6B5D6B5D6B5E2
:1026A000D6B5D6B5D6B5D6B5D6B5D6B5D6B5D6B5D2
:1026B000D6B5D6B5D6B5D6B5D6B5D6B5D6B5D6B5C2
:1026C000D6B5D6B5D6B5D6B5D6B5D6B5D6B5B6B5D2
:1026D000B6B5B6B5B6B5B6B5B6B5B6B5B6B5B6B5A2
:1026E000B6B5B6B5B6BDD7C6189CD27B8D7B8D7BF3
:1026F0008D7B8D83AE83CE83CE83CE7B6D7B6D7BD6
:102700008D7B6C7B8D7B6D7B8D7B8D7B6C7B6D7B0B
:102710006D732C734C734C732B732B6B0B6B2B6B7C
:102720002B7B6D9C6F20A310624A49728980628066
:10273000827882C618C618BE18BE18BE18BE18BE4B
:1027400017BE17BDF7BDF7BDF7BDF7BDF7BDF7BDA8
:10275000F7BDF7BDF7BDF7BDF7BDF7BDF7BDF7BDD9
:10276000D7BDD7BDD7BDD7BDD7BDD7BDD7BDD7BDC9
:10277000D7BDD7BDD7BDD7BDD7BDD7BDD7B5D7B5C9
:10278000D7B5D7B5D7B5D7B5D7B5D7B5D7B5D7B5E9
:10279000D7B5D7B5D7B5D7B5D7B5D7B5D7B5D7B5D9
:1027A000D7B5D7B5D7BDD7BDD7BDD7BDD7BDD7BD99
:1027B000D7BDD7BDD7BDD7BDD7BDD7BDD7BDD7BD79
:1027C000D7BDD7BDD7BDD7BDD7BDD7BDD7BDD7BD69
:1027D000D7BDD7BDD7BDD7BDD7BDD7BDD7B5D7B569
:1027E000D7B5D7B5D7B5D7B5D7B5D7B5D7B5D7B589
:1027F000D7B5D7B5D7B5D7B5D7B5D7B5D7B5D7B579
:10280000D7B5D7B5D7B5D6B5D6B5D6B5D6B5D6B56D
:10281000D6B5D6B5D6B5D6B5D6B5D6B5D6B5D6B560
:10282000D6B5D6B5D6B5D6B5D6B5D6B5D6B5D6B550
:10283000D6B5D6B5D6B5D6B5D6B5D6B5D6B5D6B540
:10284000D6B5D6B5D6B5D6B5D6B5D6B5D6B5D6B530
:10285000D6B5D6B5D6B5D6B5D6B5D6B5D6B5D6B520
:10286000D6B5D6B5D6B5D6B5D6B5D6B5D6B5D6B510
:10287000D6B5D6B5D6B5D6B5B6B5B6B5B6B5B6B580
:10288000B6B5B6B5B6B5B6B5B6B5B6B5B6B5B6BDE8
:10289000D7C6189CB27B8D7B8D7B8D7B8D7B6D7BB2
:1028A0008D7B6D83AD7B4C7B6C7B6D734C7B6D73D3
:1028B0004C7B8D736C732C732C732C6AEB6B0B6BD2
:1028C0000B6AEB6AEB62CA62EA6B0B7B6D9CB02011
:1028D000C40841082130A1806280827882C618C66F
:1028E00018BE18BE18BE18BE18BE17BE17BDF7BD5D
:1028F000F7BDF7BDF7BDF7BDF7BDF7BDF7BDF7BD38
:10290000F7BDF7BDF7BDF7BDF7BDD7BDD7BDD7BD87
:10291000D7BDD7BDD7BDD7BDD7BDD7BDD7BDD7BD17
:10292000D7BDD7BDD7BDD7B5D7B5D7B5D7B5D7B52F
:10293000D7B5D7B5D7B5D7B5D7B5D7B5D7B5D7B537
:10294000D7B5D7B5D7B5D7B5D7B5D7B5D7B5D7BD1F
:10295000D7BDD7BDD7BDD7BDD7BDD7BDD7BDD7BDD7
:10296000D7BDD7BDD7BDD7BDD7BDD7BDD7BDD7BDC7
:10297000D7BDD7BDD7BDD7BDD7BDD7BDD7BDD7BDB7
:10298000D7BDD7BDD7BDD7B5D7B5D7B5D7B5D7B5CF
:10299000D7B5D7B5D7B5D7B5D7B5D7B5D7B5D7B5D7
:1029A000D7B5D7B5D7B5D7B5D7B5D7B5D7B5D7B5C7
:1029B000D6B5D6B5D6B5D6B5D6B5D6B5D6B5D6B5BF
:1029C000D6B5D6B5D6B5D6B5D6B5D6B5D6B5D6B5AF
:1029D000D6B5D6B5D6B5D6B5D6B5D6B5D6B5D6B59F
:1029E000D6B5D6B5D6B5D6B5D6B5D6B5D6B5D6B58F
:1029F000D6B5D6B5D6B5D6B5D6B5D6B5D6B5D6B57F
:102A0000D6B5D6B5D6B5D6B5D6B5D6B5D6B5D6B56E
:102A1000D6B5D6B5D6B5D6B5D6B5D6B5D6B5D6B55E
:102A2000D6B5B6B5B6B5B6B5B6B5B6B5B6B5B6B52E
:102A3000B6B5B6B5B6B5B6B5B6BDD7C5F89CB27B1A
:102A40006D83AD83AD83AE83AD8BCE83CE8C0F7B98
:102A50008D838D83CE7B8D7B6D7B6C736C734C73A0
:102A60002C6B2B6B0B62EA6AEB6B0B6AEB6AEB620B
:102A7000EA6AEB6AEB7B8DA4D020E30821000028F2
:102A800020806280817881C618C618BE18BE18BE24
:102A900018BE18BE17BE17BDF7BDF7BDF7BDF7BD11
:102AA000F7BDF7BDF7BDF7BDF7BDF7BDF7BDF7BD86
:102AB000F7BDF7BDD7BDD7BDD7BDD7BDD7BDD7BD36
:102AC000D7BDD7BDD7BDD7BDD7BDD7BDD7BDD7BD66
:102AD000D7B5D7B5D7B5D7B5D7B5D7B5D7B5D7B596
:102AE000D7B5D7B5D7B5D7B5D7B5D7B5D7B5D7B586
:102AF000D7B5D7B5D7B5D7B5D7BDD7BDD7BDD7BD56
:102B0000D7BDD7BDD7BDD7BDD7BDD7BDD7BDD7BD25
:102B1000D7BDD7BDD7BDD7BDD7BDD7BDD7BDD7BD15
:102B2000D7BDD7BDD7BDD7BDD7BDD7BDD7BDD7BD05
:102B3000D7B5D7B5D7B5D7B5D7B5D7B5D7B5D7B535
:102B4000D7B5D7B5D7B5D7B5D7B5D7B5D7B5D7B525
:102B5000D7B5D7B5D7B5D7B5D7B5D6B5D6B5D6B518
:102B6000D6B5D6B5D6B5D6B5D6B5D6B5D6B5D6B50D
:102B7000D6B5D6B5D6B5D6B5D6B5D6B5D6B5D6B5FD
:102B8000D6B5D6B5D6B5D6B5D6B5D6B5D6B5D6B5ED
:102B9000D6B5D6B5D6B5D6B5D6B5D6B5D6B5D6B5DD
:102BA000D6B5D6B5D6B5D6B5D6B5D6B5D6B5D6B5CD
:102BB000D6B5D6B5D6B5D6B5D6B5D6B5D6B5D6B5BD
:102BC000D6B5D6B5D6B5D6B5D6B5D6B5B6B5B6B5ED
:102BD000B6B5B6B5B6B5B6B5B6B5B6B5B6B5B6B59D
:102BE000B6B5B6B5D7C5F79CB2736D83AD7B8D8393
:102BF000AD7B8D83AD7B8D83AE7B6C7B8D83AE7B1C
:102C00008D7B8D7B6D7B6D7B6C7B6C7B6D7B6D734E
:102C10004C734C734C732B6B0B6B0B6B0B6B0B7BF9
:102C2000AD9CAF29030821000028208062808178B4
:102C300081C618C618BE18BE18BE18BE18BE17BE6C
:102C400017BDF7BDF7BDF7BDF7BDF7BDF7BDF7BDC4
:102C5000F7BDF7BDF7BDF7BDF7BDF7BDF7BDD7BDF4
:102C6000D7BDD7BDD7BDD7BDD7BDD7BDD7BDD7BDC4
:102C7000D7BDD7BDD7BDD7BDD7BDD7B5D7B5D7B5CC
:102C8000D7B5D7B5D7B5D7B5D7B5D7B5D7B5D7B5E4
:102C9000D7B5D7B5D7B5D7B5D7B5D7B5D7B5D7B5D4
:102CA000D7B5D7BDD7BDD7BDD7BDD7BDD7BDD7BD8C
:102CB000D7BDD7BDD7BDD7BDD7BDD7BDD7BDD7BD74
:102CC000D7BDD7BDD7BDD7BDD7BDD7BDD7BDD7BD64
:102CD000D7BDD7BDD7BDD7BDD7BDD7B5D7B5D7B56C
:102CE000D7B5D7B5D7B5D7B5D7B5D7B5D7B5D7B584
:102CF000D7B5D7B5D7B5D7B5D7B5D7B5D6B5D6B576
:102D0000D6B5D6B5D6B5D6B5D6B5D6B5D6B5D6B56B
:102D1000D6B5D6B5D6B5D6B5D6B5D6B5D6B5D6B55B
:102D2000D6B5D6B5D6B5D6B5D6B5D6B5D6B5D6B54B
:102D3000D6B5D6B5D6B5D6B5D6B5D6B5D6B5D6B53B
:102D4000D6B5D6B5D6B5D6B5D6B5D6B5D6B5D6B52B
:102D5000D6B5D6B5D6B5D6B5D6B5D6B5D6B5D6B51B
:102D6000D6B5D6B5D6B5D6B5D6B5D6B5D6B5D6B50B
:102D7000D6B5D6B5D6B5B6B5B6B5B6B5B6B5B6B59B
:102D8000B6B5B6B5B6B5B6B5B6B5D6B5D6B5B7BDA2
:102D9000F79C917B8D7B8D7B6C7B6C7B8D83CE8355
:102DA000CE8BEE83AD83AD83AD7B8D7B8D7BAD7B99
:102DB0008D7B6D7B6C7B8D7B6D734C734C734C7317
:102DC0002C6B2B6B0B6B0B6B0B7B8D948E31430839
:102DD0004108212020806280817881C618C618BEF3
:102DE00018BE18BE18BE18BE17BE17BDF7BDF7BD7A
:102DF000F7BDF7BDF7BDF7BDF7BDF7BDF7BDF7BD33
:102E0000F7BDF7BDF7BDF7BDD7BDD7BDD7BDD7BDA2
:102E1000D7BDD7BDD7BDD7BDD7BDD7BDD7BDD7BD12
:102E2000D7BDD7BDD7B5D7B5D7B5D7B5D7B5D7B532
:102E3000D7B5D7B5D7B5D7B5D7B5D7B5D7B5D7B532
:102E4000D7B5D7B5D7B5D7B5D7B5D7B5D7BDD7BD12
:102E5000D7BDD7BDD7BDD7BDD7BDD7BDD7BDD7BDD2
:102E6000D7BDD7BDD7BDD7BDD7BDD7BDD7BDD7BDC2
:102E7000D7BDD7BDD7BDD7BDD7BDD7BDD7BDD7BDB2
:102E8000D7BDD7BDD7B5D7B5D7B5D7B5D7B5D7B5D2
:102E9000D7B5D7B5D7B5D7B5D7B5D7B5D7B5D7B5D2
:102EA000D7B5D7B5D7B5D6B5D6B5D6B5D6B5D6B5C7
:102EB000D6B5D6B5D6B5D6B5D6B5D6B5D6B5D6B5BA
:102EC000D6B5D6B5D6B5D6B5D6B5D6B5D6B5D6B5AA
:102ED000D6B5D6B5D6B5D6B5D6B5D6B5D6B5D6B59A
:102EE000D6B5D6B5D6B5D6B5D6B5D6B5D6B5D6B58A
:102EF000D6B5D6B5D6B5D6B5D6B5D6B5D6B5D6B57A
:102F0000D6B5D6B5D6B5D6B5D6B5D6B5D6B5D6B569
:102F1000D6B5D6B5D6B5D6B5D6B5D6B5D6B5D6B559
:102F2000B6B5B6B5B6B5B6B5B6B5B6B5B6B5B6B549
:102F3000B6B5B6B5D6B5D6BDD7C5F79471734C7BCB
:102F40004C7B4C7B4C7B6D7B8D7B8D838D7B8D8314
:102F50008D83AE7B8D7B8D83AE7B8D7B6D7B6D7B1F
:102F60008D7B6D734C7B6C736C734C734C732C73D7
:102F70002C6AEB734C944E8C0E104108212020805B
:102F80006280817881C618C618BE18BE18BE18BEE9
:102F900018BE17BE17BDF7BDF7BDF7BDF7BDF7BD2E
:102FA000F7BDF7BDF7BDF7BDF7BDF7BDF7BDF7BD81
:102FB000F7BDD7BDD7BDD7BDD7BDD7BDD7BDD7BD51
:102FC000D7BDD7BDD7BDD7BDD7BDD7BDD7BDD7B569
:102FD000D7B5D7B5D7B5D7B5D7B5D7B5D7B5D7B591
:102FE000D7B5D7B5D7B5D7B5D7B5D7B5D7B5D7B581
:102FF000D7B5D7B5D7B5D7BDD7BDD7BDD7BDD7BD49
:10300000D7BDD7BDD7BDD7BDD7BDD7BDD7BDD7BD20
:10301000D7BDD7BDD7BDD7BDD7BDD7BDD7BDD7BD10
:10302000D7BDD7BDD7BDD7BDD7BDD7BDD7BDD7B508
:10303000D7B5D7B5D7B5D7B5D7B5D7B5D7B5D7B530
:10304000D7B5D7B5D7B5D7B5D7B5D7B5D7B5D7B520
:10305000D6B5D6B5D6B5D6B5D6B5D6B5D6B5D6B518
:10306000D6B5D6B5D6B5D6B5D6B5D6B5D6B5D6B508
:10307000D6B5D6B5D6B5D6B5D6B5D6B5D6B5D6B5F8
:10308000D6B5D6B5D6B5D6B5D6B5D6B5D6B5D6B5E8
:10309000D6B5D6B5D6B5D6B5D6B5D6B5D6B5D6B5D8
:1030A000D6B5D6B5D6B5D6B5D6B5D6B5D6B5D6B5C8
:1030B000D6B5D6B5D6B5D6B5D6B5D6B5D6B5D6B5B8
:1030C000D6B5D6B5D6B5D6B5D6B5B6B5B6B5B6B508
:1030D000B6B5B6B5B6B5B6B5B6B5B6B5B6B5D6B578
:1030E000D6BDD7C5F894917B6D83AD7B8D7B8D7BF1
:1030F0006D83AD838D83AE7B6D7B6D7B8D734C7BE0
:103100006D734C734C734C734C7BAD7B8D734C7BEC
:103110006D734C734C732C732C732B732C734C8307
:10312000EE946F106008402001808180817881C614
:1031300018C618BE18BE18BE18BE18BE17BE17BDDA
:10314000F7BDF7BDF7BDF7BDF7BDF7BDF7BDF7BDDF
:10315000F7BDF7BDF7BDF7BDF7BDF7BDD7BDD7BD0F
:10316000D7BDD7BDD7BDD7BDD7BDD7BDD7BDD7BDBF
:10317000D7BDD7BDD7BDD7BDD7B5D7B5D7B5D7B5CF
:10318000D7B5D7B5D7B5D7B5D7B5D7B5D7B5D7B5DF
:10319000D7B5D7B5D7B5D7B5D7B5D7B5D7B5D7B5CF
:1031A000D7BDD7BDD7BDD7BDD7BDD7BDD7BDD7BD7F
:1031B000D7BDD7BDD7BDD7BDD7BDD7BDD7BDD7BD6F
:1031C000D7BDD7BDD7BDD7BDD7BDD7BDD7BDD7BD5F
:1031D000D7BDD7BDD7BDD7BDD7B5D7B5D7B5D7B56F
:1031E000D7B5D7B5D7B5D7B5D7B5D7B5D7B5D7B57F
:1031F000D7BDD7B5D7B5D7B5D7B5D6B5D6B5D6B56A
:10320000D6B5D6B5D6B5D6B5D6B5D6B5D6B5D6B566
:10321000D6B5D6B5D6B5D6B5D6B5D6B5D6B5D6B556
:10322000D6B5D6B5D6B5D6B5D6B5D6B5D6B5D6B546
:10323000D6B5D6B5D6B5D6B5D6B5D6B5D6B5D6B536
:10324000D6B5D6B5D6B5D6B5D6B5D6B5D6B5D6B526
:10325000D6B5D6B5D6B5D6B5D6B5D6B5D6B5D6B516
:10326000D6B5D6B5D6B5D6B5D6B5D6B5D6B5D6B506
:10327000D6B5D6B5B6B5B6B5B6B5B6B5B6B5B6B5B6
:10328000B6B5B6B5B6B5B6B5D6B5D6B5B7C5F89474
:1032900071734C7B6D732C734C730B734C734C8339
:1032A0008D7B6C7B6D734C734C736C732C732B73B5
:1032B0002C6B0B734C732C6B0B732B6B2B732B6B5B
:1032C0002B732C732C732C6B2B734C944E944F08D4
:1032D000402801808280817881C618C618BE18BE39
:1032E00018BE18BDF8BDF8BDF8BDF8BDF7BDF7BDF7
:1032F000F7BDF7BDF7BDF7BDF7BDF7BDF7BDD7BD4E
:10330000D7BDD7BDD7BDD7BDD7BDD7BDD7BDD7BD1D
:10331000D7BDD7BDD7BDD7BDD7BDD7BDD7BDD7BD0D
:10332000D7BDD7B5D7B5D7B5D7B5D7B5D7B5D7B535
:10333000D7B5D7B5D7B5D7B5D7B5D7BDD7BDD7BD15
:10334000D7BDD7BDD7BDD7BDD7BDD7BDD7BDD7BDDD
:10335000D7BDD7BDD7BDD7BDD7BDD7BDD7BDD7BDCD
:10336000D7BDD7BDD7BDD7BDD7BDD7BDD7BDD7BDBD
:10337000D7BDD7BDD7BDD7BDD7BDD7BDD7BDD7BDAD
:10338000D7BDD7BDD7BDD7BDD7BDD7BDD7BDD7BD9D
:10339000D7BDD7BDD7BDD7BDD7BDD7BDD7B5D7B59D
:1033A000D7B5B6B5D6B5D6B5D6B5D6B5D6B5D6B5E4
:1033B000D6B5D6B5D6B5D6B5D6B5D6B5D6B5D6B5B5
:1033C000D6B5D6B5D6B5D6B5D6B5D6B5D6B5D6B5A5
:1033D000D6B5D6B5D6B5D6B5D6B5D6B5D6B5D6B595
:1033E000D6B5D6B5D6B5D6B5D6B5D6B5D6B5D6B585
:1033F000D6B5D6B5D6B5D6B5D6B5D6B5D6B5D6B575
:10340000D6B5D6B5D6B5D6B5D6B5D6B5D6B5D6B564
:10341000D6B5D6B5D6B5D6B5D6B5D6B5D6B5D6B554
:10342000D6B5D6B5D6B5B6B5B6B5B6B5B6B5B6B5E4
:10343000B6B5D6B5D6BDD7C61894717B8D83AE7B95
:103440008D83CE83AD83AE83AE83CE838D83AD83F8
:10345000CE7B8D7BAD83AE7BAD7B6D7B6C83AD7B9B
:103460008D7B6D7B6C736C734C734C732C732B6BFB
:103470000B6B2B62CA734B83CC8C2E4924808280C9
:10348000817881C618C618BE18BE18BE18BDF8BD12
:10349000F8BDF8BDF8BDF8BDF7BDF7BDF7BDF7BD88
:1034A000F7BDF7BDF7BDF7BDD7BDD7BDD7BDD7BDFC
:1034B000D7BDD7BDD7BDD7BDD7BDD7BDD7BDD7BD6C
:1034C000D7BDD7BDD7BDD7BDD7BDD7BDD7B5D7B56C
:1034D000D7B5D7B5D7B5D7B5D7B5D7B5D7B5D7B58C
:1034E000D7B5D7B5D7BDD7BDD7BDD7BDD7BDD7BD4C
:1034F000D7BDD7BDD7BDD7BDD7BDD7BDD7BDD7BD2C
:10350000D7BDD7BDD7BDD7BDD7BDD7BDD7BDD7BD1B
:10351000D7BDD7BDD7BDD7BDD7BDD7BDD7BDD7BD0B
:10352000D7BDD7BDD7BDD7BDD7BDD7BDD7BDD7BDFB
:10353000D7BDD7BDD7BDD7BDD7BDD7BDD7B5B6BD14
:10354000D7BDB7B5B6B5B6AD75B5D6B5D6B5D6B5E2
:10355000D6B5D6B5D6B5D6B5D6B5D6B5D6B5D6B513
:10356000D6B5D6B5D6B5D6B5D6B5D6B5D6B5D6B503
:10357000D6B5D6B5D6B5D6B5D6B5D6B5D6B5D6B5F3
:10358000D6B5D6B5D6B5D6B5D6B5D6B5D6B5D6B5E3
:10359000D6B5D6B5D6B5D6B5D6B5D6B5D6B5D6B5D3
:1035A000D6B5D6B5D6B5D6B5D6B5D6B5D6B5D6B5C3
:1035B000D6B5D6B5D6B5D6B5D6B5D6B5D6B5D6B5B3
:1035C000D6B5D6B5D6B5D6B5D6B5D6B5D6B5D6B5A3
:1035D000B6B5B6B5B6B5B6B5B6B5B6B5D6B5D6BD4B
:1035E000D7C61894507B6D7B6C732C7B6D7B6D8381
:1035F000AD7B8D83AE7B6C7B6C7B8D734C7B8D73D5
:103600004C734C6B0B6B0B734C734C6B2B6B0B6BCE
:103610000B6B2B6B0B6B0B6B0B6B0B732C6AEA62DC
:10362000EA6AEA734A82EA88C280817881C618C64B
:1036300018BE18BE18BE18BDF8BDF8BDF8BDF8BD5F
:10364000F8BDF8BDF7BDF7BDF7BDF7BDF7BDF7BDD8
:10365000F7BDD7BDD7BDD7BDD7BDD7BDD7BDD7BDAA
:10366000D7BDD7BDD7BDD7BDD7BDD7BDD7BDD7BDBA
:10367000D7BDD7BDD7BDD7B5D7B5D7B5D7B5D7B5D2
:10368000D7B5D7B5D7B5D7B5D7B5D7B5D7B5D7BDD2
:10369000D7BDD7BDD7BDD7BDD7BDD7BDD7BDD7BD8A
:1036A000D7BDD7BDD7BDD7BDD7BDD7BDD7BDD7BD7A
:1036B000D7BDD7BDD7BDD7BDD7BDD7BDD7BDD7BD6A
:1036C000D7BDD7BDD7BDD7BDD7BDD7BDD7BDD7BD5A
:1036D000D7BDD7BDD7BDD7BDD7BDD7BDD7BDD7BD4A
:1036E000D7BDD7BDD7BDD7B5B6BDD7B596B5759C37
:1036F000B38C10AD55BDD7BDD7BDD7BDD7BDD7B5E0
:10370000D6B5D6B5D6B5D6B5D6B5D6B5D6B5D6B561
:10371000D6B5D6B5D6B5D6B5D6B5D6B5D6B5D6B551
:10372000D6B5D6B5D6B5D6B5D6B5D6B5D6B5D6B541
:10373000D6B5D6B5D6B5D6B5D6B5D6B5D6B5D6B531
:10374000D6B5D6B5D6B5D6B5D6B5D6B5D6B5D6B521
:10375000D6B5D6B5D6B5D6B5D6B5D6B5D6B5D6B511
:10376000D6B5D6B5D6B5D6B5D6B5D6B5D6B5D6B501
:10377000D6B5D6B5D6B5D6B5D6B5B6B5B6B5B6B551
:10378000B6B5B6B5B6B5D6B5D6BDD7C6189471839D
:10379000CE7B8D7B6C83AD83AD83AE83AD83AD7308
:1037A0004C7B6C734C7B6C7B6C7B6D7B8D7B6C730F
:1037B0004C7B6C736C732C732B732B732B6B2B6B7D
:1037C0000B6B2B6B0B6AEB62CA6B0B62EA62A97222
:1037D0006888A280817881C618C618BE18BE18BE37
:1037E00018BDF8BDF8BDF8BDF8BDF8BDF8BDF8BD11
:1037F000F7BDF7BDF7BDF7BDF7BDF7BDD7BDD7BD69
:10380000D7BDD7BDD7BDD7BDD7BDD7BDD7BDD7BD18
:10381000D7BDD7BDD7BDD7BDD7BDD7BDD7BDD7BD08
:10382000D7B5D7B5D7B5D7B5D7B5D7B5D7B5D7B538
:10383000D7B5D7B5D7B5D7B5D7BDD7BDD7BDD7BD08
:10384000D7BDD7BDD7BDD7BDD7BDD7BDD7BDD7BDD8
:10385000D7BDD7BDD7BDD7BDD7BDD7BDD7BDD7BDC8
:10386000D7BDD7BDD7BDD7BDD7BDD7BDD7BDD7BDB8
:10387000D7BDD7BDD7BDD7BDD7BDD7BDD7BDD7BDA8
:10388000D7BDD7BDD7BDD7BDD7BDD7BDD7BDD7BD98
:10389000D7BDD7BDB6AD75A534A4F4AD14A4B3ADF2
:1038A00034A514A534BDD7BDD7B5D6B5D6B5D6B5D4
:1038B000D6B5D6B5D6B5D6B5D6B5D6B5D6B5D6B5B0
:1038C000D6B5D6B5D6B5D6B5D6B5D6B5D6B5D6B5A0
:1038D000D6B5D6B5D6B5D6B5D6B5D6B5D6B5D6B590
:1038E000D6B5D6B5D6B5D6B5D6B5D6B5D6B5D6B580
:1038F000D6B5D6B5D6B5D6B5D6B5D6B5D6B5D6B570
:10390000D6B5D6B5D6B5D6B5D6B5D6B5D6B5D6B55F
:10391000D6B5D6B5D6B5D6B5D6B5D6B5D6B5D6B54F
:10392000D6B5D6B5B6B5B6B5B6B5B6B5B6B5B6B5FF
:10393000D6B5D6BDD7C61894517BAD7B8D7B6C7B3D
:103940008D7B8D7B8D83AD83AE7B6D7B8D7B8D730E
:103950004C7B6C7B6D7B8D734C734C7B8D83AE7B12
:103960008D7B6D7B6D734C732C732B732B732C734E
:103970002C6AEA732B6AEA5A8972478082808178BE
:1039800081C618C618BE18BE18BE18BE18BDF8BD30
:10399000F8BDF8BDF8BDF8BDF8BDF7BDF7BDF7BD82
:1039A000F7BDF7BDF7BDD7BDD7BDD7BDD7BDD7BD17
:1039B000D7BDD7BDD7BDD7BDD7BDD7BDD7BDD7BD67
:1039C000D7BDD7BDD7BDD7BDD7BDD7B5D7B5D7B56F
:1039D000D7B5D7BDD7BDD7BDD7BDD7BDD7BDD7BD4F
:1039E000D7BDD7BDD7BDD7BDD7BDD7BDD7BDD7BD37
:1039F000D7BDD7BDD7BDD7BDD7BDD7BDD7BDD7BD27
:103A0000D7BDD7BDD7BDD7BDD7BDD7BDD7BDD7BD16
:103A1000D7BDD7BDD7BDD7BDD7BDD7BDD7BDD7BD06
:103A2000D7BDD7BDD7BDD7BDD7BDD7BDD7BDD7BDF6
:103A3000D7BDD7BDD7B5D7B5D6B5D6B5B6B596AD82
:103A400035AD14AD14ACD3ACD3B53594718C30BD59
:103A5000F7BDD7B5B6B5B6B5B6B5B6B5B6B5B6B5A4
:103A6000B6B5B6B5B6B5B6B5B6B5B6B5B6B5B6B5FE
:103A7000B6B5B6B5B6B5B6B5B6B5B6B5B6B5D6B5CE
:103A8000D6B5D6B5D6B5D6B5D6B5D6B5D6B5D6B5DE
:103A9000D6B5D6B5D6B5B6B5B6B5B6B5B6B5B6B56E
:103AA000B6B5B6B5B6B5B6B5B6B5B6B5B6B5B6B5BE
:103AB000B6B5B6B5B6B5D6B5D6B5D6B5D6B5D6B50E
:103AC000D6B5D6B5D6B5B6B5B6B5B6B5B6B5B6B53E
:103AD000B6B5B6B5B6B5B6B5B6B5D6B5D6BDD7C515
:103AE000F78C307B6D6B0B732B734C734C7B6D7B46
:103AF0006C7B6D732B732C7B6C6AEB732C732B7349
:103B00004C732C732C7B4C734C734C732C732C7335
:103B10002B732B6B2B6B2B6B2B732C6B0B6B2B6B04
:103B20000B62C98B0A88A278817881C618C618BE34
:103B300018BE18BE18BE18BDF8BDF8BDF8BDF8BD5A
:103B4000F8BDF8BDF7BDF7BDF7BDF7BDF7BDF7BDD3
:103B5000D7BDD7BDD7BDD7BDD7BDD7BDD7BDD7BDC5
:103B6000D7BDD7BDD7BDD7BDD7BDD7BDD7BDD7BDB5
:103B7000D7BDD7BDD7B5D7B5D7B5D7B5D7BDD7BDC5
:103B8000D7BDD7BDD7BDD7BDD7BDD7BDD7BDD7BD95
:103B9000D7BDD7BDD7BDD7BDD7BDD7BDD7BDD7BD85
:103BA000D7BDD7BDD7BDD7BDD7BDD7BDD7BDD7BD75
:103BB000D7BDD7BDD7BDD7BDD7BDD7BDD7BDD7BD65
:103BC000D7BDD7BDD7BDD7BDD7BDD7BDD7BDD7BD55
:103BD000D7BDD7BDD7BDD7BDD7BDD7BDD7BDD7BD45
:103BE000D7B5D6BDB6AD55B555B535ACD4ACD3A467
:103BF000B2ACD3AD14ACF383CEAD75BDD7B5B6B50D
:103C0000B6B5B6B5B6B5B6B5B6B5B6B5B6B5B6B55C
:103C1000B6B5B6B5B6B5B6B5B6B5B6B5B6B5B6B54C
:103C2000B6B5B6B5B6B5B6B5D6B5D6B5D6B5D6B5BC
:103C3000D6B5D6B5D6B5D6B5D6B5D6B5D6B5D6B52C
:103C4000B6B5B6B5B6B5B6B5B6B5B6B5B6B5B6B51C
:103C5000B6B5B6B5B6B5B6B5B6B5B6B5B6B5B6B50C
:103C6000D6B5D6B5D6B5D6B5D6B5D6B5D6B5D6B5FC
:103C7000B6B5B6B5B6B5B6B5B6B5B6B5B6B5B6B5EC
:103C8000B6B5B6B5D6B5D6BDD7C5F7945083CE7BFD
:103C90008D7B8D838D7B8D838D7B8D83AD7B6C7BCD
:103CA0006D83AD732C732B732C734C734C734C7BE3
:103CB0004C734C734C732C732C6B0B6B0B630B633F
:103CC0000A630B6B2B62EA6B2B6B0A8C4DB44F882B
:103CD000A278817881C618C618BE18BE18BE18BE54
:103CE00018BE18BDF8BDF8BDF8BDF8BDF8BDF7BDEC
:103CF000F7BDF7BDF7BDF7BDF7BDD7BDD7BDD7BD84
:103D0000D7BDD7BDD7BDD7BDD7BDD7BDD7BDD7BD13
:103D1000D7BDD7BDD7BDD7BDD7BDD7BDD7BDD7B50B
:103D2000D7B5D7B5D7B5D7BDD7BDD7BDD7BDD7BD0B
:103D3000D7BDD7BDD7BDD7BDD7BDD7BDD7BDD7BDE3
:103D4000D7BDD7BDD7BDD7BDD7BDD7BDD7BDD7BDD3
:103D5000D7BDD7BDD7BDD7BDD7BDD7BDD7BDD7BDC3
:103D6000D7BDD7BDD7BDD7BDD7BDD7BDD7BDD7BDB3
:103D7000D7BDD7BDD7BDD7BDD7BDD7BDD7BDD7BDA3
:103D8000D7BDD7BDD7BDD7B5D7B5D6BDB6B576AD3E
:103D900014AD14ACB3ACD4ACD3A492ACD3AD149CDE
:103DA000318BEFB5B6B5B6B5B6B5B6B5B6B5B6B531
:103DB000B6B5B6B5B6B5B6B5B6B5B6B5B6B5B6B5AB
:103DC000B6B5B6B5B6B5B6B5B6B5B6B5B6B5B6B59B
:103DD000B6B5D6B5D6B5D6B5D6B5D6B5D6B5D6B5AB
:103DE000D6B5D6B5D6B5D6B5D6B5B6B5B6B5B6B5DB
:103DF000B6B5B6B5B6B5B6B5B6B5B6B5B6B5B6B56B
:103E0000B6B5B6B5B6B5B6B5B6B5D6B5D6B5D6B5FA
:103E1000D6B5D6B5D6B5D6B5D6B5B6B5B6B5B6B5AA
:103E2000B6B5B6B5B6B5B6B5B6B5B6B5B6B5B6B53A
:103E3000D6BDD7C5F78C5083CE83AD838D83AE833B
:103E4000AE83AD83CE83CE83AE83AD7B8D7B4C734F
:103E50004C7B8D7B6D7B6D7B8D83AD7B8D7B8D7B7B
:103E60006C7B4C734C732B732C6B0B6B2B6B2B6B16
:103E70000873297B6BA4B038A180A278617881C6D1
:103E800018C618C618BE18BE18BE18BE18BDF8BD94
:103E9000F8BDF8BDF8BDF8BDF7BDF7BDF7BDF7BD7E
:103EA000F7BDF7BDD7BDD7BDD7BDD7BDD7BDD7BD32
:103EB000D7BDD7BDD7BDD7BDD7BDD7BDD7BDD7BD62
:103EC000D7BDD7BDD7BDD7BDD7B5D7B5D7B5D7B572
:103ED000D7BDD7BDD7BDD7BDD7BDD7BDD7BDD7BD42
:103EE000D7BDD7BDD7BDD7BDD7BDD7BDD7BDD7BD32
:103EF000D7BDD7BDD7BDD7BDD7BDD7BDD7BDD7BD22
:103F0000D7BDD7BDD7BDD7BDD7BDD7BDD7BDD7BD11
:103F1000D7BDD7BDD7BDD7BDD7BDD7BDD7BDD7BD01
:103F2000D7BDD7BDD7BDD7BDD7BDD7BDD7BDD7BDF1
:103F3000D7B5D7B596AD55AD55AD14ACF4ACD3B43B
:103F4000D4AC93AC92B4F3ACD39C3083CEBDD7B594
:103F5000B6B5B6B5B6B5B6B5B6B5B6B5B6B5B6B509
:103F6000B6B5B6B5B6B5B6B5B6B5B6B5B6B5B6B5F9
:103F7000B6B5B6B5B6B5B6B5B6B5B6B5D6B5D6B5A9
:103F8000D6B5D6B5D6B5D6B5D6B5D6B5D6B5D6B5D9
:103F9000D6B5D6B5B6B5B6B5B6B5B6B5B6B5B6B589
:103FA000B6B5B6B5B6B5B6B5B6B5B6B5B6B5B6B5B9
:103FB000B6B5B6B5D6B5D6B5D6B5D6B5D6B5D6B5E9
:103FC000D6B5D6B5B6B5B6B5B6B5B6B5B6B5B6B559
:103FD000B6B5B6B5B6B5B6B5B6B5D6BDD7C5F88C17
:103FE0003083AE83AE83AD83CE83AE83AD83CE8389
:103FF000AD838D83AD7B8D734C730B732C734C73BE
:104000004C734C7B6D7B4C734C730B6B0B732C7331
:104010004C62A941E683EE9470942F942F944F182C
:104020006082C988A280617881C618C618BE18BE91
:1040300018BE18BE18BDF8BDF8BDF8BDF8BDF8BD76
:10404000F8BDF7BDF7BDF7BDF7BDF7BDF7BDD7BDEF
:10405000D7BDD7BDD7BDD7BDD7BDD7BDD7BDD7BDC0
:10406000D7BDD7BDD7BDD7BDD7BDD7BDD7BDD7BDB0
:10407000D7BDD7BDD7BDD7BDD7BDD7BDD7BDD7BDA0
:10408000D7BDD7BDD7BDD7BDD7BDD7BDD7BDD7BD90
:10409000D7BDD7BDD7BDD7BDD7BDD7BDD7BDD7BD80
:1040A000D7BDD7BDD7BDD7BDD7BDD7BDD7BDD7BD70
:1040B000D7BDD7BDD7BDD7BDD7BDD7BDD7BDD7BD60
:1040C000D7BDD7BDD7BDD7BDD7BDD7BDD7BDD7BD50
:1040D000D7BDD7B5D7B5D7B5D7B5D7BDD7AD55A40B
:1040E000F4B535ACF4ACD3ACB3B4F4ACB3B4D4AC39
:1040F000B3A4929C108BCFB5B6B5B6B5B6B5B6B570
:10410000B6BDD7B5B6B5B6B5B6B5B6B5B6B5B6B52E
:10411000B6B5B6B5B6B5B6B5B6B5B6B5B6B5B6B547
:10412000B6B5B6B5B6B5B6B5B6B5B6B5B6B5B6B537
:10413000B6B5B6B5B6B5B6B5B6B5B6B5B6B5B6B527
:10414000B6B5B6B5B6B5B6B5B6B5B6B5B6B5B6B517
:10415000B6B5B6B5B6B5B6B5B6B5B6B5B6B5D6B5E7
:10416000D6B5D6B5D6B5B6B5B6B5B6B5B6B5B6B597
:10417000B6B5B6B5B6B5B6B5B6B5B6B5B6B5B6B5E7
:10418000D6B5D6B5D6BDD7C5F88C307B6D7B6C7BEC
:104190006C7B8D7B8D7B8D838D7B8D7B8D7B8D83F0
:1041A000AD7B6D7B8D7B8D7B6D7B4C734C7B8D8371
:1041B0008D7B4C734C8BEF730B49E76AEB838D82DD
:1041C000CB7229824A830C18617B8CB51280A18046
:1041D000617881C618C618BE18BE18BE18BE18BDB4
:1041E000F8BDF8BDF8BDF8BDF8BDF8BDF7BDF7BD29
:1041F000F7BDF7BDF7BDF7BDD7BDD7BDD7BDD7BD9F
:10420000D7BDD7BDD7BDD7BDD7BDD7BDD7BDD7BD0E
:10421000D7BDD7BDD7BDD7BDD7BDD7BDD7BDD7BDFE
:10422000D7BDD7BDD7BDD7BDD7BDD7BDD7BDD7BDEE
:10423000D7BDD7BDD7BDD7BDD7BDD7BDD7BDD7BDDE
:10424000D7BDD7BDD7BDD7BDD7BDD7BDD7BDD7BDCE
:10425000D7BDD7BDD7BDD7BDD7BDD7BDD7BDD7BDBE
:10426000D7BDD7BDD7BDD7BDD7BDD7BDD7BDD7BDAE
:10427000D7BDD7BDD7BDD7BDD7BDD7BDD7B5D7B5AE
:10428000D7B5D7B5D7B595AD55ACF4ACF4B4F4AC5F
:10429000F4BD15BD55B4F4B4D4AC92A472A4728B21
:1042A000AEA4F2BDB6B5B6B5B6B5B6B5B6B5B6B58B
:1042B000B6B5B6B5B6B5B6B5B6B5B6B5B6B5B6B5A6
:1042C000B6B5B6B5B6B5B6B5B6B5B6B5B6B5B6B596
:1042D000B6B5B6B5B6B5B6B5B6B5B6B5B6B5B6B586
:1042E000B6B5B6B5B6B5B6B5B6B5B6B5B6B5B6B576
:1042F000B6B5B6B5B6B5B6B5B6B5B6B5B6B5B6B566
:10430000B6B5B6B5B6B5B6B5D6B5D6B5D6B5D6B5D5
:10431000B6B5B6B5B6B5B6B5B6B5B6B5B6B5B6B545
:10432000B6B5B6B5B6B5B6B5B6B5D6B5D7B5D7BDCB
:10433000D7C5F78C307BAD7B8D7B8D83CE83CE83D1
:10434000AE83CE83CE83CE8BCE83CE83AD838D7B67
:104350008D7B6C7B8D7B6D7B6D7B6C94507B6D4915
:10436000E76AEB8ACB69E8618769666966598628DE
:10437000816AA99C4FACB088A280617881C618C6BA
:1043800018BE18BE18BE18BE18BDF8BDF8BDF8BDE1
:10439000F8BDF8BDF8BDF7BDF7BDF7BDF7BDF7BD7A
:1043A000F7BDD7BDD7BDD7BDD7BDD7BDD7BDD7BD4D
:1043B000D7BDD7BDD7BDD7BDD7BDD7BDD7BDD7BD5D
:1043C000D7BDD7BDD7BDD7BDD7BDD7BDD7BDD7BD4D
:1043D000D7BDD7BDD7BDD7BDD7BDD7BDD7BDD7BD3D
:1043E000D7BDD7BDD7BDD7BDD7BDD7BDD7BDD7BD2D
:1043F000D7BDD7BDD7BDD7BDD7BDD7BDD7BDD7BD1D
:10440000D7BDD7BDD7BDD7BDD7BDD7BDD7BDD7BD0C
:10441000D7BDD7BDD7BDD7BDD7BDD7BDD7BDD7BDFC
:10442000D7BDD7BDD7BDD7B5D7B5D7B5D7B5D7B514
:1044300075B535A4D2AC92B4D3B4F4ACB3B4D4ACA7
:1044400092BCF4B4D4AC93A472A4519C91BDB6B503
:10445000B6B596AD559CF38430632C632C7BAF844A
:10446000308C719CD3A514A534AD75B596B5B6B591
:10447000B6B5B6B5B6B5B6B5B6B5B6B5B6B5B6B5E4
:10448000B6B5B6B5B6B5B6B5B6B5B6B5B6B5B6B5D4
:10449000B6B5B6B5B6B5B6B5B6B5B6B5B6B5B6B5C4
:1044A000B6B5B6B5B6B5B6B5B6B5B6B5B6B5B6B5B4
:1044B000B6B5D6B5D6B5D6B5D6B5B6B5B6B5B6B524
:1044C000B6B5B6B5B6B5B6B5B6B5B6B5B6B5B6B594
:1044D000B6B5B6B5D6B5D7B5D7BDD7C5F78C508369
:1044E000AE7B8D7B8D83CE83AE7B8D83AD8BCE8378
:1044F000AE83CE83CE83AE83AE83CE83CE83CE8394
:10450000CE8BEFA3CF72497A49722969E769C769EF
:1045100086698669666966202049036A48838C9BA0
:10452000ED78C270417042C618C618BE18BE18BEDB
:1045300018BE18BE18BDF8BDF8BDF8BDF8BDF8BD71
:10454000F7BDF7BDF7BDF7BDF7BDF7BDD7BDD7BD0B
:10455000D7BDD7BDD7BDD7BDD7BDD7BDD7BDD7BDBB
:10456000D7BDD7BDD7BDD7BDD7BDD7BDD7BDD7BDAB
:10457000D7BDD7BDD7BDD7BDD7BDD7BDD7BDD7BD9B
:10458000D7BDD7BDD7BDD7BDD7BDD7BDD7BDD7BD8B
:10459000D7BDD7BDD7BDD7BDD7BDD7BDD7BDD7BD7B
:1045A000D7BDD7BDD7BDD7BDD7BDD7BDD7BDD7BD6B
:1045B000D7BDD7BDD7BDD7BDD7BDD7BDD7BDD7BD5B
:1045C000D7BDD7BDD7BDD7BDD7BDD7BDD7BDD7BD4B
:1045D000D7B5D7B5D7B5D7B5D7B596B535BD149B33
:1045E0008F934EC535AC93B4D4B4F4C555BD14B453
:1045F000D3A4728BCF9C71C5F794B239E7290420FC
:10460000E320E32903290320E320C318A220E318B1
:10461000A220E339C77BAE9CD3B596BDD7B5B6B55E
:10462000B6B5B6B5B6B5B6B5B6B5B6B5B6B5B6B532
:10463000B6B5B6B5B6B5B6B5B6B5B6B5B6B5B6B522
:10464000B6B5B6B5B6B5B6B5B6B5B6B5B6B5B6B512
:10465000B6B5B6B5B6B5B6B5B6B5B6B5D6B5D6B5C2
:10466000D6B5D6B5B6B5B6B5B6B5B6B5B6B5B6B5B2
:10467000B6B5B6B5B6B5B6B5B6B5B6B5D6B5D6B5A2
:10468000D7B5D7BDD7C5F78C307B6D7B6C7B6D8381
:10469000AD83AE7B8D83AD8BEE942F9C91A4B1AC9A
:1046A000D2A4D2A4D2A4D2A4B29C91A491AC71837E
:1046B0002C7AAA7A8A7AAA82CA830B830B834B83C9
:1046C0000B7B2B830B7AEA7B4B830A8B2A7B4A7BFF
:1046D0004BC618C618BE18BE18BE18BE18BE18BEE7
:1046E00018BDF8BDF8BDF8BDF8BDF7BDF7BDF7BD05
:1046F000F7BDF7BDF7BDD7BDD7BDD7BDD7BDD7BDBA
:10470000D7BDD7BDD7BDD7BDD7BDD7BDD7BDD7BD09
:10471000D7BDD7BDD7BDD7BDD7BDD7BDD7BDD7BDF9
:10472000D7BDD7BDD7BDD7BDD7BDD7BDD7BDD7BDE9
:10473000D7BDD7BDD7BDD7BDD7BDD7BDD7BDD7BDD9
:10474000D7BDD7BDD7BDD7BDD7BDD7BDD7BDD7BDC9
:10475000D7BDD7BDD7BDD7BDD7BDD7BDD7BDD7BDB9
:10476000D7BDD7BDD7BDD7BDD7BDD7BDD7BDD7BDA9
:10477000D7BDD7B5D7B5D7BDD7BDD7B5D7BDD7B5B9
:10478000B6B596AD34AD14AD34B534ACB2BD14B4D9
:10479000D3B4B3B4B3BD14B4D4ACB3A4727B8D5250
:1047A00069292420C220C220A220C220C220E220E7
:1047B000E320E320C2188118A220C220E320C320F6
:1047C000E33185736D9CD3B5B6B5B6B5B6B5B6B5A0
:1047D000B6B5B6B5B6B5B6B5B6B5B6B5B6B5B6B581
:1047E000B6B5B6B5B6B5B6B5B6B5B6B5B6B5B6B571
:1047F000B6B5B6B5B6B5B6B5B6B5B6B5B6B5B6B561
:10480000B6B5B6B5B6B5B6B5B6B5B6B5B6B5D6B530
:10481000D6B5D6B5D6B5D6B5D6B5D6B5D6B5D6B540
:10482000D6B5D6B5D6B5D6B5D6B5D7BDD7BDD7C50D
:10483000F78C3083AE7B8D7B8D83AD83AD83CE9C37
:104840009152287B6D7B6C734C730B6AEA62C96A68
:10485000C962C962C962A962A96289624862686262
:10486000886AA862C96AE96AE96AE97B2B7B4B7BA3
:104870004B7B4B834B7B8B7B8C7B8CC618C618C6C3
:1048800018BE18BE18BE18BE18BE18BDF8BDF8BDBB
:10489000F8BDF8BDF7BDF7BDF7BDF7BDF7BDF7BD76
:1048A000D7BDD7BDD7BDD7BDD7BDD7BDD7BDD7BD68
:1048B000D7BDD7BDD7BDD7BDD7BDD7BDD7BDD7BD58
:1048C000D7BDD7BDD7BDD7BDD7BDD7BDD7BDD7BD48
:1048D000D7BDD7BDD7BDD7BDD7BDD7BDD7BDD7BD38
:1048E000D7BDD7BDD7BDD7BDD7BDD7BDD7BDD7BD28
:1048F000D7BDD7BDD7BDD7BDD7BDD7BDD7BDD7BD18
:10490000D7BDD7BDD7BDD7BDD7BDD7BDD7BDD7BD07
:10491000D7BDD7BDD7BDD7BDD7BDD7BDD7BDD7B5FF
:10492000D7BDD7BDD7B5D7B5B6B596B555AD14ACCF
:10493000F4B535BD55B534B514B514ACB2B4F3A463
:1049400092B4D3BCF47B2D20C21061108118A11841
:10495000A118A11881188118A118C220C218A21884
:10496000A120C220C218A220C220C220C129235ADD
:10497000A98C50B596BDD7B5B6B5B6B5B6B5B6B572
:10498000B6B5B6B5B6B5B6B5B6B5B6B5B6B5B6B5CF
:10499000B6B5B6B5B6B5B6B5B6B5B6B5B6B5B6B5BF
:1049A000B6B5B6B5B6B5B6B5B6B5B6B5B6B5B6B5AF
:1049B000B6B5B6B5B6B5B6B5D6B5D6B5D6B5D6B51F
:1049C000D6B5D6B5D6B5D6B5D6B5D6B5D6B5D6B58F
:1049D000D6B5D6B5D7BDD7BDD7C5F78C0F7B8D73F0
:1049E0004C732C734C734C7B6C732B62AA62AA625F
:1049F000A95A89628962A962A962A9628862A86AC1
:104A0000C96AEA6AEA6AC96AEA6AEA6AC96AC96292
:104A1000A96AC96AC96AEA6AEA730A730A730A73F5
:104A20000A7B4B7B4BC618C618C618BE18BE18BEEC
:104A300018BE18BE18BDF8BDF8BDF8BDF8BDF7BD6D
:104A4000F7BDF7BDF7BDF7BDF7BDD7BDD7BDD7BD26
:104A5000D7BDD7BDD7BDD7BDD7BDD7BDD7BDD7BDB6
:104A6000D7BDD7BDD7BDD7BDD7BDD7BDD7BDD7BDA6
:104A7000D7BDD7BDD7BDD7BDD7BDD7BDD7BDD7BD96
:104A8000D7BDD7BDD7BDD7BDD7BDD7BDD7BDD7BD86
:104A9000D7BDD7BDD7BDD7BDD7BDD7BDD7BDD7BD76
:104AA000D7BDD7BDD7BDD7BDD7BDD7BDD7BDD7BD66
:104AB000D7BDD7BDD7BDD7BDD7BDD7BDD7BDD7BD56
:104AC000D7BDD7BDD7BDD7BDD7BDD7BDD7BDD7B54E
:104AD000B6B576B575B535B555B534B535B555BD3D
:104AE00055BD55BD34ACD3ACB2ACD3B4D4941010D6
:104AF000610841106110611881188218A218A2186B
:104B0000A21882188220C220C320C220C220C2184C
:104B1000A218A218A218A218A1290241E683CEB5B4
:104B200055BD96BD96B5B6B5B6B5B6B5B6B5B6B5BE
:104B3000B6B5B6B5B6B5B6B5B6B5B6B5B6B5B6B51D
:104B4000B6B5B6B5B6B5B6B5B6B5B6B5B6B5B6B50D
:104B5000B6B5B6B5B6B5B6B5B6B5B6B5B6B5B6B5FD
:104B6000B6B5D6B5D6B5D6B5D6B5D6B5D6B5D6B50D
:104B7000D6B5D6B5D6B5D6B5D6B5D6B5D6B5D7BDD4
:104B8000D7BDD7C5F78C0F7B8D83AE83AD83AD8347
:104B9000AD838D730B62CA62CA5A895A885A885A81
:104BA00089628962A86288628862886AC96AC96201
:104BB000C96AEA6AEA730A730A730A730A72EA73C1
:104BC0002B730B7B6C7B4C7B2B7B2B7B6C7B6CC6AE
:104BD00018C618C618C618BE18BE18BE18BE18BD0E
:104BE000F8BDF8BDF8BDF8BDF7BDF7BDF7BDF7BD21
:104BF000F7BDF7BDD7BDD7BDD7BDD7BDD7BDD7BDD5
:104C0000D7BDD7BDD7BDD7BDD7BDD7BDD7BDD7BD04
:104C1000D7BDD7BDD7BDD7BDD7BDD7BDD7BDD7BDF4
:104C2000D7BDD7BDD7BDD7BDD7BDD7BDD7BDD7BDE4
:104C3000D7BDD7BDD7BDD7BDD7BDD7BDD7BDD7BDD4
:104C4000D7BDD7BDD7BDD7BDD7BDD7BDD7BDD7BDC4
:104C5000D7BDD7BDD7BDD7BDD7BDD7BDD7BDD7BDB4
:104C6000D7BDD7BDD7BDD7BDD7BDD7BDD7BDD7BDA4
:104C7000D7BDD7BDD7BDD7B5D7AD75B555B514B56B
:104C800014B535B535BD55BD55BD55B534B514ACA8
:104C9000D3B514A492ACB33965104108411061102A
:104CA00061106110611881188218A218A218A22040
:104CB000C220C218C218A218C220E318A218A21853
:104CC000811881188220C239647B6DB555BD96B5B7
:104CD000B6B5B6B5B6B5B6B5B6B5B6B5B6B5B6B57C
:104CE000B6B5B6B5B6B5B6B5B6B5B6B5B6B5B6B56C
:104CF000B6B5B6B5B6B5B6B5B6B5B6B5B6B5B6B55C
:104D0000B6B5B6B5B6B5B6B5B6B5B6B5D6B5D6B50B
:104D1000D6B5D6B5D6B5D6B5D6B5D6B5D6B5D6B53B
:104D2000D6B5D6B5D6B5D6B5D7B5D7BDD7BDD78C40
:104D30000F7BAE83EF83CE83CE83CE83AE732C6A9C
:104D4000EB62CA62A962A962A962A9628962A96AC0
:104D5000C96AC96AC96AEA6ACA62A962A95A485292
:104D600027520649C541A541A549C641A549A549BE
:104D7000C649C649C649E649E6C618C618C618C691
:104D800018BE18BE18BDF8BDF8BDF8BDF8BDF8BD19
:104D9000F8BDF7BDF7BDF7BDF7BDF7BDF7BDF7BD72
:104DA000F7BDD7BDD7BDD7BDD7BDD7BDD7BDD7BD43
:104DB000D7BDD7BDD7BDD7BDD7BDD7BDD7BDD7BD53
:104DC000D7BDD7BDD7BDD7BDD7BDD7BDD7BDD7BD43
:104DD000D7BDD7BDD7BDD7BDD7BDD7BDD7BDD7BD33
:104DE000D7BDD7BDD7BDD7BDD7BDD7BDD7BDD7BD23
:104DF000D7BDD7BDD7BDD7BDD7BDD7BDD7BDD7BD13
:104E0000D7BDD7BDD7BDD7BDD7BDD7BDD7BDD7BD02
:104E1000D7BDD7BDD7BDD7BDD7BDD7BDF7BDF7BDB2
:104E2000D7B5B6B555AD35AD14B535B535B555BDF8
:104E300055BD55BD55BD35BD34BD34B4F3A492AC9C
:104E40009328E31061106110811081188118A21855
:104E5000A218821061106118C220E218C218A118AD
:104E6000A120C220E320C218A21881186118A22034
:104E7000A220C23144738DAD34B596B5B6B5B6B582
:104E8000B6B5B6B5B6B5B6B5B6B5B6B5B6B5B6B5CA
:104E9000B6B5B6B5B6B5B6B5B6B5B6B5B6B5B6B5BA
:104EA000B6B5B6B5B6B5B6B5B6B5B6B5B6B5D6B58A
:104EB000D6B5D6B5D6B5D6B5D6B5D6B5D6B5D6B59A
:104EC000D6B5D6B5D6B5D6B5D6B5D6B5D6B5D6B58A
:104ED000D7BDD7BDD7BDD7BDD68C0F83EF840F8C80
:104EE0000F8C0F83EE83CE7B6D62AA5A69522752D4
:104EF0000749E649C649C649C649E649E649E64979
:104F0000E649E649C649C649E649C649C649C651C1
:104F1000E649C649C641A541A541A541A5418541EE
:104F2000854185C618C618C618C618BE18BE18BD55
:104F3000F8BDF8BDF8BDF8BDF8BDF8BDF7BDF7BDCB
:104F4000F7BDF7BDF7BDF7BDF7BDF7BDD7BDD7BD01
:104F5000D7BDD7BDD7BDD7BDD7BDD7BDD7BDD7BDB1
:104F6000D7BDD7BDD7BDD7BDD7BDD7BDD7BDD7BDA1
:104F7000D7BDD7BDD7BDD7BDD7BDD7BDD7BDD7BD91
:104F8000D7BDD7BDD7BDD7BDD7BDD7BDD7BDD7BD81
:104F9000D7BDD7BDD7BDD7BDD7BDD7BDD7BDD7BD71
:104FA000D7BDD7BDD7BDD7BDD7BDD7BDD7BDD7BD61
:104FB000D7BDD7BDD7BDD7BDD7BDD7BDD7BDD7BD51
:104FC000D7BDD7BDD7BDD7BDD7B5D7B576B555B544
:104FD00035AD14AD14AD35B555B555BD55BD55BD43
:104FE00055BD34B514B4D3ACB2ACB320C31061100A
:104FF0008118A118C120C218C218A218A218C2187C
:10500000A1108110A11080106018A118A120E22920
:105010000320C218A218A21881188118A220E23910
:10502000847B8DAD54B596B5B6B5B6B5B6B5B6B547
:10503000B6B5B6B5B6B5B6B5B6B5B6B5B6B5B6B518
:10504000B6B5B6B5B6B5B6B5B6B5B6B5B6B5B6B508
:10505000B6B5B6B5B6B5B6B5D6B5D6B5D6B5D6B578
:10506000D6B5D6B5D6B5D6B5D6B5D6B5D6B5D6B5E8
:10507000D6B5D6B5D6B5D6B5D7BDD7BDD7BDD7BDB4
:10508000F7BDD68C0F83EF83EF83EF83EE7B8D52DA
:105090002751E75207520751E749E649C649C64931
:1050A000E649E649E649E649E649E649C649C649C8
:1050B000C649C649C649C649A549C649C649A541C2
:1050C000A541A541A541A541A541A541A5C618C633
:1050D00018C618C618BE18BE18BDF8BDF8BDF8BD74
:1050E000F8BDF8BDF8BDF7BDF7BDF7BDF7BDF7BD1D
:1050F000F7BDF7BDF7BDD7BDD7BDD7BDD7BDD7BDB0
:10510000D7BDD7BDD7BDD7BDD7BDD7BDD7BDD7BDFF
:10511000D7BDD7BDD7BDD7BDD7BDD7BDD7BDD7BDEF
:10512000D7BDD7BDD7BDD7BDD7BDD7BDD7BDD7BDDF
:10513000D7BDD7BDD7BDD7BDD7BDD7BDD7BDD7BDCF
:10514000D7BDD7BDD7BDD7BDD7BDD7BDD7BDD7BDBF
:10515000D7BDD7BDD7BDD7BDD7BDD7BDD7BDD7BDAF
:10516000D7BDD7BDD7BDD7BDD7BDD7BDD7BDD7BD9F
:10517000D7BDD7B5D7AD35B535B535AD14AD14AD53
:1051800035B555B555BD55BD55BD35B514B514B47A
:10519000D3ACD35A4818A118A118A118C218C21824
:1051A000A218A218A218A218C218C2108110611069
:1051B00060188120C218A128E3312328C228A22028
:1051C000A2188120A1188118A1290252478C0FB57D
:1051D00055B5B6B5B6B5B6B5B6B5B6B5B6B5B6B5D8
:1051E000B6B5B6B5B6B5B6B5B6B5B6B5B6B5B6B567
:1051F000B6B5B6B5B6B5B6B5B6B5B6B5B6B5B6B557
:10520000B6B5B6B5B6B5B6B5B6B5B6B5B6B5B6B546
:10521000B6B5D6B5D6B5D6B5D6B5D6B5D6B5D6B556
:10522000D6B5D7BDD7BDD7BDD7BDF7BDD6840F8303
:10523000EE83EE83CE526841E649E749C651E7491D
:10524000E749E649E649E649E649E649C649C64925
:10525000C649C649E649E649C649C649C649C64996
:10526000C649C649C649C649A541A541A541A5416A
:10527000A541A541A541A5C618C618C618C618BEA1
:1052800018BE18BDF8BDF8BDF8BDF8BDF8BDF8BD35
:10529000F7BDF7BDF7BDF7BDF7BDF7BDF7BDF7BD6E
:1052A000D7BDD7BDD7BDD7BDD7BDD7BDD7BDD7BD5E
:1052B000D7BDD7BDD7BDD7BDD7BDD7BDD7BDD7BD4E
:1052C000D7BDD7BDD7BDD7BDD7BDD7BDD7BDD7BD3E
:1052D000D7BDD7BDD7BDD7BDD7BDD7BDD7BDD7BD2E
:1052E000D7BDD7BDD7BDD7BDD7BDD7BDD7BDD7BD1E
:1052F000D7BDD7BDD7BDD7BDD7BDD7BDD7BDD7BD0E
:10530000D7BDD7BDD7BDD7BDD7BDD7BDD7BDD7BDFD
:10531000D7BDD7BDD7BDD7BDD7BDD7B5D7B596AD4E
:1053200035AD14AD35AD14B555AD35B555B535B54F
:1053300035B4F4B514B514B514BD14ACB220E210F4
:105340008018C220E218C218C218C220C220C21897
:10535000A2188118A110811060106010401061180F
:1053600081188128C228E228C220C220A2188118F0
:1053700081188120A129225AA99491B575AD96B5BD
:10538000B6B5B6B5B6B5B6B5B6B5B6B5B6B5B6B5C5
:10539000B6B5B6B5B6B5B6B5B6B5B6B5B6B5B6B5B5
:1053A000B6B5B6B5B6B5B6B5B6B5B6B5B6B5B6B5A5
:1053B000B6B5B6B5B6B5B6B5B6B5B6B5D6B5D6B555
:1053C000D6B5D6B5D6B5D6B5D6B5D6B5D7B5D7BD7B
:1053D000D7BDD7BDF7BDF68C0F7BAD5A894A484A79
:1053E000274A274A0749C649C649E751E7520752A3
:1053F00007520749E649C649C649C649C649C6498A
:10540000C649C649A549C649C649C649C649C64945
:10541000C649A541A54185418541854185418541D3
:1054200085C618C618C618C618BE18BE18BDF8BD61
:10543000F8BDF8BDF8BDF8BDF8BDF7BDF7BDF7BDC7
:10544000F7BDF7BDF7BDF7BDF7BDD7BDD7BDD7BD1C
:10545000D7BDD7BDD7BDD7BDD7BDD7BDD7BDD7BDAC
:10546000D7BDD7BDD7BDD7BDD7BDD7BDD7BDD7BD9C
:10547000D7BDD7BDD7BDD7BDD7BDD7BDD7BDD7BD8C
:10548000D7BDD7BDD7BDD7BDD7BDD7BDD7BDD7BD7C
:10549000D7BDD7BDD7BDD7BDD7BDD7BDD7BDD7BD6C
:1054A000D7BDD7BDD7BDD7BDD7BDD7BDD7BDD7BD5C
:1054B000D7BDD7BDD7BDD7BDD7BDD7BDD7BDD7BD4C
:1054C000D7BDD7B5D6B5D7AD55AD35AD14ACF4AD68
:1054D00014B535B535B535B514BD35B535B514ACE0
:1054E000B39410B4D3ACB218A1108118C220C21862
:1054F000C220C220E220C218A11881188118A21867
:1055000081106110611061108118C220E220C22850
:10551000C228E228E220A118811881188118A12050
:10552000C139A5732C9CB2B595AD96B5B6B5B6B5D7
:10553000B6B5B6B5B6B5B6B5B6B5B6B5B6B5B6B513
:10554000B6B5B6B5B6B5B6B5B6B5B6B5B6B5B6B503
:10555000B6B5B6B5B6B5B6B5B6B5B6B5B6B5B6B5F3
:10556000B6B5B6B5B6B5B6B5B6B5B6B5B6B5B6B5E3
:10557000B6B5B6B5B6B5D6B5D6B5D7BDD7BDF7BDF8
:10558000D68C0F734C734C736C7B8D736C736C7B0C
:105590006D7B6C732C7B6C734C7B4C7B4C732B7BCB
:1055A0004C732B734C7B4C734C730B730B6B0B6BEF
:1055B0000B6AEB62CA62AA62A962CA62AA5A895AD3
:1055C0008952685A895A685A685268C618C618C6F5
:1055D00018C618BE18BE18BDF8BDF8BDF8BDF8BD98
:1055E000F8BDF8BDF7BDF7BDF7BDF7BDF7BDF7BD19
:1055F000F7BDF7BDD7BDD7BDD7BDD7BDD7BDD7BDCB
:10560000D7BDD7BDD7BDD7BDD7BDD7BDD7BDD7BDFA
:10561000D7BDD7BDD7BDD7BDD7BDD7BDD7BDD7BDEA
:10562000D7BDD7BDD7BDD7BDD7BDD7BDD7BDD7BDDA
:10563000D7BDD7BDD7BDD7BDD7BDD7BDD7BDD7BDCA
:10564000D7BDD7BDD7BDD7BDD7BDD7BDD7BDD7BDBA
:10565000D7BDD7BDD7BDD7BDD7BDD7BDD7BDD7BDAA
:10566000D7BDD7BDD7BDD7BDD7BDD7BDD7BDD7B5A2
:1056700096AD35AD35ACF4A4B3A4D3B515B535BDF1
:1056800035B514B535B535B4F4B4B3B4B38B6E31A8
:1056900004188118C120E220E220C220C220E220AA
:1056A000C218A218A118811881186110401060104A
:1056B00061106118A220E220E220C120C22902204C
:1056C000E220A120A11881188118A120E14A278C8D
:1056D0002FAD34B596AD96B5B6B5B6B5B6B5B6B5CB
:1056E000B6B5B6B5B6B5B6B5B6B5B6B5B6B5B6B562
:1056F000B6B5B6B5B6B5B6B5B6B5B6B5B6B5B6B552
:10570000B6B5B6B5B6B5B6B5B6B5B6B5B6B5B6B541
:10571000B6B5B6B5B6B5B6B5B6B5B6B5B6B5B6B531
:10572000D6B5D6B5D7BDD7BDF7BDD6840F738D7BA3
:105730008D7B8D7B6D7B6C734C736C736C734C7B4E
:105740006D7B6D7BAD7B8D7B8D7BAE734D734D7BA8
:105750006D7B6D736D7B6D732C734C734C734D73DC
:105760004D734D734C734C734C6B2C6B0B734C6BB8
:105770002C734C6B2CC618C618C618C618BE18BE9B
:1057800018BDF8BDF8BDF8BDF8BDF8BDF8BDF7BD52
:10579000F7BDF7BDF7BDF7BDF7BDF7BDF7BDD7BD89
:1057A000D7BDD7BDD7BDD7BDD7BDD7BDD7BDD7BD59
:1057B000D7BDD7BDD7BDD7BDD7BDD7BDD7BDD7BD49
:1057C000D7BDD7BDD7BDD7BDD7BDD7BDD7BDD7BD39
:1057D000D7BDD7BDD7BDD7BDD7BDD7BDD7BDD7BD29
:1057E000D7BDD7BDD7BDD7BDD7BDD7BDD7BDD7BD19
:1057F000D7BDD7BDD7BDD7BDD7BDD7BDD7BDD7BD09
:10580000D7BDD7BDD7BDD7BDD7BDD7BDD7BDD7BDF8
:10581000D7BDD7BDD7BDD7B5D7AD75AD14B535A4F8
:10582000B3A4B3B514AD14B514B515B515BD55BDB8
:1058300055B4F4B4D4B4D4B4D3188120C220E22037
:10584000E220E220E220E220E220C218C218811801
:105850008118811861186118611861188118A120D8
:10586000E22103108118A120E229232903188120B5
:10587000A1188118A118A131646B2BA4D2AD75AD0C
:1058800095B596B596B596B5B6B5B6B5B6B5B6B541
:10589000B6B5B6B5B6B5B6B5B6B5B6B5B6B5B6B5B0
:1058A000B6B5B6B5B6B5B6B5B6B5B6B5B6B5B6B5A0
:1058B000B6B5B6B5B6B5B6B5B6B5B6B5B6B5B6B590
:1058C000B6B5B6B5B6B5B6B5B6B5D6B5D6B5D7BD17
:1058D000D7BDF7BDD6840E738D7B8D7B8D736C73B6
:1058E0004C732C7B6C7B6C734C7B6D734C736C7B3F
:1058F0006D734C734D734C732C734D732C6B2C73F5
:105900004D732C734C734C734C6B2C6B2C6B2C6B3E
:105910002C6B0B62EB62CB6B2C6B0B734C6B2CC642
:1059200018C618C618C618BE18BE18BDF8BDF8BDF2
:10593000F8BDF8BDF8BDF8BDF7BDF7BDF7BDF7BDC3
:10594000F7BDF7BDF7BDF7BDD7BDD7BDD7BDD7BD37
:10595000D7BDD7BDD7BDD7BDD7BDD7BDD7BDD7BDA7
:10596000D7BDD7BDD7BDD7BDD7BDD7BDD7BDD7BD97
:10597000D7BDD7BDD7BDD7BDD7BDD7BDD7BDD7BD87
:10598000D7BDD7BDD7BDD7BDD7BDD7BDD7BDD7BD77
:10599000D7BDD7BDD7BDD7BDD7BDD7BDD7BDD7BD67
:1059A000D7BDD7BDD7BDD7BDD7BDD7BDD7BDD7BD57
:1059B000D7BDD7BDD7BDD7BDD7BDD7BDD7BDD7BD47
:1059C000D7BDD7B596A514ACF49C92ACF4B535AD63
:1059D00014B514B515B515BD56BD56BD35B4D4B402
:1059E000B3626A18C218C220E220E220C220C2209C
:1059F000C220E220E320C218A118A1188118812832
:105A0000E3312428E220A120A128E3292318A210B1
:105A100040108120E229232902188120A118812029
:105A2000A22902524883EFA534AD95B595B595B539
:105A300096B596B5B6B5B6B5B6B5B6B5B6B5B6B54E
:105A4000B6B5B6B5B6B5B6B5B6B5B6B5B6B5B6B5FE
:105A5000B6B5B6B5B6B5B6B5B6B5B6B5B6B5B6B5EE
:105A6000B6B5B6B5B6B5B6B5B6B5B6B5B6B5B6B5DE
:105A7000B6B5B6B5D6B5D6B5D7BDD7BDD6BDD68425
:105A80000E738C7B8D7B6D7B6D7B6C7B6D83CE838E
:105A9000AE7B8D83CE7B8D83AE8BEF83CE83CE8327
:105AA000CE7B8D7B8D7BAE736D7B6D734D736D7314
:105AB0006D736D734D6B2C734D734D6B2C6B2C6232
:105AC000EB6B2C62EB6B2C734CC618C618C618C651
:105AD00018BE18BE18BDF8BDF8BDF8BDF8BDF8BDBC
