:020000040800F2
:10000000900700202D020008EB160008E3160008F8
:10001000E716000815060008851B00080000000010
:10002000000000000000000000000000EF160008C3
:100030001906000800000000ED160008F11600087F
:10004000470200084702000847020008470200086C
:10005000470200084702000847020008470200085C
:10006000470200084702000847020008470200084C
:10007000470200084702000847020008470200083C
:10008000470200084702000847020008470200082C
:10009000470200084702000847020008470200081C
:1000A000470200084702000847020008470200080C
:1000B00047020008470200084702000847020008FC
:1000C00047020008470200084702000847020008EC
:1000D00047020008751B0008470200084702000895
:1000E00047020008470200084702000847020008CC
:1000F00047020008470200084702000847020008BC
:1001000047020008470200084702000847020008AB
:10011000470200084702000847020008470200089B
:10012000470200084702000847020008470200088B
:10013000470200084702000847020008470200087B
:10014000470200084702000847020008470200086B
:10015000470200084702000847020008470200085B
:10016000470200084702000847020008470200084B
:10017000470200084702000847020008000000008C
:10018000470200084702000800F002F800F03EF8BD
:100190000AA090E8000C82448344AAF10107DA45E2
:1001A00001D100F033F8AFF2090EBAE80F0013F0F6
:1001B000010F18BFFB1A43F0010318477026000017
:1001C00090260000103A24BF78C878C1FAD85207A8
:1001D00024BF30C830C144BF04680C6070470000C1
:1001E0000023002400250026103A28BF78C1FBD840
:1001F000520728BF30C148BF0B60704700207047CE
:100200001FB502F00BFA1FBD10B510BD00F0D4F9F8
:100210001146FFF7F5FF01F0B1FD00F0F2F903B46C
:10022000FFF7F2FF03BC01F0D2FC00000948804751
:1002300009480047FEE7FEE7FEE7FEE7FEE7FEE7C8
:10024000FEE7FEE7FEE7FEE704480549054A064BE0
:1002500070470000F916000889010008900100208D
:10026000900700209003002090030020704753EA7D
:10027000020C00F069802DE9F04B4FF00006002BD6
:100280001FBFB3FA83F503FA05F424FA05F65E40BE
:1002900012BF1643B2FA82F502FA05F4C5F1200541
:1002A0001EBF22FA05FC44EA0C04203556EA044C31
:1002B0004FEA144418BF641C4FF000084FF00009C7
:1002C000904271EB030C39D3002919BFB1FA81F7C1
:1002D00001FA07F6B0FA80F700FA07F6C7F120072F
:1002E0001EBF20FA07FC46EA0C062037B6FBF4FCDA
:1002F000A7EB0507103F07F01F0BCBF120060CFA08
:100300000BFB2CFA06F644BFB3460026202FA4BFF1
:100310005E464FF0000B5BEA060C08BF4FF0010B86
:1003200019EB0B09ABFB027C48EB0608C01B06FB74
:1003300002CC0BFB03CC71EB0C01C1E70B46024670
:1003400041464846BDE8F08B13B54FF000004FF032
:100350000001AFF30080BDE81C4070470FB40449B2
:1003600010B503AA029800F00DF910BC5DF814FB5B
:10037000040000202DE9F05F894604464FF0000A92
:10038000DFF874B1FB44C0F820A02046E16888473C
:10039000002874D0252806D0D4E901219047206A8E
:1003A000401C2062F1E700265F462046E16888474E
:1003B0002028054607DB312D05D2781910F8200CCE
:1003C00008B10643F1E7B00701D526F00406C4F8EA
:1003D0001CA00027C4F818A02A2D09D0284601F037
:1003E000EFFB38B304EB8708303DC8F8185019E02C
:1003F00059F8041B204604EB87029161E1688847A5
:10040000012F054618D1E069002820DA26F02006E1
:100410001DE0D8F8180000EB800005EB40003038F4
:10042000C8F818002046E1688847054601F0C8FB77
:100430000028EED1012F0AD02E2D08D12046E168E8
:1004400088477F1C0546022F46F02006C4DBA069C2
:10045000002803DA404246F00106A061F00701D00F
:1004600026F010066C2D0BD0682D09D04C2D39D0FC
:100470006A2D35D0742D35D07A2D33D016E038E082
:10048000E1682F4620468847B842054609D16C2FBF
:1004900026D04FF48060E168064320468847054631
:1004A00004E06C2F1AD04FF4807006430DB3A5F111
:1004B0004100192802D8203546F400664A462946EC
:1004C000204626604E46FFF799FE80B101280BD0EA
:1004D000F61D26F0070000F1080956E74020E4E782
:1004E0008020D8E70020D6E706F104094DE728462A
:1004F00052E7206ABDE8F09F912400004FF000020F
:1005000000B5134694469646203922BFA0E80C5009
:10051000A0E80C50B1F12001BFF4F7AF090728BFE4
:10052000A0E80C5048BF0CC05DF804EB890028BF60
:1005300040F8042B08BF704748BF20F8022B11F089
:10054000804F18BF00F8012B704770477047704705
:100550007047000001694A1C02610878704700B5C5
:100560008FB0CDE901310021059105497944CDE9EC
:10057000031011466846FFF7FDFE0FB000BD0000F6
:10058000E5FFFFFF074B70B50D467B44FFF7E7FF24
:100590000446284600F008F810B14FF0FF3070BD57
:1005A000204670BDAF160000007B00F08000704751
:1005B00000487047300100207546FFF7F9FFAE464E
:1005C00005006946534620F00700854618B020B55F
:1005D000FFF73AFEBDE820404FF000064FF000075D
:1005E0004FF000084FF0000B21F00701AC46ACE8DB
:1005F000C009ACE8C009ACE8C009ACE8C0098D4648
:10060000704710B50446AFF300802046BDE81040A7
:10061000FFF705BE00BFFEE7704770B50446A56D45
:1006200000F072F9064694F83500022808D08020C0
:10063000606500BF002084F8340000BF012070BD59
:100640002068006820F01600216808602068406972
:1006500020F0800021684861206C08B9A06C28B1A6
:100660002068006820F008002168086020680068A1
:1006700020F001002168086010E000F045F9801BBF
:1006800005280BD920206065032084F8350000BFC1
:10069000002084F8340000BF0320D0E72068006801
:1006A00000F001000028E8D194F85C103F20884059
:1006B000A860012084F8350000BF002084F83400D1
:1006C00000BF00BFBBE7014691F83500022803D008
:1006D0008020486501207047052081F835000868B2
:1006E000006820F001000A6810600020F3E710B5F0
:1006F0000446A0B201F074FA10BD0000F8B502463D
:100700000B460025002400200021D6E0012606FA31
:1007100001F51E6806EA0504AC4274D11E7906F0A4
:100720000306012E04D01E7906F00306022E13D113
:1007300090684F000326BE40B0434F00DE68BE40C5
:1007400030439060506801268E40B0431E79C6F356
:1007500000168E40304350601E7906F00306032ECB
:1007600009D0D0684F000326BE40B0434F009E68BA
:10077000BE403043D0601E7906F00306022E13D12E
:10078000CF0802F1200656F827004E07F70E0F2675
:10079000BE40B0434F07FF0E1E69BE403043CF0836
:1007A00002F1200646F8270010684F000326BE40DD
:1007B000B0431E7906F003064F00BE403043106080
:1007C0005E6806F44036002E76D000BF0026009604
:1007D0003C4E366846F480463A4F3E603E463668A8
:1007E00006F48046009600BF00BF374E8F0856F8CB
:1007F00027008E07370F0F26BE40B043334EB2425C
:1008000002D1002624E057E0314EB24201D1012648
:100810001EE0304EB24201D1022619E02E4EB24205
:1008200001D1032614E02D4EB24201D104260FE07F
:100830002B4EB24201D105260AE02A4EB24201D126
:10084000062605E0284EB24201D1072600E0082620
:100850008F073F0FBE4030431B4E8F0846F82700DE
:10086000224E3068A0435E6806F4801606B120432D
:100870001E4E3060361D3068A0435E6806F40016D8
:1008800006B12043194E361D3060184E361F3068B1
:10089000A0435E6806F4003606B12043134E361FAF
:1008A0003060361F3068A0435E6806F4803606B1BB
:1008B00020430E4E083E3060491C1029FFF426AF3D
:1008C000F8BD0000443802400838014000000240F2
:1008D0000004024000080240000C024000100240E8
:1008E0000014024000180240001C0240083C014075
:1008F0000AB1816101E00B0483617047014800681F
:10090000000C7047002004E00148006870470000B8
:100910001000002003480068034909780844014991
:1009200008607047100000201800002010B50A4829
:10093000006840F40070084908600846006840F408
:1009400080600860032000F083F80F2000F006F8B4
:1009500000F02AF8002010BD003C024070B50446AB
:100960000E4800784FF47A71B1FBF0F00C49096839
:10097000B1FBF0F5284600F00DFC08B1012070BD78
:10098000102C07D200222146501E00F022F8054804
:10099000046001E00120F2E70020F0E718000020E9
:1009A000000000201400002070470146084600287F
:1009B0000DDB00BF00BF00F01F0301229A40430976
:1009C0009B0003F1E023C3F8002100BF00BF00BF7C
:1009D00070472DE9F05F80460D461646002701F06E
:1009E000D3F8074639462A46334601F00700C0F1DE
:1009F000070ABAF1040F02D94FF0040A01E0C0F16E
:100A0000070AD14600F1040ABAF1070F02D24FF0EB
:100A1000000A01E0A0F1030AD4464FF0010A0AFAE5
:100A200009FAAAF1010A0AEA020A0AFA0CFA4FF0D4
:100A3000010B0BFA0CFBABF1010B0BEA030B4AEABF
:100A40000B042146404601F0A7F8BDE8F09F0000E6
:100A500000BF00F00702064B19684FF6FF0319406C
:100A6000044B0B4343EA0221014B196000BF70475E
:100A70000CED00E00000FA0570B504460D460CB917
:100A8000012070BD5848006800F00700A84209D254
:100A900055490D700846006800F00700A84201D0D3
:100AA0000120EEE7207800F0020002281DD1207816
:100AB00000F00400042805D14C48006840F4E050E0
:100AC0004A490860207800F00800082805D1474806
:100AD000006840F46040454908604448006820F0E0
:100AE000F000A168084341490860207800F0010047
:100AF000A8B36068012807D13C4808380068C0F3F3
:100B00004040B8B90120BCE76068022802D06068A4
:100B1000032807D1354808380068C0F3406048B959
:100B20000120AEE7314808380068C0F3400008B93A
:100B30000120A6E72D48006820F003006168084303
:100B40002A490860FFF7E0FE064609E0FFF7DCFEF1
:100B5000801B41F28831884202D9032091E707E0E7
:100B60002248006800F00C006168B0EB810FEDD105
:100B70001D48006800F00700A84209D91A490D7005
:100B80000846006800F00700A84201D0012078E77D
:100B9000207800F00400042807D11448006820F4ED
:100BA000E050E168084311490860207800F008002F
:100BB000082808D10D48006820F46040216940EA07
:100BC000C1000A49086000F03FF808490968C1F30C
:100BD0000311074A515CC84006490860064800688E
:100BE000FFF7BCFE00204CE7003C02400838024002
:100BF000262600080000002014000020014800689C
:100C0000704700000000002000B5FFF7F7FF04491F
:100C10000968C1F38221034A515CC84000BD00004D
:100C2000083802403626000800B5FFF7E7FF044900
:100C30000968C1F34231034A515CC84000BD00005D
:100C400008380240362600082DE9F0470024002528
:100C50000026A1462548006800F00C0020B10428B9
:100C600005D008283AD105E0DFF8849039E0DFF8B4
:100C7000849036E01D48001F006800F03F041B48C8
:100C8000001F006800F4800078B11A481749091F56
:100C90000968C1F38811A0FB0170014622460023B8
:100CA0003846FFF7E4FA05460EE011480F49091FE0
:100CB0000968C1F38811A0FB017001462246002398
:100CC0003846FFF7D4FA05460848001F0068C0F30D
:100CD0000140401C4600B5FBF6F902E0DFF8109039
:100CE00000BF00BF4846BDE8F0870000083802405A
:100CF0000024F40000127A00F8B504460CB9012073
:100D0000F8BD207800F00100002874D0F948006890
:100D100000F00C0004280DD0F648006800F00C002C
:100D2000082813D1F348001F006800F48000B0F5D4
:100D3000800F0BD1EF4808380068C0F3404000280E
:100D400059D06068002856D10120D9E700BF6068FB
:100D5000B0F5803F08D1E7480838006840F480309B
:100D6000E449083908601EE06068B0F5A02F0DD195
:100D7000E0480838006840F48020DE4908390860FF
:100D80000846006840F4803008600CE0D948083814
:100D9000006820F48030D7490839086008460068A8
:100DA00020F48020086000BF606890B1FFF7ACFDC0
:100DB000054606E0FFF7A8FD401B642801D9032083
:100DC0009EE7CC4808380068C0F340400028F1D0C6
:100DD00011E0FFF799FD054606E0FFF795FD401B82
:100DE000642801D903208BE7C24808380068C0F3A3
:100DF00040400028F1D1207800F0020002285FD1A5
:100E0000BC48006800F00C0058B1BA48006800F017
:100E10000C0008281CD1B748001F006800F48000AF
:100E2000B0B9B44808380068C0F3400020B1E068A9
:100E3000012801D0012063E7AE480838006820F09F
:100E4000F800216940EAC100AA490839086037E082
:100E5000E06800B30120A8490860FFF755FD05468A
:100E600006E0FFF751FD401B022801D9032047E7A8
:100E7000A04808380068C0F340000028F1D09D4821
:100E80000838006820F0F800216940EAC10099495B
:100E90000839086014E0002097490860FFF734FD26
:100EA000054606E0FFF730FD401B022801D903206C
:100EB00026E7904808380068C0F340000028F1D1C8
:100EC000207800F0080008282CD16069A8B1012022
:100ED0008A490860FFF718FD054606E0FFF714FD94
:100EE000401B022801D903200AE782486C300068C1
:100EF000C0F340000028F1D014E000207F490860D2
:100F0000FFF702FD054606E0FFF7FEFC401B022846
:100F100001D90320F4E677486C300068C0F3400044
:100F20000028F1D1207800F00400042870D10027B7
:100F300070483830006800F0805090B900BF002041
:100F400000906C483830006840F080506949383172
:100F500008600846006800F08050009000BF00BFA5
:100F600001276748006800F48070B0B964480068E1
:100F700040F4807062490860FFF7C6FC054606E051
:100F8000FFF7C2FC401B022801D90320B8E65C48E9
:100F9000006800F480700028F2D000BFA06801282B
:100FA00008D154486830006840F001005149683168
:100FB00008601DE0A06805280DD14E486830006823
:100FC00040F004004B49683108600846006840F072
:100FD000010008600CE047486830006820F001001C
:100FE0004449683108600846006820F00400086041
:100FF00000BFA068A8B1FFF787FC054609E0FFF72E
:1010000083FC401B41F28831884202D9032077E6F5
:1010100026E0384868300068C0F340000028EED071
:1010200013E0FFF771FC054608E0FFF76DFC401B7D
:1010300041F28831884201D9032061E62D486830A9
:101040000068C0F340000028EFD1012F07D12948E4
:101050003830006820F0805026493831086000BFE1
:10106000A069002845D02348006800F00C0008283B
:101070005DD0A069022845D100201F490866FFF70E
:1010800043FC054606E0FFF73FFC401B022801D960
:10109000032035E6174808380068C0F34060002890
:1010A000F1D1D4E907010843616A40EA81110122C4
:1010B000A06AC2EB500041EA00412C20005D41EAE9
:1010C00000600C49091F086001200B490866FFF702
:1010D0001BFC054606E0FFF717FC401B022801D960
:1010E00003200DE6034808380068C0F3406000287C
:1010F000F1D049E00838024000004742800E4742E4
:1011000000700040002021490866FFF7FDFB0546FE
:1011100006E0FFF7F9FB401B022801D90320EFE5A9
:101120001B480068C0F340600028F2D12CE0A069A1
:10113000012800D1E4E51648001D0668A0690128D1
:1011400020D006F48001E06981421BD106F03F0106
:10115000206A814216D147F6C0703040616AB0EB18
:10116000811F0FD106F440310122A06AC2EB50006A
:10117000B1EB004F06D106F070612C20005DB1EBA1
:10118000006F01D00120BBE50020B9E50000474217
:101190000038024070B504462546681EB0F1807FD5
:1011A00001D301200FE0681E4FF0E02148610F21BC
:1011B0004FF0FF3000F0F0FC00204FF0E02188619C
:1011C00007200861002070BD704770472DE9F84F77
:1011D0000446206805682068C668206847694FF0A3
:1011E0000009CA4605F00F09B9F1000F0AD105F050
:1011F000200038B106F0200020B1204600F0D5FADA
:10120000BDE8F88FB9F1000F7CD007F0010018B9E4
:1012100006F49070002875D005F0010030B106F496
:10122000807018B1606C40F00100606405F004004B
:1012300030B107F0010018B1606C40F0020060644A
:1012400005F0020030B107F0010018B1606C40F009
:101250000400606405F0080048B106F0200010B9F1
:1012600007F0010018B1606C40F008006064606C29
:10127000002846D005F0200028B106F0200010B16B
:10128000204600F092FA20684069C0F3801A606C32
:1012900000F0080010B9BAF1000F2DD0204600F080
:1012A0003EFA2068406900F04000402820D100BF8D
:1012B00000BF2168143151E8001F21F0400021686F
:1012C000143141E80002002AF3D100BFE06B50B1B5
:1012D0007F48E16B0865E06BFFF7F5F988B1E06BDB
:1012E000016D88470DE02046FFF76FFF09E009E038
:1012F0002046FFF76AFF04E02046FFF766FF002064
:1013000060647DE7206B012878D105F0100000288B
:1013100074D006F010000028FAD000BF0020009022
:1013200020680068009020684068009000BF00BFFF
:101330002068406900F04000402870D1E06B0068F0
:1013400040681FFA80F8B8F1000F58D0A08D4045D2
:1013500055DDA4F82E80E06BC069B0F5807F43D0E6
:1013600000BF00BF21680C3151E8001F21F48070DC
:1013700021680C3141E80002002AF3D100BF00BF10
:1013800000BF2168143151E8001F21F001002168DD
:10139000143141E80002002AF3D100BF00BF00BFB2
:1013A0002168143151E8001F21F0400021681431F8
:1013B00041E80002002AF3D100BF202084F8420057
:1013C0000020206300BF00BF21680C3151E8001FDE
:1013D00021F0100021680C3141E80002002AF3D10D
:1013E00000BFE06BFFF719F902206063A08DE28D6A
:1013F000801A81B22046FFF7E7FE0EE052E0A08D92
:1014000040450AD1E06BC069B0F5807F05D102206C
:101410006063A18D2046FFF7D7FEF1E6FFE7A08DC0
:10142000E18D401A1FFA80F8E08DD0B3B8F1000FBB
:1014300037D000BF00BF21680C3151E8001F21F4F4
:10144000907021680C3141E80002002AF3D100BFFE
:1014500000BF00BF2168143151E8001F21F00100D6
:101460002168143141E80002002AF3D100BF202096
:1014700084F842000020206300BF00BF21680C31C7
:1014800051E8001F21F0100021680C3141E80002F2
:10149000002AF3D100BF0220606341462046FFF7D7
:1014A00093FEADE605F0800030B106F0800018B183
:1014B000204600F02FFBA3E605F0400030B106F017
:1014C000400018B1204600F060F999E600BF97E6A9
:1014D0000D17000810B504460CB9012010BDA06915
:1014E00000B100E000BF94F8410028B9002084F862
:1014F0004000204600F02AF8242084F841002068AB
:10150000C06820F400502168C860204600F0CCF983
:101510002068006920F490402168086120684069D3
:1015200020F02A00216848612068C06840F400501B
:101530002168C86000206064202084F8410084F89D
:1015400042000020606300BFC8E7000010B586B00D
:1015500004462E492068884255D100BF00BF0020B4
:1015600000902B48006840F01000294908600846A8
:10157000006800F01000009000BF00BF00BF00BF77
:1015800000BF0020009022481438006840F001009D
:101590001F49143908600846006800F001000090F7
:1015A00000BF00BF00BF00BF00BF00200090084682
:1015B000006840F0010008600846006800F0010083
:1015C000009000BF00BF00BF4815019002200290AC
:1015D00001200390022004900720059001A90D48E6
:1015E000FFF78CF84FF4806001900720059001A967
:1015F0000848FFF783F82520FFF7D7F903221146A3
:101600002520FFF7E6F906B010BD000000100140EC
:10161000443802400000024070B504460D461646AC
:1016200094F8420020280BD105B10EB9012070BDFD
:101630000020206332462946204600F04BFAF6E7A8
:101640000220F4E710B504462049206888423BD1C7
:101650001F48008800F4004088BB1D48008800F443
:10166000804070B11B4800780A2803D00020184938
:10167000088024E01648008840F40040144908809F
:101680001DE0144800780D2806D11148008840F468
:1016900080400F49088012E00E4800780C49098804
:1016A000C1F30D010C4A505409480088401C0849F8
:1016B000088008460088C72801DD00200880012234
:1016C00004490648FFF7A8FF10BD000000100140C4
:1016D000080000200A00002020000020E800002070
:1016E000704700BFFEE700BFFEE7704770477047D6
:1016F00010B5FFF70FF910BD0348006840F4700003
:10170000014908607047000088ED00E070B50446AC
:10171000A56B0020E8852846FFF757FD70BD00BF88
:1017200000BF02680C3252E8002F22F49071026868
:101730000C3242E80013002BF3D100BF00BF00BF02
:101740000268143252E8002F22F0010102681432BC
:1017500042E80013002BF3D100BF016B01290ED129
:1017600000BF00BF02680C3252E8002F22F01001C7
:1017700002680C3242E80013002BF3D100BF202195
:1017800080F8421000210163704710B504462068BC
:10179000C06820F040002168C860202084F8410023
:1017A0002046FFF79DFF002010BDF8B50446002538
:1017B000002694F84200222873D1A068B0F5805F1B
:1017C0000BD1206948B9A66A20684068C0F30800B8
:1017D0003080A06A801CA06214E0A56AA068B0F501
:1017E000805F03D0A06828B9206918B920684068D4
:1017F000287004E02068406800F07F002870A06A2C
:10180000401CA062E08D401E80B2E085002846D1D9
:101810002068C06820F020002168C8602068C06887
:1018200020F480702168C8602068406920F00100C1
:1018300021684861202084F8420000206063206B0A
:10184000012826D10020206300BF00BF21680C3191
:1018500051E8001F21F0100021680C3141E800021E
:10186000002AF3D100BF2068006800F010001028A3
:101870000AD100BF00200090206800680090206816
:101880004068009000BF00BFA18D2046FFF79CFC80
:1018900002E02046FFF7D6FE0020F8BD01E0002060
:1018A000FBE70220F9E700002DE9F84F0446206825
:1018B000006920F44050E16808432168086121690B
:1018C000A068084361690843E16908430090206803
:1018D000C06849F20C618843009908432168C860D8
:1018E0002068406920F44070A1690843216848617C
:1018F00076492068884203D075492068884203D120
:10190000FFF792F9814602E0FFF77EF98146E06930
:10191000B0F5004F6CD102206168A0FB0150034676
:101920001920A9FB007001462A463846FEF79FFCA5
:101930006421B0FBF1F04FEA001A02206168A0FBBD
:1019400001510B461920A9FB00712A463846FEF7C3
:101950008EFC834602206168A0FB015003461920DB
:10196000A9FB00712A463846FEF781FC6421B0FBD2
:10197000F1F000EBC00101EB0010ABEB8000322175
:1019800001EBC0006421B0FBF1F000F0F8000AEBBD
:10199000400A02206168A0FB015003461920A9FB00
:1019A000007001462A463846FEF761FC8346022055
:1019B0006168A0FB015003461920A9FB00712A466B
:1019C0003846FEF754FC6421B0FBF1F000EBC00197
:1019D00001EB0010ABEB8000322101EBC000642171
:1019E000B0FBF1F000F007005044216888606AE025
:1019F00004206168A0FB015003461920A9FB007078
:101A000001462A463846FEF732FC824604206168C9
:101A1000A0FB015003461920A9FB007001462A468D
:101A20003846FEF724FC6421B0FBF1F000EBC00166
:101A300001EB0010AAEB8000322101EB00106421C1
:101A4000B0FBF1F000F0F00A04206168A0FB017027
:101A500003461920A9FB00513A462846FEF707FC29
:101A60006421B0FBF1F00AEB001A04206168A0FBCE
:101A700001510B461920A9FB00712A463846FEF792
:101A8000F6FB834604206168A0FB01500346192041
:101A9000A9FB007001462A463846FEF7E8FB6421A0
:101AA000B0FBF1F000EBC00101EB0010ABEB8000EC
:101AB000322101EB00106421B0FBF1F000F00F00C7
:101AC000504421688860BDE8F88F00000010014094
:101AD0000014014010B5034699629A85DA8500200A
:101AE0005864222083F84200186928B11868C06839
:101AF00040F480701C68E0601868406940F00100A4
:101B00001C6860611868C06840F020001C68E060D4
:101B1000002010BD014691F84100212828D1886895
:101B2000B0F5805F0BD1086948B90A6A1088C0F324
:101B300008000B685860086A801C086205E00B6AA0
:101B4000581C086218780B685860C88C401E80B218
:101B5000C88458B90868C06820F080000B68D86055
:101B60000868C06840F040000B68D86000207047EB
:101B70000220FCE710B50248FFF728FB10BD00006B
:101B8000E800002000BFFEE702480068C0F3022022
:101B9000704700000CED00E010B5002804DB0A07D8
:101BA000130E054A135406E00A07140E034A00F008
:101BB0000F031B1FD45410BD00E400E018ED00E03B
:101BC00030380A2801D2012070470020704700BF3A
:101BD0007047000001490860704700000C000020B9
:101BE00010B504464FF47A7104FB01F000F002F8DE
:101BF00010BD000070B5034600224FF0E026756965
:101C00000D4E366803FB06F44FF0E026B16910E094
:101C10004FF0E026B06988420BD0884202D20E1AFB
:101C2000324402E02E1A0E4432440146A24200D34E
:101C300000E0EDE700BF70BD0C00002000BF054ACA
:101C4000126802F04002002AF9D0C2B2014B5A6079
:101C5000704700000010014000B587B000BF0020B1
:101C600001904148006840F001003F490860084683
:101C7000006800F00100019000BF00BF00BF00201D
:101C800001900846006840F00200086008460068BD
:101C900000F00200019000BF00BF00BF00200190D3
:101CA0000846006840F0080008600846006800F038
:101CB0000800019000BF00BF00BF0020019008464F
:101CC000006840F0100008600846006800F010004E
:101CD000019000BF00BF142102A8FEF70FFC0120F5
:101CE000039000200490022005902020029002A979
:101CF0001E48FEF703FD2020029002A91C48FEF7B3
:101D0000FDFC4FF48040029002A91A48FEF7F6FC51
:101D10004FF48040029002A91748FEF7EFFC022022
:101D2000029002A91448FEF7E9FC4FF4807002907B
:101D300002A90F48FEF7E2FC012291030E48FEF7CC
:101D4000D7FD012291030B48FEF7D2FD012220218D
:101D50000648FEF7CDFD00224FF480710448FEF7DF
:101D6000C7FD07B000BD000030380240000002404F
:101D700000040240000C0240001002401CB5FEF7B7
:101D8000D5FD0723022208214FF4A87000F0BCFB08
:101D9000A820FFF71FFF4FF4E13000F023FC1AA04A
:101DA000FEF7DCFA00F056FA4FF4784000F078F8CD
:101DB00004204FF478414FF6FF734122CDE9001023
:101DC0000A21084600F0A6F802204FF478414FF6A9
:101DD000FF7311A2CDE9001028213C2000F094F9F6
:101DE0004FF6FF709623F02219460090002000F075
:101DF0001FF91F20DC23BE22A0210090322000F01A
:101E0000C7F900BFFEE7000048656C6C6FEFBC8C43
:101E1000576F726C6400000048656C6C6F2C205723
:101E20006F726C642100000070B5044600251BE051
:101E3000002220210E48FEF75BFD04F0800028B14F
:101E4000012220210B48FEF753FD04E0002220214F
:101E50000848FEF74DFD6006040E012220210448CB
:101E6000FEF746FD681CC5B2082DE1DB70BD000021
:101E7000000002400004024010B501221102024895
:101E8000FEF736FD10BD00000004024010B5002230
:101E90004FF480710148FEF72BFD10BD0004024095
:101EA00038B50446064800944088401E83B2044872
:101EB0000088401E82B20021084600F069F938BD52
:101EC0001A00002010B5012291030248FEF710FD10
:101ED00010BD00000010024010B500224FF48041F8
:101EE0000148FEF705FD10BD0010024010B50122AB
:101EF00091030248FEF7FCFC10BD0000000C0240FC
:101F000010B500224FF480410148FEF7F1FC10BDEE
:101F1000000C02402DE9F04FADF2844D06460F460D
:101F200015469B46DDF8AC443F480088B04203DDCF
:101F30003D484088B84203DC0DF2844DBDE8F08F87
:101F4000202D01DB7E2D00DD3F254FF005084FF0F1
:101F5000070908FB04F0CDF8800409FB04F0CDF874
:101F60007C044FF48C6107A8FEF7C8FA042C00DD4E
:101F7000E2E7A5F1200000EB80002C490844069020
:101F80004FF0000A4FEA2B2040EA0B2080B2059068
:101F9000DDF8A804011241EA002080B2049000207C
:101FA0002BE0002225E000211FE0069B5B5C034143
:101FB00003F001030393039B0BB1059B00E0049B1B
:101FC0000293002301930BE0D4460AF1010A0DF1BC
:101FD0001C0E029B2EF81C30019B5B1CDBB2019394
:101FE000019BA342F0DB4B1C99B24145DDDB511C48
:101FF000CAB2A242D7DB411C88B24845D1DBDDF82A
:102000007C043844401E83B2DDF880043044401E16
:1020100082B23946304600F001FA4FEA4A0107A879
:1020200000F035FA00BF87E71A0000203E260008BE
:102030002DE9FC5F04460D4616461F4631B222B21A
:10204000881A002801DB014600E041420FFA81F8BE
:10205000B44201DA012001E04FF0FF30019039B2C3
:102060002AB2881A002801DB014600E041424942B9
:102070000FFA81F9BD4201DA012001E04FF0FF3093
:10208000009008EB09000FFA80FA00BF29462046AD
:102090000C9A00F01FF8B44202D1BD4200D116E004
:1020A0004FEA4A000FFA80FBCB4506DB0AEB09003A
:1020B0000FFA80FA0198204484B2C345E6DC0AEBAB
:1020C00008000FFA80FA0098284485B2DEE700BFC6
:1020D000BDE8FC9F70B504460D46164609480088C9
:1020E000A04203DD07484088A84200DC70BD2B46B3
:1020F00022462946204600F091F9304600F0E8F9E2
:1021000000BFF3E71A0000202DE9FC4705460E4604
:1021100017469946DDE90A8432E0062000FB0450A8
:102120001A490988884209DB0025082000FB046061
:1021300086B216484088B04200DC24E0CDE9008435
:1021400017F8012B4B4631462846FFF7E3FEC845FA
:1021500012D0072101FB0461491E8BB2062101FB4D
:102160000451491E8AB2052101FB045188B231464F
:10217000CDF8008000F00CF8062000FB045085B27A
:1021800038780028C9D100BFBDE8FC871A000020BC
:102190002DE9F04FADF2044D07468B4614461D461F
:1021A000A74201DCAB4503DD0DF2044DBDE8F08F25
:1021B00027480088A04203DC25480088401E84B2DE
:1021C00023484088A84203DC21484088401E85B24D
:1021D0002B4622465946384600F020F9E01B401CA9
:1021E000A5EB0B01491C00FB01F64FF40078DDF86C
:1021F0002804011241EA002080B20090002004E08F
:1022000001AA009922F81010401C4045F8D3FFF7AE
:1022100063FEFFF76BFE15E0464501D9404600E03E
:10222000304681464FF0000A06E001A911F80A0085
:10223000FFF7FAFD0AF1010ABAEB490FF5D3A6EB55
:10224000090600BF002EE7D1FFF73CFE00BFABE759
:102250001A00002010B5FFF7FFFCFFF70DFE00F09D
:102260008DF8112000F028F9C820FEF740FA002070
:1022700000F098F800F006F80020FFF711FEFFF7D5
:1022800005FE10BD1FB53A2000F016F9052000F03C
:102290002EF9B22000F010F92DA103C9CDE90201F9
:1022A000052102A800F0F3F8B72000F005F9352069
:1022B00000F01DF9BB2000F0FFF8322000F017F904
:1022C000C22000F0F9F8012000F011F9C32000F05D
:1022D000F3F8152000F00BF9C42000F0EDF82020F1
:1022E00000F005F9C62000F0E7F80F2000F0FFF835
:1022F000D02000F0E1F818A000680390022103A8A4
:1023000000F0C5F8E02000F0D7F814A090E80E0027
:10231000C0688DE80E0003900E21684600F0B7F803
:10232000E12000F0C9F811A3D3E90021D3E90203A9
:10233000CDE90203CDE900210E21684600F0A7F89F
:10234000212000F0B9F8292000F0B6F81FBD0000E8
:102350000C0C003333000000A4A10000D0080E09CB
:10236000090531334817141531340000D0080E091F
:1023700009153133481714153134000010B5002207
:1023800002210748FEF7B4FA3220FEF7B0F9012225
:1023900002210348FEF7ACFA7820FEF7A8F910BD39
:1023A0000010024010B504461B480471362000F0AE
:1023B00083F834B1012C0ED0022C16D0032C28D176
:1023C0001DE0F020144908804FF4A07048800020E0
:1023D00000F08DF81EE04FF4A0700F490880F02047
:1023E0004880C02000F083F814E0F0200A490880FB
:1023F0004FF4A0704880702000F079F80AE04FF4A4
:10240000A07005490880F0204880A02000F06FF8F7
:1024100000E000BF00BF10BD1A0000202DE9F05FF2
:1024200004460D4616461F461FFA84F81FFA86F921
:102430001FFA85FA1FFA87FB2A2000F03DF84FEAC1
:10244000282000F054F808F0FF0000F050F84FEAA0
:10245000292000F04CF809F0FF0000F048F82B208C
:1024600000F02AF84FEA2A2000F041F80AF0FF00B5
:1024700000F03DF84FEA2B2000F039F80BF0FF0098
:1024800000F035F82C2000F017F8BDE8F09F70B58B
:1024900006460C4604B970BDFFF71EFDFFF726FD8A
:1024A000002503E0705DFFF7BFFC6D1CA542F9D36A
:1024B000FFF708FD00BFEEE710B50446FFF70CFD7F
:1024C000FFF71EFD2046FFF7AFFCFFF7FBFC10BD3A
:1024D00010B50446FFF700FDFFF708FD2012FFF7D7
:1024E000A3FCE0B2FFF7A0FCFFF7ECFC10BD10B5B9
:1024F0000446FFF7F1FCFFF7F9FC2046FFF794FCD8
:10250000FFF7E0FC10BD00002DE9F04192B08046DD
:102510000C4615461E460027302106A8FDF7EEFFA3
:10252000142101A8FDF7EAFF00BF002000902A480F
:10253000006840F08050284908600846006800F0B4
:102540008050009000BF00BF00BF002000902348D3
:10255000006840F48040214908600846006800F4A3
:102560008040009000BF00BF01200690000407904B
:1025700002200C9041050D91CDF83C800E941095F1
:10258000119606A8FEF7B8FB07461FB1012012B04E
:10259000BDE8F0810F2001900220029000200390FE
:1025A0004FF4A05004904FF480500590052101A8ED
:1025B000FEF762FA07460FB10120E8E7FEF79EF941
:1025C00041F20101884205D10548006840F480705D
:1025D000034908600020DAE74038024000700040FC
:1025E000003C024010B5044609480A490860084604
:1025F000446000218160C160016181610C21416101
:10260000FEF768FF012204490248FFF705F810BDF4
:1026100000100140E80000200A0000204FF0407048
:10262000E1EE100A70470000000000000000010207
:10263000030406070809000000000102030400006B
:1026400000000000005F00000007000700147F1476
:102650007F14242A7F2A12231308646236495522E4
:10266000500005030000001C2241000041221C0014
:1026700014083E081408083E0808005030000008FE
:1026800008080808006060000020100804023E519D
:1026900049453E00427F4000426151494621414543
:1026A0004B311814127F1027454545393C4A49499A
:1026B0003001710905033649494936064949291E41
:1026C000003636000000563600000814224100147F
:1026D000141414140041221408020151090632494D
:1026E00079413E7E1111117E7F494949363E414173
:1026F00041227F4141221C7F494949417F09090903
:10270000013E4149497A7F0808087F00417F410026
:102710002040413F017F081422417F404040407FDC
:10272000020C027F7F0408107F3E4141413E7F0939
:102730000909063E4151215E7F091929464649494A
:10274000493101017F01013F4040403F1F204020AF
:102750001F3F4038403F63140814630708700807A0
:102760006151494543007F414100020408102000A7
:1027700041417F00040201020480808080800003C8
:1027800007000020545454787F4844443838444467
:102790004420384444487F3854545418087E090172
:1027A000020C5252523E7F0804047800447D4000DF
:1027B0002040443D007F1028440000417F40007CC1
:1027C000041804787C0804047838444444387C14A1
:1027D000141408081414187C7C0804040848545481
:1027E0005420043F4440203C4040207C1C2040209A
:1027F0001C3C4030403C44281028440C5050503C75
:102800004464544C44000836410000007F0000003E
:102810004136080002010204020400000800000022
:102820000000000002000100001000004C28000819
:102830000000002020000000C40100086C280008EF
:102840002000002070070000E00100080024F400D0
:102850000000000000000000000000000000000078
:0C286000100000000100F000400100002A
:040000050800018965
:00000001FF
