:020000040800F2
:100000009010002031020008A91B0008A11B000865
:10001000A51B000841070008A521000800000000FA
:100020000000000000000000000000000D1D00089E
:100030004507000800000000AB1B00080F1D00086A
:10004000A92100084B0200084B0200084B020008DF
:100050004B0200084B0200084B0200084B0200084C
:100060004B0200084B0200084B0200084B0200083C
:100070004B0200084B0200084B0200084B0200082C
:100080004B0200084B0200084B0200084B0200081C
:100090004B0200084B0200084B0200084B0200080C
:1000A0004B0200084B0200084B0200084B020008FC
:1000B0004B0200084B0200084B0200084B020008EC
:1000C0004B0200084B0200084B0200084B020008DC
:1000D0004B020008952100084B0200084B02000863
:1000E0004B0200084B0200084B0200084B020008BC
:1000F0004B0200084B0200084B0200084B020008AC
:100100004B0200084B0200084B0200084B0200089B
:100110004B0200084B0200084B0200084B0200088B
:100120004B0200084B0200084B0200084B0200087B
:100130004B0200084B0200084B0200084B0200086B
:100140004B0200084B0200084B0200084B0200085B
:100150004B0200084B0200084B0200084B0200084B
:100160004B0200084B0200084B0200084B0200083B
:100170004B0200084B0200084B0200080000000080
:100180004B0200084B02000800F002F800F041F8B2
:100190000AA090E8000C82448344AAF10107DA45E2
:1001A00001D100F036F8AFF2090EBAE80F0013F0F3
:1001B000010F18BFFB1A43F001031847B0290000D4
:1001C000D0290000103A24BF78C878C1FAD8520765
:1001D00024BF30C830C144BF04680C6070470000C1
:1001E0000023002400250026103A28BF78C1FBD840
:1001F000520728BF30C148BF0B607047642900F028
:10020000BB80002070471FB502F096FC1FBD10B5E3
:1002100010BD00F067FA1146FFF7F5FF02F0F0F9A4
:1002200000F085FA03B4FFF7F2FF03BC02F0C3F855
:100230000948804709480047FEE7FEE7FEE7FEE77A
:10024000FEE7FEE7FEE7FEE7FEE7FEE704480549B6
:10025000054A064B70470000191D00088901000877
:10026000900A002090100020900C0020900C00209C
:10027000704753EA020C00F069802DE9F04B4FF013
:100280000006002B1FBFB3FA83F503FA05F424FA26
:1002900005F65E4012BF1643B2FA82F502FA05F483
:1002A000C5F120051EBF22FA05FC44EA0C042035E6
:1002B00056EA044C4FEA144418BF641C4FF000087F
:1002C0004FF00009904271EB030C39D3002919BF9C
:1002D000B1FA81F701FA07F6B0FA80F700FA07F6EB
:1002E000C7F120071EBF20FA07FC46EA0C0620379C
:1002F000B6FBF4FCA7EB0507103F07F01F0BCBF193
:1003000020060CFA0BFB2CFA06F644BFB346002677
:10031000202FA4BF5E464FF0000B5BEA060C08BF1F
:100320004FF0010B19EB0B09ABFB027C48EB060805
:10033000C01B06FB02CC0BFB03CC71EB0C01C1E72D
:100340000B46024641464846BDE8F08B13B54FF0D8
:1003500000004FF00001AFF30080BDE81C40704783
:100360000FB4044910B503AA029800F0A1F910BC1B
:100370005DF814FB040000202DE9F041064600243E
:1003800010687529314616A510D0AFF300800028FB
:1003900002DA404213A507E031688A0701D512A5A9
:1003A00002E0490704D511A5012401E0AFF3008064
:1003B00000210A2206F1240709E0B0FBF2FCB0FBA1
:1003C000F2F302FB1C00303078541846491C002818
:1003D000F3D123462A463046BDE8F04100F0F7B895
:1003E000000000002D0000002B0000002000000095
:1003F0002DE9F05F894604464FF0000ADFF874B13A
:10040000FB44C0F820A02046E1688847002874D04B
:10041000252806D0D4E901219047206A401C20629B
:10042000F1E700265F462046E16888472028054618
:1004300007DB312D05D2781910F8200C08B10643DE
:10044000F1E7B00701D526F00406C4F81CA0002788
:10045000C4F818A02A2D09D0284601F0A5FF38B30A
:1004600004EB8708303DC8F8185019E059F8041B10
:10047000204604EB87029161E1688847012F054619
:1004800018D1E069002820DA26F020061DE0D8F80F
:10049000180000EB800005EB40003038C8F8180069
:1004A0002046E1688847054601F07EFF0028EED12E
:1004B000012F0AD02E2D08D12046E16888477F1CE5
:1004C0000546022F46F02006C4DBA069002803DAA7
:1004D000404246F00106A061F00701D026F0100668
:1004E0006C2D0BD0682D09D04C2D39D06A2D35D00C
:1004F000742D35D07A2D33D016E038E0E1682F46E0
:1005000020468847B842054609D16C2F26D04FF4C3
:100510008060E168064320468847054604E06C2F6A
:100520001AD04FF4807006430DB3A5F1410019288D
:1005300002D8203546F400664A4629462046266001
:100540004E46FFF75BFE80B101280BD0F61D26F06A
:10055000070000F1080956E74020E4E78020D8E7CB
:100560000020D6E706F104094DE7284652E7206A45
:10057000BDE8F09F562700004FF0000200B513467B
:1005800094469646203922BFA0E80C50A0E80C50B3
:10059000B1F12001BFF4F7AF090728BFA0E80C5064
:1005A00048BF0CC05DF804EB890028BF40F8042B5D
:1005B00008BF704748BF20F8022B11F0804F18BFCA
:1005C00000F8012B704770477047704770472DE95E
:1005D000F0470D4699469246044600F1240801680A
:1005E000880604D5E06921F01001216000E00120B7
:1005F000A84201DD471B00E00027A1697A1902EB40
:100600000900081AA0612078C00602D42046AFF382
:100610000080002608E0D4E901211AF8060090477E
:10062000206A401C761C20624E45F4DB2078C00610
:100630000AD52046AFF3008006E0D4E9012130203E
:100640009047206A401C2062381EA7F10107F4DCA5
:1006500007E0D4E9012118F805009047206A401C02
:100660002062281EA5F10105F3DC2046AFF30080CF
:100670002078000602D50220BDE8F0870120FBE7C4
:1006800001694A1C02610878704700B58FB0CDE956
:1006900001310021059105497944CDE90310114646
:1006A0006846FFF7A5FE0FB000BD0000E5FFFFFFA5
:1006B000074B70B50D467B44FFF7E7FF044628461D
:1006C00000F008F810B14FF0FF3070BD204670BD4B
:1006D0006B1D0000007B00F08000704700487047F1
:1006E0002C0A00207546FFF7F9FFAE460500694663
:1006F000534620F00700854618B020B5FFF7A6FD49
:10070000BDE820404FF000064FF000074FF0000812
:100710004FF0000B21F00701AC46ACE8C009ACE893
:10072000C009ACE8C009ACE8C0098D46704710B5F7
:100730000446AFF300802046BDE81040FFF772BDCD
:1007400000BFFEE7704770B50446A56D00F072F972
:10075000064694F83500022808D08020606500BF66
:10076000002084F8340000BF012070BD20680068BC
:1007700020F01600216808602068406920F08000A1
:1007800021684861206C08B9A06C28B12068006815
:1007900020F00800216808602068006820F001004F
:1007A0002168086010E000F045F9801B05280BD98E
:1007B00020206065032084F8350000BF002084F805
:1007C000340000BF0320D0E72068006800F001007B
:1007D0000028E8D194F85C103F208840A8600120F0
:1007E00084F8350000BF002084F8340000BF00BF4B
:1007F000BBE7014691F83500022803D08020486508
:1008000001207047052081F835000868006820F055
:1008100001000A6810600020F3E710B50446A0B29A
:1008200001F0D2FD10BD0000F8B502460B460025D0
:10083000002400200021D6E0012606FA01F51E68FA
:1008400006EA0504AC4274D11E7906F00306012EB7
:1008500004D01E7906F00306022E13D190684F00D3
:100860000326BE40B0434F00DE68BE403043906078
:10087000506801268E40B0431E79C6F300168E40A4
:10088000304350601E7906F00306032E09D0D0686D
:100890004F000326BE40B0434F009E68BE40304329
:1008A000D0601E7906F00306022E13D1CF0802F1A4
:1008B000200656F827004E07F70E0F26BE40B0431D
:1008C0004F07FF0E1E69BE403043CF0802F12006DD
:1008D00046F8270010684F000326BE40B0431E793B
:1008E00006F003064F00BE40304310605E6806F419
:1008F0004036002E76D000BF002600963C4E36686B
:1009000046F480463A4F3E603E46366806F48046DE
:10091000009600BF00BF374E8F0856F827008E079D
:10092000370F0F26BE40B043334EB24202D10026ED
:1009300024E057E0314EB24201D101261EE0304E94
:10094000B24201D1022619E02E4EB24201D1032655
:1009500014E02D4EB24201D104260FE02B4EB242DC
:1009600001D105260AE02A4EB24201D1062605E051
:10097000284EB24201D1072600E008268F073F0F1C
:10098000BE4030431B4E8F0846F82700224E306889
:10099000A0435E6806F4801606B120431E4E306008
:1009A000361D3068A0435E6806F4001606B1204389
:1009B000194E361D3060184E361F3068A0435E68F1
:1009C00006F4003606B12043134E361F3060361F42
:1009D0003068A0435E6806F4803606B120430E4EB0
:1009E000083E3060491C1029FFF426AFF8BD000016
:1009F0004438024008380140000002400004024030
:100A000000080240000C02400010024000140240A6
:100A100000180240001C0240083C01400AB18161FC
:100A200001E00B048361704701480068000C7047C7
:100A3000002004E00148006870470000100000201A
:100A40000348006803490978084401490860704771
:100A5000100000201800002010B50A48006840F47B
:100A60000070084908600846006840F4806008602B
:100A7000032000F083F80F2000F006F800F02AF8B9
:100A8000002010BD003C024070B504460E480078BE
:100A90004FF47A71B1FBF0F00C490968B1FBF0F545
:100AA000284600F078FD08B1012070BD102C07D257
:100AB00000222146501E00F022F80548046001E0A3
:100AC0000120F2E70020F0E71800002000000020DD
:100AD0001400002070470146084600280DDB00BFC7
:100AE00000BF00F01F0301229A4043099B0003F15D
:100AF000E023C3F8002100BF00BF00BF70472DE90D
:100B0000F05F80460D461646002701F031FC07468F
:100B100039462A46334601F00700C0F1070ABAF108
:100B2000040F02D94FF0040A01E0C0F1070AD146D0
:100B300000F1040ABAF1070F02D24FF0000A01E0F7
:100B4000A0F1030AD4464FF0010A0AFA09FAAAF101
:100B5000010A0AEA020A0AFA0CFA4FF0010B0BFA30
:100B60000CFBABF1010B0BEA030B4AEA0B04214629
:100B7000404601F005FCBDE8F09F000000BF00F01A
:100B80000702064B19684FF6FF031940044B0B434D
:100B900043EA0221014B196000BF70470CED00E0F1
:100BA0000000FA0570B504460D460CB9012070BD71
:100BB0005848006800F00700A84209D255490D7056
:100BC0000846006800F00700A84201D00120EEE7C7
:100BD000207800F0020002281DD1207800F00400E7
:100BE000042805D14C48006840F4E0504A490860A8
:100BF000207800F00800082805D14748006840F434
:100C00006040454908604448006820F0F000A16851
:100C1000084341490860207800F00100A8B36068EB
:100C2000012807D13C4808380068C0F34040B8B9F3
:100C30000120BCE76068022802D06068032807D161
:100C4000354808380068C0F3406048B90120AEE775
:100C5000314808380068C0F3400008B90120A6E711
:100C60002D48006820F00300616808432A490860A5
:100C7000FFF7E0FE064609E0FFF7DCFE801B41F2CD
:100C80008831884202D9032091E707E022480068B2
:100C900000F00C006168B0EB810FEDD11D480068D9
:100CA00000F00700A84209D91A490D7008460068EB
:100CB00000F00700A84201D0012078E7207800F07A
:100CC0000400042807D11448006820F4E050E168CB
:100CD000084311490860207800F00800082808D16E
:100CE0000D48006820F46040216940EAC1000A49CB
:100CF000086000F03FF808490968C1F30311074A8A
:100D0000515CC8400649086006480068FFF7BCFE11
:100D100000204CE7003C024008380240422B00080B
:100D20000000002014000020014800687047000007
:100D30000000002000B5FFF7F7FF04490968C1F380
:100D40008221034A515CC84000BD000008380240BF
:100D5000522B000800B5FFF7E7FF04490968C1F30B
:100D60004231034A515CC84000BD000008380240CF
:100D7000522B00082DE9F047002400250026A1464B
:100D80002548006800F00C0020B1042805D0082890
:100D90003AD105E0DFF8849039E0DFF8849036E05E
:100DA0001D48001F006800F03F041B48001F00683A
:100DB00000F4800078B11A481749091F0968C1F387
:100DC0008811A0FB01700146224600233846FFF738
:100DD00050FA05460EE011480F49091F0968C1F392
:100DE0008811A0FB01700146224600233846FFF718
:100DF00040FA05460848001F0068C0F30140401C47
:100E00004600B5FBF6F902E0DFF8109000BF00BF26
:100E10004846BDE8F0870000083802400024F4008E
:100E200000127A00F8B504460CB90120F8BD20780C
:100E300000F00100002874D0F948006800F00C00B0
:100E400004280DD0F648006800F00C00082813D1E3
:100E5000F348001F006800F48000B0F5800F0BD14C
:100E6000EF4808380068C0F34040002859D0606857
:100E7000002856D10120D9E700BF6068B0F5803F57
:100E800008D1E7480838006840F48030E449083960
:100E900008601EE06068B0F5A02F0DD1E04808386A
:100EA000006840F48020DE49083908600846006880
:100EB00040F4803008600CE0D9480838006820F41D
:100EC0008030D749083908600846006820F480203F
:100ED000086000BF606890B1FFF7ACFD054606E012
:100EE000FFF7A8FD401B642801D903209EE7CC48EA
:100EF00008380068C0F340400028F1D011E0FFF747
:100F000099FD054606E0FFF795FD401B642801D9D1
:100F100003208BE7C24808380068C0F3404000282F
:100F2000F1D1207800F0020002285FD1BC480068AF
:100F300000F00C0058B1BA48006800F00C00082816
:100F40001CD1B748001F006800F48000B0B9B44855
:100F500008380068C0F3400020B1E068012801D0E3
:100F6000012063E7AE480838006820F0F8002169E6
:100F700040EAC100AA490839086037E0E06800B3D8
:100F80000120A8490860FFF755FD054606E0FFF778
:100F900051FD401B022801D9032047E7A04808382B
:100FA0000068C0F340000028F1D09D480838006870
:100FB00020F0F800216940EAC10099490839086029
:100FC00014E0002097490860FFF734FD054606E06D
:100FD000FFF730FD401B022801D9032026E7904887
:100FE00008380068C0F340000028F1D1207800F0F4
:100FF000080008282CD16069A8B101208A4908603E
:10100000FFF718FD054606E0FFF714FD401B022818
:1010100001D903200AE782486C300068C0F3400021
:101020000028F1D014E000207F490860FFF702FD9E
:10103000054606E0FFF7FEFC401B022801D903200D
:10104000F4E677486C300068C0F340000028F1D126
:10105000207800F00400042870D100277048383050
:10106000006800F0805090B900BF002000906C48EC
:101070003830006840F080506949383108600846CF
:10108000006800F08050009000BF00BF0127674853
:10109000006800F48070B0B96448006840F4807063
:1010A00062490860FFF7C6FC054606E0FFF7C2FC90
:1010B000401B022801D90320B8E65C48006800F410
:1010C00080700028F2D000BFA068012808D15448E1
:1010D0006830006840F001005149683108601DE047
:1010E000A06805280DD14E486830006840F0040023
:1010F0004B49683108600846006840F0010008600C
:101100000CE047486830006820F00100444968312D
:1011100008600846006820F00400086000BFA0686E
:10112000A8B1FFF787FC054609E0FFF783FC401BE9
:1011300041F28831884202D9032077E626E0384818
:1011400068300068C0F340000028EED013E0FFF7DD
:1011500071FC054608E0FFF76DFC401B41F2883149
:10116000884201D9032061E62D4868300068C0F349
:1011700040000028EFD1012F07D1294838300068FE
:1011800020F0805026493831086000BFA06900284F
:1011900045D02348006800F00C0008285DD0A06905
:1011A000022845D100201F490866FFF743FC054689
:1011B00006E0FFF73FFC401B022801D9032035E67B
:1011C000174808380068C0F340600028F1D1D4E91E
:1011D00007010843616A40EA81110122A06AC2EB5B
:1011E000500041EA00412C20005D41EA00600C49BA
:1011F000091F086001200B490866FFF71BFC054624
:1012000006E0FFF717FC401B022801D903200DE67A
:10121000034808380068C0F340600028F1D049E076
:101220000838024000004742800E474200700040EC
:10123000002021490866FFF7FDFB054606E0FFF7A1
:10124000F9FB401B022801D90320EFE51B48006889
:10125000C0F340600028F2D12CE0A069012800D141
:10126000E4E51648001D0668A069012820D006F4B0
:101270008001E06981421BD106F03F01206A814272
:1012800016D147F6C0703040616AB0EB811F0FD1B4
:1012900006F440310122A06AC2EB5000B1EB004FCE
:1012A00006D106F070612C20005DB1EB006F01D01B
:1012B0000120BBE50020B9E50000474200380240AC
:1012C00010B504460CB9012010BD606A38B96068D9
:1012D000B0F5827F00D105E00021E16102E000214C
:1012E00021616161A06AB0F5005F00D100BF94F890
:1012F000510028B9002084F85000204600F04FF833
:10130000022084F851002068006820F04000216825
:101310000860A08800F48270218901F40441084328
:10132000A18901F400610843217C01F00201084316
:10133000217D01F001010843218B01F40071084374
:10134000217F01F0380108432021095D01F080016F
:101350000843218D01F400510843216808600421ED
:10136000A06901EA104094F8241001F0100108432C
:1013700021684860A06AB0F5005F03D1A08D80B2FB
:10138000216808612068C06920F400602168C86194
:1013900000206065012084F85100002094E7704728
:1013A0002DE9F84304460F4616461D46FFF742FB5B
:1013B0008046B14694F85100012802D00220BDE8D1
:1013C000F88307B10EB90120F9E700BF94F8500087
:1013D000012801D10220F2E7012084F8500000BF6B
:1013E000032084F85100002060652763A686E68606
:1013F000A063A087E08760642064A068B0F5004F18
:101400000BD12068006820F0400021680860206847
:10141000006840F4804021680860A06AB0F5005F71
:101420000DD100BF2068006820F4005021680860DA
:101430002068006840F400502168086000BF206800
:10144000006800F04000402805D02068006840F0A7
:10145000400021680860E068B0F5006F37D160682F
:1014600010B1B9F1010F09D1206B00882168C86063
:10147000206B801C2063E08E401EE08623E0206805
:10148000806800F0020002280AD1206B00882168E1
:10149000C860206B801C2063E08E401EE08612E056
:1014A000FFF7C8FAA0EB0800A84201D3681C00B9F6
:1014B0004DB9012084F8510000BF002084F850008D
:1014C00000BF03207BE7E08E0028D8D136E06068BB
:1014D00010B1B9F1010F09D1206B007821680873B0
:1014E000206B401C2063E08E401EE08623E02068D5
:1014F000806800F0020002280AD1206B0078216881
:101500000873206B401C2063E08E401EE08612E0D2
:10151000FFF790FAA0EB0800A84201D3681C00B9BD
:101520004DB9012084F8510000BF002084F850001C
:1015300000BF032043E7E08E0028D8D1A06AB0F5B1
:10154000005F05D12068006840F480502168086081
:1015500042462946204600F029FB08B1202060655C
:10156000A06850B900BF002000902068C0680090BB
:1015700020688068009000BF00BF012084F85100FF
:1015800000BF002084F8500000BF606D08B101204A
:1015900015E7002013E770B504462546681EB0F134
:1015A000807F01D301200FE0681E4FF0E0214861E9
:1015B0000F214FF0FF3000F0E3FE00204FF0E0215C
:1015C000886107200861002070BD704770470000E7
:1015D0002DE9F84F0446206805682068C668206831
:1015E00047694FF00009CA4605F00F09B9F1000F2D
:1015F0000AD105F0200038B106F0200020B12046C5
:1016000000F0E3FBBDE8F88FB9F1000F7CD007F0E4
:10161000010018B906F49070002875D005F001009B
:1016200030B106F4807018B1606C40F00100606465
:1016300005F0040030B107F0010018B1606C40F013
:101640000200606405F0020030B107F0010018B13B
:10165000606C40F00400606405F0080048B106F0DA
:10166000200010B907F0010018B1606C40F00800CC
:101670006064606C002846D005F0200028B106F0B8
:10168000200010B1204600F0A0FB20684069C0F3A4
:10169000801A606C00F0080010B9BAF1000F2DD06C
:1016A000204600F04CFB2068406900F040004028D4
:1016B00020D100BF00BF2168143151E8001F21F084
:1016C00040002168143141E80002002AF3D100BF34
:1016D000E06B50B17F48E16B0865E06BFFF789F87C
:1016E00088B1E06B016D88470DE02046FFF76EFF83
:1016F00009E009E02046FFF769FF04E02046FFF714
:1017000065FF002060647DE7206B012878D105F03B
:101710001000002874D006F010000028FAD000BF96
:1017200000200090206800680090206840680090C9
:1017300000BF00BF2068406900F04000402870D121
:10174000E06B006840681FFA80F8B8F1000F58D0CD
:10175000A08D404555DDA4F82E80E06BC069B0F542
:10176000807F43D000BF00BF21680C3151E8001FCB
:1017700021F4807021680C3141E80002002AF3D185
:1017800000BF00BF00BF2168143151E8001F21F0E5
:1017900001002168143141E80002002AF3D100BFA2
:1017A00000BF00BF2168143151E8001F21F0400044
:1017B0002168143141E80002002AF3D100BF202043
:1017C00084F842000020206300BF00BF21680C3174
:1017D00051E8001F21F0100021680C3141E800029F
:1017E000002AF3D100BFE06BFEF7ADFF022060637B
:1017F000A08DE28D801A81B22046FFF7E6FE0EE052
:1018000052E0A08D40450AD1E06BC069B0F5807F01
:1018100005D102206063A18D2046FFF7D6FEF1E6D8
:10182000FFE7A08DE18D401A1FFA80F8E08DD0B35C
:10183000B8F1000F37D000BF00BF21680C3151E86C
:10184000001F21F4907021680C3141E80002002A49
:10185000F3D100BF00BF00BF2168143151E8001F61
:1018600021F001002168143141E80002002AF3D17F
:1018700000BF202084F842000020206300BF00BF8A
:1018800021680C3151E8001F21F0100021680C3153
:1018900041E80002002AF3D100BF02206063414604
:1018A0002046FFF792FEADE605F0800030B106F06D
:1018B000800018B1204600F03DFCA3E605F0400092
:1018C00030B106F0400018B1204600F06EFA99E6FB
:1018D00000BF97E62D1D000810B504460CB9012085
:1018E00010BDA06900B100E000BF94F8410028B924
:1018F000002084F84000204600F02AF8242084F8D4
:1019000041002068C06820F400502168C86020466B
:1019100000F0DAFA2068006920F49040216808613C
:101920002068406920F02A00216848612068C0686A
:1019300040F400502168C86000206064202084F8D2
:10194000410084F842000020606300BFC8E7000047
:1019500010B586B004462E492068884255D100BF94
:1019600000BF002000902B48006840F0100029497B
:1019700008600846006800F01000009000BF00BF3B
:1019800000BF00BF00BF002000902248143800684C
:1019900040F001001F49143908600846006800F053
:1019A0000100009000BF00BF00BF00BF00BF0020CB
:1019B00000900846006840F0010008600846006892
:1019C00000F00100009000BF00BF00BF481501906B
:1019D000022002900120039002200490072005902D
:1019E00001A90D48FEF720FF4FF480600190072009
:1019F000059001A90848FEF717FF2520FFF76BF8AF
:101A0000032211462520FFF77AF806B010BD00002A
:101A100000100140443802400000024070B5044606
:101A20000D46164694F8420020280BD105B10EB998
:101A3000012070BD0020206332462946204600F078
:101A400059FBF6E70220F4E710B504462049206868
:101A500088423BD11F48008800F4004088BB1D48E5
:101A6000008800F4804070B11B4800780A2803D039
:101A700000201849088024E01648008840F40040FF
:101A8000144908801DE0144800780D2806D111483B
:101A9000008840F480400F49088012E00E4800782A
:101AA0000C490988C1F30D010C4A505409480088BB
:101AB000401C0849088008460088C72801DD00202E
:101AC0000880012204490648FFF7A8FF10BD000066
:101AD00000100140080000200A00002050000020F3
:101AE00018010020704710B50446204600F052F857
:101AF00010BD10B5044620684068C0F3402058B1BE
:101B00002068806800F0010030B16FF001002168AA
:101B100088602046FFF7E7FF10BD10B504460CB9FA
:101B2000012010BD204600F00FF8E06840F0800072
:101B300021680860616820690843A168084321683A
:101B400048600020EDE7000038B504460F492068E2
:101B500088421AD100BF002000900D48006840F470
:101B600000600B4908600846006800F400600090BF
:101B700000BF00BF0220FFF701F80222114600203B
:101B8000FEF7BDFF0020FEF7A6FF38BD002C004089
:101B90004038024001460A68C8681060002070475B
:101BA00000BFFEE700BFFEE7704770477CB5044604
:101BB0000E4615463346012202212046009500F0CC
:101BC00039F828B1606D40F02000606503207CBDCD
:101BD000164800681821B0FBF1F01549B0FBF1F090
:101BE0004FF47A71484301906068B0F5827F0DD15F
:101BF0003346002280212046009500F01BF898B162
:101C0000606D40F0200060650320E0E700BF0198B0
:101C100000B908E00198401E019020688068C0F378
:101C2000C0100028F3D100BF0020D0E70000002042
:101C300040420F002DE9F84F04460D4690461E46DF
:101C4000DDF82890FEF7F6FEA0EB0900371AFEF744
:101C5000F1FE82462C480068C0F3CB3078430090F8
:101C600046E0701C002843D0FEF7E4FEA0EB0A001B
:101C7000B84200D2A7BB2068406820F0E00021688D
:101C800048606068B0F5827F0DD1A068B0F5004F64
:101C900003D0A068B0F5806F05D12068006820F0FF
:101CA000400021680860A06AB0F5005F0DD100BF58
:101CB0002068006820F400502168086020680068EF
:101CC00040F400502168086000BF012084F85100F2
:101CD00000BF002084F8500000BF0320BDE8F88F4B
:101CE000FFE7009808B9002702E00098401E009026
:101CF000206880682840A84201D1012000E000202F
:101D00004045AED10020E9E700000020704710B543
:101D1000FEF796FE10BD00000348006840F4700016
:101D2000014908607047000088ED00E070B5044686
:101D3000A56B0020E8852846FFF748FC70BD00BF72
:101D400000BF02680C3252E8002F22F49071026842
:101D50000C3242E80013002BF3D100BF00BF00BFDC
:101D60000268143252E8002F22F001010268143296
:101D700042E80013002BF3D100BF016B01290ED103
:101D800000BF00BF02680C3252E8002F22F01001A1
:101D900002680C3242E80013002BF3D100BF20216F
:101DA00080F8421000210163704710B50446206896
:101DB000C06820F040002168C860202084F84100FD
:101DC0002046FFF78FFE002010BDF8B50446002521
:101DD000002694F84200222873D1A068B0F5805FF5
:101DE0000BD1206948B9A66A20684068C0F3080092
:101DF0003080A06A801CA06214E0A56AA068B0F5DB
:101E0000805F03D0A06828B9206918B920684068AD
:101E1000287004E02068406800F07F002870A06A05
:101E2000401CA062E08D401E80B2E085002846D1B3
:101E30002068C06820F020002168C8602068C06861
:101E400020F480702168C8602068406920F001009B
:101E500021684861202084F8420000206063206BE4
:101E6000012826D10020206300BF00BF21680C316B
:101E700051E8001F21F0100021680C3141E80002F8
:101E8000002AF3D100BF2068006800F0100010287D
:101E90000AD100BF002000902068006800902068F0
:101EA0004068009000BF00BFA18D2046FFF78DFB6A
:101EB00002E02046FFF7C8FD0020F8BD01E0002049
:101EC000FBE70220F9E700002DE9F84F04462068FF
:101ED000006920F44050E1680843216808612169E5
:101EE000A068084361690843E169084300902068DD
:101EF000C06849F20C618843009908432168C860B2
:101F00002068406920F44070A16908432168486155
:101F100076492068884203D075492068884203D1F9
:101F2000FEF718FF814602E0FEF704FF8146E069F4
:101F3000B0F5004F6CD102206168A0FB0150034650
:101F40001920A9FB007001462A463846FEF791F990
:101F50006421B0FBF1F04FEA001A02206168A0FB97
:101F600001510B461920A9FB00712A463846FEF79D
:101F700080F9834602206168A0FB015003461920C6
:101F8000A9FB00712A463846FEF773F96421B0FBBD
:101F9000F1F000EBC00101EB0010ABEB800032214F
:101FA00001EBC0006421B0FBF1F000F0F8000AEB97
:101FB000400A02206168A0FB015003461920A9FBDA
:101FC000007001462A463846FEF753F98346022040
:101FD0006168A0FB015003461920A9FB00712A4645
:101FE0003846FEF746F96421B0FBF1F000EBC00182
:101FF00001EB0010ABEB8000322101EBC00064214B
:10200000B0FBF1F000F007005044216888606AE0FE
:1020100004206168A0FB015003461920A9FB007051
:1020200001462A463846FEF724F9824604206168B4
:10203000A0FB015003461920A9FB007001462A4667
:102040003846FEF716F96421B0FBF1F000EBC00151
:1020500001EB0010AAEB8000322101EB001064219B
:10206000B0FBF1F000F0F00A04206168A0FB017001
:1020700003461920A9FB00513A462846FEF7F9F815
:102080006421B0FBF1F00AEB001A04206168A0FBA8
:1020900001510B461920A9FB00712A463846FEF76C
:1020A000E8F8834604206168A0FB0150034619202C
:1020B000A9FB007001462A463846FEF7DAF864218B
:1020C000B0FBF1F000EBC00101EB0010ABEB8000C6
:1020D000322101EB00106421B0FBF1F000F00F00A1
:1020E000504421688860BDE8F88F0000001001406E
:1020F0000014014010B5034699629A85DA850020E4
:102100005864222083F84200186928B11868C06812
:1021100040F480701C68E0601868406940F001007D
:102120001C6860611868C06840F020001C68E060AE
:10213000002010BD014691F84100212828D188686F
:10214000B0F5805F0BD1086948B90A6A1088C0F3FE
:1021500008000B685860086A801C086205E00B6A7A
:10216000581C086218780B685860C88C401E80B2F2
:10217000C88458B90868C06820F080000B68D8602F
:102180000868C06840F040000B68D86000207047C5
:102190000220FCE710B50248FFF71AFA10BD000054
:1021A0001801002000BFFEE710B50248FFF7A1FCB0
:1021B00010BD0000180A00202DE9F34F83B005463A
:1021C000002400BFFEF7B6FD824600BF00BF22E03C
:1021D0004FF4802004EB44014F4A32F82110A0FB59
:1021E00001014E4A0023A0FB02CE01FB02E100FBED
:1021F0000310CDE900C05246DDE90001FEF739F8D1
:10220000CDE90001DDE90010491B70F1000000D3A9
:1022100003E0601CC4B2042CDADB00BF042C00D144
:102220000324A5FB0A71884604EB44003A4931F8BF
:1022300020000003394900FB01FB5A4600233846C1
:102240004146FEF716F800F140067F2E00D97F26A2
:10225000402E00D2402604EB44012F4A02EB8101BC
:102260000E8104EB4400114601EB800000890499C3
:102270004843642190FBF1F01FFA80F9B9F1400F57
:1022800001DA4FF0400904EB4400234901EB8000E0
:102290000089484505DA04EB440001EB8000B0F802
:1022A000089004EB44011C4A02EB810181F80A907A
:1022B0001B481C49086004EB4400114601EB8000F8
:1022C00001891848C16004EB4400114601EB80000D
:1022D00040681449486004EB4400114601EB80005B
:1022E000817A104881604FF400710161FFF715FC9D
:1022F00060B90C488368C26804EB4400DFF818C07A
:102300003CF8201008A0FEF72BF802E013A0FEF71F
:1023100027F805B0BDE8F08F2000002040420F00F4
:10232000002C0040180A00205757444720496E6986
:1023300074204F4B3A205072657363616C65723D37
:1023400025642C20436F756E7465723D25642C20C6
:1023500057696E646F773D25640D0A0057574447EF
:1023600020496E6974204661696C6564210D0A001C
:1023700002480068C0F30220704700000CED00E046
:1023800010B5002804DB0A07130E054A135406E0B3
:102390000A07140E034A00F00F031B1FD45410BD8C
:1023A00000E400E018ED00E030380A2801D20120F6
:1023B00070470020704700BF704700000149086067
:1023C000704700000C00002010B504464FF47A71ED
:1023D00004FB01F000F002F810BD000070B50346E8
:1023E00000224FF0E02675690D4E366803FB06F4B7
:1023F0004FF0E026B16910E04FF0E026B069884266
:102400000BD0884202D20E1A324402E02E1A0E4439
:1024100032440146A24200D300E0EDE700BF70BDA8
:102420000C00002000BF054A126802F04002002A9A
:10243000F9D0C2B2014B5A60704700000010014051
:1024400000B587B0142102A8FEF796F800BF00205F
:1024500001905848006840F001005649086008465D
:10246000006800F00100019000BF00BF00BF002025
:1024700001900846006840F00200086008460068C5
:1024800000F00200019000BF00BF00BF00200190DB
:102490000846006840F0080008600846006800F040
:1024A0000800019000BF00BF00BF00200190084657
:1024B000006840F0100008600846006800F0100056
:1024C000019000BF00BF0120039000200490022073
:1024D00005904003029002A93748FEF7A5F94FF492
:1024E0008040029002A93548FEF79EF90220029032
:1024F00002A93248FEF798F94FF48070029002A9C1
:102500002F48FEF791F900BF0020019029481430B0
:10251000006840F48050274914310860084600687C
:1025200000F48050019000BF00BF02200390002003
:10253000049003200590052006902020029002A917
:102540002048FEF771F92020029002A91C48FEF7EE
:102550006BF91D481D4908604FF4827048600021E6
:102560001A488160C1600221016101214161490273
:1025700081610021C161016241628162FEF7A0FEBA
:1025800012480068006840F040001049096808607F
:10259000012291030948FEF741FA012291030648FE
:1025A000FEF73CFA00224FF480710548FEF736FA38
:1025B00007B000BD30380240000C0240001002405D
:1025C0000004024000000240003001406001002091
:1025D00070B504460D46AAB24FF47A7321460248FC
:1025E000FEF7DEFE70BD00006001002001B50A2389
:1025F000012269460148FEF7D3FE08BD60010020B4
:10260000FEF72AFA0723022208214FF4A87000F0EF
:1026100009FAA820FFF7D2FE4FF4E13000F070FA7B
:1026200005A0FDF79DFE00F0B7F85A214CF250309E
:10263000FFF7C2FD00BFFEE748656C6C6F2C576F5B
:10264000726C640D0A00000010B5012211020248EC
:10265000FEF7E4F910BD00000004024010B50022AE
:102660004FF480710148FEF7D9F910BD0004024013
:1026700038B50446064800944088401E83B204489A
:102680000088401E82B20021084600F02BF838BDB9
:102690001A00002010B5012291030248FEF7BEF98E
:1026A00010BD00000010024010B500224FF4804120
:1026B0000148FEF7B3F910BD0010024010B5012229
:1026C00091030248FEF7AAF910BD0000000C024079
:1026D00010B500224FF480410148FEF79FF910BD6C
:1026E000000C02402DE9F84F0746884614461D4667
:1026F000DDF828A0A74201DCA84501DDBDE8F88F80
:1027000023480088A04203DC21480088401E84B290
:102710001F484088A84203DC1D484088401E85B2FF
:102720002B4622464146384600F01AF9E01B401C71
:10273000A5EB0801491C00FB01F64FF400794FEAB4
:102740002A2040EA0A2080B20090002004E0114ACA
:10275000009922F81010401C4845F8D3FFF7A4FF59
:10276000FFF7ACFF0DE04E4501D9484600E030468A
:1027700083464FEA4B010748FFF72AFFA6EB0B06FB
:1027800000BF002EEFD1FFF785FF00BFB6E70000C6
:102790001A000020B801002010B5FFF751FEFFF726
:1027A00053FF00F08DF8112000F024F9C820FEF747
:1027B00034F8002000F098F800F006F80020FFF749
:1027C00057FFFFF74BFF10BD1FB53A2000F012F97D
:1027D000052000F01BF9B22000F00CF92DA103C96F
:1027E000CDE90201052102A800F0F3F8B72000F0BE
:1027F00001F9352000F00AF9BB2000F0FBF8322087
:1028000000F004F9C22000F0F5F8012000F0FEF815
:10281000C32000F0EFF8152000F0F8F8C42000F015
:10282000E9F8202000F0F2F8C62000F0E3F80F20CD
:1028300000F0ECF8D02000F0DDF818A0006803905C
:10284000022103A800F0C5F8E02000F0D3F814A09E
:1028500090E80E00C0688DE80E0003900E216846D7
:1028600000F0B7F8E12000F0C5F811A3D3E900218A
:10287000D3E90203CDE90203CDE900210E21684628
:1028800000F0A7F8212000F0B5F8292000F0B2F8F8
:102890001FBD00000C0C003333000000A4A1000099
:1028A000D0080E09090531334817141531340000DA
:1028B000D0080E09091531334817141531340000BA
:1028C00010B5002202210748FEF7A8F83220FDF7D4
:1028D000A4FF012202210348FEF7A0F87820FDF7AB
:1028E0009CFF10BD0010024010B504461B48047147
:1028F000362000F07FF834B1012C0ED0022C16D017
:10290000032C28D11DE0F020144908804FF4A0705A
:102910004880002000F07AF81EE04FF4A0700F49C4
:102920000880F0204880C02000F070F814E0F0200B
:102930000A4908804FF4A0704880702000F066F8C3
:102940000AE04FF4A07005490880F0204880A020DC
:1029500000F05CF800E000BF00BF10BD1A000020CE
:102960002DE9F05F04460D4616461F461FFA84F80F
:102970001FFA86F91FFA85FA1FFA87FB2A2000F052
:1029800039F84FEA282000F041F808F0FF0000F085
:102990003DF84FEA292000F039F809F0FF0000F077
:1029A00035F82B2000F026F84FEA2A2000F02EF808
:1029B0000AF0FF0000F02AF84FEA2B2000F026F87A
:1029C0000BF0FF0000F022F82C2000F013F8BDE817
:1029D000F09F70B505460C4604B970BDFFF764FE64
:1029E000FFF76CFE21462846FFF7F2FDFFF752FE87
:1029F00000BFF2E710B50446FFF756FEFFF768FE8A
:102A00002046FFF7F3FDFFF745FE10BD10B5044665
:102A1000FFF74AFEFFF752FE2046FFF7E7FDFFF7FC
:102A200039FE10BD2DE9F04192B080460C461546A6
:102A30001E460027302106A8FDF79EFD142101A89F
:102A4000FDF79AFD00BF002000902A48006840F082
:102A50008050284908600846006800F080500090C7
:102A600000BF00BF00BF002000902348006840F472
:102A70008040214908600846006800F480400090CA
:102A800000BF00BF012006900004079002200C90B8
:102A900041050D91CDF83C800E941095119606A835
:102AA000FEF7C0F907461FB1012012B0BDE8F08162
:102AB0000F20019002200290002003904FF4A050BC
:102AC00004904FF480500590052101A8FEF76AF8A4
:102AD00007460FB10120E8E7FDF7A6FF41F201012B
:102AE000884205D10548006840F4807003490860B9
:102AF0000020DAE74038024000700040003C02400D
:102B000010B5044609480A49086008464460002197
:102B10008160C160016181610C214161FEF7DCFED1
:102B2000012204490248FEF779FF10BD0010014060
:102B3000180100200A0000204FF04070E1EE100A5A
:102B400070470000000000000000010203040607B7
:102B5000080900000000010203040400000800004E
:102B60000000000000020001000010008C2B000893
:102B70000000002050000000C4010008DC2B000809
:102B80005000002040100000E00100080024F40084
:102B90000000000000000000000000000000000035
:102BA000100000000100F0004001000001000000E2
:102BB0000000000000000000020000008000000093
:102BC0000000000004000000000100000000000000
:0C2BD00008000000800100000000000070
:040000050800018965
:00000001FF
