:020000040800F2
:1000000030100020A101000889150008891400089B
:1000100085150008BD020008AD1B000800000000A7
:100020000000000000000000000000008D15000826
:10003000C1020008000000008B1500088F150008A1
:10004000BB010008BB010008BB010008BB010008A0
:10005000BB010008BB010008BB010008BB01000890
:10006000BB010008BB010008BB010008BB01000880
:10007000BB010008BB010008BB010008BB01000870
:10008000BB010008BB010008BB010008BB01000860
:10009000BB010008BB010008BB010008BB01000850
:1000A000BB010008BB010008BB010008BB01000840
:1000B000BB010008BB010008BB010008BB01000830
:1000C000BB010008BB010008BB010008BB01000820
:1000D000BB0100089D1B0008BB010008BB01000814
:1000E000BB010008BB010008BB010008BB01000800
:1000F000BB010008BB010008BB010008BB010008F0
:10010000BB010008BB010008BB010008BB010008DF
:10011000BB010008BB010008BB010008BB010008CF
:10012000BB010008BB010008BB010008BB010008BF
:10013000BB010008BB010008BB010008BB010008AF
:10014000BB010008BB010008BB010008BB0100089F
:10015000BB010008BB010008BB010008BB0100088F
:10016000BB010008BB010008BB010008BB0100087F
:10017000BB010008BB010008BB0100080000000033
:10018000BB010008BB010008DFF810D000F084F8C4
:1001900000480047C11D0008AFF300803010002068
:1001A0000648804706480047FEE7FEE7FEE7FEE711
:1001B000FEE7FEE7FEE7FEE7FEE7FEE7991500082B
:1001C000890100082DE9F05F0546002092469B4614
:1001D00088460646814640241BE02846414647465D
:1001E000224600F048F853465A46C01A914110D3AF
:1001F00011461846224600F02FF82D1A67EB010829
:100200004F4622460120002100F026F817EB000996
:100210004E41201EA4F10104DFDC484631462A4647
:100220004346BDE8F09FD2B201E000F8012B491E21
:10023000FBD270470022F6E710B513460A46044683
:100240001946FFF7F0FF204610BD421C10F8011BB5
:100250000029FBD1801A7047202A04DB203A00FADB
:1002600002F1002070479140C2F1200320FA03F30D
:10027000194390407047202A04DB203A21FA02F00B
:100280000021704721FA02F3D040C2F120029140D0
:100290000843194670470000064C074D06E0E06829
:1002A00040F0010394E8070098471034AC42F6D3BD
:1002B000FFF76EFF102700083027000800BFFEE799
:1002C000704770B50446A56D00F072F9064694F8C3
:1002D0003500022808D08020606500BF002084F827
:1002E000340000BF012070BD2068006820F01600B7
:1002F000216808602068406920F08000216848611A
:10030000206C08B9A06C28B12068006820F00800B3
:10031000216808602068006820F0010021680860FA
:1003200010E000F045F9801B05280BD920206065FE
:10033000032084F8350000BF002084F8340000BF9B
:100340000320D0E72068006800F001000028E8D111
:1003500094F85C103F208840A860012084F83500A4
:1003600000BF002084F8340000BF00BFBBE7014697
:1003700091F83500022803D080204865012070479D
:10038000052081F835000868006820F001000A683F
:1003900010600020F3E710B50446A0B201F03AFC6B
:1003A00010BD0000F8B502460B46002500240020D1
:1003B0000021D6E0012606FA01F51E6806EA0504CA
:1003C000AC4274D11E7906F00306012E04D01E79CA
:1003D00006F00306022E13D190684F000326BE409C
:1003E000B0434F00DE68BE40304390605068012645
:1003F0008E40B0431E79C6F300168E4030435060E5
:100400001E7906F00306032E09D0D0684F0003269C
:10041000BE40B0434F009E68BE403043D0601E795E
:1004200006F00306022E13D1CF0802F1200656F87B
:1004300027004E07F70E0F26BE40B0434F07FF0EB2
:100440001E69BE403043CF0802F1200646F827005F
:1004500010684F000326BE40B0431E7906F0030625
:100460004F00BE40304310605E6806F44036002EF8
:1004700076D000BF002600963C4E366846F4804693
:100480003A4F3E603E46366806F48046009600BF0E
:1004900000BF374E8F0856F827008E07370F0F26FC
:1004A000BE40B043334EB24202D1002624E057E0B2
:1004B000314EB24201D101261EE0304EB24201D18E
:1004C000022619E02E4EB24201D1032614E02D4E31
:1004D000B24201D104260FE02B4EB24201D10526D3
:1004E0000AE02A4EB24201D1062605E0284EB24269
:1004F00001D1072600E008268F073F0FBE4030439A
:100500001B4E8F0846F82700224E3068A0435E68D5
:1005100006F4801606B120431E4E3060361D30684A
:10052000A0435E6806F4001606B12043194E361D3E
:100530003060184E361F3068A0435E6806F40036FF
:1005400006B12043134E361F3060361F3068A0437B
:100550005E6806F4803606B120430E4E083E3060D9
:10056000491C1029FFF426AFF8BD000044380240B2
:100570000838014000000240000402400008024028
:10058000000C02400010024000140240001802401B
:10059000001C0240083C01400AB1816101E00B04EB
:1005A0008361704701480068000C7047002004E038
:1005B00001480068704700000800002070B504463C
:1005C0000CB9012070BD4CF6CC402168086045F2A2
:1005D000555021680860D4E9001048602168A0687F
:1005E0008860FFF7E5FF05460DE0FFF7E1FF401BE0
:1005F00041F60101884206D92068C06800F0030076
:1006000008B10320DEE72068C06800F0030000287E
:10061000EBD14AF6AA20216808600020D2E7014603
:100620004AF6AA200A681060002070470348006854
:100630000349097808440149086070470800002010
:100640001000002010B50A48006840F40070084906
:1006500008600846006840F480600860032000F0ED
:1006600083F80F2000F006F800F02AF8002010BDF3
:10067000003C024070B504460E4800784FF47A7191
:10068000B1FBF0F00C490968B1FBF0F5284600F029
:100690000DFC08B1012070BD102C07D200222146AC
:1006A000501E00F022F80548046001E00120F2E746
:1006B0000020F0E710000020000000200C000020C7
:1006C00070470146084600280DDB00BF00BF00F060
:1006D0001F0301229A4043099B0003F1E023C3F862
:1006E000002100BF00BF00BF70472DE9F05F8046CA
:1006F0000D461646002701F05BFA074639462A46A2
:10070000334601F00700C0F1070ABAF1040F02D91D
:100710004FF0040A01E0C0F1070AD14600F1040AD3
:10072000BAF1070F02D24FF0000A01E0A0F1030A6C
:10073000D4464FF0010A0AFA09FAAAF1010A0AEAB4
:10074000020A0AFA0CFA4FF0010B0BFA0CFBABF1A0
:10075000010B0BEA030B4AEA0B042146404601F069
:100760002FFABDE8F09F000000BF00F00702064B23
:1007700019684FF6FF031940044B0B4343EA02216B
:10078000014B196000BF70470CED00E00000FA0556
:1007900070B504460D460CB9012070BD584800687C
:1007A00000F00700A84209D255490D7008460068BC
:1007B00000F00700A84201D00120EEE7207800F009
:1007C000020002281DD1207800F00400042805D181
:1007D0004C48006840F4E0504A490860207800F036
:1007E0000800082805D14748006840F460404549A2
:1007F00008604448006820F0F000A16808434149BF
:100800000860207800F00100A8B36068012807D1D3
:100810003C4808380068C0F34040B8B90120BCE744
:100820006068022802D06068032807D1354808387C
:100830000068C0F3406048B90120AEE7314808388D
:100840000068C0F3400008B90120A6E72D48006801
:1008500020F00300616808432A490860FFF7A8FEFA
:10086000064609E0FFF7A4FE801B41F2883188426A
:1008700002D9032091E707E02248006800F00C004D
:100880006168B0EB810FEDD11D48006800F00700F2
:10089000A84209D91A490D700846006800F00700FF
:1008A000A84201D0012078E7207800F00400042855
:1008B00007D11448006820F4E050E168084311496A
:1008C0000860207800F00800082808D10D4800686A
:1008D00020F46040216940EAC1000A49086000F044
:1008E0003FF808490968C1F30311074A515CC84041
:1008F0000649086006480068FFF7BCFE00204CE788
:10090000003C0240083802401C250008000000207E
:100910000C00002001480068704700000000002023
:1009200000B5FFF7F7FF04490968C1F38221034AC4
:10093000515CC84000BD0000083802402C2500086A
:1009400000B5FFF7E7FF04490968C1F34231034AE4
:10095000515CC84000BD0000083802402C2500084A
:100960002DE9F047002400250026A146254800680F
:1009700000F00C0020B1042805D008283AD105E089
:10098000DFF8849039E0DFF8849036E01D48001FDE
:10099000006800F03F041B48001F006800F480005E
:1009A00078B11A481749091F0968C1F38811A0FBDB
:1009B00001700146224600233846FFF703FC054636
:1009C0000EE011480F49091F0968C1F38811A0FB07
:1009D00001700146224600233846FFF7F3FB054627
:1009E0000848001F0068C0F30140401C4600B5FBEA
:1009F000F6F902E0DFF8109000BF00BF4846BDE8FE
:100A0000F0870000083802400024F40000127A0049
:100A1000F8B504460CB90120F8BD207800F00100BB
:100A2000002874D0F948006800F00C0004280DD0AC
:100A3000F648006800F00C00082813D1F348001FA6
:100A4000006800F48000B0F5800F0BD1EF48083843
:100A50000068C0F34040002859D06068002856D193
:100A60000120D9E700BF6068B0F5803F08D1E748B2
:100A70000838006840F48030E449083908601EE016
:100A80006068B0F5A02F0DD1E0480838006840F448
:100A90008020DE49083908600846006840F480304C
:100AA00008600CE0D9480838006820F48030D74945
:100AB000083908600846006820F48020086000BFFC
:100AC000606890B1FFF774FD054606E0FFF770FD22
:100AD000401B642801D903209EE7CC4808380068F1
:100AE000C0F340400028F1D011E0FFF761FD05465A
:100AF00006E0FFF75DFD401B642801D903208BE76A
:100B0000C24808380068C0F340400028F1D120787E
:100B100000F0020002285FD1BC48006800F00C0021
:100B200058B1BA48006800F00C0008281CD1B7483A
:100B3000001F006800F48000B0B9B44808380068AD
:100B4000C0F3400020B1E068012801D0012063E734
:100B5000AE480838006820F0F800216940EAC1007A
:100B6000AA490839086037E0E06800B30120A849C5
:100B70000860FFF71DFD054606E0FFF719FD401B65
:100B8000022801D9032047E7A04808380068C0F3CD
:100B900040000028F1D09D480838006820F0F80097
:100BA000216940EAC10099490839086014E0002031
:100BB00097490860FFF7FCFC054606E0FFF7F8FCE4
:100BC000401B022801D9032026E790480838006816
:100BD000C0F340000028F1D1207800F00800082878
:100BE0002CD16069A8B101208A490860FFF7E0FCB8
:100BF000054606E0FFF7DCFC401B022801D9032074
:100C00000AE782486C300068C0F340000028F1D049
:100C100014E000207F490860FFF7CAFC054606E0A3
:100C2000FFF7C6FC401B022801D90320F4E67748F1
:100C30006C300068C0F340000028F1D1207800F04B
:100C40000400042870D1002770483830006800F094
:100C5000805090B900BF002000906C483830006888
:100C600040F080506949383108600846006800F05B
:100C70008050009000BF00BF01276748006800F463
:100C80008070B0B96448006840F4807062490860C0
:100C9000FFF78EFC054606E0FFF78AFC401B0228A2
:100CA00001D90320B8E65C48006800F48070002891
:100CB000F2D000BFA068012808D15448683000680D
:100CC00040F001005149683108601DE0A068052826
:100CD0000DD14E486830006840F004004B4968313F
:100CE00008600846006840F0010008600CE04748D2
:100CF0006830006820F00100444968310860084607
:100D0000006820F00400086000BFA068A8B1FFF7E9
:100D10004FFC054609E0FFF74BFC401B41F28831D0
:100D2000884202D9032077E626E038486830006818
:100D3000C0F340000028EED013E0FFF739FC054671
:100D400008E0FFF735FC401B41F28831884201D9A9
:100D5000032061E62D4868300068C0F34000002899
:100D6000EFD1012F07D129483830006820F080509A
:100D700026493831086000BFA069002845D02348C3
:100D8000006800F00C0008285DD0A069022845D159
:100D900000201F490866FFF70BFC054606E0FFF739
:100DA00007FC401B022801D9032035E61748083804
:100DB0000068C0F340600028F1D1D4E9070108437E
:100DC000616A40EA81110122A06AC2EB500041EA47
:100DD00000412C20005D41EA00600C49091F0860B9
:100DE00001200B490866FFF7E3FB054606E0FFF725
:100DF000DFFB401B022801D903200DE60348083819
:100E00000068C0F340600028F1D049E00838024093
:100E100000004742800E47420070004000202149F8
:100E20000866FFF7C5FB054606E0FFF7C1FB401B60
:100E3000022801D90320EFE51B480068C0F3406099
:100E40000028F2D12CE0A069012800D1E4E5164881
:100E5000001D0668A069012820D006F48001E06921
:100E600081421BD106F03F01206A814216D147F62C
:100E7000C0703040616AB0EB811F0FD106F4403181
:100E80000122A06AC2EB5000B1EB004F06D106F080
:100E900070612C20005DB1EB006F01D00120BBE53B
:100EA0000020B9E5000047420038024070B5044612
:100EB0002546681EB0F1807F01D301200FE0681E37
:100EC0004FF0E02148610F214FF0FF3000F078FE35
:100ED00000204FF0E021886107200861002070BDEC
:100EE000704770472DE9F84F044620680568206870
:100EF000C668206847694FF00009CA4605F00F0927
:100F0000B9F1000F0AD105F0200038B106F0200039
:100F100020B1204600F0D6FBBDE8F88FB9F1000FF4
:100F20007CD007F0010018B906F49070002875D045
:100F300005F0010030B106F4807018B1606C40F02B
:100F40000100606405F0040030B107F0010018B141
:100F5000606C40F00200606405F0020030B107F000
:100F6000010018B1606C40F00400606405F00800F6
:100F700048B106F0200010B907F0010018B1606C0C
:100F800040F008006064606C002846D005F0200046
:100F900028B106F0200010B1204600F093FB206835
:100FA0004069C0F3801A606C00F0080010B9BAF113
:100FB000000F2DD0204600F002FB2068406900F0B1
:100FC0004000402820D100BF00BF2168143151E803
:100FD000001F21F040002168143141E80002002A7E
:100FE000F3D100BFE06B50B17F48E16B0865E06B67
:100FF000FFF7BDF988B1E06B016D88470DE0204631
:10100000FFF76FFF09E009E02046FFF76AFF04E001
:101010002046FFF766FF002060647DE7206B012813
:1010200078D105F01000002874D006F010000028D8
:10103000FAD000BF0020009020680068009020686F
:101040004068009000BF00BF2068406900F0400089
:10105000402870D1E06B006840681FFA80F8B8F152
:10106000000F58D0A08D404555DDA4F82E80E06BD0
:10107000C069B0F5807F43D000BF00BF21680C314C
:1010800051E8001F21F4807021680C3141E8000212
:10109000002AF3D100BF00BF00BF2168143151E81E
:1010A000001F21F001002168143141E80002002AEC
:1010B000F3D100BF00BF00BF2168143151E8001F09
:1010C00021F040002168143141E80002002AF3D1E8
:1010D00000BF202084F842000020206300BF00BF32
:1010E00021680C3151E8001F21F0100021680C31FB
:1010F00041E80002002AF3D100BFE06BFFF7E1F8FE
:1011000002206063A08DE28D801A81B22046FFF735
:10111000E7FE0EE052E0A08D40450AD1E06BC069C9
:10112000B0F5807F05D102206063A18D2046FFF7D6
:10113000D7FEF1E6FFE7A08DE18D401A1FFA80F897
:10114000E08DD0B3B8F1000F37D000BF00BF2168E9
:101150000C3151E8001F21F4907021680C3141E8F6
:101160000002002AF3D100BF00BF00BF2168143184
:1011700051E8001F21F001002168143141E800020C
:10118000002AF3D100BF202084F842000020206311
:1011900000BF00BF21680C3151E8001F21F0100092
:1011A00021680C3141E80002002AF3D100BF02207F
:1011B000606341462046FFF793FEADE605F08000F0
:1011C00030B106F0800018B1204600F071FCA3E6B3
:1011D00005F0400030B106F0400018B1204600F0A4
:1011E00024FA99E600BF97E6AD15000810B504464D
:1011F0000CB9012010BDA06900B100E000BF94F857
:10120000410028B9002084F84000204600F02AF868
:10121000242084F841002068C06820F40050216830
:10122000C860204600F0DCFA2068006920F4904095
:10123000216808612068406920F02A00216848611F
:101240002068C06840F400502168C86000206064D5
:10125000202084F8410084F842000020606300BF31
:10126000C8E7000010B586B00446142101A8FEF7B7
:10127000E1FF1249206888421ED100BF0020009083
:101280000F48006840F001000D49086008460068FA
:1012900000F00100009000BF00BF4FF4C06001905B
:1012A0000220029000200390032004900720059064
:1012B00001A90448FFF776F806B010BD0010014000
:1012C000303802400000024070B504460D46164614
:1012D00094F8420020280BD105B10EB9012070BD51
:1012E0000020206332462946204600F08FFBF6E7B7
:1012F0000220F4E770B505462D492868884255D18B
:101300002C4804782C48007830B101280FD00228EE
:101310001ED003283DD12DE0532C07D1274804705F
:1013200000202749087001202349087037E023482E
:1013300044704078002807DD20484078FF2803DC0F
:1013400002201D49087002E000201B49087026E0B9
:101350001B490878411C1A4A11701849891C0C5401
:10136000881E407811460978884202DC0320124921
:10137000087014E0452C06D1104880F801414178EE
:10138000801C00F063FB00200B4908700C490870BA
:1013900005E00020084908700949087000BF00BF37
:1013A000012204490748FFF78FFF00BF70BD00000E
:1013B000001001401C0000201D0000201C0B00201C
:1013C0001E000020D40800202DE9F84F04460E46E8
:1013D000174699464FF0000A94F84100202850D152
:1013E00006B117B90120BDE8F88F00206064212004
:1013F00084F84100FFF7DCF88246A784E784A06800
:10140000B0F5805F04D1206910B90025B04602E034
:1014100035464FF000081EE053460022802120464A
:10142000CDF8009000F074FB20B1202084F841003A
:101430000320D8E745B9B8F80000C0F308002168D8
:10144000486008F1020803E02878216848606D1CB4
:10145000E08C401EE084E08C0028DDD15346002261
:1014600040212046CDF8009000F052FB20B1202012
:1014700084F841000320B6E7202084F841000020D2
:10148000B1E70220AFE7704700BFFEE710B50248A2
:10149000FFF7C5F810BD0000200C00202DE9F04139
:1014A000054600270024012032490860012D00DA9A
:1014B0000125002410E004EB44002F4931F82000FE
:1014C00000034FF47A7148434901B0FBF1F7AF4292
:1014D00000D303E0601CC4B2072CECDB00BF072C78
:1014E00000D106244FF4FA40684304EB4401224A39
:1014F00032F821104FF47A725143B0FBF1F63EB14D
:10150000701E04EB44011C4A02EB8101088106E0D5
:10151000002004EB4401184A02EB8101088104EB2E
:101520004400154901EB80000089B0F5805F07DBBE
:1015300040F6FF7004EB44010F4A02EB8101088181
:101540000E480F49086004EB44000B4901EB800092
:1015500040680B49486004EB4400074901EB8000F8
:10156000018907488160FFF729F80548FFF757F818
:10157000BDE8F081800E474220000020003000408E
:10158000200C002000BFFEE770477047704710B581
:10159000FFF74CF810BD00000348006840F47000ED
:1015A000014908607047000088ED00E070B504460E
:1015B000A56B0020E8852846FFF793FC70BD00BFAF
:1015C00000BF02680C3252E8002F22F490710268CA
:1015D0000C3242E80013002BF3D100BF00BF00BF64
:1015E0000268143252E8002F22F00101026814321E
:1015F00042E80013002BF3D100BF016B01290ED18B
:1016000000BF00BF02680C3252E8002F22F0100128
:1016100002680C3242E80013002BF3D100BF2021F6
:1016200080F8421000210163704710B5044620681D
:10163000C06820F040002168C860202084F8410084
:101640002046FFF720FF002010BD000038B50446FB
:1016500000BF002000901748006840F010001549B6
:1016600008600846006800F01000009000BF00BF4E
:1016700011481249086008464460002181610C212C
:1016800041610021C1610161C1608160FFF7AEFD70
:1016900008B100BFFEE7002201212520FFF725F851
:1016A0002520FFF70EF8012205490448FFF70CFE3C
:1016B00038BD00004438024000100140D40800202A
:1016C0001C000020F8B504460025002694F84200CE
:1016D000222873D1A068B0F5805F0BD1206948B98A
:1016E000A66A20684068C0F308003080A06A801CA9
:1016F000A06214E0A56AA068B0F5805F03D0A0687E
:1017000028B9206918B920684068287004E020686A
:10171000406800F07F002870A06A401CA062E08D45
:10172000401E80B2E085002846D12068C06820F0C5
:1017300020002168C8602068C06820F4807021689B
:10174000C8602068406920F00100216848612020BD
:1017500084F8420000206063206B012826D100201D
:10176000206300BF00BF21680C3151E8001F21F049
:10177000100021680C3141E80002002AF3D100BFBB
:101780002068006800F0100010280AD100BF002077
:10179000009020680068009020684068009000BFBA
:1017A00000BFA18D2046FFF79BFB02E02046FFF71C
:1017B000A1FD0020F8BD01E00020FBE70220F9E7D1
:1017C00070B504462046FEF740FD85B24FF0FF336A
:1017D0002A4621460148FFF7F7FD70BDD4080020D6
:1017E0002DE9F84F04462068006920F44050E16874
:1017F0000843216808612169A068084361690843BA
:10180000E169084300902068C06849F20C61884390
:10181000009908432168C8602068406920F440703E
:10182000A16908432168486176492068884203D04D
:1018300075492068884203D1FFF782F8814602E0AB
:10184000FFF76EF88146E069B0F5004F6CD10220D9
:101850006168A0FB015003461920A9FB00700146F6
:101860002A463846FEF7AEFC6421B0FBF1F04FEAA1
:10187000001A02206168A0FB01510B461920A9FB48
:1018800000712A463846FEF79DFC834602206168B7
:10189000A0FB015003461920A9FB00712A463846D7
:1018A000FEF790FC6421B0FBF1F000EBC00101EB0E
:1018B0000010ABEB8000322101EBC0006421B0FBD3
:1018C000F1F000F0F8000AEB400A02206168A0FB8A
:1018D000015003461920A9FB007001462A463846EC
:1018E000FEF770FC834602206168A0FB01500346AE
:1018F0001920A9FB00712A463846FEF763FC6421D3
:10190000B0FBF1F000EBC00101EB0010ABEB80008D
:10191000322101EBC0006421B0FBF1F000F00700C0
:101920005044216888606AE004206168A0FB01508F
:1019300003461920A9FB007001462A463846FEF7E7
:1019400041FC824604206168A0FB01500346192037
:10195000A9FB007001462A463846FEF733FC642195
:10196000B0FBF1F000EBC00101EB0010AAEB80002E
:10197000322101EB00106421B0FBF1F000F0F00A1D
:1019800004206168A0FB017003461920A9FB0051E7
:101990003A462846FEF716FC6421B0FBF1F00AEB4C
:1019A000001A04206168A0FB01510B461920A9FB15
:1019B00000712A463846FEF705FC8346042061681C
:1019C000A0FB015003461920A9FB007001462A46DE
:1019D0003846FEF7F7FB6421B0FBF1F000EBC001E5
:1019E00001EB0010ABEB8000322101EB0010642111
:1019F000B0FBF1F000F00F00504421688860BDE8B2
:101A0000F88F0000001001400014014010B503469B
:101A100099629A85DA8500205864222083F8420072
:101A2000186928B11868C06840F480701C68E060CC
:101A30001868406940F001001C6860611868C0685F
:101A400040F020001C68E060002010BD30B5024668
:101A50000B46002022E0115C124C134D2D8861557D
:101A6000114C2488611CCC1701EBD4546412A1EBF7
:101A700044240D4D2C80294609880C4C2488A14211
:101A80000AD10A4C2488611CCC1701EBD45464128F
:101A9000A1EB4424054D2C80411CC8B29842DADBEE
:101AA00030BD00001C090020180000201A00002092
:101AB000014691F84100212828D18868B0F5805F5F
:101AC0000BD1086948B90A6A1088C0F308000B688E
:101AD0005860086A801C086205E00B6A581C08629E
:101AE00018780B685860C88C401E80B2C88458B9FA
:101AF0000868C06820F080000B68D8600868C0687B
:101B000040F040000B68D860002070470220FCE7DE
:101B10002DE9F84304460D4617469846089E31E0E5
:101B2000701C70B3FEF744FDA0EB0800B04200D873
:101B300016B90320BDE8F8832068C06800F00400EF
:101B4000F8B1802D1ED0402D1CD020680068C0F355
:101B5000C000B0B100BF0020009020680068009075
:101B600020684068009000BF00BF2046FFF727FDB7
:101B70000820606400BF002084F8400000BF0120FE
:101B8000D8E7FFE7206800682840A84201D101207B
:101B900000E00020B842C3D00020CBE710B50248D7
:101BA000FFF7A0F910BD0000D408002000BFFEE739
:101BB00002480068C0F30220704700000CED00E00E
:101BC00010B5002804DB0A07130E054A135406E07B
:101BD0000A07140E034A00F00F031B1FD45410BD54
:101BE00000E400E018ED00E002E008C8121F08C1A0
:101BF000002AFAD170477047002001E001C1121F8E
:101C0000002AFBD1704700000149086070470000BE
:101C10000400002010B504464FF47A7104FB01F073
:101C200000F002F810BD000070B5034600224FF02E
:101C3000E02675690D4E366803FB06F44FF0E0268A
:101C4000B16910E04FF0E026B06988420BD08842BD
:101C500002D20E1A324402E02E1A0E4432440146D9
:101C6000A24200D300E0EDE700BF70BD04000020F9
:101C700000B587B0142102A8FEF7DCFA00BF0020EF
:101C800001904148006840F001003F490860084663
:101C9000006800F00100019000BF00BF00BF0020FD
:101CA00001900846006840F002000860084600689D
:101CB00000F00200019000BF00BF00BF00200190B3
:101CC0000846006840F0080008600846006800F018
:101CD0000800019000BF00BF00BF0020019008462F
:101CE000006840F0100008600846006800F010002E
:101CF000019000BF00BF012003900020049002204B
:101D000005904003029002A92048FEF74BFB4FF4D8
:101D10008040029002A91E48FEF744FB0220029078
:101D200002A91B48FEF73EFB4FF48070029002A907
:101D30001848FEF737FB0120039000200490022092
:101D400005902020029002A91348FEF72BFB2020CB
:101D5000029002A90F48FEF725FB012220210E4820
:101D6000FEF71AFC012291030948FEF715FC012237
:101D700091030648FEF710FC00224FF480710548DD
:101D8000FEF70AFC07B000BD30380240000C0240EC
:101D900000100240000402400000024070B50546F9
:101DA0000E46002403E0285D00F066F8641CB4428F
:101DB000F9D370BD10B50446204600F05DF810BDA3
:101DC0001CB5FEF73FFC0723022208214FF4A87040
:101DD00000F036FBA820FFF717FF4FF4E130FFF7C4
:101DE00035FC00F0E7F94FF47A70FFF757FB14A0C9
:101DF000FFF7E6FC22E0FFF749FB15A0FFF7E0FC48
:101E0000022000214FF6E07315A2CDE900100A214F
:101E1000084600F031F94FF4FA70FFF7FBFE02209C
:101E200000214FF6FF7311A2CDE900100A210846E8
:101E300000F022F94FF4FA70FFF7ECFEDBE7000048
:101E400048656C6C6F2C2055415254210D0A0000DE
:101E5000495747442046454544210D0A00000000EB
:101E60004957474420464545442100002020202072
:101E7000202020202020000070B5044600251BE013
:101E8000002220210E48FEF787FB04F0800028B1D5
:101E9000012220210B48FEF77FFB04E000222021D5
:101EA0000848FEF779FB6006040E01222021044851
:101EB000FEF772FB681CC5B2082DE1DB70BD0000A7
:101EC000000002400004024010B501221102024845
:101ED000FEF762FB10BD00000004024010B50022B6
:101EE0004FF480710148FEF757FB10BD000402401B
:101EF00038B50446064800944088401E83B2044822
:101F00000088401E82B20021084600F0F9F838BD72
:101F10001200002010B5012291030248FEF73CFB9D
:101F200010BD00000010024010B500224FF48041A7
:101F30000148FEF731FB10BD0010024010B5012230
:101F400091030248FEF728FB10BD0000000C024080
:101F500010B500224FF480410148FEF71DFB10BD73
:101F6000000C02402DE9F04F89B006460F46154699
:101F70009846139C3D480088B04203DD3B484088AA
:101F8000B84202DC09B0BDE8F08F202D01DB7E2DC8
:101F900000DD3F254FF005094FF0070A09FB04F06B
:101FA00008900AFB04F00790042C00DDEAE7A5F195
:101FB000200000EB80002E49084406904FF0000BF3
:101FC0004FEA282040EA082080B2059012980112BA
:101FD00041EA002080B2049000202BE0002225E09E
:101FE00000211FE0069B5B5C034103F001030393A8
:101FF000039B0BB1059B00E0049B0293002301931C
:102000000BE0DC460BF1010BDFF868E0029B2EF8D9
:102010001C30019B5B1CDBB20193019BA342F0DBF4
:102020004B1C99B24945DDDB511CCAB2A242D7DB39
:10203000411C88B25045D1DB07983844401E83B21A
:1020400008983044401E82B23946304600F096F976
:10205000FFF76AFFFFF772FF4FEA4B010548FFF7F2
:102060009DFEFFF757FF00BF8CE700001200002025
:1020700034250008740400202DE9FC4705460E466F
:1020800017469946DDE90A8432E0062000FB045039
:102090001A490988884209DB0025082000FB0460F2
:1020A00086B216484088B04200DC24E0CDE90084C6
:1020B00017F8012B4B4631462846FFF753FFC8451A
:1020C00012D0072101FB0461491E8BB2062101FBDE
:1020D0000451491E8AB2052101FB045188B23146E0
:1020E000CDF8008000F00CF8062000FB045085B20B
:1020F00038780028C9D100BFBDE8FC871200002055
:102100002DE9F84F0746884614461D46DDF828A0FD
:10211000A74201DCA84501DDBDE8F88F234800880F
:10212000A04203DC21480088401E84B21F4840883A
:10213000A84203DC1D484088401E85B22B4622463B
:102140004146384600F01AF9E01B401CA5EB080197
:10215000491C00FB01F64FF400794FEA2A2040EABF
:102160000A2080B20090002004E0114A009922F871
:102170001010401C4845F8D3FFF7D6FEFFF7DEFEEF
:102180000DE04E4501D9484600E0304683464FEA0F
:102190004B010748FFF702FEA6EB0B0600BF002E1F
:1021A000EFD1FFF7B7FE00BFB6E700001200002036
:1021B0007400002010B5FFF75BFDFFF785FE00F00F
:1021C0008DF8112000F024F9C820FEF7E4F8002073
:1021D00000F098F800F006F80020FFF789FEFFF7FE
:1021E0007DFE10BD1FB53A2000F012F9052000F069
:1021F0001BF9B22000F00CF92DA103C9CDE90201B1
:10220000052102A800F0F3F8B72000F001F935200D
:1022100000F00AF9BB2000F0FBF8322000F004F9CE
:10222000C22000F0F5F8012000F0FEF8C32000F015
:10223000EFF8152000F0F8F8C42000F0E9F82020AD
:1022400000F0F2F8C62000F0E3F80F2000F0ECF800
:10225000D02000F0DDF818A000680390022103A848
:1022600000F0C5F8E02000F0D3F814A090E80E00CC
:10227000C0688DE80E0003900E21684600F0B7F8A4
:10228000E12000F0C5F811A3D3E90021D3E902034E
:10229000CDE90203CDE900210E21684600F0A7F840
:1022A000212000F0B5F8292000F0B2F81FBD000091
:1022B0000C0C003333000000A4A10000D0080E096C
:1022C000090531334817141531340000D0080E09C0
:1022D00009153133481714153134000010B50022A8
:1022E00002210748FEF758F93220FEF754F8012280
:1022F00002210348FEF750F97820FEF74CF810BD94
:102300000010024010B504461B480471362000F04E
:102310007FF834B1012C0ED0022C16D0032C28D11A
:102320001DE0F020144908804FF4A0704880002080
:1023300000F07AF81EE04FF4A0700F490880F020FA
:102340004880C02000F070F814E0F0200A490880AE
:102350004FF4A0704880702000F066F80AE04FF457
:10236000A07005490880F0204880A02000F05CF8AB
:1023700000E000BF00BF10BD120000202DE9F05F9B
:1023800004460D4616461F461FFA84F81FFA86F9C2
:102390001FFA85FA1FFA87FB2A2000F039F84FEA66
:1023A000282000F041F808F0FF0000F03DF84FEA67
:1023B000292000F039F809F0FF0000F035F82B2053
:1023C00000F026F84FEA2A2000F02EF80AF0FF006D
:1023D00000F02AF84FEA2B2000F026F80BF0FF005F
:1023E00000F022F82C2000F013F8BDE8F09F70B543
:1023F00005460C4604B970BDFFF796FDFFF79EFD3C
:1024000021462846FFF7CAFCFFF784FD00BFF2E72C
:1024100010B50446FFF788FDFFF79AFD2046FFF749
:10242000C9FCFFF777FD10BD10B50446FFF77CFD32
:10243000FFF784FD2046FFF7BDFCFFF76BFD10BDE5
:102440002DE9F04192B080460C4615461E46002705
:10245000302106A8FDF7EEFE142101A8FDF7EAFEE3
:1024600000BF002000902A48006840F080502849B2
:1024700008600846006800F08050009000BF00BF70
:1024800000BF002000902348006840F480402149AC
:1024900008600846006800F48040009000BF00BF5C
:1024A000012006900004079002200C9041050D9138
:1024B000CDF83C800E941095119606A8FEF7A8FA68
:1024C00007461FB1012012B0BDE8F0810F20019036
:1024D00002200290002003904FF4A05004904FF48B
:1024E00080500590052101A8FEF752F907460FB16B
:1024F0000120E8E7FEF756F841F20101884205D1D4
:102500000548006840F48070034908600020DAE75D
:102510004038024000700040003C024000000000D3
:102520000000000001020304060708090000000083
:1025300001020304000000000000005F000000072B
:10254000000700147F147F14242A7F2A1223130803
:10255000646236495522500005030000001C2241E8
:10256000000041221C0014083E081408083E080818
:1025700000503000000808080808006060000020D3
:10258000100804023E5149453E00427F400042612E
:102590005149462141454B311814127F10274545BA
:1025A00045393C4A494930017109050336494949D1
:1025B00036064949291E003636000000563600000E
:1025C00008142241001414141414004122140802A7
:1025D00001510906324979413E7E1111117E7F4930
:1025E0004949363E414141227F4141221C7F4949B0
:1025F00049417F090909013E4149497A7F08080894
:102600007F00417F41002040413F017F081422416B
:102610007F404040407F020C027F7F0408107F3ED5
:102620004141413E7F090909063E4151215E7F0932
:10263000192946464949493101017F01013F40407E
:10264000403F1F2040201F3F4038403F6314081484
:102650006307087008076151494543007F41410005
:1026600002040810200041417F000402010204809E
:1026700080808080000307000020545454787F48F5
:102680004444383844444420384444487F385454FF
:102690005418087E0901020C5252523E7F0804046D
:1026A0007800447D40002040443D007F10284400D5
:1026B00000417F40007C041804787C0804047838CA
:1026C000444444387C14141408081414187C7C08FE
:1026D0000404084854545420043F4440203C4040E3
:1026E000207C1C2040201C3C4030403C44281028CA
:1026F000440C5050503C4464544C44000836410053
:1027000000007F00000041360800020102040200C0
:10271000302700080000002074000000E81B0008BB
:10272000A427000874000020BC0F0000F81B00085C
:102730000024F40000000000000000001000000071
:102740000100F00040010000000000000000000057
:10275000040000000000000000000000080000006D
:102760000100000000000000100000000200000056
:102770000000000020000000030000000000000036
:102780004000000004000000000000008000000085
:10279000050000000000000000010000060000002D
:0427A0000000000035
:040000050800018965
:00000001FF
