:020000040800F2
:1000000030050020A10100088515000893130008A1
:1000100081150008AD020008211A00080000000048
:10002000000000000000000000000000891500082A
:10003000B102000800000000871500088B150008B9
:10004000BB010008BB010008BB010008BB010008A0
:10005000BB010008BB010008BB010008BB01000890
:10006000BB010008BB010008BB010008BB01000880
:10007000BB010008BB010008BB010008BB01000870
:10008000BB010008BB010008BB010008BB01000860
:10009000BB010008BB010008BB010008BB01000850
:1000A000BB010008BB010008BB010008BB01000840
:1000B000BB010008BB010008BB010008BB01000830
:1000C000BB010008BB010008BB010008BB01000820
:1000D000BB010008111A0008BB010008BB010008A1
:1000E000BB010008BB010008BB010008BB01000800
:1000F000BB010008BB010008BB010008BB010008F0
:10010000BB010008BB010008BB010008BB010008DF
:10011000BB010008BB010008BB010008BB010008CF
:10012000BB010008BB010008BB010008BB010008BF
:10013000BB010008BB010008BB010008BB010008AF
:10014000BB010008BB010008BB010008BB0100089F
:10015000BB010008BB010008BB010008BB0100088F
:10016000BB010008BB010008BB010008BB0100087F
:10017000BB010008BB010008BB0100080000000033
:10018000BB010008BB010008DFF810D000F07CF8CC
:1001900000480047311B0008AFF300803005002005
:1001A0000648804706480047FEE7FEE7FEE7FEE711
:1001B000FEE7FEE7FEE7FEE7FEE7FEE7951500082F
:1001C000890100082DE9F05F0546002092469B4614
:1001D00088460646814640241BE02846414647465D
:1001E000224600F041F853465A46C01A914110D3B6
:1001F00011461846224600F028F82D1A67EB010830
:100200004F4622460120002100F01FF817EB00099D
:100210004E41201EA4F10104DFDC484631462A4647
:100220004346BDE8F09FD2B201E000F8012B491E21
:10023000FBD270470022F6E710B513460A46044683
:100240001946FFF7F0FF204610BD202A04DB203AB4
:1002500000FA02F1002070479140C2F1200320FA19
:1002600003F3194390407047202A04DB203A21FA17
:1002700002F00021704721FA02F3D040C2F12002BF
:100280009140084319467047064C074D06E0E06868
:1002900040F0010394E8070098471034AC42F6D3CD
:1002A000FFF776FF501D0008701D000800BFFEE735
:1002B000704770B50446A56D00F07EF9064694F8C7
:1002C0003500022808D08020606500BF002084F837
:1002D000340000BF012070BD2068006820F01600C7
:1002E000216808602068406920F08000216848612A
:1002F000206C08B9A06C28B12068006820F00800C4
:10030000216808602068006820F00100216808600A
:1003100010E000F051F9801B05280BD92020606502
:10032000032084F8350000BF002084F8340000BFAB
:100330000320D0E72068006800F001000028E8D121
:1003400094F85C103F208840A860012084F83500B4
:1003500000BF002084F8340000BF00BFBBE70146A7
:1003600091F83500022803D08020486501207047AD
:10037000052081F835000868006820F001000A684F
:1003800010600020F3E70000F8B502460B46002598
:10039000002400200021D6E0012606FA01F51E689F
:1003A00006EA0504AC4274D11E7906F00306012E5C
:1003B00004D01E7906F00306022E13D190684F0078
:1003C0000326BE40B0434F00DE68BE40304390601D
:1003D000506801268E40B0431E79C6F300168E4049
:1003E000304350601E7906F00306032E09D0D06812
:1003F0004F000326BE40B0434F009E68BE403043CE
:10040000D0601E7906F00306022E13D1CF0802F148
:10041000200656F827004E07F70E0F26BE40B043C1
:100420004F07FF0E1E69BE403043CF0802F1200681
:1004300046F8270010684F000326BE40B0431E79DF
:1004400006F003064F00BE40304310605E6806F4BD
:100450004036002E76D000BF002600963C4E36680F
:1004600046F480463A4F3E603E46366806F4804683
:10047000009600BF00BF374E8F0856F827008E0742
:10048000370F0F26BE40B043334EB24202D1002692
:1004900024E057E0314EB24201D101261EE0304E39
:1004A000B24201D1022619E02E4EB24201D10326FA
:1004B00014E02D4EB24201D104260FE02B4EB24281
:1004C00001D105260AE02A4EB24201D1062605E0F6
:1004D000284EB24201D1072600E008268F073F0FC1
:1004E000BE4030431B4E8F0846F82700224E30682E
:1004F000A0435E6806F4801606B120431E4E3060AD
:10050000361D3068A0435E6806F4001606B120432D
:10051000194E361D3060184E361F3068A0435E6895
:1005200006F4003606B12043134E361F3060361FE6
:100530003068A0435E6806F4803606B120430E4E54
:10054000083E3060491C1029FFF426AFF8BD0000BA
:1005500044380240083801400000024000040240D4
:1005600000080240000C024000100240001402404B
:1005700000180240001C0240083C0140024613697A
:100580000B400BB1012000E00020704710B542691C
:1005900021EA020302EA010443EA0443836110BD35
:1005A0000AB1816101E00B04836170470148006872
:1005B000000C7047002004E001480068704700000C
:1005C00014000020034800680349097808440149E1
:1005D00008607047140000201C00002010B50A4875
:1005E000006840F40070084908600846006840F45C
:1005F00080600860032000F083F80F2000F006F808
:1006000000F02AF8002010BD003C024070B50446FE
:100610000E4800784FF47A71B1FBF0F00C4909688C
:10062000B1FBF0F5284600F00DFC08B1012070BDCB
:10063000102C07D200222146501E00F022F8054857
:10064000046001E00120F2E70020F0E71C00002038
:1006500004000020180000207047014608460028CA
:100660000DDB00BF00BF00F01F0301229A404309C9
:100670009B0003F1E023C3F8002100BF00BF00BFCF
:1006800070472DE9F05F80460D461646002701F0C1
:10069000D1F9074639462A46334601F00700C0F132
:1006A000070ABAF1040F02D94FF0040A01E0C0F1C1
:1006B000070AD14600F1040ABAF1070F02D24FF03F
:1006C000000A01E0A0F1030AD4464FF0010A0AFA39
:1006D00009FAAAF1010A0AEA020A0AFA0CFA4FF028
:1006E000010B0BFA0CFBABF1010B0BEA030B4AEA13
:1006F0000B042146404601F0A5F9BDE8F09F00003B
:1007000000BF00F00702064B19684FF6FF031940BF
:10071000044B0B4343EA0221014B196000BF7047B1
:100720000CED00E00000FA0570B504460D460CB96A
:10073000012070BD5848006800F00700A84209D2A7
:1007400055490D700846006800F00700A84201D026
:100750000120EEE7207800F0020002281DD1207869
:1007600000F00400042805D14C48006840F4E05033
:100770004A490860207800F00800082805D1474859
:10078000006840F46040454908604448006820F033
:10079000F000A168084341490860207800F001009A
:1007A000A8B36068012807D13C4808380068C0F346
:1007B0004040B8B90120BCE76068022802D06068F8
:1007C000032807D1354808380068C0F3406048B9AD
:1007D0000120AEE7314808380068C0F3400008B98E
:1007E0000120A6E72D48006820F003006168084357
:1007F0002A490860FFF7E0FE064609E0FFF7DCFE45
:10080000801B41F28831884202D9032091E707E03A
:100810002248006800F00C006168B0EB810FEDD158
:100820001D48006800F00700A84209D91A490D7058
:100830000846006800F00700A84201D0012078E7D0
:10084000207800F00400042807D11448006820F440
:10085000E050E168084311490860207800F0080082
:10086000082808D10D48006820F46040216940EA5A
:10087000C1000A49086000F03FF808490968C1F35F
:100880000311074A515CC8400649086006480068E1
:10089000FFF7BCFE00204CE7003C02400838024055
:1008A000381D0008040000201800002001480068DE
:1008B000704700000400002000B5FFF7F7FF04496F
:1008C0000968C1F38221034A515CC84000BD0000A1
:1008D00008380240481D000800B5FFF7E7FF04494B
:1008E0000968C1F34231034A515CC84000BD0000B1
:1008F00008380240481D00082DE9F0470024002573
:100900000026A1462548006800F00C0020B104280C
:1009100005D008283AD105E0DFF8849039E0DFF807
:10092000849036E01D48001F006800F03F041B481B
:10093000001F006800F4800078B11A481749091FA9
:100940000968C1F38811A0FB01700146224600230B
:100950003846FFF737FC05460EE011480F49091FDE
:100960000968C1F38811A0FB0170014622460023EB
:100970003846FFF727FC05460848001F0068C0F30B
:100980000140401C4600B5FBF6F902E0DFF810908C
:1009900000BF00BF4846BDE8F087000008380240AD
:1009A0000024F40000127A00F8B504460CB90120C6
:1009B000F8BD207800F00100002874D0F9480068E4
:1009C00000F00C0004280DD0F648006800F00C0080
:1009D000082813D1F348001F006800F48000B0F528
:1009E000800F0BD1EF4808380068C0F34040002862
:1009F00059D06068002856D10120D9E700BF60684F
:100A0000B0F5803F08D1E7480838006840F48030EE
:100A1000E449083908601EE06068B0F5A02F0DD1E8
:100A2000E0480838006840F48020DE490839086052
:100A30000846006840F4803008600CE0D948083867
:100A4000006820F48030D7490839086008460068FB
:100A500020F48020086000BF606890B1FFF7ACFD13
:100A6000054606E0FFF7A8FD401B642801D90320D6
:100A70009EE7CC4808380068C0F340400028F1D019
:100A800011E0FFF799FD054606E0FFF795FD401BD5
:100A9000642801D903208BE7C24808380068C0F3F6
:100AA00040400028F1D1207800F0020002285FD1F8
:100AB000BC48006800F00C0058B1BA48006800F06B
:100AC0000C0008281CD1B748001F006800F4800003
:100AD000B0B9B44808380068C0F3400020B1E068FD
:100AE000012801D0012063E7AE480838006820F0F3
:100AF000F800216940EAC100AA490839086037E0D6
:100B0000E06800B30120A8490860FFF755FD0546DD
:100B100006E0FFF751FD401B022801D9032047E7FB
:100B2000A04808380068C0F340000028F1D09D4874
:100B30000838006820F0F800216940EAC1009949AE
:100B40000839086014E0002097490860FFF734FD79
:100B5000054606E0FFF730FD401B022801D90320BF
:100B600026E7904808380068C0F340000028F1D11B
:100B7000207800F0080008282CD16069A8B1012075
:100B80008A490860FFF718FD054606E0FFF714FDE7
:100B9000401B022801D903200AE782486C30006814
:100BA000C0F340000028F1D014E000207F49086025
:100BB000FFF702FD054606E0FFF7FEFC401B02289A
:100BC00001D90320F4E677486C300068C0F3400098
:100BD0000028F1D1207800F00400042870D100270B
:100BE00070483830006800F0805090B900BF002095
:100BF00000906C483830006840F0805069493831C6
:100C000008600846006800F08050009000BF00BFF8
:100C100001276748006800F48070B0B96448006834
:100C200040F4807062490860FFF7C6FC054606E0A4
:100C3000FFF7C2FC401B022801D90320B8E65C483C
:100C4000006800F480700028F2D000BFA06801287E
:100C500008D154486830006840F0010051496831BB
:100C600008601DE0A06805280DD14E486830006876
:100C700040F004004B49683108600846006840F0C5
:100C8000010008600CE047486830006820F001006F
:100C90004449683108600846006820F00400086094
:100CA00000BFA068A8B1FFF787FC054609E0FFF781
:100CB00083FC401B41F28831884202D9032077E649
:100CC00026E0384868300068C0F340000028EED0C5
:100CD00013E0FFF771FC054608E0FFF76DFC401BD1
:100CE00041F28831884201D9032061E62D486830FD
:100CF0000068C0F340000028EFD1012F07D1294838
:100D00003830006820F0805026493831086000BF34
:100D1000A069002845D02348006800F00C0008288E
:100D20005DD0A069022845D100201F490866FFF761
:100D300043FC054606E0FFF73FFC401B022801D9B3
:100D4000032035E6174808380068C0F340600028E3
:100D5000F1D1D4E907010843616A40EA8111012217
:100D6000A06AC2EB500041EA00412C20005D41EA3C
:100D700000600C49091F086001200B490866FFF755
:100D80001BFC054606E0FFF717FC401B022801D9B3
:100D900003200DE6034808380068C0F340600028CF
:100DA000F1D049E00838024000004742800E474237
:100DB00000700040002021490866FFF7FDFB054652
:100DC00006E0FFF7F9FB401B022801D90320EFE5FD
:100DD0001B480068C0F340600028F2D12CE0A069F5
:100DE000012800D1E4E51648001D0668A069012825
:100DF00020D006F48001E06981421BD106F03F015A
:100E0000206A814216D147F6C0703040616AB0EB6B
:100E1000811F0FD106F440310122A06AC2EB5000BD
:100E2000B1EB004F06D106F070612C20005DB1EBF4
:100E3000006F01D00120BBE50020B9E5000047426A
:100E40000038024070B504462546681EB0F1807F28
:100E500001D301200FE0681E4FF0E02148610F210F
:100E60004FF0FF3000F0EEFD00204FF0E0218861F0
:100E700007200861002070BD704770472DE9F84FCA
:100E80000446206805682068C668206847694FF0F6
:100E90000009CA4605F00F09B9F1000F0AD105F0A3
:100EA000200038B106F0200020B1204600F0CBFB36
:100EB000BDE8F88FB9F1000F7CD007F0010018B938
:100EC00006F49070002875D005F0010030B106F4EA
:100ED000807018B1606C40F00100606405F004009F
:100EE00030B107F0010018B1606C40F0020060649E
:100EF00005F0020030B107F0010018B1606C40F05D
:100F00000400606405F0080048B106F0200010B944
:100F100007F0010018B1606C40F008006064606C7C
:100F2000002846D005F0200028B106F0200010B1BE
:100F3000204600F088FB20684069C0F3801A606C8E
:100F400000F0080010B9BAF1000F2DD0204600F0D3
:100F500034FB2068406900F04000402820D100BFE9
:100F600000BF2168143151E8001F21F040002168C2
:100F7000143141E80002002AF3D100BFE06B50B108
:100F80007F48E16B0865E06BFFF7E9F988B1E06B3A
:100F9000016D88470DE02046FFF76FFF09E009E08B
:100FA0002046FFF76AFF04E02046FFF766FF0020B7
:100FB00060647DE7206B012878D105F010000028DF
:100FC00074D006F010000028FAD000BF0020009076
:100FD00020680068009020684068009000BF00BF53
:100FE0002068406900F04000402870D1E06B006844
:100FF00040681FFA80F8B8F1000F58D0A08D404526
:1010000055DDA4F82E80E06BC069B0F5807F43D039
:1010100000BF00BF21680C3151E8001F21F480702F
:1010200021680C3141E80002002AF3D100BF00BF63
:1010300000BF2168143151E8001F21F00100216830
:10104000143141E80002002AF3D100BF00BF00BF05
:101050002168143151E8001F21F04000216814314B
:1010600041E80002002AF3D100BF202084F84200AA
:101070000020206300BF00BF21680C3151E8001F31
:1010800021F0100021680C3141E80002002AF3D160
:1010900000BFE06BFFF70DF902206063A08DE28DC9
:1010A000801A81B22046FFF7E7FE0EE052E0A08DE5
:1010B00040450AD1E06BC069B0F5807F05D10220C0
:1010C0006063A18D2046FFF7D7FEF1E6FFE7A08D14
:1010D000E18D401A1FFA80F8E08DD0B3B8F1000F0F
:1010E00037D000BF00BF21680C3151E8001F21F448
:1010F000907021680C3141E80002002AF3D100BF52
:1011000000BF00BF2168143151E8001F21F0010029
:101110002168143141E80002002AF3D100BF2020E9
:1011200084F842000020206300BF00BF21680C311A
:1011300051E8001F21F0100021680C3141E8000245
:10114000002AF3D100BF0220606341462046FFF72A
:1011500093FEADE605F0800030B106F0800018B1D6
:10116000204600F025FCA3E605F0400030B106F073
:10117000400018B1204600F056FA99E600BF97E605
:10118000A915000810B504460CB9012010BDA069CE
:1011900000B100E000BF94F8410028B9002084F8B5
:1011A0004000204600F02AF8242084F841002068FE
:1011B000C06820F400502168C860204600F0C2FAE0
:1011C0002068006920F49040216808612068406927
:1011D00020F02A00216848612068C06840F400506F
:1011E0002168C86000206064202084F8410084F8F1
:1011F00042000020606300BFC8E7000010B586B061
:1012000004462E492068884255D100BF00BF002007
:1012100000902B48006840F01000294908600846FB
:10122000006800F01000009000BF00BF00BF00BFCA
:1012300000BF0020009022481438006840F00100F0
:101240001F49143908600846006800F0010000904A
:1012500000BF00BF00BF00BF00BF002000900846D5
:10126000006840F0010008600846006800F00100D6
:10127000009000BF00BF00BF4815019002200290FF
:1012800001200390022004900720059001A90D4839
:10129000FFF77AF84FF4806001900720059001A9CC
:1012A0000848FFF771F82520FFF7D7F90322114608
:1012B0002520FFF7E6F906B010BD00000010014040
:1012C000443802400000024070B504460D46164600
:1012D00094F8420020280BD105B10EB9012070BD51
:1012E0000020206332462946204600F041FBF6E705
:1012F0000220F4E710B504462049206888423BD11B
:101300001F48008800F4004088BB1D48008800F496
:10131000804070B11B4800780A2803D0002018498B
:10132000088024E01648008840F4004014490880F2
:101330001DE0144800780D2806D11148008840F4BB
:1013400080400F49088012E00E4800780C49098857
:10135000C1F30D010C4A505409480088401C08494B
:10136000088008460088C72801DD00200880012287
:1013700004490648FFF7A8FF10BD00000010014017
:101380000C0000200E00002020000020E8000020BB
:10139000704700BFFEE7000000B587B0142102A827
:1013A000FEF748FF00BF002001902248006840F08F
:1013B0000100204908600846006800F00100019023
:1013C00000BF00BF00BF002001900846006840F049
:1013D000040008600846006800F00400019000BFA7
:1013E00000BF00BF002001900846006840F01000D8
:1013F00008600846006800F01000019000BF00BFC0
:1014000001200290002003900120049002A90A48C4
:10141000FEF7BAFF4FF40050029002A90748FEF70A
:10142000B3FF4FF48070029002A90548FEF7ACFFAD
:1014300007B000BD30380240000002400008024002
:101440000010024010B501212748FFF797F8012846
:1014500011D10A2000F030FB01212348FFF78EF85C
:10146000012808D100BF01211F48FFF787F8012894
:10147000F9D0012010BD4FF480711C48FFF77EF8B1
:10148000012813D10A2000F017FB4FF48071174890
:10149000FFF774F8012809D100BF4FF48071134899
:1014A000FFF76CF80128F8D00220E3E74FF4005171
:1014B0000F48FFF763F8012813D10A2000F0FCFA67
:1014C0004FF400510A48FFF759F8012809D100BF2D
:1014D0004FF400510648FFF751F80128F8D00320D7
:1014E000C8E70020C6E700000000024000100240EC
:1014F0000008024000B587B000BF002001900F48EF
:10150000006840F002000D4908600846006800F0DD
:101510000200019000BF00BF142102A8FEF78AFE5E
:101520004FF48070029001200390002004900590F9
:1015300002A90348FEF728FF07B000BD303802407B
:101540000004024010B5012211020248FFF728F8FA
:1015500010BD00000004024010B500224FF480715D
:101560000148FFF71DF810BD0004024010B54FF40C
:1015700080710248FFF70AF810BD00000004024025
:1015800000BFFEE770477047704710B5FFF71AF8C5
:1015900010BD00000348006840F470000149086075
:1015A0007047000088ED00E070B50446A56B002090
:1015B000E8852846FFF761FC70BD00BF00BF0268E8
:1015C0000C3252E8002F22F4907102680C3242E88B
:1015D0000013002BF3D100BF00BF00BF026814321C
:1015E00052E8002F22F001010268143242E8001391
:1015F000002BF3D100BF016B01290ED100BF00BF4A
:1016000002680C3252E8002F22F0100102680C32FE
:1016100042E80013002BF3D100BF202180F84210D4
:1016200000210163704710B504462068C06820F0AF
:1016300040002168C860202084F841002046FFF760
:10164000A7FE002010BDF8B504460025002694F83A
:101650004200222873D1A068B0F5805F0BD12069C9
:1016600048B9A66A20684068C0F308003080A06AC4
:10167000801CA06214E0A56AA068B0F5805F03D06A
:10168000A06828B9206918B920684068287004E06B
:101690002068406800F07F002870A06A401CA062AB
:1016A000E08D401E80B2E085002846D12068C068E9
:1016B00020F020002168C8602068C06820F4807095
:1016C0002168C8602068406920F0010021684861F5
:1016D000202084F8420000206063206B012826D17E
:1016E0000020206300BF00BF21680C3151E8001FBB
:1016F00021F0100021680C3141E80002002AF3D1EA
:1017000000BF2068006800F0100010280AD100BF58
:1017100000200090206800680090206840680090D9
:1017200000BF00BFA18D2046FFF7A6FB02E02046C8
:10173000FFF7E0FD0020F8BD01E00020FBE70220FC
:10174000F9E700002DE9F84F04462068006920F40D
:101750004050E1680843216808612169A068084396
:1017600061690843E169084300902068C06849F254
:101770000C618843009908432168C860206840696B
:1017800020F44070A16908432168486176492068C7
:10179000884203D075492068884203D1FFF79CF83E
:1017A000814602E0FFF788F88146E069B0F5004F16
:1017B0006CD102206168A0FB015003461920A9FBEF
:1017C000007001462A463846FEF7FCFC6421B0FB57
:1017D000F1F04FEA001A02206168A0FB01510B46AC
:1017E0001920A9FB00712A463846FEF7EBFC834618
:1017F00002206168A0FB015003461920A9FB00717B
:101800002A463846FEF7DEFC6421B0FBF1F000EB1F
:10181000C00101EB0010ABEB8000322101EBC000F6
:101820006421B0FBF1F000F0F8000AEB400A02205E
:101830006168A0FB015003461920A9FB0070014616
:101840002A463846FEF7BEFC834602206168A0FBAC
:10185000015003461920A9FB00712A463846FEF7BD
:10186000B1FC6421B0FBF1F000EBC00101EB001012
:10187000ABEB8000322101EBC0006421B0FBF1F042
:1018800000F007005044216888606AE00420616825
:10189000A0FB015003461920A9FB007001462A460F
:1018A0003846FEF78FFC824604206168A0FB015099
:1018B00003461920A9FB007001462A463846FEF768
:1018C00081FC6421B0FBF1F000EBC00101EB0010E2
:1018D000AAEB8000322101EB00106421B0FBF1F093
:1018E00000F0F00A04206168A0FB01700346192093
:1018F000A9FB00513A462846FEF764FC6421B0FB80
:10190000F1F00AEB001A04206168A0FB01510B46BC
:101910001920A9FB00712A463846FEF753FC83467E
:1019200004206168A0FB015003461920A9FB007048
:1019300001462A463846FEF745FC6421B0FBF1F02B
:1019400000EBC00101EB0010ABEB8000322101EB9A
:1019500000106421B0FBF1F000F00F00504421684A
:101960008860BDE8F88F00000010014000140140BD
:1019700010B5034699629A85DA85002058642220C2
:1019800083F84200186928B11868C06840F4807074
:101990001C68E0601868406940F001001C686061E4
:1019A0001868C06840F020001C68E060002010BD8E
:1019B000014691F84100212828D18868B0F5805F60
:1019C0000BD1086948B90A6A1088C0F308000B688F
:1019D0005860086A801C086205E00B6A581C08629F
:1019E00018780B685860C88C401E80B2C88458B9FB
:1019F0000868C06820F080000B68D8600868C0687C
:101A000040F040000B68D860002070470220FCE7DF
:101A100010B50248FFF732FA10BD0000E8000020C0
:101A200000BFFEE7014A024900F02FB8151B00086D
:101A30000800002002480068C0F302207047000040
:101A40000CED00E010B5002804DB0A07130E054A70
:101A5000135406E00A07140E034A00F00F031B1F7D
:101A6000D45410BD00E400E018ED00E002E008C826
:101A7000121F08C1002AFAD170477047002001E008
:101A800001C1121F002AFBD170472DE9F041164613
:101A90000F460446002503E03946B047641C6D1C20
:101AA00020780028F8D12846BDE8F0810149086077
:101AB000704700001000002010B504464FF47A7102
:101AC00004FB01F000F002F810BD000070B5034601
:101AD00000224FF0E02675690D4E366803FB06F4D0
:101AE0004FF0E026B16910E04FF0E026B06988427F
:101AF0000BD0884202D20E1A324402E02E1A0E4453
:101B000032440146A24200D300E0EDE700BF70BDC1
:101B10001000002000BF054A126802F04002002AAF
:101B2000F9D0C2B2014B5A6070470000001001406A
:101B3000FEF754FD0723022208214FF4A87000F09D
:101B400071F8A820FFF7B2FF4FF4E13000F0D8F8A9
:101B5000FFF7D0FCFFF720FC17A0FFF763FF29E099
:101B6000FFF770FC1849087008460078012808D172
:101B7000FFF7F2FC15A0FFF755FF17A0FFF752FF84
:101B800018E011480078022808D1FFF7DBFC16A006
:101B9000FFF748FF17A0FFF745FF0BE00A48007862
:101BA000032807D1FFF7E2FC16A0FFF73BFF19A0BF
:101BB000FFF738FFD4E7000048656C6C6FEFBC8C12
:101BC000576F726C64000000000000204C454420F8
:101BD0004F4E210A000000004B657931205072659C
:101BE00073736564210A00004C4544204F4646212A
:101BF0000A0000004B65793220507265737365648A
:101C0000210A00004C454420544F47474C45210AC7
:101C1000000000004B657933205072657373656472
:101C2000210A00002DE9F04192B080460C4615468D
:101C30001E460027302106A8FEF7FCFA142101A851
:101C4000FEF7F8FA00BF002000902A48006840F034
:101C50008050284908600846006800F080500090D5
:101C600000BF00BF00BF002000902348006840F480
:101C70008040214908600846006800F480400090D8
:101C800000BF00BF012006900004079002200C90C6
:101C900041050D91CDF83C800E941095119606A843
:101CA000FEF782FE07461FB1012012B0BDE8F081A9
:101CB0000F20019002200290002003904FF4A050CA
:101CC00004904FF480500590052101A8FEF72CFDEB
:101CD00007460FB10120E8E7FEF768FC41F2010179
:101CE000884205D10548006840F4807003490860C7
:101CF0000020DAE74038024000700040003C02401B
:101D000010B5044609480A490860084644600021A5
:101D10008160C160016181610C214161FFF732FA8C
:101D2000012204490248FFF7CFFA10BD001001401C
:101D3000E80000200E00002000000000000000006D
:101D40000102030406070809000000000102030461
:101D5000701D000800000020200000006C1A000820
:101D6000901D000820000020100500007C1A0008CB
:101D7000000000000024F40000000000000000004B
:101D80000000000000000000100000000100000042
:040000050800018965
:00000001FF
