:020000040800F2
:1000000070070020A1010008991800089118000845
:100010009518000837070008811F0008000000003D
:100020000000000000000000000000009D18000813
:100030003B070008000000009B1800089F180008FC
:10004000BB010008BB010008BB010008BB010008A0
:10005000BB010008BB010008BB010008BB01000890
:10006000BB010008BB010008BB010008BB01000880
:10007000BB010008BB010008BB010008BB01000870
:10008000BB010008BB010008BB010008BB01000860
:10009000BB010008BB010008BB010008BB01000850
:1000A000BB010008BB010008BB010008BB01000840
:1000B000BB010008BB010008BB010008BB01000830
:1000C000BB010008BB010008BB010008BB01000820
:1000D000BB010008711F0008BB010008BB0100083C
:1000E000BB010008BB010008BB010008BB01000800
:1000F000BB010008BB010008BB010008BB010008F0
:10010000BB010008BB010008BB010008BB010008DF
:10011000BB010008BB010008BB010008BB010008CF
:10012000BB010008BB010008BB010008BB010008BF
:10013000BB010008BB010008BB010008BB010008AF
:10014000BB010008BB010008BB010008BB0100089F
:10015000BB010008BB010008BB010008BB0100088F
:10016000BB010008BB010008BB010008BB0100087F
:10017000BB010008BB010008BB0100080000000033
:10018000BB010008BB010008DFF810D000F052FAF4
:1001900000480047252A0008AFF3008070070020C0
:1001A0000648804706480047FEE7FEE7FEE7FEE711
:1001B000FEE7FEE7FEE7FEE7FEE7FEE7A918000818
:1001C000890100082DE9F05F0546002092469B4614
:1001D00088460646814640241BE02846414647465D
:1001E000224600F05EF853465A46C01A914110D399
:1001F00011461846224600F045F82D1A67EB010813
:100200004F4622460120002100F03CF817EB000980
:100210004E41201EA4F10104DFDC484631462A4647
:100220004346BDE8F09FD2B201E000F8012B491E21
:10023000FBD270470022F6E710B513460A46044683
:100240001946FFF7F0FF204610BD421C10F8011BB5
:100250000029FBD1801A704730B50B4601460020BB
:100260002022012409E021FA02F59D4205D303FA78
:1002700002F5491B04FA02F52844151EA2F10102F9
:10028000F1DC30BD202A04DB203A00FA02F1002024
:1002900070479140C2F1200320FA03F319439040C4
:1002A0007047202A04DB203A21FA02F0002170472F
:1002B00021FA02F3D040C2F12002914008431946CE
:1002C00070472DE9FE4F804681EA0300C00F0C46BF
:1002D000009021F0004123F00045B8EB0200A94155
:1002E00005D24046214690461C460B46024623F066
:1002F0000040104347D0270DC7F30A00C3F30A514B
:100300000290401A019040286BDAC3F3130040F4C6
:10031000801B0098924620B10023D2EB030A63EBC6
:100320000B0B01985946C0F140025046FFF7AAFF57
:1003300006460D4650465946019A00F08DF910EBDD
:1003400008006141002487EA115284EAE7731A43E6
:1003500040D0009A62B3019A012A4FEA075215DC95
:10036000001B61EB02014FF0004202EA0752CDE9A7
:100370000042001C41F5801132462B4600F08DF9F9
:1003800003B0BDE8F08F40462146F9E7001B61EB62
:100390000201001C41F5801300185B412018A2F5F2
:1003A000001747EB030140EAD570B6196D4111E023
:1003B0006D084FEA360645EAC0754FEA0752001B42
:1003C00061EB0201001C41F5801149084FEA300041
:1003D0000019514132462B4603B0BDE8F04F00F002
:1003E0004DB90098012240000023D0EB020263EBDC
:1003F000E073009821464FEAE074B8EB000061EB2F
:100400000401E9E783F000435BE781F0004158E72E
:100410002DE9FE4F81EA030404F0004421F000417D
:1004200000944FF0000B23F0004350EA01045ED02B
:1004300052EA03045BD0C3F30A54C1F30A552C44B7
:10044000A4F2F3340194A0FB0254C1F3130141F46C
:100450008011C3F3130343F4801301FB024400FB38
:10046000034E840A970A44EA815447EA8357A4FB5F
:10047000076802958D0A05FB07854FEA932C04FB5C
:100480000C542705029D4FEA065847EA1637B5EB8C
:1004900008056EEB070C870E920E47EA811742EAB9
:1004A0008312A7FB0201B6EB0B0164EB00042B0DDA
:1004B00043EA0C335E1844EB1C50DA465146E7FB26
:1004C0000201C5F313044FEA0B3343EA14534FEA16
:1004D0000432019C43EA0603A4F10C040294009C3C
:1004E000CDE900B400F0D9F803B0BDE8F08F0020EA
:1004F0000146F9E72DE9F04D81EA030404F0004BD1
:1005000021F0004514464FF0000A23F0004150EA64
:10051000050220D054EA01021DD0C5F30A57024655
:10052000C5F31303C1F31300C1F30A5640F4801559
:1005300043F48013A7EB0608101BD64608F2FD38DB
:1005400073EB050002D308F1010801E092185B414A
:10055000B8F1000F03DA00200146BDE8F08D00205D
:100560004FF48011064684460EE0171B73EB050717
:1005700005D3121B63EB050306434CEA010C490843
:100580004FEA300092185B4150EA0107EDD152EA80
:10059000030012D082EA040083EA0501084305D073
:1005A000101BAB4106D20122002306E000224FF0CF
:1005B000004302E06FF0010253101AEB06004CEB0F
:1005C000085110EB0A0041EB0B01BDE8F04D00F0C3
:1005D00055B8C1F30A52C1F3130140F2FF3341F49D
:1005E00080119A4202DA00200146704740F23343FC
:1005F0009A42A2F2334202DC5242FFF752BEFFF7A8
:1006000041BE000030B5041E71F1000404DB4FF060
:100610000044404264EB0101141E73F1000405DB49
:100620001C464FF00043524263EB0403994208BF5B
:10063000904230BD064C074D06E0E06840F00103F3
:1006400094E8070098471034AC42F6D3FFF7A0FDBA
:100650005430000874300008202A06DBCB17203AFB
:1006600041FA02F043EAE07306E041FA02F3D040B7
:10067000C2F12002914008431946704710B5141E7C
:1006800073F1000408DA401C41F1000192185B414B
:100690001A4301D120F0010010BD2DE9F04D924622
:1006A0009B4611B1B1FA81F202E0B0FA80F2203239
:1006B0009046FFF7E7FD04460F4640EA0A0041EA8C
:1006C0000B0153465A46084313D0114653EA010022
:1006D00019D0C8F140025046FFF7E3FD05460E462B
:1006E000504659464246FFF7CDFD084305D001204C
:1006F00004E020463946BDE8F08D0020054346EA77
:10070000E0762C4337430A986305E40AA0EB08001F
:100710000022FD0A44EA47540A3002D5002001466F
:10072000E9E7010510196941DDE90845001969414A
:10073000BDE8F04DA2E700BFFEE7704770B5044684
:10074000A56D00F071F9064694F83500022808D02E
:100750008020606500BF002084F8340000BF0120C5
:1007600070BD2068006820F01600216808602068CD
:10077000406920F0800021684861206C08B9A06CB5
:1007800028B12068006820F008002168086020680F
:10079000006820F001002168086010E000F044F9D2
:1007A000801B05280BD920206065032084F83500C4
:1007B00000BF002084F8340000BF0320D0E7206889
:1007C000006800F001000028E8D194F85C103F2098
:1007D0008840A860012084F8350000BF002084F81C
:1007E000340000BF00BFBBE7014691F83500022886
:1007F00003D08020486501207047052081F835002E
:100800000868006820F001000A6810600020F3E723
:1008100010B50446A0B202F03DF810BDF8B502468E
:100820000B460025002400200021D6E0012606FA10
:1008300001F51E6806EA0504AC4274D11E7906F083
:100840000306012E04D01E7906F00306022E13D1F2
:1008500090684F000326BE40B0434F00DE68BE40A4
:1008600030439060506801268E40B0431E79C6F335
:1008700000168E40304350601E7906F00306032EAA
:1008800009D0D0684F000326BE40B0434F009E6899
:10089000BE403043D0601E7906F00306022E13D10D
:1008A000CF0802F1200656F827004E07F70E0F2654
:1008B000BE40B0434F07FF0E1E69BE403043CF0815
:1008C00002F1200646F8270010684F000326BE40BC
:1008D000B0431E7906F003064F00BE40304310605F
:1008E0005E6806F44036002E76D000BF00260096E3
:1008F0003C4E366846F480463A4F3E603E46366887
:1009000006F48046009600BF00BF374E8F0856F8A9
:1009100027008E07370F0F26BE40B043334EB2423A
:1009200002D1002624E057E0314EB24201D1012627
:100930001EE0304EB24201D1022619E02E4EB242E4
:1009400001D1032614E02D4EB24201D104260FE05E
:100950002B4EB24201D105260AE02A4EB24201D105
:10096000062605E0284EB24201D1072600E00826FF
:100970008F073F0FBE4030431B4E8F0846F82700BD
:10098000224E3068A0435E6806F4801606B120430C
:100990001E4E3060361D3068A0435E6806F40016B7
:1009A00006B12043194E361D3060184E361F306890
:1009B000A0435E6806F4003606B12043134E361F8E
:1009C0003060361F3068A0435E6806F4803606B19A
:1009D00020430E4E083E3060491C1029FFF426AF1C
:1009E000F8BD0000443802400838014000000240D1
:1009F0000004024000080240000C024000100240C7
:100A00000014024000180240001C0240083C014053
:100A10000AB1816101E00B048361704701480068FD
:100A2000000C7047002004E0014800687047000097
:100A30000800002003480068034909780844014978
:100A400008607047080000201000002010B50A4818
:100A5000006840F40070084908600846006840F4E7
:100A600080600860032000F083F80F2000F006F893
:100A700000F02AF8002010BD003C024070B504468A
:100A80000E4800784FF47A71B1FBF0F00C49096818
:100A9000B1FBF0F5284600F00DFC08B1012070BD57
:100AA000102C07D200222146501E00F022F80548E3
:100AB000046001E00120F2E70020F0E710000020D0
:100AC000000000200C000020704701460846002866
:100AD0000DDB00BF00BF00F01F0301229A40430955
:100AE0009B0003F1E023C3F8002100BF00BF00BF5B
:100AF00070472DE9F05F80460D461646002701F04D
:100B000051FA074639462A46334601F00700C0F13C
:100B1000070ABAF1040F02D94FF0040A01E0C0F14C
:100B2000070AD14600F1040ABAF1070F02D24FF0CA
:100B3000000A01E0A0F1030AD4464FF0010A0AFAC4
:100B400009FAAAF1010A0AEA020A0AFA0CFA4FF0B3
:100B5000010B0BFA0CFBABF1010B0BEA030B4AEA9E
:100B60000B042146404601F025FABDE8F09F000045
:100B700000BF00F00702064B19684FF6FF0319404B
:100B8000044B0B4343EA0221014B196000BF70473D
:100B90000CED00E00000FA0570B504460D460CB9F6
:100BA000012070BD5848006800F00700A84209D233
:100BB00055490D700846006800F00700A84201D0B2
:100BC0000120EEE7207800F0020002281DD12078F5
:100BD00000F00400042805D14C48006840F4E050BF
:100BE0004A490860207800F00800082805D14748E5
:100BF000006840F46040454908604448006820F0BF
:100C0000F000A168084341490860207800F0010025
:100C1000A8B36068012807D13C4808380068C0F3D1
:100C20004040B8B90120BCE76068022802D0606883
:100C3000032807D1354808380068C0F3406048B938
:100C40000120AEE7314808380068C0F3400008B919
:100C50000120A6E72D48006820F0030061680843E2
:100C60002A490860FFF7E0FE064609E0FFF7DCFED0
:100C7000801B41F28831884202D9032091E707E0C6
:100C80002248006800F00C006168B0EB810FEDD1E4
:100C90001D48006800F00700A84209D91A490D70E4
:100CA0000846006800F00700A84201D0012078E75C
:100CB000207800F00400042807D11448006820F4CC
:100CC000E050E168084311490860207800F008000E
:100CD000082808D10D48006820F46040216940EAE6
:100CE000C1000A49086000F03FF808490968C1F3EB
:100CF0000311074A515CC84006490860064800686D
:100D0000FFF7BCFE00204CE7003C024008380240E0
:100D10003C300008000000200C0000200148006862
:100D2000704700000000002000B5FFF7F7FF0449FE
:100D30000968C1F38221034A515CC84000BD00002C
:100D4000083802404C30000800B5FFF7E7FF0449BF
:100D50000968C1F34231034A515CC84000BD00003C
:100D6000083802404C3000082DE9F04700240025E7
:100D70000026A1462548006800F00C0020B1042898
:100D800005D008283AD105E0DFF8849039E0DFF893
:100D9000849036E01D48001F006800F03F041B48A7
:100DA000001F006800F4800078B11A481749091F35
:100DB0000968C1F38811A0FB017001462246002397
:100DC0003846FFF7FFF905460EE011480F49091FA5
:100DD0000968C1F38811A0FB017001462246002377
:100DE0003846FFF7EFF905460848001F0068C0F3D2
:100DF0000140401C4600B5FBF6F902E0DFF8109018
:100E000000BF00BF4846BDE8F08700000838024038
:100E10000024F40000127A00F8B504460CB9012051
:100E2000F8BD207800F00100002874D0F94800686F
:100E300000F00C0004280DD0F648006800F00C000B
:100E4000082813D1F348001F006800F48000B0F5B3
:100E5000800F0BD1EF4808380068C0F340400028ED
:100E600059D06068002856D10120D9E700BF6068DA
:100E7000B0F5803F08D1E7480838006840F480307A
:100E8000E449083908601EE06068B0F5A02F0DD174
:100E9000E0480838006840F48020DE4908390860DE
:100EA0000846006840F4803008600CE0D9480838F3
:100EB000006820F48030D749083908600846006887
:100EC00020F48020086000BF606890B1FFF7ACFD9F
:100ED000054606E0FFF7A8FD401B642801D9032062
:100EE0009EE7CC4808380068C0F340400028F1D0A5
:100EF00011E0FFF799FD054606E0FFF795FD401B61
:100F0000642801D903208BE7C24808380068C0F381
:100F100040400028F1D1207800F0020002285FD183
:100F2000BC48006800F00C0058B1BA48006800F0F6
:100F30000C0008281CD1B748001F006800F480008E
:100F4000B0B9B44808380068C0F3400020B1E06888
:100F5000012801D0012063E7AE480838006820F07E
:100F6000F800216940EAC100AA490839086037E061
:100F7000E06800B30120A8490860FFF755FD054669
:100F800006E0FFF751FD401B022801D9032047E787
:100F9000A04808380068C0F340000028F1D09D4800
:100FA0000838006820F0F800216940EAC10099493A
:100FB0000839086014E0002097490860FFF734FD05
:100FC000054606E0FFF730FD401B022801D903204B
:100FD00026E7904808380068C0F340000028F1D1A7
:100FE000207800F0080008282CD16069A8B1012001
:100FF0008A490860FFF718FD054606E0FFF714FD73
:10100000401B022801D903200AE782486C3000689F
:10101000C0F340000028F1D014E000207F490860B0
:10102000FFF702FD054606E0FFF7FEFC401B022825
:1010300001D90320F4E677486C300068C0F3400023
:101040000028F1D1207800F00400042870D1002796
:1010500070483830006800F0805090B900BF002020
:1010600000906C483830006840F080506949383151
:1010700008600846006800F08050009000BF00BF84
:1010800001276748006800F48070B0B964480068C0
:1010900040F4807062490860FFF7C6FC054606E030
:1010A000FFF7C2FC401B022801D90320B8E65C48C8
:1010B000006800F480700028F2D000BFA06801280A
:1010C00008D154486830006840F001005149683147
:1010D00008601DE0A06805280DD14E486830006802
:1010E00040F004004B49683108600846006840F051
:1010F000010008600CE047486830006820F00100FB
:101100004449683108600846006820F0040008601F
:1011100000BFA068A8B1FFF787FC054609E0FFF70C
:1011200083FC401B41F28831884202D9032077E6D4
:1011300026E0384868300068C0F340000028EED050
:1011400013E0FFF771FC054608E0FFF76DFC401B5C
:1011500041F28831884201D9032061E62D48683088
:101160000068C0F340000028EFD1012F07D12948C3
:101170003830006820F0805026493831086000BFC0
:10118000A069002845D02348006800F00C0008281A
:101190005DD0A069022845D100201F490866FFF7ED
:1011A00043FC054606E0FFF73FFC401B022801D93F
:1011B000032035E6174808380068C0F3406000286F
:1011C000F1D1D4E907010843616A40EA81110122A3
:1011D000A06AC2EB500041EA00412C20005D41EAC8
:1011E00000600C49091F086001200B490866FFF7E1
:1011F0001BFC054606E0FFF717FC401B022801D93F
:1012000003200DE6034808380068C0F3406000285A
:10121000F1D049E00838024000004742800E4742C2
:1012200000700040002021490866FFF7FDFB0546DD
:1012300006E0FFF7F9FB401B022801D90320EFE588
:101240001B480068C0F340600028F2D12CE0A06980
:10125000012800D1E4E51648001D0668A0690128B0
:1012600020D006F48001E06981421BD106F03F01E5
:10127000206A814216D147F6C0703040616AB0EBF7
:10128000811F0FD106F440310122A06AC2EB500049
:10129000B1EB004F06D106F070612C20005DB1EB80
:1012A000006F01D00120BBE50020B9E500004742F6
:1012B0000038024070B504462546681EB0F1807FB4
:1012C00001D301200FE0681E4FF0E02148610F219B
:1012D0004FF0FF3000F06EFE00204FF0E0218861FB
:1012E00007200861002070BD704770472DE9F84F56
:1012F0000446206805682068C668206847694FF082
:101300000009CA4605F00F09B9F1000F0AD105F02E
:10131000200038B106F0200020B1204600F0AFFBDD
:10132000BDE8F88FB9F1000F7CD007F0010018B9C3
:1013300006F49070002875D005F0010030B106F475
:10134000807018B1606C40F00100606405F004002A
:1013500030B107F0010018B1606C40F00200606429
:1013600005F0020030B107F0010018B1606C40F0E8
:101370000400606405F0080048B106F0200010B9D0
:1013800007F0010018B1606C40F008006064606C08
:10139000002846D005F0200028B106F0200010B14A
:1013A000204600F06CFB20684069C0F3801A606C36
:1013B00000F0080010B9BAF1000F2DD0204600F05F
:1013C00086FA2068406900F04000402820D100BF24
:1013D00000BF2168143151E8001F21F0400021684E
:1013E000143141E80002002AF3D100BFE06B50B194
:1013F0007F48E16B0865E06BFFF7F6F988B1E06BB9
:10140000016D88470DE02046FFF76FFF09E009E016
:101410002046FFF76AFF04E02046FFF766FF002042
:1014200060647DE7206B012878D105F0100000286A
:1014300074D006F010000028FAD000BF0020009001
:1014400020680068009020684068009000BF00BFDE
:101450002068406900F04000402870D1E06B0068CF
:1014600040681FFA80F8B8F1000F58D0A08D4045B1
:1014700055DDA4F82E80E06BC069B0F5807F43D0C5
:1014800000BF00BF21680C3151E8001F21F48070BB
:1014900021680C3141E80002002AF3D100BF00BFEF
:1014A00000BF2168143151E8001F21F001002168BC
:1014B000143141E80002002AF3D100BF00BF00BF91
:1014C0002168143151E8001F21F0400021681431D7
:1014D00041E80002002AF3D100BF202084F8420036
:1014E0000020206300BF00BF21680C3151E8001FBD
:1014F00021F0100021680C3141E80002002AF3D1EC
:1015000000BFE06BFFF71AF902206063A08DE28D47
:10151000801A81B22046FFF7E7FE0EE052E0A08D70
:1015200040450AD1E06BC069B0F5807F05D102204B
:101530006063A18D2046FFF7D7FEF1E6FFE7A08D9F
:10154000E18D401A1FFA80F8E08DD0B3B8F1000F9A
:1015500037D000BF00BF21680C3151E8001F21F4D3
:10156000907021680C3141E80002002AF3D100BFDD
:1015700000BF00BF2168143151E8001F21F00100B5
:101580002168143141E80002002AF3D100BF202075
:1015900084F842000020206300BF00BF21680C31A6
:1015A00051E8001F21F0100021680C3141E80002D1
:1015B000002AF3D100BF0220606341462046FFF7B6
:1015C00093FEADE605F0800030B106F0800018B162
:1015D000204600F057FCA3E605F0400030B106F0CD
:1015E000400018B1204600F0A8F999E600BF97E640
:1015F000BD18000810B504460CB9012010BDA06943
:1016000000B100E000BF94F8410028B9002084F840
:101610004000204600F02AF8242084F84100206889
:10162000C06820F400502168C860204600F0C2FA6B
:101630002068006920F490402168086120684069B2
:1016400020F02A00216848612068C06840F40050FA
:101650002168C86000206064202084F8410084F87C
:1016600042000020606300BFC8E7000010B586B0EC
:101670000446142101A8FEF7DDFD124920688842C6
:101680001ED100BF002000900F48006840F001000C
:101690000D4908600846006800F00100009000BF96
:1016A00000BF4FF4C0600190022002900020039020
:1016B000032004900720059001A90448FFF7AEF825
:1016C00006B010BD0010014030380240000002405A
:1016D00070B504460D46164694F8420020280BD1FA
:1016E00005B10EB9012070BD0020206332462946A5
:1016F000204600F075FBF6E70220F4E770B50546DA
:101700002D492868884255D12C4804782C48007807
:1017100030B101280FD002281ED003283DD12DE082
:10172000532C07D127480470002027490870012056
:101730002349087037E0234844704078002807DDCB
:1017400020484078FF2803DC02201D49087002E091
:1017500000201B49087026E01B490878411C1A4AE2
:1017600011701849891C0C54881E4078114609785C
:10177000884202DC03201249087014E0452C06D18F
:10178000104880F801414178801C00F049FB00209E
:101790000B4908700C49087005E0002008490870E2
:1017A0000949087000BF00BF012204490748FFF73C
:1017B0008FFF00BF70BD0000001001401C00002022
:1017C0001D0000206C0200201E00002024000020CC
:1017D0002DE9F84F04460E46174699464FF0000A89
:1017E00094F84100202850D106B117B90120BDE876
:1017F000F88F00206064212084F84100FFF714F97D
:101800008246A784E784A068B0F5805F04D1206990
:1018100010B90025B04602E035464FF000081EE042
:101820005346002280212046CDF8009000F05AFB5C
:1018300020B1202084F841000320D8E745B9B8F84A
:101840000000C0F308002168486008F1020803E0C6
:101850002878216848606D1CE08C401EE084E08C94
:101860000028DDD15346002240212046CDF80090CB
:1018700000F038FB20B1202084F841000320B6E7B7
:10188000202084F841000020B1E70220AFE7704734
:1018900000BFFEE700BFFEE770477047704710B516
:1018A000FFF7C8F810BD00000348006840F470005E
:1018B000014908607047000088ED00E070B50446FB
:1018C000A56B0020E8852846FFF70FFD70BD00BF1F
:1018D00000BF02680C3252E8002F22F490710268B7
:1018E0000C3242E80013002BF3D100BF00BF00BF51
:1018F0000268143252E8002F22F00101026814320B
:1019000042E80013002BF3D100BF016B01290ED177
:1019100000BF00BF02680C3252E8002F22F0100115
:1019200002680C3242E80013002BF3D100BF2021E3
:1019300080F8421000210163704710B5044620680A
:10194000C06820F040002168C860202084F8410071
:101950002046FFF79CFF002010BD00000A480088C9
:101960000A490988884206DB074800880749098830
:10197000401A80B2704705480088C0F500700249DF
:101980000988084480B2F5E7180000201A000020FA
:1019900038B5044600BF002000901748006840F0AA
:1019A0001000154908600846006800F0100000901B
:1019B00000BF00BF1148124908600846446000217A
:1019C00081610C2141610021C1610161C1608160BF
:1019D000FFF710FE08B100BFFEE70022012125201D
:1019E000FFF787F82520FFF770F801220549044822
:1019F000FFF76EFE38BD0000443802400010014081
:101A0000240000201C0000200448008804490988A4
:101A1000884201D0012070470020FCE71800002018
:101A20001A00002000B50022FFF7EEFF70B1084851
:101A300008490988425C07490988481CC11700EB1E
:101A4000D1514912A0EB4121024B1980104600BD33
:101A50006C0000201A00002070B505460E460024D8
:101A600005E0FFF7DFFF2146621C94B26854B442E0
:101A700003DAFFF7C9FF0028F3D1204670BDF8B59F
:101A800004460025002694F84200222873D1A0685D
:101A9000B0F5805F0BD1206948B9A66A206840681C
:101AA000C0F308003080A06A801CA06214E0A56A20
:101AB000A068B0F5805F03D0A06828B9206918B984
:101AC00020684068287004E02068406800F07F00CB
:101AD0002870A06A401CA062E08D401E80B2E085A4
:101AE000002846D12068C06820F020002168C86026
:101AF0002068C06820F480702168C8602068406950
:101B000020F0010021684861202084F84200002074
:101B10006063206B012826D10020206300BF00BF36
:101B200021680C3151E8001F21F0100021680C31B0
:101B300041E80002002AF3D100BF2068006800F0ED
:101B4000100010280AD100BF002000902068006813
:101B5000009020684068009000BF00BFA18D204623
:101B6000FFF7C2FB02E02046FFF7C8FD0020F8BDEA
:101B700001E00020FBE70220F9E7000001B54FF08B
:101B8000FF33012269460248FFF722FE08BD00002C
:101B90002400002070B504462046FEF756FB85B2AF
:101BA0004FF0FF332A4621460148FFF711FE70BD72
:101BB000240000202DE9F84F04462068006920F435
:101BC0004050E1680843216808612169A068084322
:101BD00061690843E169084300902068C06849F2E0
:101BE0000C618843009908432168C86020684069F7
:101BF00020F44070A1690843216848617649206853
:101C0000884203D075492068884203D1FFF79CF8C9
:101C1000814602E0FFF788F88146E069B0F5004FA1
:101C20006CD102206168A0FB015003461920A9FB7A
:101C3000007001462A463846FEF7C4FA6421B0FB1C
:101C4000F1F04FEA001A02206168A0FB01510B4637
:101C50001920A9FB00712A463846FEF7B3FA8346DD
:101C600002206168A0FB015003461920A9FB007106
:101C70002A463846FEF7A6FA6421B0FBF1F000EBE5
:101C8000C00101EB0010ABEB8000322101EBC00082
:101C90006421B0FBF1F000F0F8000AEB400A0220EA
:101CA0006168A0FB015003461920A9FB00700146A2
:101CB0002A463846FEF786FA834602206168A0FB72
:101CC000015003461920A9FB00712A463846FEF749
:101CD00079FA6421B0FBF1F000EBC00101EB0010D8
:101CE000ABEB8000322101EBC0006421B0FBF1F0CE
:101CF00000F007005044216888606AE004206168B1
:101D0000A0FB015003461920A9FB007001462A469A
:101D10003846FEF757FA824604206168A0FB01505E
:101D200003461920A9FB007001462A463846FEF7F3
:101D300049FA6421B0FBF1F000EBC00101EB0010A7
:101D4000AAEB8000322101EB00106421B0FBF1F01E
:101D500000F0F00A04206168A0FB0170034619201E
:101D6000A9FB00513A462846FEF72CFA6421B0FB45
:101D7000F1F00AEB001A04206168A0FB01510B4648
:101D80001920A9FB00712A463846FEF71BFA834644
:101D900004206168A0FB015003461920A9FB0070D4
:101DA00001462A463846FEF70DFA6421B0FBF1F0F1
:101DB00000EBC00101EB0010ABEB8000322101EB26
:101DC00000106421B0FBF1F000F00F0050442168D6
:101DD0008860BDE8F88F0000001001400014014049
:101DE00010B5034699629A85DA850020586422204E
:101DF00083F84200186928B11868C06840F4807000
:101E00001C68E0601868406940F001001C6860616F
:101E10001868C06840F020001C68E060002010BD19
:101E200030B502460B46002022E0115C124C134DE7
:101E30002D886155114C2488611CCC1701EBD454BA
:101E40006412A1EB44240D4D2C80294609880C4CCA
:101E50002488A1420AD10A4C2488611CCC1701EBCA
:101E6000D4546412A1EB4424054D2C80411CC8B20B
:101E70009842DADB30BD00006C0000201800002022
:101E80001A000020014691F84100212828D18868D5
:101E9000B0F5805F0BD1086948B90A6A1088C0F3B1
:101EA00008000B685860086A801C086205E00B6A2D
:101EB000581C086218780B685860C88C401E80B2A5
:101EC000C88458B90868C06820F080000B68D860E2
:101ED0000868C06840F040000B68D8600020704778
:101EE0000220FCE72DE9F84304460D4617469846C4
:101EF000089E31E0701C70B3FEF796FDA0EB080061
:101F0000B04200D816B90320BDE8F8832068C06845
:101F100000F00400F8B1802D1ED0402D1CD02068A8
:101F20000068C0F3C000B0B100BF0020009020687E
:101F30000068009020684068009000BF00BF204605
:101F4000FFF7C5FC0820606400BF002084F8400053
:101F500000BF0120D8E7FFE7206800682840A842BA
:101F600001D1012000E00020B842C3D00020CBE71F
:101F700010B50248FFF7BAF910BD00002400002098
:101F800000BFFEE70FB4054B10B503A9044A029841
:101F900000F0F6F810BC5DF814FB0000F128000812
:101FA0002000002002480068C0F3022070470000B3
:101FB0000CED00E010B5002804DB0A07130E054AFB
:101FC000135406E00A07140E034A00F00F031B1F08
:101FD000D45410BD00E400E018ED00E002E008C8B1
:101FE000121F08C1002AFAD170477047002001E093
:101FF00001C1121F002AFBD1704700002DE9FF5FCD
:1020000082B00021DDE90430020DDDF840B0034369
:1020100018D044F61050A2F2FF3242431514119822
:1020200001281FD0A5EB0B00401C5FEA000A4FF00F
:1020300000064E4FDFF83891B046504615D5CAF12C
:10204000000413E0119801244AA3012801D16FEA8A
:102050000B010298119AC0E90031C0E9024206B0B2
:10206000BDE8F09FCBF10000DFE704460021404AC5
:10207000491842EB0450CDE9001012E0E00707D008
:1020800032463B4640464946FEF7C2F980468946FD
:1020900032463B4610461946FEF7BAF906460F4649
:1020A0006410002CEAD1DDE90401DDE90023BAF176
:1020B000000F06DAFEF7ACF942464B46FEF7A8F9E8
:1020C00005E0FEF717FA42464B46FEF713FA0446C0
:1020D0000E460022284BFEF795FA03D84FF0FF304A
:1020E000014607E00022254B20463146FEF7E9F87D
:1020F000FEF76FFA102409E0002C0ADB0A22002305
:10210000FEF760F8039B30321A55641E50EA010254
:10211000F2D1641C039AC4F111031444119A012AE8
:1021200003D0012208430DD10AE0084304D0002067
:102130004FF0110B119072E7A3EB0B056D1E0DE034
:102140005B4504DD4FF0000205F1010504E003DA10
:102150004FF00002A5F10105002AECD00298119978
:10216000C0E90231C0E9004579E7000000001440F1
:102170000000F03F300000000000F0430000E03FAE
:102180002DE9FF4F95B09A46884606460025EEE1B8
:10219000252877D100242746F94A0121039400E03D
:1021A000044316F8013F203B01FA03F01042F7D137
:1021B00030782A2811D06FF02F033078A0F1300248
:1021C000092A16D8039A44F0020402EB820203EBB8
:1021D00042021044761C0390EFE758F8042B039258
:1021E000002A03DA504244F40054039044F00204FD
:1021F000761C30782E2816D116F8010F44F004040E
:102200002A280DD06FF02F023078A0F13003092B6F
:1022100009D807EB870302EB4303C718761CF3E7E3
:1022200058F8047B761C30786C280FD006DC4C28DC
:1022300017D068280DD06A2814D104E0742810D073
:102240007A280FD10DE044F400140AE044F480141D
:1022500001E044F440147278824202D104F5801403
:10226000761C761C307866280BD013DC582877D083
:1022700009DC002875D04528F6D04628F4D0472838
:102280001AD193E118E0632835D0642879D0652805
:1022900012D18BE1702873D008DC6728F1D069284F
:1022A0006FD06E280DD06F2806D1ACE073282CD0EB
:1022B000752874D0782853D05246179990476D1CD2
:1022C00054E1C4F30250022809D003280DD0D8F8F5
:1022D000001004280DD00D6008F1040846E1D8F87C
:1022E0000010EA17C1E90052F6E7D8F800100D8097
:1022F000F2E70D70F0E718F8041B8DF800100020CD
:102300008DF80100EB46012003E058F804BB4FF0C4
:10231000FF3061074FF0000102D40DE009F1010127
:102320008946B9420FDA8145F8DB1BF8091000290C
:10233000F4D108E009F1010189468142FADB1BF87A
:1023400009100029F6D103985346A0EB090721464E
:102350003846179A00F080FA284400EB090507E098
:1023600044E008E10DE01BF8010B52461799904735
:10237000B9F10109F7D2534621463846179AF2E0DF
:1023800039E00A21C4F302524FF0000B0091022AF7
:1023900006D058F8040BC117032A09D00AE023E03D
:1023A00008F1070020F00702F2E80201904605E07C
:1023B00000B2C117042A01D140B2C117002906DAC0
:1023C0000A460021404261EB02012D2202E0220573
:1023D00004D52B228DF80420012203E0E20701D06E
:1023E0002022F7E7914657E00A2100E010214FF044
:1023F000000B00910BE010214FF0000B44F004049F
:102400000827009103E008204FF0000B0090C4F370
:102410000252022A05D058F8040B0021032A08D0E2
:1024200008E008F1070020F00702F2E802019046F8
:1024300003E080B2042A00D1C0B24FF000092207A5
:102440002AD53278702A07D0DDF800C08CF0100C45
:102450005CEA0B0C05D00EE040228DF8042001222E
:1024600008E050EA010306D030238DF804308DF8DF
:10247000052002229146009B83F0080353EA0B03D8
:102480000AD150EA010201D1620705D530228DF848
:1024900004204FF001097F1E3278582A04D039A257
:1024A0000C920CAA02920BE03BA2F9E75B46009A61
:1024B000FDF788FE0C9B9B5C029A521E02921370E1
:1024C00050EA0102F2D1029804A9081A00F1200B87
:1024D000600702D524F4803400E001275F4502DD67
:1024E000A7EB0B0000E0002000EB0B01009003982D
:1024F0004944401A0390E00306D453462146179AF4
:10250000039800F0A9F90544002706E001A8524607
:10251000C05D179990476D1C7F1C4F45F6DBE003AB
:102520000CD553462146179A039800F095F90544B7
:1025300004E030205246179990476D1C0099481EC0
:1025400000900029F5DC08E00298029952460078D4
:10255000491C0291179990476D1CBBF10001ABF12A
:10256000010BF1DC5BE100F065F90544761C307885
:1025700000287FF40DAE19B02846BDE8F08F0000AA
:102580000928010030313233343536373839616249
:10259000636465660000000030313233343536370D
:1025A000383941424344454600000000600700D4EA
:1025B000062708F1070020F00700F0E80223804614
:1025C00003F0004C5FEA0C0001D097A009E0200561
:1025D00001D596A005E0E00701D095A001E0AFF29B
:1025E0004C001390307823F0004365280CD006DCB3
:1025F000452809D046281DD047287FD13BE06628D2
:1026000018D067287AD136E00021112F01DB112084
:1026100000E0781CCDE9000104A90CA8FFF7EEFC4E
:10262000DDE90D010C9A4FF0000B07F10109109242
:1026300000914EE04FF000400097CDE9011004A951
:102640000CA8FFF7DBFCDDE90D020C9B0F994FF0A6
:10265000000B91461093009211B9791C00EB01090F
:10266000B7EB090003D4C0F1FF3B07F10109A9EB67
:102670000700019042E0012F00DA01270021112F0D
:1026800001DD112000E03846CDE9000104A90CA8C5
:10269000FFF7B4FCDDE90D010C9A00914FF0000B3F
:1026A000B946109221070FD4009A4A4503DA9146A1
:1026B00001E0A9F10109B9F1010F05DD109AA9F1B5
:1026C0000101515C3029F4D0B84202DA10F1040F54
:1026D00003DA0121CDE9011010E0002803DC834476
:1026E000A9EB000102E0411C494500DD8946A0EB51
:1026F0000B00401C01904FF000400290200705D4D1
:102700000198484502DB4FF0FF30019000208DF822
:102710004B0002980DF14B07B0F1004F25D002207D
:102720000C902B200D90029800280CDA4042029069
:102730002D200D9007E00A210298FDF78DFD303124
:10274000029007F8011D0C99481E0C900029F2DC3C
:1027500002980028EFD1791E0D980870307800F0AB
:10276000200040F0450007F8020D11A8C01BC01D55
:1027700002901398007800B1012000EB0901019844
:1027800001EBE071029801440398401A401E039047
:10279000E00306D453462146179A039800F05CF8EC
:1027A00005441398007818B15246179990476D1C4C
:1027B000E00323D553462146179A039800F04CF8BE
:1027C00005441BE0BBF1000F07DB0098584504DD12
:1027D0001098179910F80B0001E017993020524615
:1027E000904701980BF1010B401E05F10105019086
:1027F00004D12E205246179990476D1CB9F1000163
:10280000A9F10109DEDC05E017F8010B5246179922
:1028100090476D1C0299481E02900029F4DC534633
:102820002146179A03989EE62D0000002B00000019
:10283000200000002DE9F041044600251E46174601
:10284000880404D405E039462020B0476D1C641E7E
:10285000F9D52846BDE8F0812DE9F0410446002570
:102860001E469046C80301D5302700E02027880483
:1028700004D505E041463846B0476D1C641EF9D5C5
:102880002846BDE8F081000001490860704700005B
:102890000400002010B504464FF47A7104FB01F0E7
:1028A00000F002F810BD000070B5034600224FF0A2
:1028B000E02675690D4E366803FB06F44FF0E026FE
:1028C000B16910E04FF0E026B06988420BD0884231
:1028D00002D20E1A324402E02E1A0E44324401464D
:1028E000A24200D300E0EDE700BF70BD040000206D
:1028F00070B504460D46E0B2FFF740F9204670BDC2
:1029000000B587B000BF002001904148006840F04A
:1029100001003F4908600846006800F0010001908E
:1029200000BF00BF00BF002001900846006840F0D3
:10293000020008600846006800F00200019000BF35
:1029400000BF00BF002001900846006840F008006A
:1029500008600846006800F00800019000BF00BF52
:1029600000BF002001900846006840F01000086099
:102970000846006800F01000019000BF00BF14215D
:1029800002A8FDF757FC01200390002004900220CC
:1029900005902020029002A91E48FDF73FFF20204D
:1029A000029002A91C48FDF739FF4FF480400290C5
:1029B00002A91A48FDF732FF4FF48040029002A9A5
:1029C0001748FDF72BFF0220029002A91448FDF7DB
:1029D00025FF4FF48070029002A90F48FDF71EFFFB
:1029E000012291030E48FEF713F8012291030B48D0
:1029F000FEF70EF8012220210648FEF709F8002212
:102A00004FF480710448FEF703F807B000BD0000E2
:102A1000303802400000024000040240000C024036
:102A200000100240ADF5007D002500264FF4007136
:102A30006846FDF7FFFBFEF709F80723022208218D
:102A40004FF4A87000F08CFAA820FFF71DFF4FF498
:102A5000E130FEF79DFF00F039F914A0FFF79AF876
:102A600016A0FFF78FFA20E0FEF7CEFF0646002EF5
:102A70001BD0FEF773FF054629461BA0FFF782FA1D
:102A800029466846FEF7E8FF1EA0FFF77BFA002400
:102A900006E01DF8041020A0FFF774FA601C84B251
:102AA000AC42F6DB04A0FFF76DFADDE748656C6C1D
:102AB0006F2C2055415254210D0A00005072696E4E
:102AC0007466207265646972656374656420746FEE
:102AD0002055415254207375636365737366756C3A
:102AE0006C79210D0A000000417661696C61626CAD
:102AF000652044617461204C656E6774683A2025D6
:102B0000640D0A00526563656976656420446174EA
:102B1000613A200D0A0000002563000070B50446EC
:102B200000251BE0002220210E48FDF771FF04F074
:102B3000800028B1012220210B48FDF769FF04E045
:102B4000002220210848FDF763FF6006040E0122E1
:102B500020210448FDF75CFF681CC5B2082DE1DBAD
:102B600070BD0000000002400004024010B50122C8
:102B700011020248FDF74CFF10BD000000040240A6
:102B800010B500224FF480710148FDF741FF10BDE0
:102B90000004024038B50446064800944088401EB0
:102BA00083B204480088401E82B20021084600F02B
:102BB0002BF838BD1200002010B501229103024805
:102BC000FDF726FF10BD00000010024010B50022E6
:102BD0004FF480410148FDF71BFF10BD001002407B
:102BE00010B5012291030248FDF712FF10BD00004D
:102BF000000C024010B500224FF480410148FDF75F
:102C000007FF10BD000C02402DE9F04FADF2044D5E
:102C100007468B4614461D46A74201DCAB4503DD43
:102C20000DF2044DBDE8F08F27480088A04203DC78
:102C300025480088401E84B223484088A84203DC0F
:102C400021484088401E85B22B46224659463846C8
:102C500000F020F9E01B401CA5EB0B01491C00FB18
:102C600001F64FF40078DDF82804011241EA002053
:102C700080B20090002004E001AA009922F8101010
:102C8000401C4045F8D3FFF7A1FFFFF7A9FF15E06F
:102C9000464501D9404600E0304681464FF0000AE3
:102CA00006E001A911F80A00FFF738FF0AF1010A4E
:102CB000BAEB490FF5D3A6EB090600BF002EE7D10A
:102CC000FFF77AFF00BFABE71200002010B5FFF757
:102CD00017FEFFF74BFF00F08DF8112000F028F9E8
:102CE000C820FDF795FD002000F098F800F006F8E8
:102CF0000020FFF74FFFFFF743FF10BD1FB53A203D
:102D000000F016F9052000F01FF9B22000F010F9CC
:102D10002DA103C9CDE90201052102A800F0F3F8B5
:102D2000B72000F005F9352000F00EF9BB2000F0C7
:102D3000FFF8322000F008F9C22000F0F9F8012075
:102D400000F002F9C32000F0F3F8152000F0FCF8C1
:102D5000C42000F0EDF8202000F0F6F8C62000F0C6
:102D6000E7F80F2000F0F0F8D02000F0E1F818A00C
:102D700000680390022103A800F0C5F8E02000F0ED
:102D8000D7F814A090E80E00C0688DE80E000390FC
:102D90000E21684600F0B7F8E12000F0C9F811A351
:102DA000D3E90021D3E90203CDE90203CDE90021F3
:102DB0000E21684600F0A7F8212000F0B9F829207C
:102DC00000F0B6F81FBD00000C0C0033330000000B
:102DD000A4A10000D0080E090905313348171415C5
:102DE00031340000D0080E09091531334817141585
:102DF0003134000010B5002202210748FDF708FE1B
:102E00003220FDF705FD012202210348FDF700FEF7
:102E10007820FDF7FDFC10BD0010024010B50446FF
:102E20001B480471362000F083F834B1012C0ED019
:102E3000022C16D0032C28D11DE0F0201449088064
:102E40004FF4A0704880002000F07EF81EE04FF4A0
:102E5000A0700F490880F0204880C02000F074F86E
:102E600014E0F0200A4908804FF4A07048807020D8
:102E700000F06AF80AE04FF4A07005490880F020DD
:102E80004880A02000F060F800E000BF00BF10BD47
:102E9000120000202DE9F05F04460D4616461F463D
:102EA0001FFA84F81FFA86F91FFA85FA1FFA87FBC2
:102EB0002A2000F03DF84FEA282000F045F808F0FD
:102EC000FF0000F041F84FEA292000F03DF809F03A
:102ED000FF0000F039F82B2000F02AF84FEA2A20F2
:102EE00000F032F80AF0FF0000F02EF84FEA2B2035
:102EF00000F02AF80BF0FF0000F026F82C2000F07C
:102F000017F8BDE8F09F70B506460C4604B970BDD1
:102F1000FFF75CFEFFF764FE002503E0705DFFF73E
:102F2000FDFD6D1CA542F9D3FFF746FE00BFEEE79D
:102F300010B50446FFF74AFEFFF75CFE2046FFF798
:102F4000EDFDFFF739FE10BD10B50446FFF73EFE5C
:102F5000FFF746FE2046FFF7E1FDFFF72DFE10BD0F
:102F60002DE9F04192B080460C4615461E460027DA
:102F7000302106A8FDF75EF9142101A8FDF75AF9E2
:102F800000BF002000902A48006840F08050284987
:102F900008600846006800F08050009000BF00BF45
:102FA00000BF002000902348006840F48040214981
:102FB00008600846006800F48040009000BF00BF31
:102FC000012006900004079002200C9041050D910D
:102FD000CDF83C800E941095119606A8FDF71CFFC5
:102FE00007461FB1012012B0BDE8F0810F2001900B
:102FF00002200290002003904FF4A05004904FF460
:1030000080500590052101A8FDF7C6FD07460FB1C8
:103010000120E8E7FDF702FD41F20101884205D1F8
:103020000548006840F48070034908600020DAE732
:103030004038024000700040003C024000000000A8
:103040000000000001020304060708090000000058
:103050000102030474300008000000202400000076
:10306000DC1F000898300008240000204C070000F6
:10307000EC1F00080024F400000000000000000025
:10308000100000000100F0004001000000000000FE
:08309000000000000000000038
:040000050800018965
:00000001FF
